:100000000C94FB020C9433030C9433030C943303D1
:100010000C9433030C9433030C9433030C94330388
:100020000C9433030C9433030C9425180C94E117AF
:100030000C948B210C9433030C9433030C943303F2
:100040000C9433030C9433030C9433030C94330358
:100050000C9433030C940C190C9433030C94330359
:100060000C9433030C9433030C9433030C94330338
:100070000C9433030C9433030C9433030C94330328
:100080000C9433030C9433030C9433030C94330318
:100090000C9433030C9433030C9433030C94330308
:1000A0000C9433030C9433030C943303050109803F
:1000B000A101850319012AB700150126B700950192
:1000C00075108100C0050C0901A101850419012AE0
:1000D000A002150126A002950175108100C005013E
:1000E0000906A1018506050719E029E71500250184
:1000F0009508750181020507190029EF15002501F2
:1001000095F075018102050819012905950575010C
:100110009102950175039101C00660FF0961A1017B
:100120000962150026FF00952075088102096315F4
:100130000026FF00952075089102C005010906A15F
:1001400001050719E029E7150025019508750181CA
:10015000029501750881010507190029FF15002680
:10016000FF0095067508810005081901290515008D
:100170002501950575019102950175039101C0292D
:10018000003A003B003C003D003E003F0040004183
:100190000042004300440045004C0035001E001F93
:1001A0000020002100220023002400250026002733
:1001B000002D002E002A002B0014001A0008001544
:1001C0000017001C0018000C00120013002F003054
:1001D000003100E22104001600070009000A000BAC
:1001E000000D000E000F003300340028004A00E12B
:1001F000001D001B0006001900050011001000364C
:100200000037003800E50052004B00E000AD52E33B
:1002100000E2002C004D002C00E400E600215250CA
:100220000051004F004E00007C0100010001000160
:1002300000010001000100010001000100010001B6
:1002400000010001000100010001000100010001A6
:10025000000100010001002078287827780100467D
:1002600000010001000100010001004A004E004BA6
:10027000004D0046000100010001000100010001E5
:10028000000100010001005000510052004F000128
:100290000001000100AE00010001000100010001A9
:1002A0000001000100010001000100010001004BFC
:1002B00000A90001000100010001000100A80001E7
:1002C000000100010001004A004E004D00AA00019B
:1002D0000001000100010001000100010001000116
:1002E0000001000100010001000100010001000106
:1002F00000010001000100010001000100010001F6
:1003000000010001000100010001000100010001E5
:1003100000010001000100010001000100010001D5
:1003200000010001000100010001000100010001C5
:1003300000010001000100010001000100010001B5
:1003400000010001000100010001000100010001A5
:100350000001000100010001000100010001000195
:100360000001000100010001000100010001000185
:100370000001000100010001000100010001000175
:100380000001000100010001000100010001000165
:100390000001000100010001000100010001000155
:1003A0000001000100010001000100010001000145
:1003B0000001000100010001000100010001000135
:1003C0000001000100010001000100010001000125
:1003D0000001000100010001000100010001000115
:1003E0000001000100010001000100010001000105
:1003F00000010001000100010001000100010001F5
:1004000000010001000100010001000100010001E4
:1004100000010001000100010001000100010000D5
:1004200001010101010101010102020202020202B5
:100430000202030303030303030304040404040488
:10044000040505050505060606060607070707074E
:1004500008080808090909090A0A0A0B0B0B0C0C01
:100460000C0D0D0D0E0E0E0F0F0F1010111111129D
:100470001213131414151516161717181819191A1C
:100480001A1B1B1C1D1D1E1E1F202021222223247F
:1004900024252626272829292A2B2C2D2D2E2F30BE
:1004A000313232333435363738393A3B3C3D3E3FD2
:1004B000404142434445464748494A4C4D4E4F50BF
:1004C000515354555658595A5B5D5E5F616264657D
:1004D0006668696B6C6D6F7072737577787A7B7D07
:1004E0007E8082838587888A8C8E8F91939596985B
:1004F0009A9C9EA0A2A3A5A7A9ABADAFB1B3B5B777
:10050000BABCBEC0C2C4C6C9CBCDCFD1D4D6D8DB4D
:10051000DDDFE2E4E7E9EBEEF0F3F5F8FAFDFF09E1
:10052000025B00030100A0FA0904000001030101BD
:100530000009211101000122440007058103080080
:10054000010904010002030000000921110100015A
:100550002222000705820320000107050303200073
:10056000010904020001030000000921110100013A
:10057000226D000705840320000112010002000023
:1005800000088433010001000102000150034C0007
:10059000610075006E0063006800200043006F007A
:1005A0006E006600690067007500720061006200FD
:1005B0006C00650020004B006500790062006F0050
:1005C000610072006400200028006C00610075006A
:1005D0006E00630068005F00310029000000120314
:1005E000530079007300740065006D003700360019
:1005F00000000403090411241FBECFEFDAE0DEBFC0
:10060000CDBF04B603FE18C080911007909111076A
:10061000A0911207B09113078730904BA740B04BC1
:1006200059F41092100710921107109212071092AD
:100630001307E0E0F8E3099513E0A0E0B1E0E0EE95
:10064000F6E502C005900D92AA34B107D9F727E06C
:10065000AAE4B3E001C01D92A031B207E1F70E9405
:10066000B2210C94F42A0C94000090910807937026
:1006700071F08093090760930A07413B08F040EB53
:1006800040930B07809107078160809307070895C7
:10069000482F2091D60690919D0657E0291302C05D
:1006A00080E0089530E0529FF001539FF00D112437
:1006B000E256F94F8181681306C08081481303C058
:1006C00085818111EECF2F5F3F4F2770E7CFE8ED97
:1006D000F0E080818E7F80831092E2001092DA0039
:1006E0001092E100A0EEB0E08C9181608C9380814B
:1006F0008F77808319BCA7EDB0E08C918E7F8C93AF
:1007000080818F7E80831092880608952091E40076
:100710003091E50095E6A9012091EC00822F8170CF
:1007200020FF06C08091E80080FF06C080E00895A9
:100730002091E80022FD1AC080919306882389F059
:10074000853089F08091EB0085FD0FC02091E40099
:100750003091E50042175307F9F29150E1F684E039
:10076000089582E0089583E0089581E008958091DE
:10077000950687FF13C08091E80082FF06C0809134
:10078000E8008B778093E80004C080919306811184
:10079000F2CF0895809193068823D9F38091E800E1
:1007A00080FFF8CF8091E8008E77ECCF982F909360
:1007B000E900242F762F50E0891731F07091EC007A
:1007C0002091ED005091F00021FD07C09F5F973010
:1007D00071F78093E90081E008953091EB003E7F4E
:1007E0003093EB003091ED003D7F3093ED00309180
:1007F000EB0031603093EB007093EC002093ED0040
:100800005093F0002091EE0027FDE0CF80E00895A6
:10081000B0E0A0E0EEE0F4E00C942F2AC8EDD0E0C8
:1008200088818F7E8883E7EDF0E08081816080831E
:1008300084E082BF81E08093880688818E7F8883F0
:1008400002EE10E0F80110821092DA0081EEC82E5C
:10085000D12CF601108288818F7788838881806807
:10086000888388818F7D888319BC109293061092AB
:100870009406109292061092910690EEE92EF12CB9
:10088000F70180818B7F808388818160888342E04B
:1008900060E080E00E94D603F60180818E7F808335
:1008A000F801808181608083808188608083F70186
:1008B00080818E7F8083888180618883CDB7DEB719
:1008C000E8E00C944B2AFC0180919B0690919C06D9
:1008D00086179707A0F06115710529F49091E8003B
:1008E0009E779093E80090E06115710551F49111A5
:1008F00008C08091E80082FF34C080E00895BC0108
:10090000F2CF809193068823C1F18530C1F18091A7
:10091000E80083FD30C08091E80082FDEACF80913D
:10092000E80080FFE1CF8091F3002091F200382FA2
:100930006115710519F02830310558F091E0283023
:10094000310509F090E02091E8002E772093E8002F
:10095000CBCF81918093F100615071092F5F3F4FA0
:10096000E7CF80919306882341F0853041F0809154
:10097000E80083FFBECF81E0089582E0089583E020
:100980000895089580914C01089590914D01913002
:10099000D1F49091810697FF16C0E82FE695E69571
:1009A000E695EE31E0F4F0E0EC5AFC4F282F27708A
:1009B00081E090E001C0880F2A95EAF78095928146
:1009C000892382830895EEE4F3E09191891303C0B3
:1009D000DF0111971C9293E0E435F907B1F7089510
:1009E00090914D019130C1F49091810697FF14C010
:1009F000E82FE695E695E695EE31F8F4F0E0EC5A4E
:100A0000FC4F877021E030E001C0220F8A95EAF7A1
:100A10008281822B82830895AEE4B3E0EFEF90E011
:100A20002D91821751F0EF3F19F4211101C0E92FE8
:100A30009F5F9630A9F7EF3F09F408950E2E000C42
:100A4000FF0BE45BFC4FE6CFA3E0B0E0EAE2F5E0A9
:100A50000C94352A20917F0630918006281739079B
:100A6000A1F09093800680937F06E0917D06F0913F
:100A70007E06309751F024E029839B838A8300848B
:100A8000F185E02DCE01019609952396E2E00C94C4
:100A9000512AA3E0B0E0EFE4F5E00C94352A209170
:100AA0007B0630917C0628173907A1F090937C06CD
:100AB00080937B06E0917D06F0917E06309751F0A1
:100AC00023E029839B838A830084F185E02DCE0176
:100AD000019609952396E2E00C94512AE0917D0657
:100AE000F0917E06309729F00190F081E02D099574
:100AF000089580E00895FC01EE0FFF1FE80FF91F35
:100B0000E158FA4F6183408322830895EFE7F5E0CF
:100B1000818360834283339696E0EB37F907C1F710
:100B200008956A9A0895FC019B01AC0197FF04C0E7
:100B300044275527481B590BBA01620F731F37FD15
:100B40000FC0241B350BC901A5E0880F991FAA957A
:100B5000E1F70E945C2A80E2861BF7FD81950895EB
:100B6000CB0165E0880F991F6A95E1F7BA01621B16
:100B7000730B0E945C2A80E6EFCFE8E0F7E0248167
:100B800030E1231B08F420E0248380910707816073
:100B9000809307070895E8E0F7E0248130E1230F10
:100BA00008F42FEF24838091070781608093070763
:100BB0000895E8E0F7E0438120E1421B08F440E0BB
:100BC0008181628190E00E9435030895E8E0F7E0BA
:100BD000438120E1420F08F44FEF8181628190E070
:100BE0000E9435030895E8E0F7E0628120E1621B8E
:100BF00008F460E08181438190E00E94350308950C
:100C0000E8E0F7E0628120E1620F08F46FEF818194
:100C1000438190E00E9435030895E8E0F7E0818188
:100C2000438162818850990B0E9435030895E8E062
:100C3000F7E0818190E04381628108960E9435034C
:100C4000089590910807937061F081110BC0946032
:100C5000909308071092480180910707862B809394
:100C600007070895803110F09C63F2CF880F880F3A
:100C7000982BEECF8091080786958695815009F4D0
:100C80008FE061E00E942106089580910807869513
:100C900086958F5F803108F081E061E00E94210637
:100CA0000895E8E0F7E0808191E089278083109241
:100CB000480180910707816080930707089591E1BB
:100CC000899F802D1124980F953508F094E508959B
:100CD000EF92FF920F939701201B31092F3F3105AF
:100CE00019F010F02FEF30E0322F3095482F430FDE
:100CF00008F44FEF842F620F0F91FF90EF9008954B
:100D0000EF920F93972F23E0029FB0011124759566
:100D100067956E0D792F0F91EF900895322F50E067
:100D2000FA01EE0FFF1FE25BFD4F9081905297FD9D
:100D30009195440F551FFA01E35BFD4F2081231B62
:100D4000330B290F311D97FD3A95620F0895E42F5B
:100D5000F0E0EE0FFF1FE25BFD4F6081621B089524
:100D6000E42FF0E0EE0FFF1FE35BFD4F6081621B9D
:100D70000895622F08950E94860508950E947B05BC
:100D80000895EF920F93CF93DF93D72FC82FC90108
:100D90000E19009729F480E857FD05C080E003C0D4
:100DA000BA010E949305602F681B7D2F8C2FDF9165
:100DB000CF910F91EF9008950F93CF93DF93D72F9B
:100DC000C82FC901009729F480E857FD05C080E0CD
:100DD00003C0BA010E949305602F680F7D2F8C2FEE
:100DE000DF91CF910F910895AC018230910508F405
:100DF00008959FEF413E8EE1580740F49A0195E037
:100E0000369527959A95E1F798E0920F61E0E62FE5
:100E1000E90FFF27FF1F9F0135952795822F229FFE
:100E2000F001239FF00DF00D11244E175F0738F4E9
:100E30009FEF920F961758F78FEF860F08952F3F69
:100E4000E9F361E0620FF6CF0F93CF93DF93D72FD3
:100E5000C82F47FD419588E390E0841B910947FD29
:100E60009395889FB001899F700D700D1124229F6A
:100E7000C001239F900D900D1124860F971F0E9493
:100E8000F406982F990F890F682F600F7D2F8C2FF4
:100E9000DF91CF910F91089530E020E0869F212DC2
:100EA000969F200D311D1124C9010895B0E0A0E0E6
:100EB000ECE5F7E00C942F2A9B01E82FF0E0E15ECF
:100EC000FB4F311109C0E4918E2F7E2F6E2FCDB7CD
:100ED000DEB7E8E00C944B2AE32EF12CE491FE2FD0
:100EE0000E2F10E046E0649FC0011124CFEFD0E048
:100EF000BE010E94112AAB01822F90E0880F991F3A
:100F000025E5249FB001259F700D1124861B970BAA
:100F1000982F990F980FBE016E197F09609FD0011D
:100F2000619FB00D709FB00D11248B2F399F9001E0
:100F30001124232F3327BE01621B730B609F900186
:100F4000619F300D709F300D11246E01C91AD108B8
:100F5000CE9CB001CF9C700DDE9C700D1124672FCC
:100F60007727C61BD70BC09F7001C19FF00CD09F85
:100F7000F00C11247F2D42305105A1F050F44115A1
:100F8000510509F4A3CF4130510581F07B2F832F08
:100F90009DCF4430510569F080F04630510509F489
:100FA00095CFF4CFEB2F8F2D7F2F90CF7E2FE32F78
:100FB0008DCFEF2D7B2F8F2F89CF732FEB2FFBCF73
:100FC0000F931F93CF93DF93EC01FC01EB50FD4F88
:100FD00080816823C9F100910A0710910B074091A5
:100FE0000907E42FF0E06091490170914A0185E022
:100FF00098E0689F9001699F300D789F300D112413
:10100000275E394C30934A0120934901CF018C541B
:101010009F4F68E671E00E945C2A8E1B9F0B97FD34
:1010200003969595879595958795230F2370642F43
:10103000289F600D1124702F812F0E945607472F83
:10104000282FCE010E94BE06DF91CF911F910F91F4
:101050000895A6E0B0E0EFE2F8E00C94252A282EEF
:1010600080914F010E945F0699832091DB062A83BD
:10107000E82FF0E0FE83ED83CF01880F991F9C01DC
:10108000235B3D4F6901822D90E0FC013196FC838A
:10109000EB83E981FD81FE1740F081E0E43508F043
:1010A00080E02696E2E10C94412AED81FE81EB502E
:1010B000FD4F8081909150018923E9F0409009070C
:1010C00050900A072B813C812552394F3901322C2F
:1010D00010E03A813316C0F020910B07129F112DBA
:1010E0001124B201812F0E945607472F282F8D818E
:1010F0009E810E94BE068D819E8101969E838D8376
:1011000092E0C90ED11CC5CFF30181913F01F601D8
:10111000A080A81ABB088180F3018781881A9908EA
:10112000AA9C9001AB9C300D300D1124889CC0010D
:10113000899C900D900D1124820F931F0E94F4063C
:10114000082F60910C0721E0620F08F46FEFF301A4
:10115000EE0FFF1FEB5DF640858996890E944C07D4
:101160007C019401A501B201812F0E9468062B0128
:101170003394182FAECFB0E0A0E0E1ECF8E00C948F
:101180002B2A6C0180914F010E945F06C82F192FF6
:1011900060910C0766958091D7069091D8060E94C1
:1011A0004C07F82ED0E0C11748F081E0143508F064
:1011B00080E0CDB7DEB7ECE00C94472AFE01EB509F
:1011C000FD4F8081909150018923C1F1CE01880F9C
:1011D000991F87509E4FFC01EC5AFF4F2081422FF0
:1011E0004057550B5A018B5A9F4FFC018081282F85
:1011F0002052330B4901449F9001459F300D300D23
:101200001124889CC001899C900D900D1124820F9F
:10121000931F0E94F406082F6091090770910A0736
:1012200080910B07EF2C9401A501F60109950E940E
:101230005607472F282FCE010E94BE062196B3CF16
:10124000B0E0A0E0E6E2F9E00C94302A7C01809165
:101250004F010E945F06C82F192F60910C076695F9
:101260008091D7069091D8060E944C07D82ED0E0E6
:10127000C11748F081E0143508F080E0CDB7DEB743
:10128000E7E00C944C2AFE01EB50FD4F80819091D9
:101290005001892309F1CE01880F991F87509E4F75
:1012A000FC01EB5AFF4F20812052330B8C5A9F4F89
:1012B000FC0140814057550B6091090770910A0766
:1012C00080910B070D2DF70109950E945607472FB6
:1012D000282FCE010E94BE062196CACFEF92FF9220
:1012E0000F931F93CF93DF937C0180914F010E9456
:1012F0005F06C82F192F60910C076695669521E04F
:10130000620F08F46FEF8091D7069091D8060E9483
:101310004C07082FD0E0C11748F081E0143508F0E1
:1013200080E0CDB7DEB7E6E00C944D2AFE01EB502D
:10133000FD4F808190915001892389F060910907C8
:1013400070910A0780910B07202F4C2FF701099508
:101350000E945607472F282FCE010E94BE062196D5
:10136000DACF80E00895F894E82FE295EF70F0E08E
:1013700031A1282F2F7081E090E001C0880F2A95BD
:10138000EAF7982F9095932391A392A1892B82A39A
:10139000789408959091810692FF10C041E0282F23
:1013A0002471243009F040E031E0282F28712830E2
:1013B00009F030E0431711F02CE0822793FF10C0B2
:1013C00041E0282F2471243109F040E031E0282F3A
:1013D0002871283109F030E0431711F02CE0822702
:1013E0003091820630FF10C051E0282F217121304A
:1013F00009F050E041E0282F2871283009F040E042
:10140000541711F029E0822731FF10C041E0282F46
:101410002171213109F040E031E0282F2871283175
:1014200009F030E0431711F029E0822794FD877E10
:10143000089582389105B9F1B0F48133910509F42A
:101440007DC048F48932910509F46DC08A32910556
:1014500009F47BC008958533910509F45FC0893391
:10146000910509F10895833E9105D9F138F4803E44
:10147000910529F1823E910579F10895863E910505
:10148000D9F1873E910509F43EC0843E910541F5AE
:101490002091820621FF24C08091810684FD19C01D
:1014A00087EE90E0089520918106237009F05AC0DC
:1014B0002091820623FF14C089E290E008952091D4
:1014C000810620FD38C03091820630FF09C024FF1C
:1014D00043C090E080E008952091810622FDF7CF7F
:1014E00008952091810622FD3AC03091820630FD98
:1014F00039C024FFF5CFEDCF2091810623FFF0CF37
:1015000024FDE7CFCDCF2091810623FD2EC0309161
:10151000820631FFEECF84EE90E00895209181069F
:1015200025FFDECFC9CF2091810625FD21C0209166
:10153000820623FFD5CF89E390E0D2CF20918106A8
:1015400026FFCECF8AE290E008952091810626FF03
:10155000C7CF81E390E0089583EE90E0089582EE96
:1015600090E0089580EE90E0089586EE90E0089572
:1015700085E390E008951F93CF93DF930E94190AAB
:10158000EC01C11580E5D807F0F5C11580E4D80756
:1015900008F09CC0C03ED10520F5CD3CD10508F037
:1015A00082C0C83AD10578F4C53AD10508F073C0B5
:1015B000C130D10519F1209709F1C430D105F0F4FB
:1015C000D0E0C0E01BC0C33CD105D0F7C85AD0E082
:1015D000CC0FDD1FCF57DE4F0990D881C02DD464CA
:1015E0000DC0C11580E2D80708F0D1C0C11581E057
:1015F000D80708F05AC0C83ED10510F7CE01DF91D8
:10160000CF911F910895C03682E5D80718F5C034F0
:1016100082E5D80708F06BC0C03282E5D80708F031
:101620005FC0C11582E5D80708F497C02C2F269516
:10163000269580E2289F900111248C2F8370C1E0B1
:10164000D0E002C0CC0FDD1F8A95E2F7C22BD32B6E
:10165000DD68D4CFC03A82E5D80760F4C03882E5AF
:10166000D80708F459C0CF71D0E0DC2FCC27C46F65
:10167000D06AC4CFC03C82E5D80708F462C0C03E3F
:1016800082E5D80708F09CCFDC2FCC27CC27DF7170
:10169000C06FD06AB3CFC55AD0E0C258DE4FC88100
:1016A000D0E0D064ABCFD065A9CF8D2F0E94CA09FE
:1016B000182FCE0199270E94190AC12FD0E0DC2FE4
:1016C000CC27CC27DF71C82BD92B98CFCE019927F7
:1016D0000E94190ACC27DF70C82BD92BD06A8ECF75
:1016E000CF71D0E0DC2FCC27C16FD06A87CF2C2FF1
:1016F00026952695277080E2289F900111248C2F33
:101700008370C1E0D0E002C0CC0FDD1F8A95E2F704
:10171000C22BD32BDC6872CF2C2F269526952770F1
:1017200080E2289F900111248C2F8370C1E0D0E0CB
:1017300002C0CC0FDD1F8A95E2F7C22BD32BDA68EB
:101740005DCF8C2F8F710E94CA09C82FD0E0DC2F8B
:10175000CC27CC27DF71D06251CF8C2F8F710E94A4
:10176000CA0955E0D695C7955A95E1F7CF70D0E0F4
:10177000DC2FCC27282F30E084FF05C044E0220F67
:10178000331F4A95E1F7C22BD32BD06937CF8D2F6A
:101790008F710E94CA09182FCE0199270E94190A39
:1017A000C12FD0E0DC2FCC27CC27DF71C82BD92B61
:1017B000D2CF80959091C90398239093C90308953F
:1017C0008091C9039091A003892B90919F03992345
:1017D00091F0892B90914D01913071F49091810697
:1017E00097FF0AC09EE126E533E040E0915040F4C7
:1017F000411110929F03089596E02EE433E0F5CF57
:10180000F90151919F01552389F34F5FEFCF8091EB
:10181000D60690919D06981301C008958F5F87703A
:10182000FACF292F963078F58E3068F590E03EE0BB
:10183000239F800D911D1124682F677023E09695DA
:1018400087952A95E1F7FC01EE0FFF1FE80FF91FBE
:10185000EA58FC4F50E040E080E0219130E0062E55
:1018600002C0369527950A94E2F721703327042E9B
:1018700001C0220F0A94EAF7822B4F5F5F4F43307B
:10188000510559F7089580E00895292F963098F56D
:101890008E3088F590E03EE0239F800D911D11244D
:1018A000282F277041E001C0440F2A95EAF723E072
:1018B000969587952A95E1F7FC01EE0FFF1FE80F3B
:1018C000F91FEA58FC4F30E020E070E05191DF0151
:1018D0001197CB01022E02C0969587950A94E2F7E4
:1018E000817081958527842385278C932F5F3F4FB7
:1018F0002330310559F708958093DB030895982F1D
:1019000092959F7011F0892F94E0282F26952695A7
:1019100011F09E5F822F869509F09F5F892F0895B1
:101920000E947F0C843068F498E0899FF0011124B4
:10193000E25EFE4F88E0A8E0B7E001900D928A9544
:10194000E1F70895CF93C82F0E94900CC0934E04E6
:10195000CF91089521E030E001C0220F8A95EAF787
:10196000209580914E0482230E94A20C08959091AC
:101970009E038095892380939E03282F277069F406
:10198000891759F09091820692FF07C08695869537
:1019900086950E94AA0C10929E03089521E030E0E3
:1019A00001C0220F8A95EAF780914E04822B0E9493
:1019B000A20C0895EEE1F1E083838387838B838F0C
:1019C00080914E040E94900C0895A3E0B0E0EBEEED
:1019D000FCE00C94352A209156013091570140913A
:1019E000580129833A834B83FC01808124E630E04F
:1019F00043E050E0BE016F5F7F4F880F0E945F2879
:101A00002396E2E00C94512AADE0B0E0EAE0FDE07C
:101A10000C942F2A8C017901CDB6DEB619821A8278
:101A200086E08B8381E08C8384E08D838FEB8E83D3
:101A30006F8354274527542759874887F8018081A9
:101A400024E630E049E050E0BE016F5F7F4F880F31
:101A50000E945F2897FD2BC0C8010E94E50C97FDEE
:101A600026C0F801808104E610E024E030E0AE01F9
:101A7000465F5F4F66E070E0880F0E947B2997FD0C
:101A800016C02B853C858D8590E0B0E0A0E0DC01A0
:101A900099278827932B822BF70180839183A28338
:101AA000B38384E090E02D96E8E00C944B2A0FB6C7
:101AB000F894DEBF0FBECDBFF6CFA9E0B0E0E3E6FD
:101AC000FDE00C942D2A6C01EDB6FEB619821A8247
:101AD00086E0800F8B831C820D83CB01BA010E94AC
:101AE000762A6E837F838887998749E0400F50E08C
:101AF0008DB79EB7841B950B0FB6F8949EBF0FBE93
:101B00008DBF6DB77EB76F5F7F4FDE011196FB0112
:101B10000A96BD90B192E817F907D9F75901A00EBE
:101B2000B11EF90189E0821BA82FAE0F9191A60F7B
:101B3000B72FB11D9C93EA15FB05B1F7F601808123
:101B400024E630E0880F0E945F28C6010E94E50C61
:101B500097FFC8010FB6F894FEBE0FBEEDBE2996E2
:101B6000EAE00C94492AA4E0B0E0E9EBFDE00C9433
:101B7000332A09831A832B833C8304E010E09E01FF
:101B80002F5F3F4F0E945D0D2496E4E00C944F2A96
:101B9000A4E0B0E0EEECFDE00C94312A7C01162FBD
:101BA00019821A821B821C829E012F5F3F4F48E2DE
:101BB00059E060E87FEBFC01808191810E94040D77
:101BC00097FD2DC081E090E0A0E0B0E0F701028039
:101BD00004C0880F991FAA1FBB1F0A94D2F749811E
:101BE0005A816B817C811123F1F0842B952BA62BDC
:101BF000B72B89839A83AB83BC8309811A812B819C
:101C00003C8148E259E060E87FEBF70180819181F7
:101C10000E94B30D1816190614F490E080E0249683
:101C2000E6E00C944D2A80959095A095B09584237C
:101C30009523A623B723DDCFA4E0B0E0E2E2FEE0E7
:101C40000C94312A7C01FC014281538164817581AD
:101C50004D5F534F6F477044198201E010E09E01C1
:101C60002F5F3F4F808191810E945D0D97FD3CC0A9
:101C700060E0C7010E94C80D19821A821B821C8273
:101C80009E012F5F3F4F48E059E060E87FEBF7018E
:101C9000808191810E94040D97FD26C001E010E033
:101CA00020E030E0F701028004C0000F111F221F66
:101CB000331F0A94D2F789819A81AB81BC81082BAA
:101CC000192B2A2B3B2B09831A832B833C8348E057
:101CD00059E060E87FEB808191810E94B30D181676
:101CE000190614F490E080E02496E6E00C944D2A66
:101CF000A1E0B0E0EEE7FEE00C94332A80915201BF
:101D000004E610E021E030E0AE014F5F5F4F6DE18F
:101D1000880F0E94ED2897FD11C020915401309149
:101D200055019981937060E009F061E0C9010E945A
:101D3000C80D1816190614F490E080E02196E4E02E
:101D40000C944F2A0F931F93CF93DF938B01EA01DB
:101D500090919306943061F58093E9008FEF909114
:101D6000E800815095FD06C09AE69A95F1F700C00B
:101D70008111F5CF8091E80085FF1AC00E9486038B
:101D8000811111C08091E80085FD06C08091E800B6
:101D90008E778093E800F2CFF80181918F018093D4
:101DA000F100219779F78091E8008E778093E80021
:101DB000DF91CF911F910F91089543E050E0BC0156
:101DC00084E00E94A20E089540E250E0BC0184E04D
:101DD0000E94A20E0895CF93DF93EC0148E050E0FB
:101DE000BC0181E00E94A20E88E0FE01A9E8B6E0F5
:101DF00001900D928A95E1F7DF91CF91089581E0EE
:101E00008093E00080E28093D8001092C9008FE0B8
:101E100097E20197F1F700C0000087E090EBDC014A
:101E20008093100790931107A0931207B0931307A4
:101E300088E19CE00FB6F894A895809360000FBEEF
:101E400090936000FFCF3EB13B7F2EB124604FB72F
:101E5000F8948FE795E0FC015191CF0168E02EB92D
:101E600057FF3EB9550F000000C03EB96A95B9F75B
:101E7000F6E08B379F0779F74FBF8FE292E001972B
:101E8000F1F700C0000008951F93CF93DF93122F46
:101E90008430E8F46630D8F44E30C8F4C42FD0E073
:101EA000CC0FDD1F9CE1699FC00DD11D112498EA64
:101EB000899FC00DD11D1124CD5BDF4F632FCE0153
:101EC0000E94AB2A612FCE0101960E94AB2ADF91BE
:101ED000CF911F9108950F931F93CF93DF93843079
:101EE00038F5663028F54E3018F5C42FD0E0CC0F09
:101EF000DD1F2CE1629FC00DD11D112438EA839FA4
:101F0000C00DD11D1124CD5BDF4FCE010E948D2A63
:101F1000082F10E0102F0027CE0101960E948D2A75
:101F20009801282BC901DF91CF911F910F9108953E
:101F300090E080E0F8CFB0E0A0E0E1EAFFE00C94B0
:101F40002D2A182F80914701811323C090910807F3
:101F500093702091460130E081E09217130609F456
:101F600080E081708093510180910D079091500124
:101F7000981739F08093500140E060E080E00E94C3
:101F8000BB06103188F4E12FF0E0EA50F54D0C94D7
:101F9000702A81E0E6CF80915101882399F140E0D9
:101FA00060E080E00E94BB0680E02CC080914F0181
:101FB0000E945F06C82F092F6091090770910A07D8
:101FC00080910B070E945607F62EE72ED82ED0E000
:101FD000C01720F081E00435A8F0E6CFFE01EB50F9
:101FE000FD4F808190915001892331F02D2D4E2D90
:101FF0006F2DCE010E94BE062196EACF89EB96E0B6
:102000000E946E0990914F019F5F90934F01811143
:102010000CC082E08093480180915101811105C07C
:10202000111103C083E080934801CDB7DEB7EAE029
:102030000C94492A80EB96E0E3CF87EA96E0E0CF64
:102040008EE896E0DDCF80E896E00E94BB08DACF0C
:1020500084E297E00E942009D5CF8CED96E0FACF7C
:1020600081EC96E0F2CF80914F010E945F06092F2C
:1020700090915101911132C060910C0720E1620FE3
:1020800008F46FEF8091D7069091D8060E944C0714
:102090006AE070E00E94112A892B09F09BCF4091E1
:1020A000490150914A0125E038E0429FC001439F19
:1020B000900D529F900D1124875E994C90934A0188
:1020C00080934901890F34E5839FC00111246091F9
:1020D0005001892F90E00E94E0077CCFC82FD0E00C
:1020E000E02EF12CCE15DF050CF074CF609150017D
:1020F000CE010E94E0072196F5CF8091DB0621E01A
:10210000582F521B08F450E0852F0E9429087ACFDF
:1021100080E0FBCF80914F0429EF31E090E08823ED
:1021200009F44BC080914F010E945F06C82F092F10
:1021300080914E040E947F0CF82E609109077091E7
:102140000A0780910B070E945607E62ED72EC82E4D
:10215000D0E0C01708F03ECFFE01EB50FD4F80816C
:10216000909150018923B1F0FE01E650FC4F60814F
:10217000462F4F7062956F708F2D0E946B0F20E07D
:1021800040E060E0029718F02C2D4D2D6E2DCE0111
:102190000E94BE062196DDCFED91E43530F4F0E0EB
:1021A000E650FC4F482F492B40838F5F8E30A1F7BC
:1021B000905F225F3F4F903619F0D90180E0ECCF5D
:1021C00081E080934F04AECF80914F010E945F0663
:1021D000092FE82EF12C93E0899FE0011124C05BC8
:1021E000DB4FCC24CA94D12CE01608F0F3CEF701D3
:1021F000EB50FD4F8081909150018923F1F0809147
:102200000B07E8818E9FF0011124A9808A9D50015F
:1022100011249A81899FC0011124B6010E94112ABC
:10222000262FC501B6010E94112A462FCF01B60103
:102230000E94112AC7010E94BE062396EFEFEE1AF4
:10224000FE0AD2CF80914F010E945F06C92F909164
:1022500050059F5F9093500520915101222369F012
:102260001092500510924F0590914F05983071F4DF
:1022700010924E0510924F0502C09923A9F3E82E43
:10228000F12C8CE4C82E85E0D82E3EC0E92FF0E07A
:10229000EE0FFF1FE652FE4F20814181FEE02F9F8F
:1022A0009001112427503E4F240F311DF901208148
:1022B0002F3F49F020934C0521E020934E059F5F6E
:1022C00090934F05DCCF20E0F8CFF701EB50FD4FA6
:1022D0008081209150018223A1F060915005690F07
:1022E00020914E05ECE4F5E080E77FEF3E2F3C19AE
:1022F000321790F00E945607472F282FC7010E94DF
:10230000BE06FFEFEF1AFF0A9E2DEC16F0F281E0F9
:10231000C43508F477CE48CE31913913E7CF8FEF2B
:1023200070E0E4CF462F763040F46E3030F48430E5
:1023300020F4672F0E946B0F089590E080E00895CD
:10234000CF92DF92FF920F931F93CF93DF936C0195
:1023500000914E048091DB03082BC3E0D0E010E035
:10236000FC2EC8010C2E02C0959587950A94E2F7C1
:1023700080FD0CC02197A0F7F12C8F2DDF91CF911C
:102380001F910F91FF90DF90CF900895B6018C2F91
:102390000E9492110E94BB0A019761F3EECFCF9386
:1023A000DF93EC010E94A011BE010E9492110E94D5
:1023B000BB0ADF91CF910895FC0124812223C1F053
:1023C000808191810E94CF1192959F70963091F0FB
:1023D00058F4925F9F70923058F4803F19F030F4B7
:1023E000883E30F481E008959A5FF4CF843FD1F3C2
:1023F00080E00895883EB0F3813FD1F7F3CFA6E0A7
:10240000B0E0E5E0F2E10C94342A49835A83498133
:102410005A819923A1F0222391F0CA010E94A011B0
:10242000182F682F89819A810E94450C69817A81D1
:10243000812F0E9492112696E3E00C94502ACA0143
:102440000E94110C182FF2CF8F929F92AF92BF92E1
:10245000CF92DF92EF92FF921F93CF93DF93809101
:102460007A0590917B05A0917C05B0917D052FB7F1
:10247000F8948090840690908506A0908606B0908F
:1024800087062FBF75016401C81AD90AEA0AFB0A38
:102490002FB7F89440918406509185066091860686
:1024A000709187062FBF40937A0550937B05609308
:1024B0007C0570937D0510915105E1E5F5E0C12F94
:1024C000D0E00197AF4FBF4F88199909AA09BB09FE
:1024D0001D1327C0C093510580917E05C0E0811176
:1024E00008C080910807C82FC37019F0C82FC6957F
:1024F000C695809148018130F1F1882329F182301D
:1025000009F444C0833009F44CC0DF91CF911F918E
:10251000FF90EF90DF90CF90BF90AF909F908F9003
:102520000895218D328D4901B12CA12C8815990572
:10253000AA05BB0520F4C150DF5F3296C9CF2C0D30
:102540003D1D328F218FF8CF10924F014093D70657
:102550005093D8066093D9067093DA0689E2E1E5D4
:10256000F5E0ABEDB6E001900D928A95E1F781E0E0
:1025700080934801CACF8C2F0E949B0FCC2329F255
:1025800080914F0181500E945F06BFCFC0934701E9
:10259000809108078370809346010E94230F83E097
:1025A000E7CF80910707882351F048E050E067E1CA
:1025B00070E088E097E00E949B2A10920707409104
:1025C000D7065091D8066091D9067091DA062FB7D8
:1025D000F8948091840690918506A0918606B0912A
:1025E00087062FBF841B950BA60BB70B4097A10541
:1025F000B10508F48ACF1092480187CF40E250E03D
:1026000063EE72E0882369F08EE191E00E949B2ADC
:102610004CEF50E063E073E080E594E00E949B2A79
:1026200008958EE191E00E947D2A4CEF50E063E036
:1026300073E080E594E00E947D2A089590918206DF
:1026400092FB222720F9281779F080FB92F99093CA
:102650008206609181067091820684E090E00E947B
:10266000C92A82E00E94B70C089580914D01813003
:1026700059F58091810687FF27C00E94E00B809367
:10268000550340E250E061EA73E084E593E00E9484
:10269000CF2A892BC1F080E2E4E5F3E0A1EAB3E0C0
:1026A00001900D928A95E1F7E0917D06F0917E060A
:1026B000309749F086E0809354030480F581E02D43
:1026C00084E593E0099508950E94E00B80934C0304
:1026D00048E050E061EC73E08CE493E00E94CF2A84
:1026E000892B89F388E0ECE4F3E0A1ECB3E00190FE
:1026F0000D928A95E1F7E0917D06F0917E06309784
:1027000011F30280F381E02D8CE493E0DBCF109293
:10271000C90380914D018130C1F48091810687FF0A
:1027200014C0E6E5F3E08EE1DF011D928A95E9F73A
:1027300090E080E00E94490590E080E00E9424053E
:102740001092A0030E9435130895EEE4F3E086E0B2
:10275000EBCFAAE2B0E0EFEAF3E10C94342A85E98A
:1027600096E02091F100DC012D93CD01B6E08D398A
:102770009B07B9F780919606833009F472C0B8F4CC
:10278000813009F449C0823009F4B7C08091E80073
:1027900083FF97C280919506909196069A3008F033
:1027A00090C2E92FF0E0EA5FF44D0C94702A8A3071
:1027B00009F492C08B3009F471C0893039F78091E7
:1027C0009506813219F78091990690919A060097A3
:1027D00011F00297D9F68091E800877F8093E80096
:1027E0008091E80082FF38C09091F3008091F20060
:1027F000029731F48091F100813011F0863021F49C
:102800008091F10080934C018091E8008B77809358
:10281000E8000E94B703BACF80919506813A09F08B
:10282000B5CF8091E800877F8093E800809199067A
:1028300090919A06892B61F468E089E896E070E04F
:102840000E9463048091E8008B778093E8009ECF1C
:1028500060E090E080E0F3CF809193068111C0CFDB
:1028600095CF80919506813A09F090CF8091990695
:1028700090919A06892B09F089CF8091E800877F93
:102880008093E8008091E80080FFFCCF80914D01AB
:102890008093F1008091E8008E77B9CF8091950602
:1028A000813209F073CF8091990690919A06892B15
:1028B00009F06CCF8091E800877F8093E8000E9448
:1028C000B70381E090919706911101C080E0809359
:1028D0004D010E9487135ACF80919506813209F0ED
:1028E00055CF8091E800877F8093E8000E94B7036E
:1028F0008091980680934B0149CF80919506813A4B
:1029000009F044CF8091E800877F8093E8008091B0
:10291000E80080FFFCCF80914B01BACF803899F05E
:10292000823809F0CEC1809199068F70873008F007
:10293000C8C18093E9008091EB0085FB882780F96E
:102940001092E90006C08091910690919206911133
:1029500082609091E800977F9093E8008093F10067
:102960001092F1008091E8008E77A7C1882309F4C6
:1029700095C1823009F0A5C180919706811198C157
:10298000809199068F702FEF280F263008F099C19B
:102990008093E9002091EB0020FF8AC1933031F44D
:1029A0008091EB0080628093EB0082C19091EB00FC
:1029B00090619093EB0021E030E001C0220F8A95F6
:1029C000EAF72093EA001092EA008091EB00886019
:1029D000EACF811176C1109197061F778091E300AD
:1029E0008078812B8093E3008091E800877F80933B
:1029F000E8000E94B7038091E80080FFFCCF80913F
:102A0000E30080688093E30082E0111183E080930B
:102A1000930657C18058823008F053C12091970621
:102A2000309198062C3DE3E03E07A1F583E08A83D0
:102A30008AE289834FB7F894DE01139620E03EE0E6
:102A400051E2E32FF0E050935700E49120FF03C0E0
:102A5000E295EF703F5FEF708E2F90E0EA30C0F0AC
:102A6000C7968D939D932F5F243159F74FBF809167
:102A7000E800877F8093E8006AE270E0CE0101966B
:102A80000E9463048091E8008B778093E80019C16D
:102A9000C096E7CF8091990690919A06432F5527CB
:102AA0004330510509F44AC078F54130510509F425
:102AB0007AC08BE590E0EFE1F5E04230510509F096
:102AC00000C12091E800277F2093E80020919B0619
:102AD00030919C068217930708F49C0140E0211571
:102AE000310509F065C0411163C08091E80082FDA5
:102AF000C9CF80919306882329F2853019F28091FD
:102B0000E80083FFF2CFBECF4132510509F43CC04B
:102B10004232510509F0D5C08330910508F0D1C08B
:102B2000FC01EE0FFF1FE351FE4F0190F081E02DFD
:102B300086519E4FDC018C9190E01AC033272130E2
:102B40003105D1F02115310561F02230310509F050
:102B5000B8C0ECE8F5E0E4918E2F90E0ECE8F5E009
:102B600007C0E2EFF5E0E4918E2F90E0E2EFF5E0B0
:102B7000009709F4A6C0A5CFEEEDF5E0E4918E2F05
:102B800090E0EEEDF5E0F4CF8330910508F099C0C8
:102B9000880F991FFC01ED50FE4F0190F081E02D50
:102BA00089E090E08ECF82E190E0EAE7F5E089CF1E
:102BB00080919306882309F465CF853009F462CFAC
:102BC0008091E80083FD5ECF8091E80082FD8DCF8B
:102BD0008091E80080FF83CF9091F3008091F20014
:102BE0002115310519F08830910550F041E0089722
:102BF00009F040E08091E8008E778093E8006FCF85
:102C000044914093F1003196215031090196E8CF6B
:102C1000803809F056C08091E800877F8093E800F3
:102C2000809194068093F1009DCE81114AC010914D
:102C30009706123008F045C08091E800877F8093A6
:102C4000E800109394060E94B703112311F084E06A
:102C500005C08091E30087FDFACF81E08093930661
:102C600042E061EC81E00E94D60342E261EC84E044
:102C70000E94D60342E261EC82E00E94D60342E267
:102C800060EC83E00E94D60380919306843021F0AB
:102C900081E080934E0115C082E0FBCF80919706C2
:102CA000813079F481E0933009F080E080939206DE
:102CB0001092E9008091E800877F8093E8000E94ED
:102CC000B7038091E80083FF0AC08091E800877F06
:102CD0008093E8008091EB0080628093EB00AA96DD
:102CE000E3E00C94502A0E9487132FE78AE196E0D4
:102CF000215080409040E1F700C0000088E19CE056
:102D00000FB6F894A895809360000FBE9093600072
:102D1000FFCF882321F00E94D90B0E94351308951C
:102D2000882339F09091C903982B9093C9030E948E
:102D300035130895882309F44DC0823879F40E9430
:102D40006E0581FF47C089E30E94F0040E9435139D
:102D500089E30E94C5040E9435130895833859F40D
:102D60000E946E0580FF36C083E50E94F0040E9439
:102D7000351383E5EECF843859F40E946E0582FF47
:102D800029C087E40E94F0040E94351387E4E1CF54
:102D90009CEF980F913AE8F290E2980F983050F437
:102DA000877091E001C0990F8A95EAF7892F0E94F8
:102DB000D90BD1CF9BE5980F933028F490E080E0B9
:102DC0000E9449050895885A8B3120F490E080E0F4
:102DD0000E9424050895CF93C82F8823C9F0823814
:102DE000C9F40E946E0581FD13C089E30E94F004BE
:102DF0000E9435132FEF83EF91E0215080409040E7
:102E0000E1F700C0000089E30E94C5040E94351369
:102E1000CF9108958338A1F40E946E0580FDF8CF0C
:102E200083E50E94F0040E9435132FEF80E792E0C3
:102E3000215080409040E1F700C0000083E5E4CFDE
:102E40008438A1F40E946E0582FDE2CF87E40E94DF
:102E5000F0040E9435132FEF80E792E0215080406C
:102E60009040E1F700C0000087E4CECF8CEF8C0FDC
:102E7000813A88F580914D01813001F5809181067C
:102E800087FF1CC0EC2FE695E695E695F0E0EC5A3E
:102E9000FC4F828190E04C2F477021E030E002C06F
:102EA000220F331F4A95E2F782239323892B79F06F
:102EB0008C2F0E94C5040E94351309C0EEE4F3E094
:102EC0008191C817A9F323E0E435F207C9F78C2FE5
:102ED0000E94F0049BCF80E28C0F883068F4C770AA
:102EE00021E030E001C0220FCA95EAF78091C903C2
:102EF000822B8093C9038ACFEBE5EC0FE33040F4DB
:102F0000F0E0E258FE4F808190E00E94490580CFBA
:102F1000C85ACB3108F07CCFEC2FF0E0EE0FFF1F4A
:102F2000EF57FE4F808191810E94240571CFA2E06E
:102F3000B0E0EDE9F7E10C94312A7C01FC018081DD
:102F400004E610E021E030E0AE014E5F5F4F6DE13E
:102F5000880F0E94ED2897FD21C08A81F701918199
:102F60009817D1F08183982F93709230D9F086957D
:102F70008695837060E08230B1F086E68983808137
:102F800021E030E0AE014F5F5F4F63E2880F0E94A7
:102F9000A3281816190614F490E080E02296E6E0C3
:102FA0000C944D2A61E0F701828193810E94C80D43
:102FB00097FDF4CF87E78983F701808104E610E06D
:102FC000DFCF1F920F920FB60F9211242F933F93D2
:102FD0004F935F936F937F938F939F93AF93BF9321
:102FE000CF93DF93EF93FF93D091E900DF7080914F
:102FF000EC00C82FC17080FDC0E81092E9008091FC
:10300000F000877F8093F00078940E94A9131092BB
:10301000E9008091F00088608093F000CD2BCF70A4
:10302000C093E900FF91EF91DF91CF91BF91AF91F4
:103030009F918F917F916F915F914F913F912F91D0
:103040000F900FBE0F901F9018951F920F920FB602
:103050000F9211242F933F934F935F936F937F931E
:103060008F939F93AF93BF93EF93FF938091E10072
:1030700082FF09C08091E20082FF05C08091E100DB
:103080008B7F8093E1008091DA0080FF24C08091E3
:10309000D80080FF20C08091DA008E7F8093DA0014
:1030A0008091D90080FFAAC080E189BD82E189BDFD
:1030B00009B400FEFDCF81E08093930680918806DD
:1030C000811109C00E9467030E9408048091E200F8
:1030D00084608093E2008091E10080FF1AC08091BB
:1030E000E20080FF16C08091E2008E7F8093E200B4
:1030F0008091E20080618093E2008091D80080623C
:103100008093D80019BC85E08093930683E0809378
:103110004E018091E10084FF30C08091E20084FF85
:103120002CC080E189BD82E189BD99B5892F81706C
:1031300090FFFBCF9091D8009F7D9093D800909105
:10314000E1009F7E9093E1009091E2009F7E90933A
:10315000E2009091E20091609093E20090919406D9
:10316000992309F451C094E09093930690919306AB
:10317000943009F482E080934E018091E10083FF56
:103180002CC08091E20083FF28C08091E100877FFE
:103190008093E10082E080939306109294068091E0
:1031A000E1008E7F8093E1008091E2008E7F80932A
:1031B000E2008091E20080618093E20042E060E002
:1031C00080E00E94D6038091F00088608093F00038
:1031D00081E080934E0180934D01FF91EF91BF916B
:1031E000AF919F918F917F916F915F914F913F919F
:1031F0002F910F900FBE0F901F90189519BC109231
:1032000093061092880667CF9091E30097FD02C065
:10321000982FAACF93E0A8CF78941F921FB61F9241
:1032200011248F939F93AF93BF93809184069091C5
:103230008506A0918606B09187060196A11DB11D55
:103240008093840690938506A0938606B0938706A4
:10325000BF91AF919F918F911F901FBE1F901895A6
:103260009C014FB7F8948091840690918506A091B7
:103270008606B09187064FBF821B930B08952FB728
:10328000F8948091840690918506A0918606B0916D
:1032900087062FBF08950F931F93CF93DF93C62FF9
:1032A000D42F022FFC0185818823A9F060930607A3
:1032B0000E943F199093050780930407C77081E02F
:1032C00001C0880FCA95EAF70E949016DF91CF914E
:1032D0001F910F91089580910607681335C0809162
:1032E0000407909105070E943019883C910560F50C
:1032F00010E21D0FCD17B9F080E28C0F883040F43A
:10330000C77081E001C0880FCA95EAF70E9489164C
:10331000183048F481E09D2F977001C0880F9A956E
:10332000EAF70E949016802F0E94EB16802F0E94D1
:103330009A16183058F6D77081E001C0880FDA95D8
:10334000EAF70E948916C2CFC77081E001C0880FDA
:10335000CA95EAF7F6CFB0E0A0E0E1EBF9E10C9412
:103360002D2A8C01FC018481882309F489C021E085
:10337000408151816281738195810E94FF11EC012E
:10338000E090F603E1106DC08934F8E79F0709F477
:1033900053C070F48234984709F47FC0FE01E851AD
:1033A000FC47E730F105A0F4E05FF44D0C94702A7F
:1033B000CA3488E7D80761F1C1159CE7D90771F7CE
:1033C000F8018581882321F060E08FE00E942106CA
:1033D000F8019581992309F457C4109206079E01BC
:1033E00030572332310508F03BC484E090E00E945E
:1033F000952A9093820680938106FE01E150F04762
:10340000E232F10508F076C0E95EF44D0C94702AC2
:10341000F8018581882329F180910B07813BF0F425
:103420008538C8F58436A8F5833488F5823368F585
:103430008232A8F081E213C0F8018581882389F0E7
:1034400080910B078132B0F38133F8F08234F8F0C9
:103450008336F8F08438F8F0803B08F480EB0E9463
:10346000DA0C80919E03877059F0F80185818823DA
:1034700039F08091820682FF03C082E00E94B70C7F
:10348000CDB7DEB7EAE00C94492A81E3E8CF82E4C5
:10349000E6CF83E6E4CF84E8E2CFF8018581882394
:1034A00001F380910B07811103C080911201D7CFE6
:1034B0008093120180E0D3CF26E241EE61EEC80195
:1034C0000E944B19CECF27E245EE65EEF8CF26E2FB
:1034D00041EE60EEF4CF27E245EE64EEF0CF26E257
:1034E00041EE62EEECCF27E245EE66EEE8CF28E251
:1034F00041E0EBCF8091810681608093810695C089
:10350000809182068860809382068FC080918106B8
:103510008260F3CF809181068460EFCF8091810635
:103520008860EBCF809182068160EDCF809182062A
:103530008260E9CF809181068061DFCF8091810632
:103540008062DBCF809181068064D7CF0E94871391
:10355000809181068068D1CF809181068C60CDCF2B
:10356000809182068360CFCF809181068E7FC5CF08
:1035700080918206877FC7CF809181068D7FBDCFE6
:10358000809181068B7FB9CF80918106877FB5CFEF
:10359000809182068E7FB7CF809182068D7FB3CFD8
:1035A000809181068F7EA9CF809181068F7DA5CFE6
:1035B000809181068F7BA1CF0E9487138091810625
:1035C0008F779BCF80918106837F97CF80918206F2
:1035D0008C7F99CF8091810682FB992790F921E019
:1035E000922790FB82F990FB83F987CF8091820626
:1035F000982F909591708E7F892B90FB81F983CFC6
:1036000090918106892F8F7B96FF806476CF0E94F0
:10361000871390918106892F97FB87F980586DCF8A
:1036200061E08EE090E00E94AB2A6091810670918B
:10363000820684E090E00E94C92A0E94871311CF7D
:1036400060E0EFCF90918106892F8F7E94FF80619B
:1036500054CF90918106892F8E7F90FF81604DCF4E
:1036600090918206892F877F93FF88604CCF85E3F6
:1036700006C380917403811104C089E20E94C504CD
:1036800000C385E3FBCF0E945106EBCE8823A9F14E
:103690000E943A06E6CE8823A9F10E940D06E1CEEB
:1036A0008823A9F10E94F305DCCE8823A9F10E94AA
:1036B000D905D7CE8823A9F10E94BD05D2CE80912D
:1036C0000807837011F410924801809108078C7FDD
:1036D00081608093080780910707816080930707C6
:1036E000C0CE80910807837011F01092480180913C
:1036F00008078C7FEECF882359F20E944506B1CE91
:10370000882359F20E941706ACCE882359F20E94F2
:103710000006A7CE882359F20E94E605A2CE882390
:1037200059F20E94CB059DCE9E01205E324520328B
:103730003105A8F4911115C0CF7181E090E09C0192
:1037400002C0220F331FCA95E2F7E901622F83E01E
:1037500090E00E94AB2A8C2F0E947C0C82CE992391
:1037600081F0C3303CE7D30709F477C008F05AC0B2
:10377000C1159CE7D90709F463C0C130DC4709F4DF
:1037800072C0F8018581C081D181882309F479C094
:10379000CE010E94A011F82E682FCE010E94450C88
:1037A000BE018F2D0E9492110E94BB0AD82FC92FF3
:1037B000A82EF801C580B680B2943FE0B322809174
:1037C0009E03877009F1CC20F1F0892F807F80342F
:1037D00069F080E28D0F8830B8F0892F807E8032CA
:1037E00029F4F1E0FD1780F4BB2071F0809182068E
:1037F00082FF0AC082E00E94B70C80919E0387700E
:10380000EE24E3948111E12CDC2ED2942FE0D2221D
:103810002BE02D1508F49AC0ED2DF0E0E75CF44D97
:103820000C94702ACB35FCE7DF0749F1CC352CE747
:10383000D207D9F0CA35DC4709F0A3CF81E01CC01C
:103840000E9487138FE79AE1E6E081509040E040C4
:10385000E1F700C000000E94FF0E6FEF7FEF90E0E5
:1038600080E00E94C92A0E9473168091820682FB22
:10387000882780F991E089270E941E1382CF80E07B
:10388000FBCFCE010E94110CF82E8ACF3C2F3F7047
:10389000F32EC07F19F0F29490EFF922CC20B9F00A
:1038A000FF2069F080E28D0F883010F0A11009C070
:1038B0008091C903F82AF092C9030E9435138D2F15
:1038C00043C08091A003F82AF092A003F6CF8D2F79
:1038D0000E949A16FF20D1F1D05ED83010F0A110CE
:1038E00004C08F2D0E94D90B06C0F0948091A003D4
:1038F000F822F092A0030E94351328C08C2F8F70FD
:10390000F82EC07FC03219F0F29480EFF822AA207E
:1039100059F091E0A91609F478C0CC2009F484C0CC
:10392000BB2009F446C0CBCF8091820682FD3DC00A
:10393000CC20A9F1FF2039F08091C903F82AF09238
:10394000C9030E94351380E00E94EB16ED2DE8506C
:10395000FF0B349710F40E946E05EE20A9F08091C1
:103960009E0380FD11C0F801158286958695869587
:103970000E94CE0CC8010E94AB1980919E038695CF
:10398000869586950E94AA0C20E0F801408151811D
:1039900062817381848195810E94FF1171CD80E0E5
:1039A0000E949A16FF2091F29CCFCC20A1F0B1107A
:1039B00004C08F2D0E949016C9CFE1E0BE12C6CF81
:1039C00080919F039F2D9823F91609F4BFCFF82A01
:1039D000F0929F03BBCFB110B9CF8F2D0E948916F3
:1039E00090919F038F2D892329F08F2D8095892316
:1039F00080939F03809175039F2D982309F4A6CF90
:103A0000F094F822F0927503A1CFCC2029F0F5E0D4
:103A1000FB1508F49BCFCDCF24E02B1508F496CFEF
:103A20008F2D0E94891692CFBB20D1F339E3A312C8
:103A300009C08FEF93EFE1E081509040E040E1F763
:103A400000C000008D2F0E949A1680CF8C2F869583
:103A50008695837069F0813009F078CF8D2F9C2F87
:103A60009370C11002C080E090E00E9424056ECFE8
:103A70008D2F9C2F9370C11002C080E090E00E94B7
:103A8000490564CF8C2F837089F5C1105FCF4D2F0E
:103A9000429546954770440F440F8D2F8F70042E2A
:103AA00001C0880F0A94EAF72D2F2071D4FF07C0B8
:103AB0002FE030E001C0220F4A95EAF72095C69525
:103AC000C695C370C23069F050F43091DB03C13049
:103AD00029F0822B83230E947C0C38CF832B822BEE
:103AE000FACF282B8091DB038227F5CF8695CC2057
:103AF00011F08C2F8170882309F428CF4D2F429527
:103B000046954770440F440F8D2F8F70042E01C0CF
:103B1000880F0A94EAF72D2F2071D4FF07C02FE0F9
:103B200030E001C0220F4A95EAF72095C695C69568
:103B3000C370C23069F050F430914E04C13029F0A6
:103B4000822B83230E94A20C01CF832B822BFACFDE
:103B5000282B80914E048227F5CFCF70CC2029F0FE
:103B60008C2F0E94CE0C8D2F25CF8D2F0E94891671
:103B70008C2F0E94AA0CEACE8D2FF2EFAF16A9F17E
:103B8000FA1570F020EFA216D1F031EFA31691F0E4
:103B9000CC2009F455C0B11092CE8C2F8F7129C062
:103BA00093EFA91649F1E4EFAE12F2CF909182069D
:103BB00092FD2DC08C2F8F71CC20D9F21AC0CC2051
:103BC00079F0F4E0FB1508F4C1CECF7181E090E00C
:103BD00001C0880FCA95EAF790914E048927B2CFA9
:103BE00025E02B1508F4B2CEF0CF8C2F8F71C110C9
:103BF000C0CF0E94CE0CAACE80E0CC2009F4A2CF88
:103C0000CF7181E001C0880FCA95EAF79BCFCC2025
:103C100061F08C2F8F7192FFECCF98E0899F90011B
:103C20001124236020939E03E4CF81E00E94B70C0F
:103C3000E1E0EB1508F08ACE82E00E94B70C86CE58
:103C4000BB2059F0893309F0FDCEFFEF23EF31E0BF
:103C5000F15020403040E1F7F3CE8C2F8F7189CFA7
:103C60008091C903C631FCE7DF0709F58A7A91E044
:103C700009F490E0909374038111F9CC89E20E94D9
:103C8000F0040E943513EDCBC6312CE7D20709F4BE
:103C9000F0CC8091C9038272FE01E054F847ED3008
:103CA000F10508F041CDEB5BF44D0C94702A827263
:103CB000FE01E052F847EB30F10508F035CDEE5A41
:103CC000F44D0C94702ACF93DF9380919D03807FF5
:103CD00009F04DC080919C03882309F448C0E0910D
:103CE000D60650919D06C0919803D091970360919C
:103CF000990370919A0347E05E17C9F18E2F90E007
:103D0000E49FF0011124E256F94F2481222391F11E
:103D1000489FF001499FF00D1124DF01A256B94FD1
:103D200011962C9111972C1325C02C912D1322C084
:103D300015962C91159721111DC012962D913C912D
:103D4000261B370B283C3105A8F480919D038F700A
:103D5000806180939D03EC55F94F80818F70806165
:103D6000808387E993E00E94AB190E94070CDF91E2
:103D7000CF910895FC013196E770BECFA4E1B0E089
:103D8000E4ECFEE10C942B2A8C0186E0F801DE01C4
:103D90001F9601900D928A95E1F7F8018481E580E4
:103DA00097E9A92E93E0B92E90919B03911128C019
:103DB000882319F1EE20F1F0C8010E94DC11F82EE1
:103DC0008823C1F087E0F801D50101900D928A9512
:103DD000E1F780919B03813031F4809197039091BA
:103DE00098030E94CF110E94631E8F2D6496ECE011
:103DF0000C94472AC8010E94AB19FF24F394F5CF15
:103E0000D080C18082809380F0909C0320919903A0
:103E100030919A03A401421B530BFF2009F4D9C02F
:103E2000483C510508F092C08823F9F2909198031C
:103E300080919D03282F207F09F056C0C91214C01D
:103E400090919703D91210C0E11048C08F70806123
:103E500080939D0387E993E00E94AB1980919D03B5
:103E6000F8018683F12CC1CFE11038C06C2D8D2D67
:103E70000E9448036C2D8D2D0E944803E82E81116D
:103E8000F1CFDF86C88A8F8598890E94CF11292FAC
:103E900022952F70243058F49F70223088F0992397
:103EA00099F0F8019681907F79F4FE2C9ECF2A5FDD
:103EB0002F70223068F0C8010E94AB19EF2CF5CFAB
:103EC000992311F0882389F3805E883070F3F3CF53
:103ED000803F58F3815F833070F7E7CF80919D0377
:103EE000816080939D03BECFC91207C09091970354
:103EF000D91203C0EE2009F48DC0C8010E94DC1164
:103F0000882309F477CFEE2009F474CF80919D03C4
:103F1000803288F020919703309198033987288761
:103F20009B868A8690919B039C871D868E87CE01F7
:103F300008960E94AB1987E0F801A7E9B3E0019069
:103F40000D928A95E1F70E94631E57CF90919D03D1
:103F5000292F207F51F487E993E00E94AB1987E075
:103F6000F50111928A95E9F77DCF882309F43DCFB9
:103F7000809198038C1110C080919703D8120CC0C7
:103F8000E1100AC09683C8010E94AB1987E0F501D1
:103F900011928A95E9F729CFC8010E94DC11882384
:103FA00009F428CFEE2009F425CF80919D038032BB
:103FB00010F220919703309198033A8329839C82D1
:103FC0008B8290919B039D831E828F83CE010196ED
:103FD000B0CF483C5105D0F6882309F40ECFFE2C13
:103FE000EE2009F407CF809198038C1120C08091B6
:103FF0009703D8121CC080919D0380FD0FC0982F9D
:10400000907F61F08683903F31F0982F907F905F92
:104010008F70892B8683C8010E94AB1987E0F80155
:10402000A7E9B3E001900D928A95E1F7DECEC801D1
:104030000E94DC1181117FCF80919D03816080936C
:104040009D03C8010E94AB19D0CEABE1B0E0EBE21A
:10405000F0E20C94332A4E8B5F8B688F798F8A8FB6
:104060009B8F192F91111092A0031D8A86E0FE01EB
:104070007696DE011F9601900D928A95E1F70A8DE2
:10408000002341F021E04F85588969897A89C80168
:104090000E94FF110B8B1C8B87E0FE013F96DE0117
:1040A000189601900D928A95E1F7CE0108960E942C
:1040B000BE1E81112AC087E0FE013896DE011196EE
:1040C00001900D928A95E1F78C858823F1F020917B
:1040D0009D0630E0C9010196877099274091D60668
:1040E00048171906E9F097E0929FD001939FB00D11
:1040F0001124A256B94FFE01319601900D929A9566
:10410000E1F780939D060E94070C17E08091D60688
:1041100090919D06891312C06B96E4E00C944F2A8F
:104120000E94871310929D061092D60687E0E7E959
:10413000F3E0DF011D928A95E9F7E7CF819FC00187
:1041400011248256994F0E94BE1E882329F3809124
:10415000D60690E00196877099278093D606D6CF31
:10416000ACE0B0E0E6EBF0E20C94272A8E010F5FA2
:104170001F4F8CE0F80111928A95E9F797EBE92E31
:1041800091E0F92E68012DEB422E21E0522E66249B
:104190006394712C4BEC842E41E0942EF7018191B5
:1041A0007F018F3F09F445C0F894E82FE295EF7046
:1041B000F0E021A18F70A30102C0440F551F8A9522
:1041C000E2F7CA01922F982B91A392A1809589239F
:1041D00082A3789400C0EDEBF1E021E030E0B12C57
:1041E000A12C41914F3F09F44BC0A42FA295AF7071
:1041F000B0E090968C9190E04F7002C095958795B5
:104200004A95E2F780FD3CC0C901A82AB92A220FCD
:10421000331F8E169F0629F7F701319780818F3F54
:1042200011F00E94B30950E55A95F1F7F601B182F9
:10423000A082F2E0CF0ED11C4E145F0409F0AECF85
:104240004CE050E0B8018FEC93E00E94CF2A892B1C
:10425000E1F08CE0F801AFECB3E001900D928A95AB
:10426000E1F781E08093CE030E943F199093CD0344
:104270008093CC0310E0812F2C96E0E10C94432A2C
:1042800090E080E0C2CF10E01FC01091CE03112358
:1042900089F38091CC039091CD030E94301905974A
:1042A00048F34CE050E06FEC73E08AEE93E00E943C
:1042B000CF2A892B41F38CE0EFECF3E0AAEEB3E0D8
:1042C00001900D928A95E1F71092CE03D4CFA6E02B
:1042D000B0E0EDE6F1E20C94332A0E943F198C0124
:1042E0008091CA039091CB038017910781F01982C6
:1042F0001A820E943F19682F49815A81792F80E0E4
:1043000090E00E9425201093CB030093CA032696C9
:10431000E4E00C944F2A1F921FB61F9211248F9332
:104320009F93AF93BF9380918306811113C08091B7
:10433000840690918506A0918606B09187064196E5
:10434000A11DB11D8093840690938506A0938606D7
:10435000B0938706BF91AF919F918F911F901FBE21
:104360001F901895CDB7DEB7AE970FB6F894DEBFA5
:104370000FBECDBF85B7806885BF85B7806885BF14
:1043800084B7877F84BF0FB6F894A89580916000AA
:10439000886180936000109260000FBE81E090E819
:1043A0000FB6F89490936100809361000FBE8093E4
:1043B0004E0181EB99E090934B0380934A030E9456
:1043C00067030E9408048091E20084608093E20009
:1043D0007894809193068823A1F01091E9001F70D2
:1043E0009091EC00892F817090FD80E8182B10923D
:1043F000E9008091E80083FD0E94A9131F701093CB
:10440000E90082E084BD93E095BD9DE797BD809370
:104410006E0007EB11E0D8018D918D018F3F11F0F7
:104420000E94B309B1E00D3B1B07A9F70DEB11E0AA
:104430005BECE52E51E0F52EF80181918F018F3F65
:1044400011F00E94B309E016F106B1F71CE0EAEEA4
:10445000F3E0DF01212F1D922A95E9F7EFECF3E05D
:10446000DF01212F1D922A95E9F70E94E527198384
:1044700001E010E09E012F5F3F4F4AEF50E360E8FC
:104480007FEB83E191E00E945D0D97FD4CC01982A6
:104490009E012F5F3F4F42E154E362ED7FEB83E1EA
:1044A00091E00E945D0D97FD3EC019821A821B8229
:1044B0001C829E012F5F3F4F48E054E362ED7FEB8B
:1044C00083E191E00E94040D97FD2DC009811A81BE
:1044D0002B813C81016009831A832B833C8348E054
:1044E00054E362ED7FEB83E191E00E94B30D97FD11
:1044F0001AC004E813E323E030E040E050E360E852
:104500007FEB83E191E00E94B30D97FD0CC004E8BE
:1045100013E324E030E048E455EE62ED7FEB83E105
:1045200091E00E94B30D1FEF10935301809154014D
:10453000909155010E941C0E0E94780E1093430129
:1045400080914401909145010E941C0E10933F01FF
:1045500080914001909141010E941C0E809159016F
:1045600090915A01A0915B0189839A83AB838091DA
:10457000130124E630E043E050E0BE016F5F7F4F5F
:10458000880F0E945F2804E610E00E94780E8FE1F9
:104590009EE40197F1F700C0000001501109A9F74E
:1045A0000E94B020AFE5BAEE1197F1F700C000000D
:1045B0000E94B0208091EA0380FF13C06FEF7FEF6D
:1045C00080E490E00E94C92A6FEF82E490E00E94AC
:1045D000AB2A6FEF7FEF90E080E00E94C92A0E9433
:1045E000FF0E80E490E00E94952A8C3E964739F4B5
:1045F00082E490E00E948D2A823009F490C4D12C8C
:10460000C12CF12CE12C34E5B32E4EE0A42E02C0D7
:10461000F12CE12CBC9C8001BD9C100D1124AE9CA2
:10462000C001AF9C900D1124080F191F000F111F1E
:1046300001581E4F912CF80125913491492D6E2D72
:104640008C2D0E94440F0E5F1F4F9394EEE09E123C
:10465000F2CFFFEFEF1AFF0A26E0E216F104D1F6DF
:104660003FEFC31AD30A44E0C416D10489F681E0AF
:104670000E94FE126CEE76E780E490E00E94C92A68
:1046800062E082E490E00E94AB2A80914E040E9496
:10469000900C90E080E00E94952A853E9E4F09F4A0
:1046A0005EC065EE7EEF90E080E00E94C92A60E087
:1046B00082E090E00E94AB2A81E08093DB0361E01E
:1046C00083E090E00E94AB2A60E074E184E090E037
:1046D0000E94C92A60E086E090E00E94AB2A60E078
:1046E00087E090E00E94AB2A40E050E0BA0188E009
:1046F00090E00E94BD2A60E083E290E00E94AB2A35
:1047000060E08CE090E00E94AB2A60E08DE090E0F9
:104710000E94AB2A19821A821B821C821D821E8271
:104720001F82188648E050E067E170E0CE010196F4
:104730000E949B2A40E050E0BA018FE190E00E9485
:10474000BD2A40E050E0BA018FE090E00E94BD2A0F
:1047500040E050E0BA0183E190E00E94BD2A82E08F
:1047600090E00E948D2A8093DC0384E090E00E9418
:10477000952A909382068093810683E090E00E94C0
:104780008D2A0E947C0C80914E040E94900C0E9405
:1047900091051092DB068FEF9FEF9093F5068093C3
:1047A000F4069093F7068093F6069093F9068093AB
:1047B000F8069093FB068093FA069093FD0680938B
:1047C000FC069093FF068093FE069093010780936A
:1047D000000790930307809302071092510590936E
:1047E0006B0580936A0590936D0580936C0590939B
:1047F0006F0580936E05909371058093700590937B
:10480000730580937205909375058093740590935A
:10481000770580937605909379058093780581E0FC
:104820008093070748E050E067E170E088E097E098
:104830000E947D2A10920707809108078C7FF9F467
:1048400085E18093080780915C0190915D01A091C2
:104850005E018093090790930A07A0930B078FE7E7
:1048600080930C078FEF80930D0748E050E067E1DD
:1048700070E088E097E00E949B2A1092070784E18D
:1048800091E090937E0680937D06772473948091C7
:104890009306853089F410E403E080E1F82E92E17C
:1048A000E92E80919306853009F4B0C00E948713E9
:1048B0000E946E0510927E050E94B0208DED93E05F
:1048C00098A78FA30AEE202E03E0302ED101FC0121
:1048D000219131918D919D9143E0E93EF40709F4D6
:1048E000E0C028173907A1F389EF91E09AA789A7BB
:1048F000AAEEB3E0BCA7ABA7512CEBA5FCA5C190D9
:10490000D190FCA7EBA7AFA1B8A58D919D91B8A7B9
:10491000AFA38C159D0509F428C1F12CE12CAA2424
:10492000A394B12CFC01EC25FD25FEA7EDA78DA5D8
:104930009EA58A219B21892B09F408C186010A21A1
:104940001B21E9A25AA20E943F199CA38BA37DA21E
:1049500091E00115110509F490E09EA349A15AA127
:104960006BA17CA18DA10E942520012B41F0E9A51E
:10497000FAA5EE0DFF1D80818F3F09F0C9C0412CC3
:10498000042D10E080915105800F912F911D099702
:104990006CF1F8E08F2E912C801A910AB8016E5AB2
:1049A0007A4FA40182E595E00E94DC2AB801665A9C
:1049B0007A4FA4018AE595E00E94DC2AA401440F05
:1049C000551FB801660F771F66597A4F8AE695E042
:1049D0000E94DC2AB8016E597A4FA40182E695E064
:1049E0000E94DC2A88E0841980935105809151054A
:1049F00090E0A62DB0E09D01220F331F235B3D4FB9
:104A0000AA0FBB1FBD01625B7D4F9AC080919306C8
:104A1000843009F438C00E94241280917E058111EF
:104A20000DC00E949B0F1092470180910807837070
:104A3000809346010E94230F0093480170927E05E7
:104A400010928306E8E1F0E00FB6F894A895E093A1
:104A500060000FBE1093600083B7817F846083BFC6
:104A600083B7816083BF7894889583B78E7F83BF37
:104A70000FB6F894A89580916000886180936000DB
:104A8000109260000FBE0E94B020EAEEF3E0819128
:104A90009191892B09F028C223E0E63FF207B9F78C
:104AA00000CF2817390709F01FCF0E9467210E9405
:104AB00024120E946E059091E903891769F0809392
:104AC000E9038FB7F8944091840650918506609170
:104AD0008606709187068FBFD090930644E0D41667
:104AE00009F459C08091F8039091F903883EA3E03E
:104AF0009A070CF4F3C11092F9031092F80382E4C0
:104B000091E00E9497178EE391E00E949717BFCE25
:104B1000682E4424439434CF90E0FC01EF5AFA4FBE
:104B2000D9015C915183DB015C915187618A880FC7
:104B3000991FFC01EF5AFA4F128E118E91E0842FCB
:104B400041E0480F941540F380935105AA0CBB1C1B
:104B5000BFEFEB1AFB0AEEE0EE16F10409F0E7CE28
:104B6000EFA1F8A53297D182C082539429A53AA526
:104B7000225F3F4F3AA729A736E05312BECE8FB728
:104B8000F894409184065091850660918606709154
:104B900087068FBF8CCF83E08093E9008091E80087
:104BA00082FFA0CF8091E80090E085FF05C00E94C1
:104BB00086038823A1F091E08091E8008B778093B1
:104BC000E800992309F48ECF7A82E981E150E3313C
:104BD00008F05CC0F0E0E35AF44D0C94702A00E257
:104BE00010E0FE0131967F018091E80085FD0AC04A
:104BF0008091E8008B778093E8000E9486038823E9
:104C000099F3D9CF8091F100D7018D937D010150A7
:104C1000110951F7D0CF86E78B838CEE8C837D8290
:104C20001A8234C04EE150E06FE571E0CE01039688
:104C30000E94E52AF5CF4EE150E061E771E0F6CF42
:104C40008B81843018F56C81663000F54D814E30D3
:104C5000E8F40E946B0F9F838E83E2CF8B818430B8
:104C6000A8F46C81663090F44D814E3078F42E813A
:104C70003F810E94440FD4CF8B81803FF1F0813F70
:104C800041F1823F41F1E3E0833FC1F040E250E077
:104C9000BE016F5F7F4F82E00E94A20E8091F703FA
:104CA000882309F41FCF3FEF40E782E031504040B6
:104CB0008040E1F700C0000092CCE0E0B8E0EB9F5C
:104CC000F0011124E25EFE4F83818C8380EB8D83A3
:104CD000A7CFE1E0F3CFE2E0F1CF8B81803FC1F0DD
:104CE000813FC1F0823FC1F0E3E0833F79F628E0E5
:104CF000E29FF0011124E25EFE4F8C81813B08F0BF
:104D000080EB83831A8280914E040E94900CBECF68
:104D1000E0E0EDCFE1E0EBCFE2E0E9CF8B8184355D
:104D200058F0803FC1F0813F19F1823F19F1833F74
:104D300009F0ACCFE3E010C090E0FC01EE0FFF1FE4
:104D4000E80FF91FE05BFB4F80818C8381818D83AD
:104D500082818E8365CFE0E038E0E39FF00111248B
:104D6000E25EFE4F81818C8382818D831E8258CFCB
:104D7000E1E0F2CFE2E0F0CFEB819C818D81E43580
:104D800058F0E03FA1F0E13FE1F0E23FE1F0E33F26
:104D900009F07CCFE3E00CC02E8143E0E49FF001FA
:104DA0001124E05BFB4F90838183228339CFE0E0C5
:104DB000A8E0EA9FF0011124E25EFE4F9183828316
:104DC000A1CFE1E0F5CFE2E0F3CF8B81843008F0B2
:104DD0005DCFB8E08B9FC0011124FC01E25EFE4F65
:104DE000308136953695EBECF1E020E041913413BB
:104DF00006C02C83825E9E4FFC01848168CF2F5FAA
:104E00002F30A1F743CFEB81E43008F03FCFAC81E6
:104E1000AF3008F03BCF2D8138E0E39FF001112443
:104E2000E25EFE4FB0E0A553BE4F8C91982F990FD4
:104E3000990F80818370892B8083248363CF81E0E5
:104E40000E94FE12EDCE86E08B838EE08C83A0E084
:104E500050E040E08FE18D1508F101E010E00C0F0B
:104E60001D1F0D0D111DF801B08181E090E00A2E8B
:104E700001C0880F0A94EAF7F1016081718121E095
:104E800030E0042E02C0220F331F0A94E2F72623DB
:104E90003723232BB1F08B2BF8018083AF5FA83031
:104EA00010F0D394A0E04F5F5F4F4E30510591F664
:104EB000F2E02F0E311C26EF221623E0320641F6D7
:104EC000AFCE80958B23E8CF0E94871381E09B8132
:104ED000911101C080E08093F603A2CE01969093D9
:104EE000F9038093F803D3CC80919206882309F4C8
:104EF000D8CCF9BCE9BC09B400FEFDCF8091D80044
:104F00008F7D8093D8008091E00082608093E000E4
:104F10008091E00081FDFCCF0E948713C2CC80E02D
:104F20000E94FE12B2CBEF92FF920F931F93CF938A
:104F3000DF93182FEB011092BC0084EA8093BC0031
:104F40000E943F197C018091BC0087FF27C080919F
:104F5000B900887F883029F08091B900887F80313E
:104F600089F51093BB0084E88093BC000E943F1930
:104F70008C018091BC0087FF1EC02091B900287F62
:104F800090E080E0283191F081E090E0203411F44D
:104F900090E080E091958195910908C0C7010E9439
:104FA0003019C817D90778F68EEF9FEFCDB7DEB767
:104FB000E6E00C944D2AC8010E943019C817D907A1
:104FC000C0F6F2CF8FEF9FEFF1CF1092B90080E2E1
:104FD0008093B80008950F931F93CF93DF93EB0155
:104FE0008093BB0084E88093BC000E943F198C0131
:104FF0008091BC0087FF11C02091B900287F81E01B
:1050000090E0283211F490E080E09195819591092B
:10501000DF91CF911F910F910895CF3FDC0741F3AE
:10502000C8010E943019C817D90710F78EEF9FEFFB
:10503000EFCF0F931F93CF93DF93EC0184EC80931A
:10504000BC000E943F198C018091BC0087FF08C002
:105050008091BB0090E0DF91CF911F910F91089557
:10506000CF3FDC0789F3C8010E943019C817D90760
:1050700058F78EEF9FEFEFCF0F931F93CF93DF93F0
:10508000EC0184E88093BC000E943F198C01809160
:10509000BC0087FF08C08091BB0090E0DF91CF91FA
:1050A0001F910F910895CF3FDC0789F3C8010E943B
:1050B0003019C817D90758F78EEF9FEFEFCFB0E040
:1050C000A0E0E5E6F8E20C942A2A782E5B016A015A
:1050D00089010E943F194C01C1E0D0E00431110563
:1050E00058F0C5E0D0E00F3F100731F0C80164E18F
:1050F00070E00E94112AEB01BE01872D0E949327C8
:105100007C0197FF09C00F3F1007B1F3C4010E9453
:1051100030190817190780F7E501CA0CDB1CCC15FC
:10512000DD0511F0F7FE09C084E98093BC00C701DA
:10513000CDB7DEB7EDE00C94462AB80189910E9404
:10514000EB277C01ECCFB0E0A0E0E9EAF8E20C94B8
:10515000292A682E762E5A0169010E943F194C01B6
:10516000C1E0D0E00431110558F0C5E0D0E00F3FB8
:10517000100731F0C80164E170E00E94112AEB01D0
:10518000BE01862D0E9493277C0197FF1DC00F3F13
:105190001007B1F3C4010E9430190817190780F7EE
:1051A00084E98093BC00C701CDB7DEB7EEE00C9474
:1051B000452AB80189910E94EB277C01CC16DD06B7
:1051C00079F3F7FEF6CFECCFB801872D0E94EB27DD
:1051D0007C01E501CA0CDB1CF1CFB0E0A0E0E3EFFD
:1051E000F8E20C94292A782E662E6A01E9010E94C1
:1051F0003F195C01EE24E394F12C0431110560F0B9
:1052000025E0E22EF12C0F3F100731F0C80164E1D8
:1052100070E00E94112A7B01B701872D0E9493271D
:105220004C0197FF23C00F3F1007B1F3C5010E9447
:1052300030190817190780F784E98093BC00C4016E
:105240001816190614F490E080E0CDB7DEB7EEE052
:105250000C94452A97FCF0CFC8010E943C284C01D1
:1052600097FDEACFCC0DDD1D8883E6CFB801862DF2
:105270000E94EB274C0197FDDFCF689470F80E94E5
:105280003F195C01EE24E394F12C0431110560F028
:1052900085E0E82EF12C0F3F100731F0C80164E1E2
:1052A00070E00E94112A7B01B701872D0E9493278D
:1052B0004C0197FF09C00F3F1007B1F3C5010E94D1
:1052C00030190817190780F7F12CE12C2197EC16FB
:1052D000FD0608F0BFCF97FCAFCFC8010E94192888
:1052E0004C0197FD04C0F601EE0DFF1D80838FEF8A
:1052F000E81AF80AECCFB0E0A0E0E1E8F9E20C949B
:10530000282A782E562E672E6A01E9010E943F193D
:105310005C01EE24E394F12C0431110560F025E0EA
:10532000E22EF12C0F3F100731F0C80164E170E06C
:105330000E94112A7B01B701872D0E9493274C01FF
:1053400097FF23C00F3F1007B1F3C5010E9430192A
:105350000817190780F784E98093BC00C401181668
:10536000190614F490E080E0CDB7DEB7EFE00C94BE
:10537000442A97FCF0CFC8010E943C284C0197FDBD
:10538000EACFCC0DDD1D8883E6CFB801862D0E94C3
:10539000EB274C0197FDDFCFB801852D0E94EB274D
:1053A0004C0197FDD8CF689470F80E943F195C01BA
:1053B000EE24E394F12C0431110560F085E0E82E31
:1053C000F12C0F3F100731F0C80164E170E00E943A
:1053D000112A7B01B701872D0E9493274C0197FF6B
:1053E00009C00F3F1007B1F3C5010E94301908171B
:1053F000190780F7F12CE12C2197EC16FD0608F037
:10540000B8CF97FCA8CFC8010E9419284C0197FD7E
:1054100004C0F601EE0DFF1D80838FEFE81AF80A35
:10542000ECCFAA1BBB1B51E107C0AA1FBB1FA617CD
:10543000B70710F0A61BB70B881F991F5A95A9F73D
:1054400080959095BC01CD0108952F923F924F9287
:105450005F926F927F928F929F92AF92BF92CF9204
:10546000DF92EF92FF920F931F93CF93DF93CDB70D
:10547000DEB7CA1BDB0B0FB6F894DEBF0FBECDBF85
:1054800009942A88398848885F846E847D848C8456
:105490009B84AA84B984C884DF80EE80FD800C815F
:1054A0001B81AA81B981CE0FD11D0FB6F894DEBF42
:1054B0000FBECDBFED01089597FB072E16F40094A3
:1054C00007D077FD09D00E94112A07FC05D03EF4D1
:1054D000909581959F4F0895709561957F4F0895A0
:1054E000EE0FFF1F0590F491E02D09946927962790
:1054F00069277827872778270895DC01CB01FC01ED
:10550000F999FECF06C0F2BDE1BDF89A319600B41C
:105510000D9241505040B8F70895F999FECF92BDD1
:1055200081BDF89A992780B50895A8E1B0E042E0DE
:1055300050E00C947F2ADC01A40FB51F415050406D
:1055400048F0CB01840F951F2E910E94AC2A415048
:105550005040D0F70895262FF999FECF92BD81BD16
:10556000F89A019700B4021639F01FBA20BD0FB6A1
:10557000F894FA9AF99A0FBE08950396272F0E947D
:10558000AC2A0E94AB2A252F0E94AC2A242F0C940F
:10559000AC2A0196272F0E94AC2A0C94AB2AFB015F
:1055A000DC0104C08D910190801921F441505040DC
:1055B000C8F7881B990B0895FB01DC0102C001901C
:1055C0000D9241505040D8F70895FB01DC01415045
:1055D000504048F001900D920020C9F701C01D9283
:1055E00041505040E0F70895F894FFCFCB0FD60F0D
:1055F000FE0F1A101D102010231028102D1030102F
:1056000033107D1088108A10E41022118E14B61405
:105610006116B6146116E9140A15611608161516F6
:10562000671A6B1A5C1A631A6F1A731A771AB41A0C
:10563000291BBC1A861A8A1AC01A8E1AC41AD01AC2
:105640009A1A221B9E1AD41AA21AD81A001BA61A3A
:10565000DC1A071BAC1AE21AEA1A921AC81A961A2E
:10566000CC1AB01AE61AF61A101B201B801AB81AA8
:10567000301B461C461C7E1C7E1C261DA61CA61C20
:10568000A61C421DAD1DBC1DBC1D5F1B711B431B19
:10569000461B7B1B4B1B801B501B851B551B8A1BF2
:1056A0005A1B8F1B431B461B7B1B4B1B801B501B1A
:1056B000851B551B8A1B5A1B8F1B0B2612261B266C
:1056C0004626462646264626462620262E263C26C2
:1056D0006D268E26BC26E526032723271F27642751
:1056E00013011900000013010A00000013011D003E
:1056F0000000B02DC204EB0EE40EC104DD0E158EC9
:10570000FFB07F040000358EFFB07F040000358EAF
:10571000FFB07F040000358EFFB07F040000500012
:10572000000152000601FFFF0339050000010000DF
:10573000FF0051000C01993700AA56008EFFB0738C
:10574000797374656D37362F6C61756E63685F3180
:10575000006335656561632D6469727479008182C7
:1057600083E200E900EA00B500B600B700CD00838F
:1057700001CC008A01920194012102230224022516
:1057800002260227022A02B300B4006F0070009FB5
:1057900001CB019F02A002F0F1F4F5F6F7976766DE
:1057A0003635349694C69593923730010E02030431
:1057B00006070508090A0B0C0D0002070406030979
:1057C0000209040303080203030344226D3B011989
:1057D00001AC0031054A056A0545464748494A4B30
:1057E0004C4D4E4F50515244434241403F3E3D3C50
:1057F0003B3A3938372728292A2B2C2D2E2F3031A8
:10580000323334262524232221201F1E1D1C1B1A5F
:10581000530C0B0A09080706050403020100360DA4
:105820000E0F1011191213141516171835D133BE97
:1058300033AB339C338C337D336E335F3350334122
:1058400033313322330B3308401B402A4039405058
:10585000406E4085409440A740C240D140E040E0C7
:1058600026C526B226A326942685267626672657A1
:1058700026482639262A261B260826041A171A2601
:105880001A351A441A541A631A721A811A901A9FF6
:105890001AAF1ABE1ACD1AE01AE00DC90DB60DA73F
:1058A0000D980D890D790D6A0D5B0D4C0D3D0D2E7A
:1058B0000D1E0D0F0D000D00000F001E002E003DEF
:1058C000004C005B006A00790089009800A700B6D0
:1058D00000C900E0000404040404040404040404F3
:1058E0000404040404040404040404040404040478
:1058F0000404040404040404040404040404040468
:105900000404040404040404040404040404040457
:105910000404040404040404040404040404040447
:0A5920000404040404040404040059
:00000001FF
