:100000000C94EE020C9426030C9426030C94260305
:100010000C9426030C9426030C9426030C942603BC
:100020000C9426030C9426030C94162B0C94EA2BA8
:100030000C9446250C9426030C9426030C9426035A
:100040000C9426030C9426030C9426030C9426038C
:100050000C9426030C94E9250C9426030C94260397
:100060000C9426030C9426030C9426030C9426036C
:100070000C9426030C9426030C9426030C9426035C
:100080000C9426030C9426030C9426030C9426034C
:100090000C9426030C9426030C9426030C9426033C
:1000A0000C9426030C9426030C9426030026364653
:1000B000002737470028384800293949002A3A4A9A
:1000C000002B3B4B0126364601273747012838488D
:1000D00001293949012A3A4A012B3B4B022636466F
:1000E0000227374702283848007464540075655564
:1000F0000076665600796959007A6A5A007B6B5B14
:100100000174645401756555017666560179695923
:10011000017A6A5A017B6B5B0274645402756555FF
:100120000276665600A4948400A5958500A696865E
:1001300000A7978700A8988800A99989027B6B5B24
:1001400001A4948401A5958501A6968601A79787A9
:1001500001A8988801A9998902796959027A6A5A8D
:10016000002E3E4E002F3F4F003040500031415195
:10017000003242520033435301AC9C8C012E3E4E60
:10018000012F3F4F01304050013141510132425265
:100190000133435302A7978702A89888007C6C5CC0
:1001A000007D6D5D007E6E5E008171610082726215
:1001B0000083736301AD9D8D017C6C5C017D6D5D81
:1001C000017E6E5E018171610182726201837363DF
:1001D00002A9998900AC9C8C00AD9D8D00AE9E8ECD
:1001E00000AF9F8F00B0A09000B1A19101AE9E8E94
:1001F00001AF9F8F01B0A09001B1A19102293949AF
:10020000022A3A4A022B3B4B29003A003B003C00B1
:100210003D003E003F0040004100420043004400DA
:1002200045004C00460035001E001F002000210044
:1002300022000000230024002500260027002D00B6
:100240002E002A002B0014001A00080015001700C9
:100250004B001C0018000C00120013002F0030008F
:100260003100390004001600070009000A002A00C6
:100270000B000D000E000F003300340028004E006C
:10028000E1001D001B0006001900050028001100F8
:100290001000360037003800E500520000003A0533
:1002A0003B05E0000000E300E000E1002C0000005E
:1002B000E6002152E400500051004F00007C010094
:1002C0000100010001000100010001000100B20075
:1002D000B300AF00B1001370037C01000100010006
:1002E0000100010001000000010001000100010007
:1002F000010001000100530020782178277823783D
:10030000010001004A00010001000100010001009C
:1003100001000100010001002A78287829780100F5
:1003200001000100010001000100010001000100C5
:1003300001004D0001000100010001000100010069
:10034000010001000100010001000100A800A90056
:100350000000010001000100000001000100010097
:100360000100000001000100AE00AC00AA00AB00DB
:100370000001010101010101010102020202020268
:10038000020202030303030303030304040404043B
:100390000404050505050506060606060707070702
:1003A0000708080808090909090A0A0A0B0B0B0CB7
:1003B0000C0C0D0D0D0E0E0E0F0F0F101011111154
:1003C00012121313141415151616171718181919D5
:1003D0001A1A1B1B1C1D1D1E1E1F2020212222233A
:1003E0002424252626272829292A2B2C2D2D2E2F7B
:1003F00030313232333435363738393A3B3C3D3E92
:100400003F404142434445464748494A4C4D4E4F80
:1004100050515354555658595A5B5D5E5F61626442
:10042000656668696B6C6D6F7072737577787A7BCF
:100430007D7E8082838587888A8C8E8F9193959626
:10044000989A9C9EA0A2A3A5A7A9ABADAFB1B3B546
:10045000B7BABCBEC0C2C4C6C9CBCDCFD1D4D6D822
:10046000DBDDDFE2E4E7E9EBEEF0F3F5F8FAFDFFC0
:100470000E034E004100540055005200450000009C
:100480000E0358002D0042004F005700530000009B
:100490000403090409023B00020100A0FA09040058
:1004A000000103010100092111010001224400079C
:1004B000058103080001090401000103000000098F
:1004C000211101000122B60007058203200001125C
:1004D000010002000000084258614E0100010200C4
:1004E0000105010902A10185020901A100050919FF
:1004F00001290815002501950875018102050109EA
:100500003009311581257F95027508810609381556
:1005100081257F950175088106050C0A3802158131
:10052000257F950175088106C0C005010980A101DC
:10053000850319012AB700150126B700950175102A
:100540008100C0050C0901A101850419012AA0023E
:10055000150126A002950175108100C0050109064C
:10056000A1018506050719E029E715002501950871
:10057000750181020507190029EF1500250195F085
:10058000750181020508190129059505750191027A
:10059000950175039101C005010906A1010507191F
:1005A000E029E7150025019508750181029501757F
:1005B0000881010507190029FF150026FF0095068F
:1005C0007508810005081901290515002501950503
:1005D00075019102950175039101C00011241FBEA0
:1005E000CFEFDAE0DEBFCDBF04B603FE18C08091C6
:1005F000BA069091BB06A091BC06B091BD068730AB
:10060000904BA740B04B59F41092BA061092BB061B
:100610001092BC061092BD06E0E0F8E3099513E0E5
:10062000A0E0B1E0E0E2FEE502C005900D92A43149
:10063000B107D9F726E0A4E1B3E001C01D92AA3BBF
:10064000B207E1F70E9494120C94A82E0C940000BB
:10065000CF930E94221DC82F882359F00E949C230B
:1006600081FF07C02FEF4FEF6FEF8DE290E00E9408
:10067000C5178C2FCF9108958230B8F46630A8F456
:100680004F3098F450E09FE0699F400D511D1124B8
:10069000FA019AE5899FE00DF11D1124EE0FFF1F6D
:1006A000E85FFD4F85919491089581E090E0089571
:1006B0000E943C03089581E008950E945B03089521
:1006C00081E008950E945B0308950E9462030895EB
:1006D00008950E9468030895A6E0B0E0E2E7F3E021
:1006E0000C940F2E49835A839E8330911B0389817A
:1006F0009A8131111AC03E81332399F0222389F067
:100700000E940A09182F682F89819A810E94E608A1
:1007100069817A81812F0E94F80F2696E3E00C947C
:100720002B2E0E94F808182FF3CF0E940A09698126
:100730007A81F1CFFC01262F408151816281738142
:10074000848195810E946C030895CF93DF93EC011F
:1007500061E00E949A03BE010E945D03DF91CF9188
:100760000895CF93DF93EC0160E00E949A03BE01ED
:100770000E946903DF91CF91089508950E94BB07FD
:100780000E94BD032FEF84E39CE021508040904005
:10079000E1F700C0000008950E94BE030E940D26EC
:1007A00008950E94BE030E94312608950F931F935F
:1007B000CF93DF938C0161E00E949A03EC01B801B2
:1007C0000E946503811106C080E0DF91CF911F91E7
:1007D0000F910895B801CE010E9446238823A1F30A
:1007E000B801CE010E94DC21882371F3B801CE014B
:1007F0000E94B822882341F3B801CE010E947F21D4
:10080000882311F3F8018581882361F0C330FCE768
:10081000DF07E9F058F4C115ECE7DE07A9F0C130B5
:10082000DC47B9F0C8010E946003CFCFCB358CE71D
:10083000D807A9F0CC35ECE7DE0771F0CA35DC4704
:1008400089F70E94400DEECF0E94CC03BDCF0E94DD
:10085000480D0E94D103B8CF0E94360DE3CF0E940D
:10086000440DE0CF0E9422250E94371D0E946104A2
:1008700081E00E945A1E08950E94650480E00E9453
:100880005A1E0E9427250895089581E0089508952D
:10089000CF93DF93D82F0E944504C82F882319F0E7
:1008A0008D2F0E9447048C2FDF91CF9108950895DA
:1008B000CF93C82F0E9444048C2F0E944804CF91EC
:1008C000089580E00E94580408950E948F230E949A
:1008D00058040895CF930E948F23C82F8091160348
:1008E0008C1779F0C09316030E94B225609317030A
:1008F000709318038093190390931A038C2F0E940E
:100900005804CF910895ADE0B0E0E9E8F4E00C942C
:10091000102E488759876A877B878C879D8791111E
:100920000E946E0C1F8286E0FE013896DE01119651
:1009300001900D928A95E1F78D8181110DC0298179
:100940003A814B815C816D817E818F810E94A10BF8
:100950002D96E2E00C942C2ECE0101960E94A50368
:100960008111EDCFF5CFFC012481213021F480816C
:1009700091810E943C090895662329F00E942B135F
:100980000E94FE1308950E948513FACFCF93C82FBB
:100990008823B9F08CEF8C0F813AA8F46C2F8091EA
:1009A0005F02909160020E942524882329F08C2FF9
:1009B0000E942E0C0E94A70C8C2F0E94260C0E94D5
:1009C000A70CCF91089580E28C0F883048F4C7704F
:1009D00081E001C0880FCA95EAF70E94510CEFCF61
:1009E000EBE5EC0FE33040F4F0E0ED54FD4F808197
:1009F00090E00E94C723E5CFE8E5EC0FEB3150F41F
:100A0000F0E0EE0FFF1FE358FD4F808191810E94BF
:100A1000EC23D7CF83E38C0F833198F661E08C2FE2
:100A20000E94BC04CECF882381F19CEF980F913AAD
:100A300028F40E942E0C0E94A70C089590E2980FB3
:100A4000983050F4877091E001C0990F8A95EAF7C9
:100A5000892F0E94570CEFCF9BE5980F933028F415
:100A600090E080E00E94C723089598E5980F9B319D
:100A700028F490E080E00E94EC23089593E3980F1F
:100A8000933118F460E00E94BC0408951F93CF9343
:100A9000DF93182FEB010E94C604209739F4812FB1
:100AA0000E941305DF91CF911F9108958FE99FE078
:100AB0000197F1F700C000002197EFCF70E060E0F0
:100AC000893311F460E570E00E944605089588239B
:100AD00021F00E94510C0E94A70C0895882321F058
:100AE0000E94570C0E94A70C0895B0E0A0E0EBE72D
:100AF000F5E00C94092E6C01D62FC72FFC0115814F
:100B0000068102950F700E94470CE82E8823E9F0B9
:100B1000E12E1123D1F08C2F807F803451F080E2C0
:100B20008D0F8830F8F0011104C08C2F807E803248
:100B3000C9F08091970482FF15C082E00E940A0DDF
:100B40000E94470C91E0E82EE926BC2EB2949FE06B
:100B5000B922FBE0FB15B8F1EB2DF0E0E655F14DC5
:100B60000C94FA2DE12CF1CF0C2F0F70C07F11F0F7
:100B70000295007F112399F0002359F080E28D0F38
:100B8000883010F0D11107C0802F0E94510C0E94B4
:100B9000A70C8D2F5AC0802F0E94610CF8CF8D2F8B
:100BA0000E941305002379F080E28D0F883010F049
:100BB000D11104C0802F0E94570C03C0802F0E94C7
:100BC000670C0E94A70CEB2DE850FF0B349720F424
:100BD0000E948F230E945804EE2089F00E94430C4B
:100BE00080FD0DC0F60115820E943D0C0E94440854
:100BF000C6010E9482070E943D0C0E945408CDB796
:100C0000DEB7E9E00C94252E2C2F2F70F22EC07F3A
:100C1000C03219F0F29480EFF822DD2341F0D13098
:100C2000D1F1112309F444C00023F1F0B2CF809137
:100C3000970482FD15C0112359F0FF2029F08F2D54
:100C40000E94510C0E94A70C80E00E94C604BBCFFA
:100C500080E00E941305FF2009F4B5CF8F2DABCFA4
:100C6000112369F0011104C08F2D0E946705ABCFDD
:100C7000013009F0A8CF8F2D0E94850CA4CF01115F
:100C8000A2CF8F2D0E946E058F2D0E94910C8F2D6B
:100C90000E94750C98CF112321F0063008F093CFF5
:100CA000E3CF053008F08FCF8F2D0E946E058BCFDC
:100CB0000023D1F3D93349F43FEF87EE93E031506D
:100CC00080409040E1F700C000008D2F0E94130586
:100CD0007ACF8C2F86958695837069F0813009F0E4
:100CE00072CF8D2F9C2F9370111102C080E090E085
:100CF0000E94EC2368CF8D2F9C2F9370111102C09E
:100D000080E090E00E94C7235ECF612F8D2F0E946C
:100D1000BC0459CF8C2F8370A1F5111154CF4D2FE6
:100D2000429546954770440F440F2D2F2F7030E0A9
:100D3000042E02C0220F331F0A94E2F790E080E0F5
:100D4000D4FF09C08FE090E002C0880F991F4A9538
:100D5000E2F780959095C695C695C370822B932B2C
:100D6000C23049F058F4C13019F00E9414082BCF5A
:100D70000E940B0828CF0E941D0825CF0E9408085A
:100D800022CF8695112311F08C2F8170882309F4CE
:100D90001ACF4D2F429546954770440F440F2D2F83
:100DA0002F7030E0042E02C0220F331F0A94E2F7A6
:100DB00090E080E0D4FF09C08FE090E002C0880F8F
:100DC000991F4A95E2F780959095C695C695C37090
:100DD000822B932BC23049F058F4C13019F00E9495
:100DE0007F08F1CE0E947608EECE0E948808EBCEF6
:100DF0000E942C08E8CECF70112329F08C2F0E947E
:100E000044088D2F32CF8D2F0E946E058C2F0E94AB
:100E10005408D9CED23F41F160F4D03FB9F0D13F70
:100E200081F0112309F446C00111B3CE8C2F8F71CC
:100E30001FC0D33F01F1D43FA1F78091970482FDF9
:100E400024C08C2F8F71112311F312C0112341F094
:100E5000053008F0B8CE8C2F8F710E946608B3CE93
:100E6000063008F0B0CEF7CF8C2F8F711111CFCF95
:100E70000E944408A8CE112329F08C2F8F710E9464
:100E80003808A1CE0E9433089ECE112349F0CF71BD
:100E90008C2F0E94440863E08C2F0E94EC0C93CEB0
:100EA00081E00E940A0D023008F48DCE82E00E949B
:100EB0000A0D89CE002359F0D93309F006CFEFEFA0
:100EC000F7EE23E0E150F0402040E1F7FCCE8C2F1C
:100ED0008F719DCF0F931F93CF93DF93EC016881A8
:100EE00079818D810E9447098C010E9491080E949E
:100EF0000708B801CE010E947505DF91CF911F91BF
:100F00000F910895CF93DF93EC018C81882399F0A2
:100F1000CE010E94D603811111C00E94470C882384
:100F200051F08D81882339F08091970482FF03C0AE
:100F300082E00E940A0DDF91CF910895CE010E94B8
:100F40006A07CE010E94B103F6CF90E080E00E94D4
:100F5000C72390E080E00E94EC230E946E0C0E9468
:100F6000A70C0E941A140E94FE1308950E94360CCA
:100F70000E94A50708950E945E0C0E94B60708957E
:100F800092959F70963091F058F4925F9F709230D6
:100F900058F4803F19F030F4883E30F481E0089531
:100FA0009A5FF4CF843FD1F380E00895883EB0F398
:100FB000813FD1F7F3CFFC012481222339F08081D6
:100FC00091810E943C090E94C007089580E0089525
:100FD000A6E0B0E0EEEEF7E00C94102E2696E2E0EC
:100FE0000C942C2EA7E0B0E0E8EFF7E00C94102E64
:100FF0002796E2E00C942C2E08950E94FC07089599
:101000000E94FD0790934F0380934E030895089527
:101010000E940008089520914E0330914F03822BC7
:10102000932B0E940008089520914E0330914F03A6
:10103000822393230E940008089520914E0330914B
:101040004F03822793270E94000808950E94FC07FF
:1010500008950E94260808950E94290890934D0340
:1010600080934C03089590E080E00E942C0808953E
:1010700021E030E0A90102C0440F551F8A95E2F734
:10108000CA010E942C08089521E030E002C0220F1E
:10109000331F8A95E2F780914C0390914D03822B88
:1010A000932B0E942C08089521E030E002C0220F0B
:1010B000331F8A95E2F72095309580914C039091EB
:1010C0004D03822393230E942C08089521E030E0F1
:1010D00002C0220F331F8A95E2F780914C03909152
:1010E0004D03822793270E942C08089520914C03DA
:1010F00030914D03822B932B0E942C080895209150
:101100004C0330914D03822393230E942C080895B1
:1011100020914C0330914D03822793270E942C0885
:1011200008950895262F277091E001C0990F2A9500
:10113000EAF723E0769567952A95E1F7660F771F22
:10114000660F771FFA01E60FF71F50E040E0682FA7
:1011500070E08191DF0111979B01042E02C036954A
:1011600027950A94E2F7217021952827292328271B
:101170002C934F5F5F4F4430510559F70895A82FC6
:10118000A77023E0969587952A95E1F7880F991F18
:10119000880F991FFB01E80FF91F50E040E080E045
:1011A000219130E00A2E02C0369527950A94E2F785
:1011B00021703327042E01C0220F0A94EAF7822BF4
:1011C0004F5F5F4F4430510559F70895262F9630F1
:1011D00070F48F3060F4682F70E08FE0989F600D9E
:1011E000711D11244CE153E0822F0E949208089552
:1011F000292F963068F48F3058F490E06CE173E05A
:101200003FE0239F800D911D11240E94BF08089587
:1012100080E00895B0E0A0E0E0E1F9E00C94092E50
:101220007C0100914C0310914D0380914E039091ED
:101230004F03082B192BCFE0D0E0CC24C394D12C42
:10124000BC2EC6010C2E02C0880F991F0A94E2F72B
:1012500080239123892B49F4219790F7B12C8B2D72
:10126000CDB7DEB7E9E00C94252EB7018C2F0E9494
:101270000410019789F3F3CFCF93DF93EC010E9421
:101280000A09BE010E940410DF91CF9108951F93B7
:10129000CF93DF93EB0190911B03992339F0CB019E
:1012A0000E943C09DF91CF911F910895882369F036
:1012B000CB010E940A09182F682FCE010E94E60870
:1012C000BE01812F0E940410EDCFCB010E94F808CF
:1012D000182FF6CF1F93CF93DF93C091500317E0E1
:1012E000809151038C1304C0DF91CF911F91089519
:1012F000D0E01C9FF0011D9FF00D1124EE5AFC4F11
:1013000020813181428153816481758186810E946F
:10131000F2072196C770E4CF20918A0330918B03A6
:1013200040918C0350918D0360918E0370918F03D7
:10133000809190030E94F2070895CF93DF938091EC
:101340009003807F09F04DC080918F03882309F4BA
:1013500048C0E091500350915103C0918B03D0914C
:101360008A0360918C0370918D0347E05E17C9F189
:101370008E2F90E0E49FF0011124EE5AFC4F24815F
:10138000222391F1489FF001499FF00D1124DF01C4
:10139000AE5ABC4F11962C9111972C1325C02C914D
:1013A0002D1322C015962C91159721111DC0129650
:1013B0002D913C91261B370B283C3105A8F48091D8
:1013C00090038F70806180939003E85AFC4F808176
:1013D0008F70806180838AE893E00E9482070E9478
:1013E0006A09DF91CF910895FC013196E770BECF75
:1013F000482F209150039091510357E0291302C0C8
:1014000080E0089530E0529FF001539FF00D1124C9
:10141000EE5AFC4F8181681306C08081481303C0D7
:1014200085818111EECF2F5F3F4F2770E7CFA4E179
:10143000B0E0EDE1FAE00C94062E8C0186E0F801B4
:10144000DE011F9601900D928A95E1F7F8018481E3
:10145000E5809AE8A92E93E0B92E90918E03911120
:101460001FC08823D1F0EE20A9F0C8010E94DB073D
:10147000F82E882379F087E0F801D50101900D92CC
:101480008A95E1F7C5010E94B3040E949D090E945C
:101490008C095FC0C8010E948207FF24F39459C0E1
:1014A000C080D18082809380F0908F0320918C0344
:1014B00030918D03A401421B530BFF2009F4F9C0A6
:1014C000483C510508F0A7C0882309F442C0909118
:1014D0008B0380919003282F207F09F05CC09D1121
:1014E00016C090918A03C91212C0E1104EC08F70CD
:1014F0008061809390030E948C098AE893E00E94A7
:10150000820780919003F8018683F12C22C0E110BC
:101510003CC06D2D8C2D0E94F8096D2D8C2D0E94E4
:10152000F809E82E8111F1CFCF86D88A8F85988966
:101530000E943C09292F22952F70243078F49F7047
:101540002230A8F09923B9F0F8019681907F99F4A0
:10155000FE2C8F2D6496ECE00C94222E2A5F2F70C7
:10156000223068F0C8010E948207EF2CF1CF992346
:1015700011F0882369F3805E883050F3F3CF803F09
:1015800038F3815F833070F7E3CF809190038160FF
:1015900080939003BACF9D1113C090918A03C91212
:1015A0000FC0E1100DC08683C8010E94820787E04A
:1015B000F801AAE8B3E001900D928A95E1F767CFB0
:1015C000C8010E94DB07882309F464CFEE2009F4E8
:1015D00061CF80919003803288F020918A0330910E
:1015E0008B03398728879B868A8690918E039C87F8
:1015F0001D868E87CE0108960E94820787E0F8013B
:10160000AAE8B3E001900D928A95E1F70E949D0946
:101610000E948C0942CF90919003292F207FA1F442
:10162000682D9A8A898AA6017A899E2D0E94E807E8
:101630008AE893E00E94820787E0F50111928A957B
:10164000E9F70E948C0961CF882309F482CF809149
:101650008B038D1110C080918A03C8120CC0E11059
:101660000AC09683C8010E94820787E0F5011192A3
:101670008A95E9F76ECFC8010E94DB07882309F439
:1016800009CFEE2009F406CF80919003803208F450
:10169000B5CF20918A0330918B033A8329839C82B2
:1016A0008B8290918E039D831E828F83CE01019643
:1016B000A3CF483C5105B8F5882309F4EECEFE2CA3
:1016C000EE2009F4E7CE80918B038D111EC080912E
:1016D0008A03C8121AC08091900380FD0DC0982F14
:1016E000907F51F08683903F09F45ECF982F907FD2
:1016F000905F8F70892B57CF87E0F801AAE8B3E09D
:1017000001900D928A95E1F724CFC8010E94DB0772
:10171000811174CF80919003816080939003C80100
:101720000E94820716CF682D9A8A898AA6017A8933
:101730009E2D0E94E80787E0F50111928A95E9F74E
:10174000A6CEAEE0B0E0E7EAFBE00C940F2E2887CF
:1017500039874A875B876C877D878E87CE0108969D
:101760000E94170A8823B1F06C85662341F0288512
:1017700039854A855B857D858E850E94F20717E055
:10178000809150039091510389133DC02E96E3E060
:101790000C942B2E87E0FE013896DE011196019005
:1017A0000D928A95E1F78C85882349F320915103A6
:1017B00030E0C9010196877099274091500348177E
:1017C000190699F097E0929FD001939FB00D1124D4
:1017D000AE5ABC4FFE01319601900D929A95E1F7F9
:1017E000809351030E946A09CACF0E94BB071092DE
:1017F00051031092500387E0EAE8F3E0DF011D9205
:101800008A95E9F7BCCF819FC00111248E5A9C4F65
:101810000E94170A882309F4B9CFE09150031E9F54
:10182000F0011124EE5AFC4F208131814281538115
:101830006481758186810E94F2078091500390E057
:10184000019687709927809350039ACF682F8091D3
:101850005F02909160020E94A5240895682F8091F4
:101860005F02909160020E94B324089580915F020C
:10187000909160020E94C12408958091B1038695E1
:101880008695869508958091B1038770089590910B
:10189000B103977081E009F480E008958091D50349
:1018A00008959091D503892B8093D5030895809551
:1018B0009091D50398239093D50308951092D50362
:1018C00008959091D403892B8093D4030895809533
:1018D0009091D40398239093D40308951092D40345
:1018E000089508950E94710C08959091B203292FD4
:1018F000282331F0809589238093B2030E94720CD3
:10190000089508950E94810C08959091B303292FA2
:101910002823281729F0982B9093B3030E94820C58
:1019200008959091B303292F282331F080958923BE
:101930008093B3030E94820C08958091B30388239F
:1019400029F01092B30380E00E94820C0895CF9397
:10195000DF93E0915F02F09160028091D503808374
:10196000E0915F02F091600280819091D403892B15
:1019700080839091B303992381F0E0915F02F0910D
:1019800060028081892B808380915F029091600248
:101990000E94112481110E949D0CC0915F02D09180
:1019A000600240E250E061E973E0CE010E94402E07
:1019B000892B59F080E2FE01A1E9B3E001900D927C
:1019C0008A95E1F7CE010E949F23DF91CF91089580
:1019D00008950E94E80C08959091970492FF11C019
:1019E00098E0899F90011124622B6093B1030E94BB
:1019F00044088091B1038695869586950E94E90CEE
:101A000008950E94440808951092B10380E00E9456
:101A1000E90C08959091B103809589238093B103D7
:101A2000282F277069F4891759F09091970492FF35
:101A300007C08695869586950E9454080E94040DDD
:101A400008959091970492FB222720F9281769F0B6
:101A500080FB92F99093970480919604909197045B
:101A60000E94690D82E00E940A0D089580919704FA
:101A700082FB882780F991E089270E94210D089533
:101A800081E00E94210D089580E00E94210D0895BB
:101A90006FEF7FEF90E080E00E94A22E089590E02B
:101AA00080E00E946E2E21E0863E9E4F09F020E0ED
:101AB000822F089582E090E00E94662E089583E0D0
:101AC00090E00E94662E089584E090E00E946E2EC1
:101AD0000895BC0184E090E00E94A22E0895AB011D
:101AE000BC018FE090E00E94962E0895AB01BC01EE
:101AF00083E190E00E94962E089560E070E0CB01B3
:101B00000E94760D089560E070E0CB010E946F0D99
:101B10000E947D0D0895A8E0B0E0E1E9FDE00C949D
:101B2000102E66EE7EEF90E080E00E94A22E60E034
:101B300082E090E00E94842E60E083E090E00E94CA
:101B4000842E10924F0310924E0360E074E184E003
:101B500090E00E94A22E60E086E090E00E94842E39
:101B60006FEF87E090E00E94842E40E050E0BA01E1
:101B700088E090E00E94962E60E084E290E00E946F
:101B8000842E60E087E190E00E94842E60E08CE08B
:101B900090E00E94842E60E08DE090E00E94842E10
:101BA00019821A821B821C821D821E821F82188645
:101BB00048E050E068E170E0CE0101960E94742E8A
:101BC00040E050E0BA0180E290E00E94962E0E9430
:101BD000830D2896E2E00C942C2E0E948B0D089524
:101BE000682F8EE090E00E94842E0895A6E0B0E079
:101BF000ECEFFDE00C940E2E0E94A6258C01809146
:101C0000D6039091D7038017910781F019821A8229
:101C10000E94A625682F49815A81792F80E090E0A3
:101C20000E9483041093D7030093D6032696E4E022
:101C30000C942A2E0E94B2256093E8037093E90366
:101C40008093EA039093EB036093E4037093E503BE
:101C50008093E6039093E7030895089508950E9402
:101C60002D0E089508950E94320E08958AEF90E196
:101C70000E94A1120E942E0E0E942F0E089581E054
:101C800008950E943F0E08950E943F0E0895089502
:101C900008950E94470E0E94480E08950E94161152
:101CA0000E9457040E94F31D08950E949D250E94E2
:101CB000F5110E944E0E0E94330E0895A6E0B0E08A
:101CC000E4E6FEE00C94042E0E94410E81110CC04B
:101CD0000E94F60D0E94371D0E943C140E946A0467
:101CE0002696EEE00C94202E0E940B1228ED822EF8
:101CF00023E0922E640110E0F601E190F1906F0173
:101D0000812F0E943C111F5F163009F44EC0E81667
:101D1000F90691F38091EC0381FD0E9445110E9428
:101D2000440E682E10E0812F0E943C117C01F401CA
:101D3000A190B1904F018A159B0589F100E0CC2458
:101D4000C394D12CAE24BF24C5018C219D21892BA5
:101D5000E9F077247394C7018C219D21892B09F424
:101D6000712C662071F009831A830E94A625682FC2
:101D70008B839C8349815A81792F81E0972D0E9422
:101D80008304472D602F812F0E94EF1B0F5FCC0C27
:101D9000DD1C0F30C9F6F4013297F182E0821F5F3B
:101DA000163009F60E941A0E95CFE816F90609F0CA
:101DB000B1CF8ECF1F93CF93DF930E940910EC0118
:101DC000C11580E5D807F0F5C11580E4D80708F003
:101DD0009CC0C03ED10520F5CD3CD10508F082C0A5
:101DE000C83AD10578F4C53AD10508F073C0C130BE
:101DF000D10519F1209709F1C430D105F0F4D0E0F4
:101E0000C0E01BC0C33CD105D0F7C85AD0E0CC0F0E
:101E1000DD1FCA54DD4F0990D881C02DD4640DC098
:101E2000C11580E2D80708F0D1C0C11581E0D807FC
:101E300008F05AC0C83ED10510F7CE01DF91CF910E
:101E40001F910895C03682E5D80718F5C03482E5A1
:101E5000D80708F06BC0C03282E5D80708F05FC031
:101E6000C11582E5D80708F497C02C2F2695269532
:101E700080E2289F900111248C2F8370C1E0D0E074
:101E800002C0CC0FDD1F8A95E2F7C22BD32BDD6891
:101E9000D4CFC03A82E5D80760F4C03882E5D807CD
:101EA00008F459C0CF71D0E0DC2FCC27C46FD06AC2
:101EB000C4CFC03C82E5D80708F462C0C03E82E5CA
:101EC000D80708F09CCFDC2FCC27CC27DF71C06F60
:101ED000D06AB3CFC55AD0E0C451DD4FC881D0E03D
:101EE000D064ABCFD065A9CF8D2F0E94AB10182F37
:101EF000CE0199270E940910C12FD0E0DC2FCC27FA
:101F0000CC27DF71C82BD92B98CFCE0199270E94FF
:101F10000910CC27DF70C82BD92BD06A8ECFCF7198
:101F2000D0E0DC2FCC27C16FD06A87CF2C2F26952D
:101F30002695277080E2289F900111248C2F8370B2
:101F4000C1E0D0E002C0CC0FDD1F8A95E2F7C22BC2
:101F5000D32BDC6872CF2C2F26952695277080E234
:101F6000289F900111248C2F8370C1E0D0E002C023
:101F7000CC0FDD1F8A95E2F7C22BD32BDA685DCF39
:101F80008C2F8F710E94AB10C82FD0E0DC2FCC2794
:101F9000CC27DF71D06251CF8C2F8F710E94AB1094
:101FA00055E0D695C7955A95E1F7CF70D0E0DC2F74
:101FB000CC27282F30E084FF05C044E0220F331FD8
:101FC0004A95E1F7C22BD32BD06937CF8D2F8F7174
:101FD0000E94AB10182FCE0199270E940910C12F23
:101FE000D0E0DC2FCC27CC27DF71C82BD92BD2CF68
:101FF000462F763030F46F3020F4672F0E9458035C
:10200000089590E080E008950E94F80F0E94DA0E93
:10201000089582389105B9F1B0F48133910509F43E
:102020007DC048F48932910509F46DC08A3291056A
:1020300009F47BC008958533910509F45FC08933A5
:10204000910509F10895833E9105D9F138F4803E58
:10205000910529F1823E910579F10895863E910519
:10206000D9F1873E910509F43EC0843E910541F5C2
:102070002091970421FF24C08091960484FD19C00B
:1020800087EE90E0089520919604237009F05AC0DD
:102090002091970423FF14C089E290E008952091D5
:1020A000960420FD38C03091970430FF09C024FF0A
:1020B00043C090E080E008952091960422FDF7CF80
:1020C00008952091960422FD3AC03091970430FD86
:1020D00039C024FFF5CFEDCF2091960423FFF0CF38
:1020E00024FDE7CFCDCF2091960423FD2EC0309163
:1020F000970431FFEECF84EE90E00895209196048E
:1021000025FFDECFC9CF2091960425FD21C0209167
:10211000970423FFD5CF89E390E0D2CF2091960496
:1021200026FFCECF8AE290E008952091960426FF04
:10213000C7CF81E390E0089583EE90E0089582EEAA
:1021400090E0089580EE90E0089586EE90E0089586
:1021500085E390E008959091960492FF10C041E0CD
:10216000282F2471243009F040E031E0282F287115
:10217000283009F030E0431711F02CE0822793FF5C
:1021800010C041E0282F2471243109F040E031E0F3
:10219000282F2871283109F030E0431711F02CE086
:1021A00082273091970430FF10C051E0282F217111
:1021B000213009F050E041E0282F2871283009F043
:1021C00040E0541711F029E0822731FF10C041E0B0
:1021D000282F2171213109F040E031E0282F2871AA
:1021E000283109F030E0431711F029E0822794FDEF
:1021F000877E089580E008950E94480D08950E940A
:102200000B128FEB9DE50197F1F700C000000E94D3
:102210000B1280E00E943C1180FF04C00E94FC1061
:102220000E940D2608950E94FF1008950E944F0DF0
:10223000811102C00E94ED0D0E945A0D8093EC03A3
:102240000E94640D90939704809396040E9413114A
:102250000E945F0D90E00E94080880914C039091CD
:102260004D030E942908089508950E94341108958D
:1022700008950E9438110895E82FF0E0EE0FFF1F37
:10228000EC55FB4F808191810895089580EA8A95ED
:10229000F1F7089500C008950E9446110895F8943A
:1022A000E82FE295EF70F0E031A1282F2F7081E048
:1022B00090E001C0880F2A95EAF7982F9095932314
:1022C00091A392A1892B82A3789408950F931F93D1
:1022D000CF93DF93CEEFD2E089918F3F11F00E9430
:1022E0004F1183E0C430D807B9F7CFEED2E00EEF3C
:1022F00012E089918F3F11F00E944F110C171D07BA
:10230000C1F7DF91CF911F910F910895AF92BF92C6
:10231000DF92EF92FF920F931F93CF93DF938C0185
:10232000D62EC62FD0E0CE0182509D4F7C01FC01FD
:1023300020812F3F09F44CC0F894E22FE295EF7012
:10234000F0E031A12F7081E090E001C0880F2A9564
:10235000EAF7932F982B91A392A18095892382A3CA
:1023600078940E944A11EFEEF2E041E050E0B12C87
:10237000A12C21912F3FB1F1A22FA295AF70B0E017
:1023800090968C9190E02F7002C0959587952A9534
:10239000E2F780FD27C0CA01A82AB92A440F551FB9
:1023A00082E0EE3FF80729F7F70180818F3F11F0B7
:1023B0000E944F1161E0A114B10409F460E08D2D79
:1023C0000E944C11CC0FDD1FC00FD11FB982A88213
:1023D000DF91CF911F910F91FF90EF90DF90BF9011
:1023E000AF90089590E080E0D7CF0E9466118CE016
:1023F000E4EAF4E0DF01982F1D929A95E9F7E8E905
:10240000F4E0DF011D928A95E9F786E00E9446120A
:102410000E9435110895ACE0B0E0E1E1F2E10C94E6
:102420000D2E8E010F5F1F4F8CE0F80111928A95DF
:10243000E9F7F12C6F2DC8010E948611F394F6E0A4
:10244000FF12F8CF4CE050E0B80188E994E00E9418
:10245000402E21E0009709F420E0892B41F08CE028
:10246000F801A8E9B4E001900D928A95E1F746E001
:1024700064EA74E088E994E00E944712182F0E94F1
:102480003911812F2C96E5E00C94292E0895CF92D6
:10249000DF92EF92FF921F93CF93DF936C017B014A
:1024A000C42F222349F081E08093EF030E94A625E8
:1024B0009093EE038093ED031091EF0311110AC086
:1024C00010E0812FDF91CF911F91FF90EF90DF906F
:1024D000CF9008958091ED039091EE030E94BE2568
:1024E000039770F3D0E0CC0FDD1FAE01B601C7013A
:1024F0000E94402E892B41F0AE01B601C7010E9417
:102500004D2E1092EF03DDCF10E0FBCF0E94672825
:102510000E94550E0E94742808950E9479280E94F6
:102520005E0E0E94932808950E943F250E944D2828
:102530000E94360E0E9486120E948D120E94490E41
:10254000FBCF90931503809314030895282F35EB48
:102550002303C001112497FF04C080589109892FDB
:10256000089580589F4FFBCF8091F60380FF0DC0E8
:102570006091660270E0660F771F6038710570F534
:102580006115710569F1862F089581FF07C060917B
:10259000660284E0689FB0011124EFCF609166026B
:1025A00082FD0AC08091F5038823A9F0209165027D
:1025B00060916602821710F088E0ECCF869FC00120
:1025C000112433E0880F991F3A95E1F7622F70E0EC
:1025D0000E94A52DD2CF68E070E0D5CF8FE7089597
:1025E00081E008958091F60380FF0CC06091620243
:1025F00070E075956795759567956115710549F159
:10260000862F089581FF06C06091620270E0759583
:102610006795F3CF6091620282FD0BC09091F40345
:102620009923A1F06091610280916202961738F0BF
:10263000682F70E06038710500F38FE70895899F77
:10264000C001112470E00E94A52DF4CF61E070E07C
:10265000D7CF81E008958D3C31F40E94B41281956A
:102660008093FA0308958E3C19F40E94B412F8CFB7
:102670008F3C31F40E94B41281958093F903089540
:10268000803D19F40E94B412F8CF893D29F40E94CC
:10269000F2128093FB0308958A3D21F40E94F21206
:1026A0008195F7CF8B3D31F40E94F2128195809392
:1026B000FC0308958C3D19F40E94F212F8CF9FE2BA
:1026C000980F983070F4815D990B21E030E001C0E3
:1026D000220F8A95EAF78091F803822B8093F80302
:1026E00008958D3D31F48091F60381608093F60367
:1026F00008958E3D21F48091F6038260F7CF8F3DDF
:10270000B9F78091F6038460F1CF4091F9038D3CD5
:1027100059F48091FA0387FF0DC01092FA0341111A
:102720000BC01092F50308C08E3C81F48091FA032F
:1027300018169CF3442381F08091FB039091FC03D5
:10274000892B09F05AC01092F40308958F3C49F484
:1027500047FFF0CF1092F9038091FA038111ECCF7B
:10276000E0CF803D19F41416ACF3E4CF9091FB0355
:10277000893D29F41916F4F61092FB03DBCF8A3D4C
:1027800019F497FFD7CFF8CF9091FC038B3D29F434
:1027900097FFD0CF1092FC03CDCF8C3D19F41916C2
:1027A000CCF3C8CF9FE2980F983090F4815D990BDD
:1027B00021E030E0B90102C0660F771F8A95E2F789
:1027C000CB0180959091F80389238093F803B2CFD1
:1027D0008D3D31F48091F6038E7F8093F603AACF6E
:1027E0008E3D21F48091F6038D7FF7CF8F3D09F068
:1027F000A1CF8091F6038B7FF0CF08950E94A6258C
:102800009C019091F9038091FA03982B21F0309369
:10281000F3032093F2039091FB038091FC03982B28
:1028200021F03093F1032093F00387EF93E00E94AF
:10283000B923089586E0E7EFF3E0DF011D928A9562
:10284000E9F71092F5031092F4031092F60308953D
:10285000FC01828181110EC0838181110BC08481B2
:10286000811108C091E08581811101C090E0892F1C
:102870008170089581E0FCCFA6E0B0E0E2E4F4E1ED
:102880000C940F2E86E0E7EFF3E0DE011196019045
:102890000D928A95E1F71092F9031092FA031092C3
:1028A000FB031092FC038B819C81892B89F0809122
:1028B000F2039091F3030E94BE25AC019091F503C1
:1028C0009923C9F1809167028417150608F440C066
:1028D0008D819E81892B91F08091F0039091F1037D
:1028E0000E94BE25AC019091F403992309F46AC0BB
:1028F000809163028417150608F472C0BE016F5FF1
:102900007F4F87EF93E00E94D324811105C087EFAA
:1029100093E00E94281481110E94FE1386E0FE01BC
:102920003196A7EFB3E001900D928A95E1F72696D4
:10293000E3E00C942B2E209168028AE0289F9001FE
:1029400011242417350720F69F5F9093F50302C0EA
:102950009F3FD1F71B81112359F00E94B4129FEFC2
:1029600011160CF491E0899F802D11248093F903B6
:102970001C81112359F00E94B4129FEF11160CF420
:1029800091E0899F802D11248093FA038091F903AF
:10299000882309F49DCF1091FA03112309F498CFED
:1029A0000E94A612882351F08093F903812F0E9480
:1029B000A612882329F08093FA038ACF81E0F4CF0E
:1029C00081E0F9CF209164028AE0289F90011124D0
:1029D0002417350708F092CF9F5F9093F40302C04D
:1029E0009F3FD1F71D81112359F00E94F2129FEFF2
:1029F00011160CF491E0899F802D11248093FB0324
:102A00001E81112359F00E94F2129FEF11160CF44F
:102A100091E0899F802D11248093FC038091FB031A
:102A2000882309F46BCF1091FC03112309F466CFBE
:102A30000E94A612882351F08093FB03812F0E94ED
:102A4000A612882329F08093FC0358CF81E0F4CFAD
:102A500081E0F9CFEF92FF920F931F93CF93DF9313
:102A6000EB01E82FD1110EC0442321F0F0E0E05932
:102A7000FC4FE4916E2F7E2F8E2FCDB7DEB7E6E0B0
:102A80000C94282E0D2F10E0282F30E0442329F03D
:102A900020593C4FF901249130E0F6E0CF9FC0016E
:102AA0001124EFEFF0E0BF010E94912DAB018C2FBC
:102AB00090E0880F991FA5E5A49FB001A59F700D18
:102AC0001124861B970B982F990F980FBF01601B3D
:102AD000710B629FD001639FB00D729FB00D1124E6
:102AE0008B2F9D9FB0011124672F7727EF01C61B05
:102AF000D70BBE01629FE001639FD00D729FD00D86
:102B000011247F01E91AF108E09EB001E19E700DE9
:102B1000F09E700D1124672F7727E61BF70BE29FBD
:102B20008001E39F100DF29F100D1124E12F722FF1
:102B30004230510599F048F44115510569F0413092
:102B4000510581F0EB2F8D2F07C04430510569F0FE
:102B500080F046305105B1F76E2F8FCFE22F7B2FDB
:102B6000812FFACFE22F7D2FF7CFEB2F822F712FFE
:102B7000F3CF7B2F822FED2FEFCF41E00E942A155C
:102B8000089530E020E0869F212D969F200D311D75
:102B90001124C9010895AC018230910508F408950B
:102BA0009FEF413E8EE1580740F49A0195E036953B
:102BB00027959A95E1F798E0920F61E0E62FE90FEB
:102BC000FF27FF1F9F0135952795822F229FF00138
:102BD000239FF00DF00D11244E175F0738F49FEF7F
:102BE000920F961758F78FEF860F08952F3FE9F34E
:102BF00061E0620FF6CFE82F86FDE0952E2F2F7053
:102C000086FD2F5FE695E695E695E670F0E0EC5FD1
:102C1000FC4F9181929F902D212D112492959F70B0
:102C20002295207F922B2081920F87FD919580E83D
:102C3000890F0895622F0895E42FF0E0EE0FFF1F33
:102C4000E65AFE4F6081621B0895E42FF0E0EE0F1C
:102C5000FF1FE55AFE4F6081621B0895EF920F93AC
:102C6000972F23E0029FB0011124759567956E0D93
:102C7000792F0F91EF9008950F931F9310E0F801B3
:102C8000EE0FFF1FE65AFE4F90819C5597FD9195E0
:102C9000000F111FF801E55AFE4F00810152110B80
:102CA0002003F001219FF00D112408E310E0091B1F
:102CB000110997FD139540039001419F300D112498
:102CC000E20FF31F9F01220F331F2E0F3F1F37FF0D
:102CD00002C021583F4F220F232F221F330B620FB8
:102CE0001F910F9108954095282F429F412D112447
:102CF000842F089522E8241B08F420E0620F089531
:102D0000EF92FF920F93970195E0099F200D311DDF
:102D100011242F3F310519F010F02FEF30E02095EE
:102D2000382F320F08F43FEF832F0F91FF90EF9071
:102D30000895EF92FF920F931F930E0D1F2D111DFB
:102D4000F90137FF03C0F195E195F10924E0EE0F99
:102D5000FF1F2A95E1F7EF3FF10519F014F0EFEFAF
:102D6000F0E09A0157FF03C031952195310994E0B5
:102D7000220F331F9A95E1F72E173F070CF4F90144
:102D8000E00FF11FEF3FF10519F010F0EFEFF0E069
:102D9000E095282F3E2F230F08F42FEF822F1F914D
:102DA0000F91FF90EF900895EF92FF920F9397018C
:102DB000201B31092F3F310519F010F02FEF30E0C3
:102DC000322F3095482F430F08F44FEF842F620FB6
:102DD0000F91FF90EF900895EF92FF920F9397015C
:102DE000201B31092F3F310519F010F02FEF30E093
:102DF0002095382F320F08F43FEF832F0F91FF906B
:102E0000EF9008959091FD03892B8093FD03089521
:102E1000FC019B01009729F480E077FF2BC080E83C
:102E20000895AC0197FF04C044275527481B590B50
:102E3000B901640F751F37FD10C0241B350BC90184
:102E4000A5E0880F991FAA95E1F70E94A52D80E2C1
:102E5000861BF7FF0FC081950895CB0165E0880FB1
:102E6000991F6A95E1F7BA01621B730B0E94A52DA9
:102E700080E6EECF0895EF920F931F93CF93DF93E9
:102E8000D62FC72F182FC9010E19010FBA010E94A2
:102E90000817081B202F219F212D1124822F6D2F11
:102EA0007C2FDF91CF911F910F91EF9008950F9399
:102EB000CF93DF93D72FC82FC901BA010E940817FB
:102EC000682F600F7D2F8C2FDF91CF910F91089588
:102ED000EF920F93CF93DF93D72FC82FC9010E190D
:102EE000BA010E940817602F681B7D2F8C2FDF917D
:102EF000CF910F91EF90089548E050E068E170E0C5
:102F000080EB94E00E94742E1092FD0308950E94BD
:102F1000BD150895E0EBF4E085E1808380917A02AD
:102F200090917B02A0917C0281839283A3838FE79F
:102F300084838FEF85830E947C17089580E0089535
:102F40000F931F93CF93DF93C82FD62F8A010E9430
:102F50009E179FE0C99FB001112460507F4F6D0FF5
:102F6000711DFB0190819F3F29F0F801E80FF11DD1
:102F700090838F5FDF91CF911F910F910895E09122
:102F80001203F091130309950895E0910E03F09157
:102F90000F0309950895B0E0A0E0E1EDF7E10C948E
:102FA000032E5C014B01FC01C08182E1C89FC02D52
:102FB000112412E11C0FF12E183510F037E5F32E15
:102FC0006091B40466958091B8049091B9040E9410
:102FD000C115582ED0E0CF1548F081E0173508F024
:102FE00080E0CDB7DEB7EFE00C941F2EFE01E85F66
:102FF000FD4F8081F50191818923C9F1CE01880FB0
:10300000991F80509F4FFC01E65AFF4F2081422FAD
:103010004C55550B6A01855A9F4FFC018081282F22
:103020002152330B3901449F9001459F300D300DE3
:103030001124669CC001679C900D900D1124820F95
:10304000931F0E94CB15082F6091B1047091B204B8
:103050008091B304E52C9301A601F40109950E9427
:103060008717462F282F672FCE010E94C51721965C
:10307000B2CF6BE377E10E94CB1708956EE276E161
:103080000E94CB17089568E677E10E94CB17089558
:10309000B0E0A0E0EEE4F8E10C94082E6C017B01B6
:1030A000FC01C08182E1C89FC02D112412E11C0FD8
:1030B000B12E183510F037E5B32E6091B404669543
:1030C0008091B8049091B9040E94C115A82ED0E057
:1030D000CB1548F081E0173508F080E0CDB7DEB7BA
:1030E000EAE00C94242EFE01E85FFD4F8081F6019A
:1030F0009181892311F1CE01880F991F80509F4F34
:10310000FC01E55AFF4F20812152330B865A9F4F15
:10311000FC0140814C55550B6091B1047091B20493
:103120008091B3040A2DF70109950E948717462F55
:10313000282F672FCE010E94C5172196C9CF67E5BA
:1031400077E10E9448180895B0E0A0E0EAEAF8E1CB
:103150000C94092E7C018B01FC01C08182E1C89F87
:10316000C02D112492E1D92EDC0ECD2CF7E5FD15F2
:1031700010F487E5C82E6091B4046695669521E049
:10318000620F08F46FEF8091B8049091B9040E9427
:10319000C115B82ED0E0CC1550F081E096E59D1514
:1031A00008F480E0CDB7DEB7E9E00C94252EFE01EF
:1031B000E85FFD4F8081F7019181892391F0609153
:1031C000B1047091B2048091B3042B2D4C2FF801FF
:1031D00009950E948717462F282F672FCE010E943E
:1031E000C5172196D8CF6AE176E10E94A418089508
:1031F0006CE176E10E94A418089565E276E10E94F0
:10320000A4180895B0E0A0E0E8E0F9E10C94052EE0
:103210005C016B01FC01C08182E1C89FC02D1124BB
:1032200012E11C0F912E183510F037E5932E6091A6
:10323000B404669566958091B8049091B9040E9493
:10324000C115F82E80E48F0D0E94FB1590E8892EA1
:10325000880E8F2D0E94FB1520E8722E780ED0E08C
:10326000C91548F081E0173508F080E0CDB7DEB72A
:10327000EDE00C94212EFE01E85FFD4F8081F50109
:1032800091818923A1F06091B1047091B204809181
:10329000B304EF2C0C2F272D482DF60109950E9421
:1032A0008717462F282F672FCE010E94C51721961A
:1032B000D7CF6CE376E10E9402190895B0E0A0E058
:1032C000E4E6F9E10C94082E8C017B01FC01C0813D
:1032D00082E1C89FC02D112422E1B22EBC0EAB2C7E
:1032E000F7E5FB1510F497E5A92E2091B40431E021
:1032F000230F08F42FEF30E050E040E06FEF7FEF56
:1033000080E090E00E94DB2D6901D0E02C2FCA15EF
:1033100050F081E0F6E5FB1508F480E0CDB7DEB7AC
:10332000EAE00C94242EFE01E85FFD4F8081F80155
:103330009181892311F14091BC044150042E000C6D
:10334000550B47FF1CC0C6016091B40421E0620F19
:1033500008F46FEF0E94C115AC016091B104709147
:10336000B2048091B304F70109950E948717462F94
:10337000282F672FCE010E94C5172196C7CFFA01CB
:10338000E454FB4F818982130AC0FA01EE0FFF1F3C
:10339000E454FB4F818D928D8C159D05A8F2415010
:1033A0005109CFCF63E776E10E945E1908956AE77D
:1033B00076E10E945E190895ABE0B0E0E2EEF9E13B
:1033C0000C94002E8C832B015F834E83FB01F081D4
:1033D00082E1F89F802D112489838E5E8A838B83FE
:1033E000883510F027E52B833091BC043D8399810B
:1033F000892F90E09B878A87880F991FFC01E65AE6
:10340000FE4F6F01FC818F2F90E09C012F5F3F4F9B
:1034100039872887EB81FA85FE1748F081E02A81F9
:10342000273508F080E02B96E2E10C941C2EEA850B
:10343000FB85E85FFD4F8081F2019181892301F1D5
:103440002090B1043090B2042885398524543B4F34
:1034500039013C81398310E029813D812317C8F06F
:103460002091B304129F112D1124B101812F0E94CC
:103470008717462F282F672F8A859B850E94C5179F
:103480008A859B8501969B878A8792E0C90ED11C0D
:10349000C1CFF30181913F01F601A080A81ABB08BA
:1034A0008180F3018781881A9908AA9C9001AB9CBE
:1034B000300D300D1124889CC001899C900D900D19
:1034C0001124820F931F0E94CB15082F6091B40422
:1034D00021E0620F08F46FEFF301EE0FFF1FEC5BCA
:1034E000F440858996890E94C1157C019401A5014B
:1034F000B101812FEE81FF8109951B01F981FF5FE9
:10350000F983182FA9CF2091BC0431E0231B08F4C4
:1035100020E040E856E1BC01822F0E94DC190895AA
:103520002091BC0431E0231B08F420E049E956E176
:10353000BC01822F0E94DC1908952091BC0431E067
:10354000231B08F420E044ED56E1BC01822F0E94C9
:10355000DC1908954CEE56E1BC0180E00E94DC19B4
:103560000895B0E0A0E0E7EBFAE10C94092E7C01AD
:10357000FC01C08182E1C89FC02D112412E11C0F03
:10358000012F183508F007E56091B1047091B2047D
:103590008091B3040E948717D62EC72EB82ED0E094
:1035A000C01748F081E0173508F080E0CDB7DEB7EE
:1035B000E9E00C94252EFE01E85FFD4F8081F701C4
:1035C0009181892331F02B2D4D2D6C2DCE010E9440
:1035D000C5172196E5CFB0E0A0E0E1EFFAE10C9449
:1035E000092E8C01FC01C08182E1C89FC02D1124ED
:1035F00092E1F92EFC0EEF2CF7E5FF1510F487E5AC
:10360000E82ED090B104D091B204C090B304609180
:10361000B4046695669566958091B8049091B90456
:103620000E94C1150E94FB15805887FD8195880F67
:10363000282F3C2D239F212D1124822F6D2D7D2F8E
:103640000E948717D62EC72EB82ED0E0CE1550F088
:1036500081E026E52F1508F480E0CDB7DEB7E9E07C
:103660000C94252EFE01E85FFD4F8081F8019181C9
:10367000892331F02B2D4D2D6C2DCE010E94C517C5
:103680002196E4CF0F931F93CF93DF93EC01FC01BE
:10369000E85FFD4F80816823D1F10091B204109161
:1036A000B3044091B104E42FF0E060916F02709197
:1036B000700285E098E0689F9001699F300D789FC7
:1036C000300D1124275E394C3093700220936F0225
:1036D000CF018C549F4F68E671E00E94A52D8E1B90
:1036E0009F0B97FD03969595879595958795230F45
:1036F0002370642F289F600D1124702F812F0E944A
:103700008717462F282F672FCE010E94C517DF91FC
:10371000CF911F910F910895FF920F931F93CF9315
:10372000DF938C01FC01C08182E1C89FC02D112470
:1037300082E1F82EFC0E8281D0E0811140C06091C0
:10374000B40420E1620F08F46FEF8091B804909107
:10375000B9040E94C1156AE070E00E94912D892B86
:10376000F1F440916F025091700225E038E0429FE1
:10377000C001439F900D529F900D1124875E994C7C
:103780009093700280936F02890FF7E58F9FC001BD
:103790001124F8016181892F90E00E94421B81E091
:1037A00026E52F1508F480E0CDB7DEB7E5E00C94F0
:1037B000292EF8016181CE010E94421B21968F2D96
:1037C000F7E5FF1508F487E58C171D0609F08CF75F
:1037D000E6CFE0911003F091110309950895CF927F
:1037E000DF92FF920F931F93CF93DF93CDB7DEB796
:1037F00028970FB6F894DEBF0FBECDBF182F062F47
:10380000F42E0E943F0E882309F44CC0FF2009F4D7
:1038100057C0AE014F5F5F4F602F812F0E94A017EE
:10382000F82E0F2D10E08091FE03800F912F911D37
:1038300009976CF188E090E06C01C01AD10AB801D8
:1038400061507C4FA6018FEF93E00E944D2EB8018E
:10385000695F7B4FA60187E094E00E944D2EA60190
:10386000440F551FB801660F771F695E7B4F87E1D4
:1038700094E00E944D2EB801615F7B4FA6018FE05E
:1038800094E00E944D2E88E08F198093FE031091E2
:10389000FE03DE01119640E0842F810FF41212C066
:1038A0008093FE0328960FB6F894DEBF0FBECDBFFF
:1038B000DF91CF911F910F91FF90DF90CF900895EE
:1038C000F12CAFCF5D91252F30E090E0BC0162502C
:1038D0007C4FF901EE0FFF1FE65AFE4F0081FB01FE
:1038E0000183220F331FF901E55AFE4F2081FB01AE
:1038F0002187518B880F991FFC01E250FC4F128EDB
:10390000118E4F5FC9CFCF93C82F80916D028C135A
:1039100023C09091B004937020916E0230E081E05A
:103920009217130609F480E0817080936C028091F5
:10393000B50490916B02981739F080936B0240E0C8
:1039400060E080E00E94E91BC23188F4EC2FF0E0D7
:10395000EA54F14D0C94FA2D81E0E6CF80916C028F
:10396000882359F040E060E080E00E94E91B80E09D
:1039700004C08AE692E00E94B11A90916A029F5FA9
:1039800090936A0281110CC082E080936902809159
:103990006C02811105C0C11103C083E080936902EC
:1039A000CF9108958AE692E00E94EB1AE6CF8AE66C
:1039B00092E00E943918E1CF8AE692E00E94F31863
:1039C000DCCF8AE692E00E94F818D7CF8AE692E030
:1039D0000E94FD18D2CF8AE692E00E943E18CDCF19
:1039E0008AE692E00E949F18C8CF8AE692E00E9481
:1039F0004318C3CF8AE692E00E945919BECF8AE6E7
:103A000092E00E948C1BB9CF8AE692E00E94D21904
:103A1000B4CF8AE692E00E94D719AFCF8AE692E04F
:103A20000E94831AAACF8AE692E00E94901AA5CF3C
:103A30008AE692E00E949D1AA0CF8AE692E00E9458
:103A4000AA1A9BCF81E0089581E008950E94241D69
:103A50000895FC01808192E1899F802D1124682FB7
:103A6000883508F067E582510E94261D08954F921F
:103A70005F926F927F928F929F92AF92BF92CF92FE
:103A8000DF92EF92FF92CF93609127047091280408
:103A90008091290490912A040E94CD256B017C011C
:103AA0000E94B2254B015C01809227049092280469
:103AB000A0922904B0922A04A091FE03EEEFF3E055
:103AC0008A2F90E04FEF5FEF60E070E04C195D09E6
:103AD0006E097F09A9132AC08093FE0380912B04ED
:103AE000C0E0811108C08091B004C82FC37019F0E4
:103AF000C82FC695C69580916902813009F440C0EF
:103B0000882339F1823009F44BC0833009F453C063
:103B1000CF91FF90EF90DF90CF90BF90AF909F90AC
:103B20008F907F906F905F904F900895218D328D90
:103B30002901712C612C441555056605770520F483
:103B400081509F5F3296C6CF2C0D3D1D328F218F45
:103B5000F8CF10926A028092B8049092B904A092B1
:103B6000BA04B092BB0489E2EEEFF3E0ACEBB4E050
:103B700001900D928A95E1F781E080936902C8CFA8
:103B80008C2F0E94831CCC2319F280916A0285300D
:103B900011F40E9428038AE692E00E94291DB8CF02
:103BA000C0936D028091B004837080936E020E9476
:103BB000BF1783E0E2CF8091FD0381110E947C1743
:103BC0006091B8047091B9048091BA049091BB04DB
:103BD0000E94CD25603171058105910508F498CFCB
:103BE0001092690295CFE0910C03F0910D030995B5
:103BF0001092BC048FEF9FEF9093D6048093D5046E
:103C00009093D8048093D7049093DA048093D904D6
:103C10009093DC048093DB049093DE048093DD04B6
:103C20009093E0048093DF049093E2048093E10496
:103C30009093E4048093E3041092FE03909318049D
:103C40008093170490931A048093190490931C0492
:103C500080931B0490931E0480931D049093200472
:103C600080931F0490932204809321049093240452
:103C70008093230490932604809325040E944F0D83
:103C8000811104C00E94ED0D0E948A1781E080938B
:103C9000FD0348E050E068E170E080EB94E00E94B2
:103CA000562E1092FD038091B0048C7F11F40E9477
:103CB0008A170895CF93C82F882391F080912B0401
:103CC00081110EC00E94831C10926D028091B0047D
:103CD000837080936E020E94BF1783E08093690215
:103CE000C0932B04CF910895E0EBF4E0908121E0A4
:103CF00092279083109269020E940217089581E032
:103D00000E94741E08959091B004937051F0811137
:103D100009C094609093B00410926902862F0E94AB
:103D200002170895823110F09464F4CF282F220FE7
:103D3000220F922BEFCF61E00E94831E0895682F1F
:103D40009091B0049695969581E0890F823108F0A4
:103D500081E00E94831E089581E00E949F1E0895C5
:103D6000682F9091B004969596958FEF890F09F47E
:103D700081E10E94831E089581E00E94B01E089593
:103D80009091B004937061F08093B1046093B20499
:103D9000493C08F048EC4093B304822F0E9402177C
:103DA0000895A0EBB4E01196EC911197F0E0282F64
:103DB00013964C91139712966C91CF0108960E941E
:103DC000C01E089581E00E94D11E0895E0EBF4E04A
:103DD0009181282F43816281E92FE850FF0BCF01A9
:103DE0000E94C01E089581E00E94E61E0895E0EB47
:103DF000F4E0628120E1620F08F46FEF9181282FD7
:103E00004381892F90E00E94C01E089581E00E94A6
:103E1000F71E0895E0EBF4E0628120E1621B08F4F4
:103E200060E09181282F4381892F90E00E94C01E7D
:103E3000089581E00E940A1F0895E0EBF4E04381B9
:103E400020E1420F08F44FEF9181282F6281892FE2
:103E500090E00E94C01E089581E00E941D1F0895F9
:103E6000E0EBF4E0438120E1421B08F440E0918163
:103E7000282F6281892F90E00E94C01E089581E062
:103E80000E94301F0895E0EBF4E0248130E1230F1D
:103E900008F42FEF24830E940217089581E00E9406
:103EA000431F0895E0EBF4E0248130E1231B08F484
:103EB00020E024830E940217089581E00E94521F8F
:103EC000089560E084E70E943E2161E086E70E9459
:103ED0003E2162E085E70E943E210895CF930E9433
:103EE0003C2684E70E94C31F86E70E94C31F85E724
:103EF0000E94C31FC0E021E041E061E08C2F0E94DE
:103F00008820CF5FC735B9F760E084E70E9453216E
:103F100061E086E70E94532162E085E70E94532119
:103F2000CF910895E5E9F6E06083418324E630E02F
:103F300042E050E0BF01880F0E94DC2608950F93F5
:103F40001F93CF93DF93082F000FEB0114E2109320
:103F5000950680E1FE01A6E9B6E001900D928A95F2
:103F6000E1F724E630E041E150E065E976E0802FBA
:103F70000E94DC26105F6096143B49F7DF91CF91D9
:103F80001F910F910895CF93DF93C82F4BE06DEFF2
:103F90000E94921F40E06AE08C2F0E94921F8FE3E4
:103FA0009CE90197F1F700C0000040E060E08C2F31
:103FB0000E94921F40E061E08C2F0E94921F40E01F
:103FC00066E08C2F0E94921F40E06DEF8C2F0E94C4
:103FD000921FD0E040E06D2F8C2F0E94921FDF5F78
:103FE000D231C1F740E06D2F8C2F0E94921FDF5F0E
:103FF000D432C1F740E06D2F8C2F0E94921FDF5FFB
:10400000D43BC1F74BE06DEF8C2F0E94921F41E033
:104010006AE08C2F0E94921F40E06DEF8C2F0E946F
:10402000921FDF91CF910895A4E0B0E0EAE1F0E2C1
:104030000C940C2EF62E042F122F8735910508F0C4
:104040004AC0880F991F880F991FBC0164557F4F84
:1040500044E050E0CE0101960E94372E89818370A2
:104060006A816452770B282F30E040E9849FC001B9
:1040700011248B519B4FFC01E60FF71F5081EB8001
:104080004C815F110EC0FC01EE0DF11DB497508103
:10409000501307C0840F911DFC01B49780818117D4
:1040A000D1F080E9829FF001839FF00D1124EB5144
:1040B000FB4F6E0F7F1FDB01FC92DF01AE0DB11DC8
:1040C00094970C93E40FF11DB49710832B593B4F39
:1040D00081E0F90180832496E6E00C94282EFF927B
:1040E0000F931F93CF93DF93182F062FF42ED0E05A
:1040F000C0E02F2D402F612FCE010E941420219669
:10410000C735D105B1F7CDB7DEB7E5E00C94292E60
:10411000A4E0B0E0EEE8F0E20C94052E762EA42E9A
:10412000B22E24E0829FB001112464557F4F44E0F9
:1041300050E0CE0101960E94372E8A8190E06C01FA
:1041400054E2C51AD1089601D7FE02C0295F3F4F3D
:1041500063E0359527956A95E1F74B8150E0CA01F8
:1041600084977C0197FF04C07A016DE1E61AF1089B
:1041700053E0F594E7945A95E1F74C8150E04A01F9
:10418000E4E28E1A9108840197FE02C0095F1F4F76
:1041900043E0159507954A95E1F7E8E0F0E0BF01A7
:1041A0000E94A52D482FC401BF010E94A52D982E65
:1041B000C601BF010E94A52D61E070E0FB0102C0B5
:1041C000EE0FFF1F8A95E2F7CF01E98133279E2F7B
:1041D0009370772009F440C0F2E19F9F200D311DBC
:1041E0001124D901A15DBB4F9C91892B8C93E37065
:1041F0008E2F90E062E1E69FF0011124E15DFB4F1C
:10420000EE0DF11D508121E030E001C0220F4A95F2
:10421000EAF7AA2069F1252B208322E1289FF001EB
:10422000299FF00D1124E15DFB4FE00FF11D40814E
:1042300021E030E0092C01C0220F0A94EAF7BB20EC
:10424000D1F0242B2083845D9B4F21E0FC0120834F
:104250002496EDE00C94212E52E1959F200D311D06
:104260001124D901A15DBB4F80959C918923BECFBC
:1042700020952523D1CF20952423E4CFCF93DF931E
:10428000C62FD0E0CB59DB4F9881992341F090E9BC
:10429000699FB00111246B517B4F0E949F1F1882B0
:1042A000DF91CF910895EF92FF920F931F93CF93D9
:1042B000DF93E82E062F10E0045D1B4FF80180818C
:1042C000882381F0F2E16F9FE0011124C15DDB4F93
:1042D000F12C49916F2D8E2D0E94921FF39482E153
:1042E000F812F7CFF8011082CDB7DEB7E6E00C94F4
:1042F000282EFA01811101C0FB01099508951F9331
:10430000CF93DF93EC01FB011581111110C00E94C6
:104310004E0C8272FE01E052F847E531F10508F0DB
:1043200049C0E853F14D0C94FA2D0E947F1E812F55
:10433000DF91CF911F9108954CEB5EE16CEA7EE135
:104340000E947921F4CF4CEA5EE16CEB7EE1F8CF7C
:1043500043EF5EE162EE7EE1F3CF42EE5EE163EFBA
:104360007EE1EECF49E15FE166E07FE1E9CF46E043
:104370005FE169E17FE1E4CF4FE35FE16CE27FE180
:10438000DFCF4CE25FE16FE37FE1DACF4DE55FE144
:104390006EE47FE1D5CF4EE45FE16DE57FE1D0CF04
:1043A00081E00E949B1EC3CF82E0FBCF85E0F9CF66
:1043B00088E0F7CF11E0BBCFCF93DF93EC01FB0197
:1043C0008581882309F4D2C09E01305723323105FC
:1043D00008F0B2C00E94640D9093970480939604F5
:1043E000FE01E150F047E232F10520F4E352F14DD5
:1043F0000C94FA2D8091960481608093960493C06A
:10440000809197048860809397048DC08091960472
:104410008260F3CF809196048460EFCF8091960400
:104420008860EBCF809197048160EDCF80919704F5
:104430008260E9CF809196048061DFCF80919604FD
:104440008062DBCF809196048064D7CF0E94BB0747
:10445000809196048068D1CF809196048C60CDCFF6
:10446000809197048360CFCF809196048E7FC5CFD3
:1044700080919704877FC7CF809196048D7FBDCFB1
:10448000809196048B7FB9CF80919604877FB5CFBA
:10449000809197048E7FB7CF809197048D7FB3CFA3
:1044A000809196048F7EA9CF809196048F7DA5CFB1
:1044B000809196048F7BA1CF0E94BB0780919604C8
:1044C0008F779BCF80919604837F97CF80919704BD
:1044D0008C7F99CF8091960482FB992790F921E0F7
:1044E000922790FB82F990FB83F987CF8091970404
:1044F000982F909591708E7F892B90FB81F983CFB7
:1045000090919604892F8F7B96FF806476CF0E94CE
:10451000BB0790919604892F97FB87F980586DCF40
:1045200081E00E94F00D80919604909197040E9482
:10453000690D0E94BB0780E0DF91CF91089580E074
:10454000F0CF90919604892F8F7E94FF806155CF94
:1045500090919604892F8E7F90FF81604ECF90912D
:104560009704892F877F93FF88604DCF81E0E4CF48
:10457000CF93DF93EB0186319C4711F50E944E0CDF
:104580009D81992399F08A7A91E009F490E09093C3
:104590006804811109C089E20E94260C0E94A70CC0
:1045A00080E0DF91CF91089585E3F6CF8091680494
:1045B000811104C089E20E942E0CF0CF85E3FBCF6D
:1045C00081E0EFCF0F931F93CF93DF93C42FD22FB0
:1045D000FC0185818823C9F040936B040E94A625C5
:1045E00090936A048093690480E28C0F883040F4D1
:1045F000C77081E001C0880FCA95EAF70E9467057D
:10460000DF91CF911F910F91089510916B041413B6
:1046100032C08091690490916A040E94BE25883C52
:10462000910548F5C0E2CD0F1D17B9F080E2810F6A
:10463000883040F4177081E001C0880F1A95EAF7BE
:104640000E946E05C83048F481E09D2F977001C02C
:10465000880F9A95EAF70E946705802F0E945E05F1
:10466000C83070F6D77081E001C0880FDA95EAF79C
:104670000E946E05C5CF80E28C0F883008F6C770A7
:1046800081E001C0880FCA95EAF7F2CF0F93DB01F2
:1046900088519C4787309105A0F5FC01E150F14D10
:1046A0000C94FA2D06E221EE41EE6AE17CE7CD01A1
:1046B0000E94E22280E00F91089507E225EE45EE88
:1046C0006BE17CE7F4CF06E221EE40EE68E17CE7A7
:1046D000EECF07E225EE44EE69E17CE7E8CF06E2A3
:1046E00021EE42EE6CE17CE7E2CF07E225EE46EEFA
:1046F0006DE17CE7DCCF08E221E045EE6EE17CE78E
:10470000D6CF15968C91882319F010926B04D3CFD5
:1047100081E0D1CF90937104809370040895E0916B
:104720007004F0917104309729F00190F081E02D30
:104730000995089580E008950E948F230895E091DF
:104740007004F0917104309799F02091790222233E
:1047500059F02091960427FF07C0DC012C91119697
:104760002C93119726E02C930280F381E02D09957C
:104770000895E0917004F0917104309739F022E0CF
:10478000DC012C930480F581E02D09950895A3E0C8
:10479000B0E0EDECF3E20C94102E20916E04309119
:1047A0006F0428173907A1F090936F0480936E046B
:1047B000E0917004F0917104309751F023E0298367
:1047C0009B838A830680F781E02DCE0101960995AF
:1047D0002396E2E00C942C2EA3E0B0E0E2EFF3E2AB
:1047E0000C94102E20916C0430916D042817390719
:1047F000A1F090936D0480936C04E0917004F091AB
:104800007104309751F024E029839B838A830680CA
:10481000F781E02DCE01019609952396E2E00C94F4
:104820002C2EFC01329680917902882321F0809110
:1048300096049EE187FF96E080E0915008F4089589
:1048400021912223D1F38F5FF8CF662301F12091CC
:1048500079022223F1F02091960427FF1AC0462FF7
:104860004695469546954E3190F4677021E030E0CC
:1048700002C0220F331F6A95E2F7840F911DFC01DD
:10488000828190E02823392381E0232B69F480E0A2
:104890000895FC01329608962191261721F0E81719
:1048A000F907D1F7F4CF81E008959C01FC0132961D
:1048B0009FEF80E04191461751F09F3F19F441115D
:1048C00001C0982F8F5F8630A9F79F3F09F40895A4
:1048D000290F311D97FD3A95F90162830895FC0176
:1048E000329608962191261303C0DF0111971C927E
:1048F000E817F907B9F70895E62FE695E695E695E6
:10490000EE3168F4E80FF92FF11D677021E030E017
:1049100001C0220F6A95EAF78281822B8283089573
:10492000E62FE695E695E695EE3170F4E80FF92F5F
:10493000F11D677021E030E001C0220F6A95EAF7AF
:1049400020958281282322830895209179022223B1
:1049500039F02091960427FF03C00E947C2408951B
:104960000E945524089520917902222339F0209144
:10497000960427FF03C00E94902408950E946F248C
:104980000895FC01329680917902882351F080913C
:10499000960487FF06C08EE1DF011D928A95E9F734
:1049A000089586E0F9CFDC01FB0111969C911197E7
:1049B0008181981322C012968C911297882319F046
:1049C000928189131AC013968C911397882319F03A
:1049D0009381891312C015968C911597882319F02D
:1049E000958189130AC014969C91992321F081E046
:1049F0002481291303C080E001C081E08170089503
:104A000008950E9400250895811106C081E08093D9
:104A100072040E940125089582E0F9CF83E080931B
:104A200072040E94012508950E940425089581E0E2
:104A3000809372040E94012508950E94172508950D
:104A4000089508950E9421250895089508950E94CB
:104A500020250895CF930E9425250E940B120E94C5
:104A60002625C0E08C2F0E943C11892B31F4CF5FAA
:104A7000C630C1F780E0CF91089581E0FCCF85B7C3
:104A8000806885BF85B7806885BF08951F921FB66F
:104A90001F9211248F939F93AF93BF9380917304C0
:104AA000811113C08091A9069091AA06A091AB062E
:104AB000B091AC064196A11DB11D8093A9069093BB
:104AC000AA06A093AB06B093AC06BF91AF919F919D
:104AD0008F911F901FBE1F9018958091B106843052
:104AE00031F10E9432041092730488E190E020E4D6
:104AF0000FB6F894A895809360000FBE20936000D5
:104B000083B7817F846083BF83B7816083BF7894DC
:104B1000889583B78E7F83BF0FB6F894A895809150
:104B20006000886180936000109260000FBE08955D
:104B30000E94BB070E943C04089582E084BD93E07C
:104B400095BD9AEF97BD80936E0008952FB7F894A6
:104B50008091A9069091AA06A091AB06B091AC06EF
:104B60002FBF08952FB7F8946091A9067091AA06F7
:104B70008091AB069091AC062FBF08959C014FB772
:104B8000F8948091A9069091AA06A091AB06B091E5
:104B9000AC064FBF821B930B0895CF92DF92EF922A
:104BA000FF922FB7F894C090A906D090AA06E09083
:104BB000AB06F090AC062FBFA7019601261B370B62
:104BC000480B590BCA01B901FF90EF90DF90CF90CD
:104BD000089578941F921FB61F9211248F939F936C
:104BE000AF93BF938091A9069091AA06A091AB06BE
:104BF000B091AC060196A11DB11D8093A9069093BA
:104C0000AA06A093AB06B093AC06BF91AF919F915B
:104C10008F911F901FBE1F90189581E08093E00038
:104C200080E28093D8001092C9008FE19EE4019742
:104C3000F1F700C0000087E090EBDC018093BA063A
:104C40009093BB06A093BC06B093BD0688E19CE0A0
:104C50000FB6F894A895809360000FBE9093600003
:104C6000FFCF88E19CE00FB6F894A8958093600090
:104C70000FBE90936000FFCF1092B9008CE080933C
:104C8000B8000895B0E0A0E0E8E4F6E20C94072E46
:104C9000B82EEB010E94A6256C01EE24E394F12CC2
:104CA000C431D10560F025E0E22EF12CCF3FDC07C6
:104CB00031F0CE0164E170E00E94912D7B0184EA25
:104CC000A82E94E8992E1092BC00A092BC000E94DD
:104CD000A6258C018091BC0087FF0DC08091B90092
:104CE000887F8830F9F08091B900887F8031D1F0D9
:104CF0000FEF1FEF08C0C8010E94BE25E816F90695
:104D000048F70EEF1FEFCF3FDC07E9F2C6010E9424
:104D1000BE25C817D907B8F6C801CDB7DEB7EBE096
:104D20000C94232EB092BB009092BC000E94A6254A
:104D30008C018091BC0087FF0AC08091B900887FF8
:104D4000883111F08034A1F610E000E0E5CFC80111
:104D50000E94BE25E816F90660F7D3CF0F931F9384
:104D6000CF93DF93EB018093BB0084E88093BC007A
:104D70000E94A6258C018091BC0087FF11C0209164
:104D8000B900287F81E090E0283211F490E080E0C3
:104D9000919581959109DF91CF911F910F91089580
:104DA000CF3FDC0741F3C8010E94BE25C817D907D1
:104DB00010F78EEF9FEFEFCFB0E0A0E0E2EEF6E26B
:104DC0000C940A2E6B018A017901B9010E944226D6
:104DD000E6010C0D1D1DC017D10711F097FF08C08B
:104DE00024E92093BC00CDB7DEB7E8E00C94262E72
:104DF000B70189910E94AE26EECF80919404089568
:104E00009B01BA019091B1069430E9F48F708093C0
:104E1000E9009FEF8091E800915085FD06C085ED87
:104E20008A95F1F700009111F5CF8091E80085FF98
:104E30000AC050E040E0C9010E940A298091E800C0
:104E40008E778093E800089543E050E0BC0182E053
:104E50000E940027089546E050E0BC0182E00E94D5
:104E600000270895CF93DF93EC018091790281119F
:104E700011C048E050E0BE0181E00E94002780E2BE
:104E8000FE01A4E7B4E001900D928A95E1F7DF916D
:104E9000CF9108958091960487FF05C040E282E09B
:104EA00050E0BE01EACF48E081E0FACF8091B00641
:104EB000811109C00E949A2A0E94F72A8091E2007B
:104EC00084608093E20008951092B00608950E94D5
:104ED000172508956091AD0681E0611101C080E061
:104EE0000E940E2508959091B10681E0943009F05A
:104EF00080E06091AD060E941425089542E061ECC7
:104F000081E00E94162A42E261EC82E00E94162AA9
:104F10009091B10681E0943009F080E06091AD0697
:104F20000E94042508958091B306833009F461C07E
:104F300030F48130D1F1823009F49EC008958A3076
:104F400009F48AC08B3009F46FC0893009F050C071
:104F50008091B206813209F04BC08091B6069091E3
:104F6000B706029708F044C08091E800877F8093DD
:104F7000E8008091E80082FF37C09091F3008091B3
:104F8000F200029731F48091F100813011F0863007
:104F900021F48091F100809394048091E8008B7754
:104FA0008093E8000E944A2A23C08091B206813A89
:104FB000F9F48091E800877F8093E8008091B6063D
:104FC0009091B706892B61F460E284E794E070E089
:104FD0000E9459298091E8008B778093E80008951A
:104FE00060E090E080E0F3CF8091B1068111C1CF05
:104FF00008958091B206813AD9F78091B6069091D2
:10500000B706892BA9F78091E800877F8093E80095
:105010008091E80080FFFCCF809179028093F100BD
:105020008091E8008E77BCCF8091B206813201F783
:105030008091B6069091B706892BD1F68091E80051
:10504000877F8093E8000E944A2A8091B40680936B
:1050500079020E94BB0708958091B206813241F621
:105060008091E800877F8093E8000E944A2A80911F
:10507000B5068093950408958091B206813A09F0AF
:10508000B7CF8091E800877F8093E8008091E800A7
:1050900080FFFCCF80919504C1CF84B7877F84BF08
:1050A0000FB6F894A89580916000886180936000A5
:1050B000109260000FBE80E890E00FB6F8948093E5
:1050C0006100909361000FBE0E941D2508950E940B
:1050D0009A2A0E94F72AE2EEF0E0808184608083C1
:1050E00078940E94762D089581E792E00E948A23A9
:1050F00008958091B106853031F48091B1068530F4
:1051000019F00E94982508950E946D258091AF06A0
:10511000882399F30E942A25882379F30E94F42892
:105120000E94BB07EACF08959A014091B8065091BA
:10513000B9060E949C280895492F552743305105F0
:1051400019F168F44130510509F444C04230510569
:1051500009F445C090E080E050E040E025C04132D5
:10516000510549F142325105A9F784E490E047E93D
:1051700055E061157105C1F086EB90E041EE54E019
:105180006130710589F0E6CF99278130910581F072
:10519000009729F00297F1F6E0E7F4E002C0E0E9B9
:1051A000F4E0849190E0AF01F901518340830895C8
:1051B000E0E8F4E0F6CF89E090E046EA54E06115DB
:1051C000710591F389E090E04FEB54E06130710597
:1051D00059F3C0CF82E190E04FEC54E0E5CF8BE390
:1051E00090E044E954E0E0CF80E189BD82E189BDEF
:1051F00009B400FEFDCF8091D8008F7D8093D80048
:105200008091E00082608093E0008091E00081FD69
:10521000FCCF0895AF92BF92CF92DF92FF920F938F
:105220001F93CF93DF936C01EB018A010E94692ADF
:10523000F82E811123C00115110539F0F801808184
:105240009181C81BD90BC80ED91EB12CA12C209757
:10525000A9F08091E80085FD22C08091E8008E775A
:105260008093E80001151105A1F0F801808191817A
:10527000A80EB91EB182A08285E0F82E8F2DDF9195
:10528000CF911F910F91FF90DF90CF90BF90AF9083
:1052900008950E94692A8823D1F2F82EEFCFF601F3
:1052A00081916F018093F1002197FFEFAF1ABF0A40
:1052B000CECFFC018091B8069091B906861797076A
:1052C000A0F06115710529F49091E8009E77909304
:1052D000E80090E06115710551F4911108C08091CA
:1052E000E80082FF34C080E00895BC01F2CF8091D5
:1052F000B1068823C1F18530C1F18091E80083FDBA
:1053000030C08091E80082FDEACF8091E80080FF04
:10531000E1CF8091F3002091F200382F61157105E3
:1053200019F02830310558F091E02830310509F0A6
:1053300090E02091E8002E772093E800CBCF819178
:105340008093F100615071092F5F3F4FE7CF80914B
:10535000B106882341F0853041F08091E80083FF59
:10536000BECF81E0089582E0089583E00895FC01B6
:105370008091B8069091B90686179707A0F061153D
:10538000710529F48091E8008E778093E80090E021
:105390006115710551F4911108C08091E80082FFF8
:1053A00035C080E00895BC01F2CF8091B10688231A
:1053B000C9F18530C9F18091E80083FD31C0809149
:1053C000E80082FDEACF8091E80080FFE1CF809184
:1053D000F3002091F200382F6115710519F0283083
:1053E000310558F091E02830310509F090E08091C6
:1053F000E8008E778093E800CBCF84918093F10012
:105400003196615071092F5F3F4FE6CF8091B10611
:10541000882341F0853041F08091E80083FFBDCFC3
:1054200081E0089582E0089583E00895982F9730F1
:1054300028F08F708093E90081E008959093E9004F
:10544000242F762F50E0981731F07091EC002091C6
:10545000ED005091F00021FD02C09F5FE8CF309138
:10546000EB003E7F3093EB003091ED003D7F3093B9
:10547000ED003091EB0031603093EB007093EC0065
:105480002093ED005093F0002091EE0027FDE5CF32
:1054900080E008958091B20687FF13C08091E800F4
:1054A00082FF06C08091E8008B778093E80004C0FB
:1054B0008091B1068111F2CF08958091B1068823C1
:1054C000D9F38091E80080FFF8CF8091E8008E77D3
:1054D000ECCF2091E4003091E50095E6A901209100
:1054E000EC00822F817020FF06C08091E80080FFD1
:1054F00006C080E008952091E80022FD1AC0809146
:10550000B106882389F0853089F08091EB0085FD14
:105510000FC02091E4003091E50042175307F9F2E3
:105520009150E1F684E0089582E0089583E00895C3
:1055300081E008950E94092B0E94112BE0EEF0E01B
:10554000808181608083E8EDF0E080818F778083C7
:1055500019BCA7EDB0E08C918E7F8C9380818F7EFB
:1055600080831092B00608950F931F93CF93DF931B
:105570000E94092B0E94112BC8EDD0E088818F7703
:10558000888388818068888388818F7D888319BC1F
:105590001092B1061092AD061092AF061092AE06B0
:1055A00000EE10E0F80180818B7F8083888181602C
:1055B000888342E060E080E00E94162AE1EEF0E09D
:1055C00080818E7F8083E2EEF0E080818160808345
:1055D000808188608083F80180818E7F80838881CC
:1055E00080618883DF91CF911F910F910895E8ED3D
:1055F000F0E080818F7E8083E7EDF0E08081816044
:10560000808384E082BF81E08093B0060E94B42A48
:105610000895E8EDF0E080818E7F80831092E200B3
:1056200008951092DA001092E10008951F920F92EF
:105630000FB60F9211242F933F934F935F936F9365
:105640007F938F939F93AF93BF93EF93FF9380913B
:10565000E10082FF0BC08091E20082FF07C08091D1
:10566000E1008B7F8093E1000E94752D8091DA002C
:1056700080FF19C08091D80080FF15C08091DA00AA
:105680008E7F8093DA008091D90080FF96C080E100
:1056900089BD82E189BD09B400FEFDCF81E0809320
:1056A000B1060E9456278091E10080FF19C08091C9
:1056B000E20080FF15C08091E2008E7F8093E200BF
:1056C0008091E20080618093E2008091D800806246
:1056D0008093D80019BC85E08093B1060E946A27A8
:1056E0008091E10084FF2BC08091E20084FF27C0FD
:1056F00080E189BD82E189BD89B5982F917080FFD5
:10570000FBCF8091D8008F7D8093D8008091E100FD
:105710008F7E8093E1008091E2008F7E8093E20093
:105720008091E20081608093E2008091AD06882341
:1057300009F449C084E08093B1060E9473278091E8
:10574000E10083FF29C08091E20083FF25C08091A2
:10575000E100877F8093E10082E08093B1061092A0
:10576000AD068091E1008E7F8093E1008091E200A0
:105770008E7F8093E2008091E20080618093E2005E
:1057800042E060E080E00E94162A8091F00088608C
:105790008093F0000E946727FF91EF91BF91AF9136
:1057A0009F918F917F916F915F914F913F912F9139
:1057B0000F900FBE0F901F90189519BC1092B10654
:1057C0000E94642770CF8091E30087FD93E090935F
:1057D000B106B3CF1F920F920FB60F9211242F93E1
:1057E0003F934F935F936F937F938F939F93AF9369
:1057F000BF93CF93DF93EF93FF93D091E900DF70D6
:105800008091EC00C82FC17080FDC0E81092E900C3
:105810008091F000877F8093F00078940E942E2C76
:105820001092E9008091F00088608093F000CD2B09
:10583000CF70C093E900FF91EF91DF91CF91BF91BD
:10584000AF919F918F917F916F915F914F913F9118
:105850002F910F900FBE0F901F901895AAE2B0E005
:10586000E4E3FCE20C940F2E82EB96E02091F10031
:10587000FC012193CF01F6E08A3B9F07B9F70E9414
:1058800093278091E80083FF1EC18091B20690911A
:10589000B3069A3008F017C1E92FF0E0EA5FF04D47
:1058A0000C94FA2D803899F0823809F00CC180915F
:1058B000B6068F70873008F006C18093E9008091AA
:1058C000EB0085FB882780F91092E90006C08091E3
:1058D000AE069091AF06911182609091E800977F9B
:1058E0009093E8008093F1001092F1008091E8001D
:1058F0008E77E5C0882309F4D3C0823009F0E3C075
:105900008091B4068111D6C08091B6068F702FEFBA
:10591000280F263008F0D7C08093E9002091EB00D3
:1059200020FFC8C0933031F48091EB0080628093F7
:10593000EB00C0C09091EB0090619093EB0021E0F0
:1059400030E001C0220F8A95EAF72093EA00109216
:10595000EA008091EB008860EACF8111B4C0109119
:10596000B4061F778091E3008078812B8093E30059
:105970008091E800877F8093E8000E944A2A809106
:10598000E80080FFFCCF8091E30080688093E30013
:1059900082E0111183E08093B10695C08058823077
:1059A00008F091C08091B4069091B5068C3D23E03B
:1059B0009207A1F583E08A838AE289834FB7F8943E
:1059C000DE01139620E03EE051E2E32FF0E0509339
:1059D0005700E49120FF03C0E295EF703F5FEF7046
:1059E0008E2F90E0EA30C0F0C7968D939D932F5F85
:1059F000243159F74FBF8091E800877F8093E800FA
:105A00006AE270E0CE0101960E9459298091E80077
:105A10008B778093E80057C0C096E7CF6091B606B9
:105A20007091B706AE014F5F5F4F0E949428BC0192
:105A3000892B09F448C09091E800977F9093E80083
:105A400089819A810E94B729E1CF8038E1F5809160
:105A5000E800877F8093E8008091AD068093F10095
:105A600045CF811130C09091B406923060F580919D
:105A7000E800877F8093E8009093AD060E944A2A51
:105A80008091AD06882311F084E005C08091E30089
:105A900087FDFACF81E08093B1060E947E2713C074
:105AA0008091B406813079F481E0933009F080E090
:105AB0008093AF061092E9008091E800877F809381
:105AC000E8000E944A2A8091E80083FF0AC0809182
:105AD000E800877F8093E8008091EB0080628093EC
