:100000000C941D030C9464030C9464030C9464031B
:100010000C9464030C9464030C9464030C946403C4
:100020000C9464030C9464030C9443290C94152AD7
:100030000C9451240C9464030C9464030C94640396
:100040000C9464030C9464030C9464030C94640394
:100050000C9464030C94AA240C9464030C9464031D
:100060000C9464030C9464030C9464030C94640374
:100070000C9464030C9464030C9464030C94640364
:100080000C9464030C9464030C9464030C94640354
:100090000C9464030C9464030C9464030C94640344
:1000A0000C9464030C9464030C9464032D062D06D5
:1000B00059065906C106DF0604080408EA067F0748
:1000C00090079007F40704080408FD07A808A8088B
:1000D000BA08BA08B108BA08BA08BA08A808A8083D
:1000E000B608BA08BA08B608822AA92AA12BA92AF2
:1000F000A12BF52A182BA12B6F2B7E2B35001E0070
:100100001F002000210022002300240025002600DB
:1001100027002D002E002A002A002B0000001400CA
:100120001A000800150017001C0018000C0012002F
:1001300013002F0030003100296100000400160078
:10014000070009000A000B000D000E000F0033002D
:10015000340028000000E10000001D001B00060024
:100160001900050011001000360037003800E500C6
:1001700000005200E200E3000000E400E4000000A0
:10018000015100002C0000000251900050004F006F
:100190005100005C3A003B003C003D003E003F0047
:1001A00040004100420043004400450001000000BF
:1001B00001000000680069006A006B000000A500F3
:1001C000A70049000000460026022702DF5C01006C
:1001D00000000000A6000000000000004A004E00E1
:1001E0004B004D002D020100010000000100000045
:1001F000C35CC45CC65CC75CC85CC95CCA5CCB5CE5
:100200000100010001000100A9000100010000003F
:1002100001000100000001000000010000000100D9
:10022000010001000100AA0000001E071F072007AF
:1002300021072207230724072507260727072D075D
:100240002E07000000000000000014071A0708072E
:10025000150717071C0718070C07120713072F07A6
:1002600030073107000000000407160707070907D9
:100270000A070B070D070E070F07330734070000A7
:100280000000000000001D071B07060719070507EF
:100290001107100736073707380700000000000075
:1002A000000000000000000000000000000000004E
:1002B0000000000001000000000000000000000439
:1002C0007F3F1F643214643214783C1E1E140A05EA
:1002D0002223252628292A2C2D2F30323335363853
:1002E0003A3B3D3E4042434547494A4C4E505153AC
:1002F0005557595A5C5E6062646668696B6D6F71D0
:10030000737577797B7D7F81838587898A8C8E90D1
:10031000929496989A9C9E9FA1A3A5A7A8AAACAEDA
:10032000AFB1B3B4B6B8B9BBBCBEBFC1C2C3C5C61A
:10033000C7C9CACBCCCDCED0D1D2D2D3D4D5D6D7C3
:10034000D7D8D9D9DADADBDBDBDCDCDCDCDCDDDD01
:10035000DDDDDCDCDCDCDCDBDBDBDADAD9D9D8D7F1
:10036000D7D6D5D4D3D2D2D1D0CECDCCCBCAC9C793
:10037000C6C5C3C2C1BFBEBCBBB9B8B6B4B3B1AFCA
:10038000AEACAAA8A7A5A3A19F9E9C9A989694926A
:10039000908E8C8A89878583817F7D7B7977757341
:1003A000716F6D6B6968666462605E5C5A5957551F
:1003B0005351504E4C4A4947454342403E3D3B3ADB
:1003C0003836353332302F2D2C2A29282625232262
:1003D000FFAA7F5540000101010101010101010255
:1003E00002020202020202020303030303030303E5
:1003F00004040404040404050505050506060606B0
:1004000006070707070708080808090909090A0A6B
:100410000A0B0B0B0C0C0C0D0D0D0E0E0E0F0F0F0F
:10042000101011111112121313141415151616179A
:1004300017181819191A1A1B1B1C1D1D1E1E1F2008
:1004400020212222232424252626272829292A2B55
:100450002C2D2D2E2F30313232333435363738397A
:100460003A3B3C3D3E3F4041424344454647484974
:100470004A4C4D4E4F50515354555658595A5B5D46
:100480005E5F616264656668696B6C6D6F707273E4
:100490007577787A7B7D7E8082838587888A8C8E4B
:1004A0008F91939596989A9C9EA0A2A3A5A7A9AB7D
:1004B000ADAFB1B3B5B7BABCBEC0C2C4C6C9CBCD6F
:1004C000CFD1D4D6D8DBDDDFE2E4E7E9EBEEF0F321
:1004D000F5F8FAFDFF0A0344005A00360030000028
:1004E0000010034B0042004400460061006E0073A0
:1004F0000000000403090409023B00020100A0FA05
:100500000904000001030101000921110100012279
:1005100040000705810308000A09040100010300E7
:10052000000009211101000122B600070582032005
:10053000000A12010002000000085A446022010073
:100540000102000105010902A10185020901A100C2
:100550000509190129081500250195087501810271
:100560000501093009311581257F9502750881063D
:1005700009381581257F950175088106050C0A3813
:10058000021581257F950175088106C0C005010906
:1005900080A101850319012AB700150126B700952E
:1005A0000175108100C0050C0901A1018504190124
:1005B0002AA002150126A002950175108100C00530
:1005C000010906A1018506050719E029E71500259F
:1005D000019508750181020507190029EF1500250D
:1005E0000195F07501810205081901290595057528
:1005F000019102950175039101C005010906A10150
:10060000050719E029E71500250195087501810204
:100610009501750881010507190029FF150026FFBE
:1006200000950675088100050819012905950575CD
:10063000019102950175039101C011241FBECFEFF6
:10064000DAE0DEBFCDBF04B603FE27C080912203EF
:1006500090912303A0912403B09125038730904B00
:10066000A740B04BD1F410922203109223031092B2
:1006700024031092250314BE84B7877F84BF0FB66E
:10068000F894A89580916000886180936000109232
:1006900060000FBEE0E0F8E3099511E0A0E0B1E0F2
:1006A000E4E9F9E502C005900D92A83CB107D9F73D
:1006B00023E0A8ECB1E001C01D92A232B207E1F73D
:1006C0000E94C1140C94C82C0C94000081E0089581
:1006D00081E008950C94680308950C946C031F93B3
:1006E000CF93DF9300D000D01F92CDB7DEB7498300
:1006F0005A836B833091CA0189819A81311114C068
:10070000662359F0222349F00E944C0A182F682FC3
:1007100089819A810E94F50903C00E94200A182F3E
:1007200069817A81812F04C00E944C0A69817A8193
:100730000F900F900F900F900F90DF91CF911F911E
:100740000C940811FC01262F408151816281738134
:1007500084810C946F0381E00895CF93DF93EC01C3
:1007600060E00E94A203BE01DF91CF910C946D0363
:100770000E9435130E945A040E9464200C94721344
:100780000C946E1380E00E94AE1F80E00E945D0416
:100790000C943D1C08950C94CA030E9496080E9474
:1007A000CB032FEF84E39CE0215080409040E1F7A1
:1007B00000C000000C94D0240F931F93CF93DF93BD
:1007C0008C0161E00E94A203EC01B8010E946A035F
:1007D000882309F44BC0B801CE010E94791F8823F9
:1007E00009F444C0B801CE010E9475228823F1F1BA
:1007F000B801CE010E949F208823C1F1B801CE012B
:100800000E94D121882391F1B801CE010E94C01D20
:10081000882361F1F8018281882309F1CB358DE5C8
:10082000D807C1F050F4C115FCE5DF0781F0CF3DDA
:10083000DC45A9F40E94001019C0CC35EDE5DE07B7
:1008400061F0CD35DD4559F40E94430F08C00E9488
:10085000CD030CC00E944C0F02C00E944F0FC80174
:10086000DF91CF911F910F910C94660380E0DF918F
:10087000CF911F910F9108950C94CA030E949D1E61
:100880000E94D1220E945D040E94091D0C943C0428
:1008900008950C94480481E00895CF93C82F0E94D6
:1008A0004B04882329F0C1FD02C02A9A01C02A986E
:1008B000CF910895229A2A9A0895CF93C82F0E9423
:1008C00049048C2F0E944D04CF910895CF93DF935C
:1008D000CDB7DEB72B970FB6F894DEBF0FBECDBFF6
:1008E0004F83588769877A878B8761110E948F0EA3
:1008F0009E012F5F3F4F86E0F90111928A95E9F73B
:1009000085E0FE013796D90101900D928A95E1F7B5
:1009100089819A814C815D81452B31F09F3F31F473
:1009200091E08F3F19F403C091E001C090E090FF87
:1009300009C049815A816B817C818D819E810E9491
:10094000B00D05C0C9010E94AB038111F2CF2B96F7
:100950000FB6F894DEBF0FBECDBFDF91CF910895E3
:10096000FC01808191810E948E0A0895CF93882393
:1009700009F4A4C0C82F8238C1F40E94D12281FD9D
:100980009DC069E380910201909103010E94C723F9
:100990000E94C10E2FEF81EE94E0215080409040E4
:1009A000E1F700C0000069E319C0833801F50E9437
:1009B000D12280FD83C063E5809102019091030103
:1009C0000E94C7230E94C10E2FEF81EE94E02150B8
:1009D00080409040E1F700C0000063E58091020193
:1009E000909103010E94D223CF910C94C10E8438C0
:1009F000C1F40E94D12282FD61C067E480910201AE
:100A0000909103010E94C7230E94C10E2FEF81EE37
:100A100094E0215080409040E1F700C0000067E47E
:100A2000DDCF8CEF8C0F813AD0F46C2F80910201D6
:100A3000909103010E944723882349F06C2F8091F5
:100A40000201909103010E94D2230E94C10E6C2FDB
:100A500080910201909103010E94C723C5CF80E2DB
:100A60008C0F883048F4C77081E001C0880FCA95A8
:100A7000EAF70E94720EB8CFEBE5EC0FE33040F4DA
:100A8000F0E0E65AFE4F808190E0CF910C94052370
:100A9000E8E5EC0FE73150F4F0E0EE0FFF1FE45D06
:100AA000FE4F80819181CF910C941B23CD3E30F07D
:100AB0008C2F0E945015CF910C942216CF9108953F
:100AC000882309F464C0823879F40E94D12281FF1E
:100AD0005EC069E380910201909103010E94C723E7
:100AE0000E94C10E69E310C08338B1F40E94D12284
:100AF00080FF4DC063E580910201909103010E9447
:100B0000C7230E94C10E63E5809102019091030109
:100B10000E94D2230C94C10E843879F40E94D12211
:100B200082FF35C067E480910201909103010E9429
:100B3000C7230E94C10E67E4E7CF9CEF980F913A5C
:100B400010F4682FE1CF90E2980F983050F487703E
:100B500091E001C0990F8A95EAF7892F0E94780EDB
:100B6000D9CF9BE5980F933020F480E090E00C946F
:100B7000052398E5980F973120F480E090E00C94DD
:100B80001B238D3E20F00E94AB150C942216089575
:100B90001F93CF93DF93182FEB010E94B604209789
:100BA00041F08FE99FE00197F1F700C00000219725
:100BB000F6CF812FDF91CF911F910C94600589337F
:100BC00019F060E070E002C060E570E00C94C805C8
:100BD000882321F00E94720E0C94C10E0895882380
:100BE00021F00E94780E0C94C10E0895CF92DF92EE
:100BF000EF92FF920F931F93CF93DF937C01162FF9
:100C0000C72FFC01D281058102950F700E94680EEA
:100C10008823B9F0DD23A9F08C2F807F803421F068
:100C200080E2810F883068F08091C60282FD09C0A1
:100C300082E00E94110F0E94680E91E0D82ED92602
:100C400001C0D12CCC2EC2948FE0C8228C2D90E014
:100C5000FC01EA5AFF4F0C942F2C8C2F807FCF7011
:100C6000882311F0C295C07FDD2399F0CC2309F4CD
:100C7000A6C180E2810F883010F0111104C08C2FC2
:100C80000E94720E03C08C2F0E94820E0E94C10E21
:100C900096C1812F0E946005CC2309F4B5C180E282
:100CA000810F883038F1112329F18C2F0E94880E92
:100CB00024C08C2F807FCF70803211F0C295C07F0E
:100CC000112319F01130A1F13DC08091C60282FFBD
:100CD00017C0DD2349F0CC2329F08C2F0E94720E1F
:100CE0000E94C10E80E06CC180E00E946005CC23B0
:100CF00009F48AC18C2F0E94780E0E94C10E84C113
:100D0000DD2371F0002341F0013031F40E94A20E86
:100D10008C2B0E94AA0E78C10E94A20E8C2B1DC0A3
:100D2000002319F0013009F46FC10E94B70E25C0ED
:100D3000DD2321F0063008F067C10EC0053008F051
:100D400063C11BC0DD2361F0002331F0F701858111
:100D500080FF35C18F7085838C2F0E94E80554C1B8
:100D6000002359F0193309F03BC1FFEF27EE83E070
:100D7000F15020408040E1F731C18C2F0E94EF05F7
:100D800043C18C2F86958695837019F0813061F070
:100D90003BC1DD2321F0812F9C2F937002C080E0A6
:100DA00090E00E94052338C1DD2321F0812F9C2F84
:100DB000937002C080E090E00E941B232DC1812F20
:100DC000DD2319F00E94501502C00E94AB150E944D
:100DD000221622C18C2F837009F045C0D11118C191
:100DE000412F429546954770440F440F612F6F7015
:100DF000862F90E0A0E0B0E0042E04C0880F991F79
:100E0000AA1FBB1F0A94D2F714FF10C00FE010E016
:100E100020E030E004C0000F111F221F331F4A954D
:100E2000D2F7009510952095309503C000E010E0B2
:100E30009801C695C695C370BC01CD01602B712B7E
:100E4000822B932BC23049F058F4C13019F00E9424
:100E50000B09DEC00E94F908DBC00E941D09D8C042
:100E60000E94F708D5C0DD2319F08C2F817001C0D6
:100E70008695882309F4CCC0412F4295469547704A
:100E8000440F440F612F6F70862F90E0A0E0B0E018
:100E9000042E04C0880F991FAA1FBB1F0A94D2F703
:100EA00014FF10C00FE010E020E030E004C0000F9D
:100EB000111F221F331F4A95D2F7009510952095D8
:100EC000309503C000E010E09801C695C695C37048
:100ED000BC01CD01602B712B822B932BC23049F0CA
:100EE00058F4C13019F00E94D00992C00E94BE0986
:100EF0008FC00E94E2098CC00E94310989C0CF7066
:100F0000DD2339F08C2F0E945709812F0E94E805BC
:100F10007FC0812F0E94EF058C2F0E94780978C036
:100F2000123F21F128F4103F41F0113FC1F043C0BE
:100F3000133F19F1143F79F03EC0DD2341F0053035
:100F400008F062C08C2F8F710E949D095DC0063031
:100F500008F05AC0F7CF8091C60282FF18C0DD2387
:100F600039F08C2F8F710E9457094EC0DD23C9F3D1
:100F70008C2F8F710E94780947C0DD2329F08C2FB8
:100F80008F710E94420940C00E943D093DC0DD238F
:100F900049F0CF718C2F0E94570963E08C2F0E947B
:100FA000F60E32C081E00E94110F023068F182E03B
:100FB0000E94110F29C0DD2331F0002391F2812F0F
:100FC0000E94B60421C0002399F2193349F49FEF1F
:100FD000E7EEF3E09150E040F040E1F700C00000A0
:100FE000812F0E94600510C04C2F4F70612FC701E8
:100FF0000E9404110E94BC0A0FC04C2F4F70612F39
:10100000C7010E94071108C088EF8C0D843020F4BE
:101010000E94D1220E945D04DD20C9F00E94640E6E
:1010200080FD15C0F70112820E945E0E0E945709D2
:10103000C7010E9448080E945E0EDF91CF911F9168
:101040000F91FF90EF90DF90CF900C947809DF9193
:10105000CF911F910F91FF90EF90DF90CF90089567
:101060000F931F93CF93DF93EC01688179818A817D
:101070000E94990A8C010E94F4090E94E508B801B7
:10108000CE010E94F605DF91CF911F910F91089537
:10109000CF93DF93EC01988189812B813C81232BB5
:1010A00031F08F3F31F481E09F3F19F403C081E0BC
:1010B00001C080E080FD1DC0CE010E94DC038111D3
:1010C00010C00E94680E8823A1F08A81882389F0CD
:1010D0008091C60282FD0DC082E0DF91CF910C9419
:1010E000110FCE010E943008CE01DF91CF910C94F8
:1010F000AD03DF91CF91089580E090E00E94052339
:1011000080E090E00E941B230E948F0E0E949F0EA1
:101110000E94C10E0E9453170C9422168091020166
:10112000909103010E94DD230C947C080E947F0EA5
:101130000C948E08E92FE295EF704E2F50E0FA01E3
:101140003297EE30F105B0F4EA59FF4F0C942F2C92
:10115000803F91F018F4883E68F40EC0843F51F44B
:101160000BC0883E48F0813F29F406C093FB8827D6
:1011700080F9089580E0089581E00895FC01808160
:1011800091810E948E0A0E949A080895CF93DF935E
:1011900000D000D01F92CDB7DEB70F900F900F9008
:1011A0000F900F90DF91CF910895CF93DF9300D0F0
:1011B00000D000D0CDB7DEB726960FB6F894DEBFCC
:1011C0000FBECDBFDF91CF910895089508950C947F
:1011D000E6080C94E7080E94E90860930102709306
:1011E000020280930302909304020C947C080C94F6
:1011F000EB080F931F9300910102109102022091BE
:10120000030230910402602B712B822B932B1F91D0
:101210000F910C94EB080F931F9300910102109112
:101220000202209103023091040260237123822381
:1012300093231F910F910C94EB080F931F93009130
:1012400001021091020220910302309104026027F2
:101250007127822793271F910F910C94EB080C9410
:10126000E6080E942F096093FD017093FE018093B0
:10127000FF01909300020C947C0860E070E0CB01C9
:101280000C9431090F931F9341E050E060E070E04F
:101290008A019B0104C0000F111F221F331F8A9572
:1012A000D2F7C901B8011F910F910C9431090F9326
:1012B0001F9341E050E060E070E004C0440F551F10
:1012C000661F771F8A95D2F78091FD019091FE01EC
:1012D000A091FF01B09100028A019B01082B192BFC
:1012E0002A2B3B2BC901B8011F910F910C94310996
:1012F0000F931F9341E050E060E070E004C0440FA2
:10130000551F661F771F8A95D2F7409550956095B7
:1013100070958091FD019091FE01A091FF01B09127
:1013200000028A019B01082319232A233B23C901B8
:10133000B8011F910F910C9431090F931F9341E055
:1013400050E060E070E004C0440F551F661F771F37
:101350008A95D2F78091FD019091FE01A091FF0145
:10136000B09100028A019B01082719272A273B27F1
:10137000C901B8011F910F910C9431090F931F936C
:101380000091FD011091FE012091FF0130910002BA
:10139000602B712B822B932B1F910F910C94310991
:1013A0000F931F930091FD011091FE012091FF0109
:1013B0003091000260237123822393231F910F91A8
:1013C0000C9431090F931F930091FD011091FE01C0
:1013D0002091FF0130910002602771278227932717
:1013E0001F910F910C94310908952FE0929F800D69
:1013F0001124E82FE695E695E695877051E001C047
:10140000550F8A95EAF785E0E89FF0011124E5532E
:10141000FE4F20E030E070E04081CB01022E02C0A0
:10142000969587950A94E2F78170819584278523A4
:10143000842781932F5F3F4F2530310569F7089549
:101440002FE0929F800D1124682F66956695669512
:10145000982F977085E0689FB001112440E050E01C
:1014600080E0FB01E40FF51FE553FE4F208130E0E3
:10147000092E02C0369527950A94E2F7217033278A
:10148000042E01C0220F0A94EAF7822B4F5F5F4FB0
:101490004530510531F70895BF92CF92DF92EF9218
:1014A000FF920F931F93CF93DF938C01C090FD01A8
:1014B000D090FE01E090FF01F090000280910102C7
:1014C00090910202A0910302B0910402C82AD92A85
:1014D000EA2AFB2ACFE1D0E0D701C6010C2E04C0D6
:1014E000B695A795979587950A94D2F780FD04C085
:1014F000219790F7B12C07C0BC2EB8018C2F0E9409
:101500003F120197A9F38B2DDF91CF911F910F917E
:10151000FF90EF90DF90CF90BF900895CF93DF932F
:10152000EC010E944C0ABE010E943F12DF91CF9154
:1015300008951F93CF93DF93EB019091CA019923F4
:1015400021F0CB010E948E0A13C0882349F0CB0101
:101550000E944C0A182F682FCE010E94F50904C082
:10156000CB010E94200A182FBE01812F0E943F123A
:10157000DF91CF911F910895EF92FF920F931F93E8
:10158000CF93DF938C01892B09F46CC0F12CEE24EE
:10159000E394E8012196F8018491843740F4843083
:1015A00008F051C0813081F0823019F15BC085377D
:1015B00009F444C0A8F19CE7980F903708F052C096
:1015C0008F770E94600541C00E5F1F4FFE0184911E
:1015D00090E2980F983050F48770FE2D01C0FF0FF5
:1015E0008A95EAF78F2F0E94920E14C00E94B604CB
:1015F0002DC00E5F1F4FFE01849190E2980F98302E
:1016000060F48770FE2D01C0FF0F8A95EAF78F2FD7
:101610000E94980E0E94C10E19C00E94600516C05B
:101620000E5F1F4FFE01C491CC2381F08FE99FE034
:101630000197F1F700C00000C150F6CF0E5F1F4FB9
:10164000FE01F49003C00E94B6048E018F2D882302
:1016500009F49FCFEFE9FFE03197F1F700C00000F8
:101660008150F5CFDF91CF911F910F91FF90EF90B7
:1016700008951F93CF93DF93C091050216E08091E8
:101680000602C81799F0D0E01C9FF0011D9FF00DD5
:101690001124E95FFD4F4081518162817381848112
:1016A00095810E94D5082196C770E9CFDF91CF912F
:1016B0001F9108954091370250913802609139028C
:1016C00070913A0280913B0290913C020C94D508B3
:1016D000EF92FF920F931F93CF93DF9380913C0281
:1016E00082958F7009F065C080913902882309F4D2
:1016F00060C080910502F0900602109137020091BF
:10170000380260913A0270913B0291E01F3F09F06C
:1017100090E0C0910001D0910101292F96E0E92EBF
:101720008F1509F446C06115710521F00F3F21F0B6
:1017300030E003C031E001C0322F90E030FD36C010
:10174000E89EF001E99EF00D1124DF01A95FBD4F75
:1017500011963C911197301329C03C91311326C04A
:1017600012963C911297311121C013964D915C91C4
:101770001497461B570B4C175D07C0F480913C0231
:101780008F70806180933C02E45FFD4F80818F7099
:101790008061808387E392E00E944808DF91CF91C7
:1017A0001F910F91FF90EF900C94390B0196877069
:1017B000B7CFDF91CF911F910F91FF90EF900895D8
:1017C0009F92AF92BF92CF92DF92EF92FF920F93D0
:1017D0001F93CF93DF93CDB7DEB761970FB6F89421
:1017E000DEBF0FBECDBF8C0185E0F801DE011D9686
:1017F00001900D928A95E1F7D8011296EC909091A4
:101800003702E091380220913A0230913B022115D3
:10181000310531F0EF3F31F481E09F3F19F403C00F
:1018200081E001C080E0B82FB1709B2E80FD47C1E0
:10183000D8014C9111965C9111971396AD90BC9084
:10184000149787E3C82E82E0D82EF0903902B501B4
:10185000621B730B2091000130910101FF2009F4FC
:10186000D9C080913C026217730708F095C0282FF9
:10187000207F09F052C05E1313C0491311C0FE2C23
:10188000E1100EC08F70806180933C020E945A0B61
:10189000C6010E94480880913C02F80185834DC131
:1018A000AB2831F05F3F31F481E04F3F19F403C0C2
:1018B00081E001C080E080FD03C081E08E2502C090
:1018C00080E090E0F82FF170FF2E80FF1CC0809127
:1018D00005022091060236E0821709F40BC190E060
:1018E000389FF001399FF00D1124E95FFD4F6181B0
:1018F000561306C06081461303C06281E61203C01E
:1019000001968770E9CFFE2CEE2009F416C1809174
:101910003C02816080933C0254C05E1306C04913B0
:1019200004C0E11002C0F80199C0C8010E94BE08BD
:10193000882361F1EE2051F120913C02822F8295A3
:101940008F7090E0029774F0809137029091380286
:1019500098878F831986BB86AA862C87CE01079627
:101960000E94480886E0F801A7E3B2E001900D92DA
:101970008A95E1F70E94680B0E945A0B0AC05E1715
:1019800011F1C8010E94BE0881112CC0C8010E943B
:101990004808FF24F394D1C0282F207F81F77A2DA7
:1019A000B98AA88A6E2D89890E94C60887E392E0C9
:1019B0000E94480886E0D6011D928A95E9F70E94A8
:1019C0005A0BF12CBAC04913DCCFE110DACFF80181
:1019D0008583C8010E94480886E0D6011D928A9539
:1019E000E9F7ABC0EE2091F220913C02822F829564
:1019F0008F7090E002970CF4B5CF809137029091F0
:101A000038029A8389831B82BD82AC822E83CE01E9
:101A10000196A6CF6217730708F044C0FE2CEE2093
:101A200009F4B4CF5E1330C049132EC020913C029C
:101A300020FD21C0822F82958F70482F50E04115E4
:101A40005105C9F0F80125834F30510541F08F5FF2
:101A5000982F9295907F822F8F70892B8583C80154
:101A60000E94480886E0F801A7E3B2E001900D92D9
:101A70008A95E1F73CC086E0F801A7E3B2E0019067
:101A80000D928A95E1F759C0C8010E94BE088111E4
:101A900069CF80913C02816080933C02C8010E9422
:101AA00048084BC07A2DB98AA88A6E2D89890E9470
:101AB000C60886E0D6011D928A95E9F718C0EE2087
:101AC00009F464CFC8010E94BE08F82E882309F4E7
:101AD0005DCF86E0F801A7E3B2E001900D928A9510
:101AE000E1F787E392E00E94B0040E94680B0E9435
:101AF0005A0B23C04D875E878D859E850E948E0A76
:101B0000292F22952F70223028F49F7039F08111EF
:101B100005C00BC0243028F49F7049F4805E8830E3
:101B200020F0C8010E9448089F2CF92C06C0D8015B
:101B300015969C91907F91F7F8CF8F2D61960FB6F7
:101B4000F894DEBF0FBECDBFDF91CF911F910F91F3
:101B5000FF90EF90DF90CF90BF90AF909F9008954F
:101B60001F93CF93DF93CDB7DEB72C970FB6F894C2
:101B7000DEBF0FBECDBF4F83588769877A878B87BB
:101B80009C87CE0107960E94E00B8823D1F09F81AD
:101B900088852A853B85232B31F08F3F31F481E006
:101BA0009F3F19F403C081E001C080E080FD47C081
:101BB0004F81588569857A858B859C850E94D508DB
:101BC0003EC086E0FE013796DE01119601900D922F
:101BD0008A95E1F7FF81E8856A857B856115710546
:101BE00031F0EF3F31F481E0FF3F19F403C081E0B1
:101BF00001C080E080FD23C02091060230E0C901D1
:101C00000196877099274091050250E08417950747
:101C1000F1F1F983EA837D836C8396E0929FD00192
:101C2000939FB00D1124A95FBD4FFE013196019025
:101C30000D929A95E1F7809306020E94390B16E007
:101C40008091050290910602891771F1189FC001D9
:101C50001124895F9D4F0E94E00B882329F1E091B8
:101C600005021E9FF0011124E95FFD4F4081518163
:101C700062817381848195810E94D50880910502DB
:101C800090E001968770992780930502D9CF0E9432
:101C900096081092060210920502E7E3F2E086E051
:101CA000DF011D928A95E9F72C960FB6F894DEBFF6
:101CB0000FBECDBFDF91CF911F91089580913D025E
:101CC000859585958595089580913D028770089545
:101CD00090913D02977081E009F480E00895809131
:101CE0006102089590916102892B809361020895A9
:101CF00080959091610289238093610208951092EA
:101D00006102089590916002892B8093600208958A
:101D100080959091600289238093600208951092CB
:101D20006002089590915F02892B80935F0208956D
:101D3000809590915F02892380935F0208951092AD
:101D40005F02089580913E02089508950C94A50EB7
:101D50000C94A60E9091C60292FD08C090913E028E
:101D6000981721F080933E020C94A80E089580915C
:101D70003E02882329F010923E0280E00C94A80EC7
:101D80000895E0910201F091030180916102808346
:101D9000E0910201F0910301908180916002892B12
:101DA0008083E0910201F0910301908180915F02B4
:101DB000892B808380913E02882381F0E09102018B
:101DC000F09103019081892B808380910201909191
:101DD00003010E94312381110E94B70E80910201FC
:101DE000909103010C94DD220C94A50E9091C602F3
:101DF00092FD10C098E0899F90011124262B20931A
:101E00003D020E94570980913D02859585958595F3
:101E10000C94F40E0C94570910923D0280E00C943F
:101E2000F40E20913D028095822380933D02982FED
:101E3000977099F430E0482F082E000C550B2417AA
:101E4000350759F09091C60292FD07C0859585959A
:101E500085950E9478090C940C0F08959091C60204
:101E600092FB222720F9281769F080FB92F99093C2
:101E7000C6028091C5029091C6020E947C0F82E04A
:101E80000C94110F08958091C60282FB882780F977
:101E900091E089270C942E0F81E00C942E0F80E0A6
:101EA0000C942E0F6FEF7FEF80E090E00C94B22C3B
:101EB00080E090E00E948E2C21E0893E9E4F09F048
:101EC00020E0822F089582E090E00C94802C83E043
:101ED00090E00C94802CCF9384E090E00E94802CC2
:101EE000C82F82E290E00E94802C2C2F30E0A901C4
:101EF000582BCA01CF910895CF93C92F682F84E042
:101F000090E00E94942C6C2F82E290E0CF910C9490
:101F1000942CAB01BC018FE090E00C94A62CAB019B
:101F2000BC0183E190E00C94A62C60E070E0CB0152
:101F30000C948F0F60E070E0CB010E94890F0C942D
:101F4000950F69EE7EEF80E090E00E94B22C60E099
:101F500082E090E00E94942C60E083E090E00E9498
:101F6000942C10920102109202021092030210921D
:101F7000040260E084E090E00E94942C60E082E241
:101F800090E00E94942C60E085E090E00E94942C08
:101F900060E086E090E00E94942C6FEF87E090E094
:101FA0000E94942C40E050E0BA0188E090E00E944A
:101FB000A62C60E08DE090E00E94942C40E050E080
:101FC000BA0188E190E00E94A62C60E087E190E0F1
:101FD0000E94942C40E050E0BA018CE190E00E9415
:101FE000A62C60E070E080E290E00E94B22C40E01D
:101FF00050E0BA0188E190E00E94A62C0C949A0F60
:102000000C94A10F682F8EE090E00C94942C0E9409
:102010008F24609371027093720280937302909385
:10202000740260936D0270936E0280936F029093BE
:102030007002089585B7806885BF85B7806885BFC1
:10204000089581E008950C94211008950C942510B2
:102050000C9425100C9428100C9425100C942C1022
:102060000C9425100E941A108BE193E10E94C72264
:102070000E9430100C942E100E9426100C942510F3
:102080000E947A240E941A140E949D1E0E94CE1C57
:102090000C942A106F927F928F929F92AF92BF9270
:1020A000CF92DF92EF92FF920F931F93CF93DF9324
:1020B000CDB7DEB72A970FB6F894DEBF0FBECDBFFF
:1020C0000E942F1481110E94071033E6832E32E004
:1020D000932E00E010E0C02E802F0E9459135C0167
:1020E000F401619071904F016826792661147104A2
:1020F000B1F40F5F1F4F0530110569F78FEF89832A
:102100008A831B820E9483248160782F9D838C8325
:1021100049815A816B818D810E9466043AC0809109
:10212000750281FD0E946213D12CEE24E394F12C00
:10213000C3018E219F21892B29F10E94231088231E
:10214000A9F0DE82CF82AE20BF2081E0AB2809F467
:1021500080E088870E9483248160782F9A8789870E
:102160004E815F8168858A850E946604000F111F79
:10217000F801ED59FD4F80819181E826F926F18221
:10218000E08207C0D394EE0CFF1CFFE0DF12D0CF3B
:10219000B0CF0E94121D0E9463200E9440160E9430
:1021A000D122909162028917D1F00E94D1228093AE
:1021B00062022A960FB6F894DEBF0FBECDBFDF9144
:1021C000CF911F910F91FF90EF90DF90CF90BF9034
:1021D000AF909F908F907F906F900C945D042A96A3
:1021E0000FB6F894DEBF0FBECDBFDF91CF911F9128
:1021F0000F91FF90EF90DF90CF90BF90AF909F90A6
:102200008F907F906F90089580E090E008950895FA
:102210002BE4829FC0011124FC012FE0729FE00D8E
:10222000F11D1124E60FF11DEE0FFF1FE450FF4FCB
:10223000859194910895880F991FFC01E254FD4FF8
:10224000859194910895CF93DF930E944412EC01FD
:10225000811520E5920708F03FC0811540E49407FE
:1022600008F0D2C0883E910500F5803E910508F047
:1022700002C1883A910570F4853A910508F0A6C02C
:102280008130910509F49FC008F4F2C0049708F06A
:10229000F2C0EEC08F3B910508F4A1C0803C9105CF
:1022A00008F4E6C0805C9109A5C0811550E295074D
:1022B00060F4C11581E0D80708F0DDC0CD3ED1053E
:1022C00008F4D6C0CE019065D7C0811520E39207EF
:1022D00008F093C09F708EC0811545E5940708F003
:1022E00046C0811554E5950708F0A6C0C11582E5E2
:1022F000D80718F5C11521E5D20708F088C0CE012E
:10230000F4E096958795FA95E1F7282F23703C2FF6
:10231000337081E090E002C0880F991F3A95E2F790
:102320009C68922B2C2F2F702695269540E2249F97
:1023300090011124822B932B9FC09E012370332781
:102340009C2F96959695C115D34508F065C041E040
:1023500050E002C0440F551F2A95E2F780E2989F93
:1023600090011124CA01822B932B9C6885C0811592
:1023700059E5950798F4C11588E5D80708F061C0BC
:10238000C11526E5D20708F073C08C2F0E94D81221
:102390008F7190E0982F882790626EC081154AE572
:1023A000940708F453C090568115904208F060C01D
:1023B0008D2F8F710E94D8129E01332730628F714A
:1023C000A901582B53C081E090E056C0855AC82F10
:1023D000D0E0C557DE4F888190E090644DC0885AA8
:1023E000C82FD0E0CC0FDD1FC35ADE4F8881998102
:1023F000946442C00E941B113FC09927D3FF02C0C2
:10240000986C3AC0906C38C09F70906A35C09C2F11
:102410008827816F906A30C041E050E002C0440FCD
:10242000551F2A95E2F780E2989F90011124CA0176
:10243000822B932B9A6820C0982F8827846F906AEC
:102440001BC09C2F8827806F906A16C08F700E94D7
:10245000D8129E0194E0369527959A95E1F72F7052
:1024600030E0322F22273069A901482BCA0104C06D
:1024700080E090E001C0CE01DF91CF9108950E94ED
:1024800008110E94231108958238910569F1B0F472
:102490008133910509F46DC048F48932910509F43E
:1024A00063C08A32910509F469C0089585339105A6
:1024B00009F455C089339105B9F00895833E91051B
:1024C00069F138F4803E9105B1F0823E910509F141
:1024D0000895863E9105A9F1873E9105B9F1843EA4
:1024E000910509F064C023C02091C50220FD4FC0B2
:1024F00021FD4DC008958091C50280FD44C08091AA
:10250000C60280FF44C08091C50284FD42C083EEB4
:102510004DC08091C50282FF38C0F5CF8091C502C1
:1025200082FD33C08091C60280FD31C0ECCF809126
:10253000C60281FF32C08091C50284FD2AC087EEA9
:1025400035C08091C50283FF26C0F5CF8091C502BA
:1025500083FD21C08091C60281FD1FC0ECCF809118
:10256000C50285FD1CC01DC08091C50285FD19C036
:1025700016C08091C50286FD16C017C08091C502A5
:1025800086FD13C010C089E311C082EE0FC080EE3B
:102590000DC080E00BC086EE09C084EE07C089E262
:1025A00005C085E303C08AE201C081E390E008959D
:1025B0009091C50292FF0DC0282F2871283019F480
:1025C000877F846006C0282F2471243011F48B7F0C
:1025D000886093FF0DC0282F2871283119F4877E59
:1025E000846106C0282F2471243111F48B7E886108
:1025F0002091C60220FF0DC0382F3871383019F4F1
:10260000877F816006C0382F3171313011F48E7FA1
:10261000886021FF0DC0282F2871283119F4877E8A
:10262000816106C0282F2171213111F48E7E8861CD
:1026300094FD877E089580E008950C94520F0E94C7
:102640002F148FE39CE90197F1F700C000000E946E
:102650002F1480E00E94591380FF04C00E941D13B4
:102660000C94D02408950C941F130E94580F8111CC
:1026700002C00E9400100E94630F809375020E94A6
:102680006B0F9093C6028093C5020E9433130E9481
:10269000670F682F70E080E090E00E94F70860917B
:1026A000FD017091FE018091FF01909100020C9458
:1026B0002F09E82FF0E0EE0FFF1FEF52FD4F808152
:1026C00091810895089580EA8A95F1F7089500C0F0
:1026D00008950C94631308950C946B130C946C136D
:1026E0000C946B130C947013F894E82FE295EF7030
:1026F000F0E031A1282F2F7081E090E001C0880F19
:102700002A95EAF7982F9095932391A392A1892B6C
:1027100082A3789408950F931F93CF93DF93CDE90D
:10272000D1E089918F3F11F00E94741381E0C23A89
:10273000D807B9F7CEE8D1E00DE911E089918F3FD4
:1027400011F00E9474130C171D07C1F7DF91CF9190
:102750001F910F910895BF92CF92DF92EF92FF9257
:102760000F931F93CF93DF938C01C62FD0E0CE0140
:1027700083569E4F6C01FC0190819F3F09F450C02D
:10278000B62EF894E92FE295EF70F0E081A19F70EA
:1027900021E030E001C0220F9A95EAF7822B81A355
:1027A00082A12095282322A378940E946713EEE843
:1027B000F1E04DE951E021E030E0E12CF12C6191B4
:1027C0006F3F89F0A62FA295AF70B0E090968C91E4
:1027D00090E06F7002C0959587956A95E2F780FD4D
:1027E00002C0C90102C080E090E0E82AF92A220F65
:1027F000331F4E175F0719F7F60180818F3F11F0E5
:102800000E94741361E0E114F10409F460E08B2D7F
:102810000E946913CC0FDD1FC00FD11FF982E8821F
:10282000DF91CF911F910F91FF90EF90DF90CF90AC
:10283000BF9008950E948B138AE0E1EDF2E0DF0182
:10284000982F1D929A95E9F7E7ECF2E0DF011D92CF
:102850008A95E9F785E00E947A140C94B803FF92F8
:102860000F931F93CF93DF93CDB7DEB72A970FB6A1
:10287000F894DEBF0FBECDBF8E010F5F1F4F8AE001
:10288000F80111928A95E9F7F12C6F2DC8010E9489
:10289000AB13F394F5E0FF12F8CF4AE050E0B80133
:1028A00087EC92E00E94732CFF24F394009709F4C4
:1028B000F12C892B41F08AE0F801A7ECB2E00190FD
:1028C0000D928A95E1F72F2D45E061ED72E087ECDE
:1028D00092E00E947B140E94C0038F2D2A960FB6AF
:1028E000F894DEBF0FBECDBFDF91CF911F910F9146
:1028F000FF9008950895FF920F931F93CF93DF9356
:10290000F82E092F162FD72FC42F222349F081E04C
:10291000809378020E9483249093770280937602BA
:10292000809178028823D9F0809176029091770285
:102930000E949B24059798F0EF2DF02FA12FBD2F1B
:1029400080E090E04C2F50E08417950734F42191FB
:1029500031912D933D930196F7CF10927802DF913C
:10296000CF911F910F91FF9008950E949B260E9486
:1029700040100C94A7260E94AB260E944A100C948B
:10298000C5260E9409240E9482260E9432100E94BD
:10299000B5140E94BB140E943C10FBCF80917F02B3
:1029A00080FF0BC06091090185E0689FB001112490
:1029B00075956795759567952BC081FF09C06091E6
:1029C000090185E0689FB00111247595679520C0C5
:1029D00082FF07C06091090185E0689FB001112462
:1029E00017C090917E029923D1F06091080196174B
:1029F00088F72091090185E0289F90011124929F7A
:102A0000A001939F500D112470E0CA010E94F92B80
:102A10006038710540F46115710519F406C065E070
:102A200070E0862F08958FE7089581E008958091E2
:102A30007F0280FF08C06091050170E07595679581
:102A40007595679521C081FF06C06091050170E012
:102A50007595679519C082FF04C06091050170E00B
:102A600010C090917D02992399F06091040196170E
:102A7000A0F780910501899FC001112470E00E9498
:102A8000F92B6038710540F46115710519F406C021
:102A900061E070E0862F08958FE7089581E0089542
:102AA0008D3E21F40E94CE14819504C08E3E29F4FF
:102AB0000E94CE148093830208958F3E21F40E94D9
:102AC000CE14819504C0803F29F40E94CE148093D7
:102AD00082020895893F19F40E94171505C08A3FA4
:102AE00031F40E94171581958093840208958B3FDD
:102AF00021F40E941715819504C08C3F29F40E948F
:102B000017158093850208959FE0980F983078F408
:102B100021E030E0A90102C0440F551F9A95E2F769
:102B2000CA0190918102892B8093810208958D3F83
:102B300021F480917F0281600BC08E3F21F480914F
:102B40007F02826005C08F3F29F480917F028460FC
:102B500080937F0208958D3E39F49091830297FF10
:102B600035C01092830259C08E3E29F490918302A1
:102B70001916BCF32BC0909182028F3E29F497FF67
:102B800025C01092820249C0803F19F41916CCF377
:102B90001DC090918402893F29F41916BCF410924B
:102BA00084023BC08A3F19F497FF10C0F8CF8B3FD7
:102BB00039F49091850297FF09C0109285022DC0CB
:102BC0008C3F21F4909185021916BCF39FE0980F79
:102BD000983080F421E030E0A90102C0440F551F75
:102BE0009A95E2F7CA01809590918102892380939A
:102BF000810213C08D3F21F480917F028E7F0BC034
:102C00008E3F21F480917F028D7F05C08F3F29F494
:102C100080917F028B7F80937F028091820281115D
:102C200006C080918302811102C010927E028091C1
:102C30008402811106C080918502811102C0109228
:102C40007D0208950E94832420918202211104C0F4
:102C500020918302222321F090937C0280937B02B7
:102C600020918402211104C020918502222321F0A9
:102C700090937A028093790280E892E00C94F72294
:102C8000EF92FF920F931F93CF93DF9300D000D06A
:102C900000D0CDB7DEB786E0E0E8F2E0DE011196C5
:102CA00001900D928A95E1F7E0908202F090830204
:102CB0000091840210918502109282021092830288
:102CC0001092840210928502E11003C0FF2009F4E3
:102CD0005DC080917B0290917C020E949B24AC019C
:102CE00090917E02992339F020910A0130E0241757
:102CF000350758F04BC020910B018AE0289F9001C6
:102D000011242417350718F041C09F3F19F09F5F29
:102D100090937E02EE2061F00E94CE141E1414F0F7
:102D20009FEF01C091E0989F902D11249093820213
:102D3000FF2061F00E94CE141F1414F09FEF01C019
:102D400091E0989F902D11249093830230918202FC
:102D50003323E1F0209183022223C1F045EB3403B9
:102D6000C0011124992319F09093820203C081E0DD
:102D70008093820235EB2303C0011124992319F0BB
:102D80009093830203C081E080938302011103C00A
:102D9000112309F45DC08091790290917A020E941A
:102DA0009B24AC0190917D02992339F0209106017A
:102DB00030E02417350758F04BC0209107018AE016
:102DC000289F900111242417350718F041C09F3F18
:102DD00019F09F5F90937D02002361F00E94171508
:102DE000101614F09FEF01C091E0989F902D1124D0
:102DF00090938402112361F00E941715111614F0AC
:102E00009FEF01C091E0989F902D1124909385022F
:102E1000309184023323E1F0209185022223C1F016
:102E200045EB3403C0011124992319F090938402D7
:102E300003C081E08093840235EB2303C001112499
:102E4000992319F09093850203C081E08093850255
:102E50008091820281110BC080918302811107C091
:102E600080918402811103C08091850281110E94AA
:102E70002216EB82FC820D831E8386E0FE013196D2
:102E8000A0E8B2E001900D928A95E1F726960FB680
:102E9000F894DEBF0FBECDBFDF91CF911F910F9190
:102EA000FF90EF900895E0E8F2E086E0DF011D92E8
:102EB0008A95E9F710927E0210927D0210927F02AD
:102EC0000895EF92FF920F931F93CF93DF938B019F
:102ED000682F11110AC0442329F0E82FF0E0EB52CB
:102EE000FC4F6491762F862F75C0212F30E0E82F9C
:102EF000F0E0442321F0EB52FC4FE491F0E046E097
:102F0000049FC0011124CFEFD0E0BE010E94E52B49
:102F10004BEA4603C001479F900D1124800F911D7D
:102F2000800F911D982F990F890FAE01421B530BF3
:102F30004E9FD0014F9FB00D5E9FB00D11249B2F6F
:102F4000189FA0011124452F55278E01041B150B36
:102F50000E9FA0010F9F500D1E9F500D11247E014A
:102F6000E81AF108E29E8001E39E100DF29E100D1A
:102F70001124212F3327C21BD30BCE9F9001CF9F4B
:102F8000300DDE9F300D112462307105A9F048F438
:102F90006115710569F061307105C9F48B2F752FCA
:102FA0000DC06430710581F058F06630710579F418
:102FB0007E2F8B2F932F0DC0832F7B2F9E2F09C029
:102FC0008E2F7B2F952F05C08E2F732F02C07E2F43
:102FD000852F692FDF91CF911F910F91FF90EF9077
:102FE000089541E00E946117089508950E94F11725
:102FF0000895CF93DF93762FE901682F842F0E94E5
:10300000F617798368838A83DF91CF910895809141
:10301000DB02282F269530E02115310519F4817047
:10302000826005C02532310524F081708864809368
:10303000DB02089588E090E00C94882CCF92DF9218
:10304000EF92FF926B017C010E940718B701A60165
:1030500088E090E0FF90EF90DF90CF900C94A62C4A
:10306000EBEDF2E083E0808311828FEF8283838334
:10307000148260817181828193810C941E188091E9
:10308000DB0280FF02C08695089580E0089590914C
:10309000DF02933018F49F5F9093DF02882351F092
:1030A0006091DB027091DC028091DD029091DE0282
:1030B0000C941E18089581E00C9447189091DF023B
:1030C000992319F091509093DF02882351F0609179
:1030D000DB027091DC028091DD029091DE020C94A3
:1030E0001E18089581E00C945E1870E00C94742012
:1030F000609110018091DB0280FF0AC080910F0176
:1031000023E0829FC001112480529D4F0C947518BA
:103110008091110190911201891780F7E82FF0E05A
:103120009F01220F331FE20FF31FE052FD4F118268
:10313000108212828F5FF0CF9091DB0290FF16C059
:103140009091110120911201921770F4E92FF0E093
:10315000DF01AA0FBB1FEA0FFB1FE052FD4F818367
:10316000608342839F5FF0CF0C9478180895CF93CB
:10317000DF9300D01F92CDB7DEB79091DB0290FFB6
:103180000AC09E012F5F3F4F0E94F9174B81698152
:103190008A810E949C180F900F900F90DF91CF9121
:1031A0000895CF93DF93EC01EC81F0E0E053FD4F05
:1031B0004491EBEDF2E0628181810E94B7188C812D
:1031C0008F5F8C83DF91CF910895CF93DF93EC01D4
:1031D000EBEDF2E0438162818C810E94B7188C8113
:1031E0008F5F8C83DF91CF9108950F931F93CF93BF
:1031F000DF9300D01F92CDB7DEB78C01809186029D
:1032000081110AC09E012F5F3F4F4FEF6FEF0E9469
:10321000F9178A8180938602F8018481813051F008
:1032200028F0823061F4409186020AC080918602C3
:1032300040E007C06091860240E080E003C040E0CB
:1032400080E060E00E949C18F801848190E0019683
:1032500063E070E00E94F92B84830F900F900F9031
:10326000DF91CF911F910F910895AF92BF92CF92AE
:10327000DF92EF92FF920F931F93CF93DF9300D0D3
:103280001F92CDB7DEB7182FF62E042FE22E9091A5
:10329000DB0290FF6DC0E92FE695AE2FB0E0AE5592
:1032A000BE4F8C91809392029E7F923061F49E017A
:1032B0002F5F3F4F812F0E94F9174B8169818A81CF
:1032C0000E949C1843C0823019F40091DE023EC077
:1032D000863019F41091DC0239C08930D9F3893174
:1032E000A9F5E9518E2F8170D82EE695F0E0E053D4
:1032F000FC4FA590B490C12CBB2460911301C6165D
:1033000018F52C2D30E0A29EC001A39E900DB29E18
:10331000900D112470E00E94E52B812FD11002C086
:10332000860F01C0861B90911101290F311DA90143
:10333000440F551F240F351F20523D4F402F6F2D36
:103340000E94F917C394D9CF0E9478181093DC0219
:10335000F092DD020093DE02EE2051F06091DB027C
:103360007091DC028091DD029091DE020E941E18B5
:103370000F900F900F90DF91CF911F910F91FF90C1
:10338000EF90DF90CF90BF90AF900895EBEDF2E01B
:103390009181282F4381628188E0890F0C9435192F
:1033A00081E00C94C619EBEDF2E09181282F438166
:1033B000628188EF890F0C94351981E00C94D31940
:1033C000EBEDF2E0628128E0620F08F46FEF282F46
:1033D000438181810C94351981E00C94E019EBED67
:1033E000F2E0628128E0621B08F460E0282F43814C
:1033F00081810C94351981E00C94EF19EBEDF2E02A
:10340000438128E0420F08F44FEF282F6281818129
:103410000C94351981E00C94FE19EBEDF2E0438138
:1034200028E0421B08F440E0282F628181810C943F
:10343000351981E00C940D1A20E00C943519FF9297
:103440000F931F93CF93DF93EC01F12C0FEF10E05C
:1034500060911301F616F0F4809111012F2D30E0E8
:10346000280F311DC901880F991F280F391F2052BD
:103470003D4F70E0C8010E94F92B962F8C8140913E
:10348000DE026091DD02F99E800D11240E94F91781
:10349000F394DECF0E9478189A818C8190FF02C04D
:1034A0008F5F01C081508C83DF91CF911F910F916D
:1034B000FF900895BF92CF92DF92EF92FF920F9309
:1034C0001F93CF93DF93FC01828180FF02C00FEF37
:1034D00001C001E010E080911301181708F040C00E
:1034E00080911101C12ED12CE601C80FD11DCE0152
:1034F000880F991FC80FD91FC052DD4F198218823B
:103500001A8234E0E32EF12CB12C809188028B0DCD
:10351000813114F08F7005C087FF03C090911301B3
:10352000890F082E000C990BC816D90691F48091CA
:10353000DE028E9DA0018F9D500D1124559547955B
:10354000559547959E016091DD028091DC020E94B5
:10355000F917B00EF1E0EF1AF108B9F61F5FBBCF13
:103560000E94781880918802013031F4811102C0E4
:1035700080911301815007C090E001966091130182
:1035800070E00E94F92B80938802DF91CF911F9108
:103590000F91FF90EF90DF90CF90BF900895CF9361
:1035A0008091110190911201891770F4E82FF0E0D9
:1035B0009F01220F331FE20FF31FE052FD4F1182D4
:1035C000108212828F5FF0CFC0E060911301C617A6
:1035D000C0F5EC2FF0E070E0CF010E94F92B2091B4
:1035E0001101820F20918702022E000C330B90E014
:1035F000E217F307CCF020910E01022E000C330BE2
:103600002E173F078CF09C01220F331F820F931F50
:103610009C0120523D4F4091DE026091DD0280917D
:10362000DC020E94F9170BC0FC01EE0FFF1F8E0F8A
:103630009F1FFC01E052FD4F118210821282CF5F6A
:10364000C4CF0E94781820910D0180918702820FCB
:103650008093870290910E01920F90930E0119169C
:103660005CF4082E000C990B4091130150E041507E
:103670005109841795071CF0219520930D01CF91D6
:1036800008958F929F92AF92BF92CF92DF92EF9266
:10369000FF920F931F93CF93DF938C01FC01448122
:1036A000C42FD0E09E01DE010E943D2C9B01AC01A5
:1036B0000E94532C6B017C01E0E2F0E0EC1BFD0B5F
:1036C000A5E5B0E09B01AC010E94532C4B015C01CD
:1036D0009F01DF010E94352C9B01AC010E945E2CF2
:1036E0009B01AC012C0D3D1D4E1D5F1DC501B4019C
:1036F0000E940D2CC22FD22F2A3228F4F3E02F9FE4
:10370000900111240DC025E530E02C1B3109C901C1
:10371000880F991F280F391F37FF02C02F5F3F4FB7
:1037200035952795C22FC095F12C85E5E82EED1A29
:1037300080911301F816C8F4F1FC02C08E2D01C06F
:103740008D2F909111012F2D30E0290F311DA901EE
:10375000440F551F240F351F20523D4F4C2F6091B1
:10376000DD020E94F917F394E3CF0E947818F80164
:103770008481811102C091E003C0803219F49FEF6F
:1037800090930C0190910C01890FF8018483DF91D3
:10379000CF911F910F91FF90EF90DF90CF90BF904E
:1037A000AF909F908F9008950F931F93CF93DF93C7
:1037B000EC0100E010E080911301282F30E00217A7
:1037C000130724F5909111019801290F311DA901CA
:1037D000440F551F240F351F20523D4F869590E012
:1037E0004C81081719071CF4442331F002C0411121
:1037F00003C04091DE0201C040E06091DD02809193
:10380000DC020E94F9170F5F1F4FD5CF0E94781876
:103810008C8190E00196817099278C83DF91CF9104
:103820001F910F910895EBEDF2E080818E7F8083F0
:1038300060817181828193810E941E18109293028F
:103840002FEF80E792E0215080409040E1F700C0E8
:1038500000000C947818EBEDF2E080818E7F80837D
:10386000109293022FEF80E792E021508040904029
:10387000E1F700C000000C94781810929302809138
:10388000900281110AC081E0809390028091DB0256
:10389000817080938F020C942B1C08956091DB0241
:1038A000669570E04BE050E084E191E00E94662C68
:1038B000892B19F481E0809393020E9483249093D2
:1038C0008A028093890208959091DB0290FF35C0AF
:1038D0009170811102C0926006C0853210F0986428
:1038E00002C0880F982B9093DB02662351F0609101
:1038F000DB027091DC028091DD029091DE020E9479
:103900001E186091DB02669570E04BE050E084E1A8
:1039100091E00E94662C892B19F01092930202C04C
:103920000E944E1C81E080938C024091DE026091E7
:10393000DD028091DC020C941C1A0895682F90918E
:10394000DB02969581E0890F853208F081E00C94C6
:10395000641C81E00C949E1C682F9091DB0296956C
:103960008FEF890F09F484E20C94641C81E00C94BD
:10397000AC1C61E00C94641CEBEDF2E08081816092
:10398000808386950C94B91C8091DB0280FD0C9499
:10399000131C0C94BC1C60E00C94641C809191027C
:1039A00081112EC00E94580F811104C00E94001086
:1039B0000E9430180E941A186093DB027093DC0298
:1039C0008093DD029093DE026E7F61F40E943018D6
:1039D0000E941A186093DB027093DC028093DD0270
:1039E0009093DE020E940718109293028091DB02EE
:1039F00080FF03C086950E94CB1C81E080939102DA
:103A00000895EBEDF2E080818160808386950C94CF
:103A1000CB1C1092900280918F0281110E94011D97
:103A20000C944E1C0F931F93CF93DF9380919302BE
:103A3000882309F485C080919202E091DB02E6952B
:103A4000E81BE0938B02823049F4F0E0E453FD4F31
:103A5000E491CE2FD0E001ED18E149C0863049F461
:103A6000F0E0E753FD4FE491CE2FD0E005EE18E1F2
:103A70003EC0893051F4E695F0E0EA53FD4FE49101
:103A8000CE2FD0E00FE11AE132C08F3051F4E6952D
:103A9000F0E0ED53FD4FE491CE2FD0E00AE51AE1BE
:103AA00026C0853149F4F0E0E054FD4FE491CE2F7B
:103AB000D0E00FEC1AE11BC0883181F0833239F479
:103AC000EEEBF2E0C591D49105EF18E110C084321D
:103AD00051F4C4EFD1E004ED1BE109C0C8E2D0E02D
:103AE00001E41BE104C0C0EDD7E005EF17E18091D0
:103AF0008C02882361F010928C020E9483249093A0
:103B00008A028093890210928E0210928D020E9486
:103B10008324E0918902F0918A028E1B9F0B8F3FD4
:103B20009F4770F4EC0FFD1FF0938A02E093890227
:103B300089E892E0F801DF91CF911F910F910994EC
:103B4000DF91CF911F910F910895882311F0FA0111
:103B500001C0FB010994CF93DF93C82FD62F0E9499
:103B60003F188C1740F00E943F188D1720F4DF910A
:103B7000CF910C94A91C8C2FDF91CF910C94B91C80
:103B80001F93CF93DF93FB011281112309F4BCC073
:103B9000EC010E946F0E8272CD3CFCE5DF0709F458
:103BA00097C008F043C0C73CECE5DE0709F47CC0D1
:103BB000D8F4C43C9CE5D90709F46AC038F4C33C86
:103BC000DC4509F0A4C00E94C41CA0C0C53C9CE513
:103BD000D90709F462C0C63CDC4509F098C04DED38
:103BE00059E160ED79E15DC0CA3CFCE5DF0709F40D
:103BF00065C070F4C83CECE5DE0709F45AC0C93C66
:103C0000DC4509F084C04CEE59E16BEF79E149C025
:103C1000CB3C9CE5D90709F456C0CC3CDC4509F007
:103C200076C042E758E16BE578E13BC0C23DFCE578
:103C3000DF0709F45AC098F4CF3C9CE5D90709F492
:103C40004EC008F44AC0C03DFCE5DF0709F44AC095
:103C5000C13DDC4509F05BC06EE089E04EC0C53D6A
:103C60009CE5D90709F447C050F4C33DFCE5DF07E4
:103C7000F9F1C43DDC4509F04AC088E142C0C63DC7
:103C80009CE5D907E9F1CE35DD4509F43FC03FC0D9
:103C900046EB5CE169EA7CE104C049EA5CE166EB81
:103CA0007CE10E94A51D32C040ED59E16DED79E146
:103CB000F8CF4BEF59E16CEE79E1F3CF49E15AE1EE
:103CC0006AE07AE1EECF4AE05AE169E17AE1E9CFD0
:103CD0004BE558E162E778E1E4CF81E012C065E0AE
:103CE00082E00BC068E086E008C064E18FE005C0B8
:103CF00067E185E102C062E289E10E94AB1D06C076
:103D000083E20E94B91C02C011E001C010E0812FC3
:103D1000DF91CF911F91089586E090E00C94802C64
:103D2000682F86E090E00C94942C809110038470AE
:103D30008962809310030C94901E0E94580F811189
:103D400004C00E9400100E94951E0E948C1E809349
:103D50001003282F26952695269530E0263031052C
:103D600024F087708862809310038091100380FF95
:103D700004C086958695869501C080E00C94AE1FA0
:103D800020911003822F869586958695482F50E0C6
:103D90004530510554F48F5F982F990F990F990F63
:103DA000822F8770892B809310038091100381608C
:103DB000809310030E94901E809110038695869533
:103DC00086950C94AE1F80911003982F969596952A
:103DD0009695A1F0915E990F990F990F8770892B95
:103DE00080931003887F91E009F490E080911003A4
:103DF00090FB80F9809310030E94901E8091100325
:103E00008695869586950C94AE1F8091100380FD53
:103E100013C0816080931003813019F489E080938E
:103E20001003809110030E94901E809110038695CC
:103E3000869586950C94AE1F08958091100380FF9F
:103E400008C08E7F809310030E94901E80E00C9427
:103E5000AE1F08958091100380FD0C941D1F0C94DB
:103E6000051F90911003892F8695869586958F5F03
:103E70008F719770863038F4880F880F880F892BE0
:103E80008093100302C09093100380911003887FE9
:103E900091E009F490E08091100390FB80F9809309
:103EA00010030E94901E809110038695869586953A
:103EB0000C94AE1F863008F085E090911003977047
:103EC000282F220F220F220F922B90931003987FFE
:103ED00021E009F420E09091100320FB90F99093E9
:103EE00010030C94AE1F0E945A1F809110030C9473
:103EF000901E9C01FB018281882349F12E3BFCE549
:103F00003F07C9F040F42C3BECE53E0769F02D3B40
:103F10003C4561F00895203C9CE5390791F070F034
:103F2000213C3C4589F0089585E001C080E00E9475
:103F3000731F80E008950E94E31EFBCF0E94C01E05
:103F4000F8CF0E942A1FF5CF0E94311FF2CF81E0E7
:103F50000895269A2E9808952E9808958F929F92EC
:103F6000AF92BF92CF92DF92EF92FF920F931F9387
:103F7000CF93DF93C82F863050F4811109C0809110
:103F800080008F7D809380000E94AC1F06C0C5E03A
:103F900080918000806280938000A0918600B09123
:103FA00087002C2F30E00E943D2C25E030E040E0DF
:103FB00050E00E940D2C0027122F232F342F012FA9
:103FC000122F232F332780918600909187006CE079
:103FD00070E00E94E52B6017710730F0C80169E0BE
:103FE00070E00E94E52B5EC0809186009091870072
:103FF000E0908600F0908700E0918600F0918700C5
:10400000C6E0D0E0BE010E94E52B060F171F211D60
:10401000311D4801590185E0880C991CAA1CBB1C64
:104020008A95D1F7C701BE010E94E52B6F01E12CF3
:10403000F12CA7019601260F371F411D511DC50107
:10404000B4010E940D2C69017A01E0918600F09183
:104050008700CA01B9010E94D52B9B01AC01DF0189
:104060000E94532C9B01AC01C701B6010E94D52BC5
:10407000DC01CB012FE0B695A795979587952A95FA
:10408000D1F7009186001091870020E030E00817FA
:1040900019072A073B0728F4609186007091870072
:1040A000CB01BC0170938B0060938A00DF91CF91AC
:1040B0001F910F91FF90EF90DF90CF90BF90AF9046
:1040C0009F908F90089508950E94A91F82E2809387
:1040D000800089E1809381008FEF9FEF90938700AC
:1040E000809386000C949D1E6A9A2EB12B7F3EB160
:1040F00034604FB7F894FC01CB01880F991F680F0B
:10410000791F6E0F7F1FE617F70789F0819198E0FE
:104110003EB9000000C087FF2EB9880F000000C024
:1041200000C000C02EB900C09A9591F7ECCF4FBFE8
:104130008FE594E00197F1F700C000000895CF9358
:10414000DF93EC01FB018281882309F426C1C4308E
:10415000FDE5DF0760F4CB3F9CE5D90768F49E01DD
:1041600022503C452431310508F018C105C0C23643
:10417000EDE5DE0709F012C10E946B0F9093C602B5
:104180008093C502C031FCE5DF0709F4CAC008F01E
:1041900041C0C8309CE5D90709F4A4C0F0F4C4308C
:1041A000FCE5DF0709F48CC068F4C2309CE5D90750
:1041B00009F482C0C330DC4509F0E5C08091C50236
:1041C0008260DFC0C630FCE5DF0709F483C008F079
:1041D00085C08091C5028860D4C0CC309CE5D907E9
:1041E00009F490C068F4CA30FCE5DF0709F47EC02A
:1041F00008F084C00E9496088091C5028068C1C002
:10420000CE309CE5D90709F481C008F086C08091C2
:10421000C50294C0CD3FFCE5DF0709F47BC038F54B
:10422000C4319CE5D90709F49AC058F4C231FCE5C1
:10423000DF0709F47AC008F07EC08091C5028F7B49
:10424000A0C0CB3F9CE5D907F1F108F03FC0C531D4
:10425000DC4509F098C08091C50282FB222720F935
:1042600091E0922790FB82F990FB83F98AC0C130DC
:104270008DE5D80709F467C050F48091C602CF3F9E
:10428000ECE5DE07C1F108F05BC08D7F65C0C3308F
:104290008DE5D80709F471C008F46DC0C236DD455C
:1042A00009F071C08091C50284FB222720F991E0BA
:1042B000922790FB84F965C08091C502816061C03E
:1042C0008091C50216C08091C60216C08091C602B8
:1042D000826042C08091C502806153C08091C50256
:1042E00080624FC08091C50280644BC08091C5023E
:1042F0008860846046C0826081602EC08091C50263
:104300008E7F3FC08091C5028D7F3BC08091C502EA
:10431000877F37C08091C60214C08091C5028F7E0E
:1043200030C08091C5028F7D2CC00E94960880917C
:10433000C5028F7726C08091C502877F8B7F21C001
:104340008D7F8E7F09C08091C602982F90959170C5
:104350008E7F892B90FB81F98093C60214C00E9446
:1043600096088091C50287FB222720F991E09227C9
:1043700090FB87F906C081E001C080E00E94021036
:1043800002C08093C5028091C5029091C6020E942E
:104390007C0F0E94960880E001C081E0DF91CF9100
:1043A0000895CF93DF9386319C4541F5EB010E9440
:1043B0006F0E982F8A81209102013091030188238A
:1043C00079F09A7A81E009F480E080939402911167
:1043D00002C069E201C065E3C9010E94C7230AC0A7
:1043E00080919402811102C069E201C065E3C901B4
:1043F0000E94D2230E94C10E80E001C081E0DF91C3
:10440000CF9108950F931F93CF93DF93C42FD22F93
:10441000FC0182818823C9F0409397020E94832483
:10442000909396028093950280E28C0F883008F07A
:1044300057C0C77081E001C0880FCA95EAF7DF91C5
:10444000CF911F910F910C94E8058091970248132A
:1044500030C080919502909196020E949B24883CE6
:10446000910538F510E21D0FCD17B9F080E28C0FE1
:10447000883040F4C77081E001C0880FCA95EAF720
:104480000E94EF05183028F581E09D2F977001C03C
:10449000880F9A95EAF70E94E805802F0E94DF05B1
:1044A0001830F0F4D77081E001C0880FDA95EAF790
:1044B0000AC080E28C0F883098F4C77081E001C098
:1044C000880FCA95EAF7DF91CF911F910F910C9455
:1044D000EF05802FDF91CF911F910F910C94DF0595
:1044E000DF91CF911F910F9108950F939C01CB0104
:1044F000243F4CE5340731F188F4293DFCE53F07C2
:10450000D9F02A3D4CE5340779F1283D3C45A9F521
:1045100006E221EE41EE68ED7CE52BC0263FFCE58E
:104520003F07E1F0A8F0273F3C4539F507E225EECB
:1045300046EE67EF7CE51DC007E225EE45EE69ED2E
:104540007CE517C006E221EE40EE64EF7CE511C089
:1045500007E225EE44EE65EF7CE50BC006E221EEB6
:1045600042EE66EF7CE505C008E221E045EE6AED2B
:104570007CE50E94022280E008C0FC018281882341
:1045800019F01092970201C081E00F910895909365
:10459000C9018093C801089590939D0280939C0265
:1045A0000895E0919C02F0919D02309721F00190D6
:1045B000F081E02D099480E00895E0919C02F09153
:1045C0009D02309799F020912B01222359F02091E0
:1045D000C50227FF07C0DC012C9111962C9311977F
:1045E00026E02C930280F381E02D09940895E09158
:1045F0009C02F0919D02309739F022E0DC012C936F
:104600000480F581E02D0994089520919A0230915B
:104610009B022817390771F090939B0280939A02AE
:10462000E0919C02F0919D02309721F00680F78185
:10463000E02D09940895209198023091990228174D
:10464000390771F09093990280939802E0919C024F
:10465000F0919D02309721F00084F185E02D0994BE
:104660000895FC01329680912B01882331F08091CE
:10467000C50287FF02C09EE101C096E080E0915034
:1046800028F021912223D9F38F5FF9CF0895662373
:1046900051F120912B012223E9F02091C50227FF3F
:1046A00019C0462F4695469546954E31E0F4677001
:1046B00021E030E002C0220F331F6A95E2F7FC01CF
:1046C000E40FF11D828190E02823392381E0232B20
:1046D00069F409C0FC01329608962191621729F00D
:1046E000E817F907D1F780E0089581E008959C016B
:1046F000FC0132969FEF80E04191461789F09F3F81
:1047000019F4411101C0982F8F5F8630A9F79F3FA0
:1047100039F0F901E90FF11D97FDFA9562830895CB
:1047200008959C012A5F3F4FFC014281461301C05E
:104730001282019682179307B9F70895262F2695BE
:10474000269526952E3168F4FC01E20FF11D677065
:1047500021E030E001C0220F6A95EAF78281282B20
:1047600022830895262F2695269526952E3170F4BE
:10477000FC01E20FF11D677021E030E001C0220F63
:104780006A95EAF720958281282322830895209153
:104790002B01222329F02091C50227FD0C949E2392
:1047A0000C94772320912B01222329F02091C5021C
:1047B00027FD0C94B2230C94912320912B01FC0132
:1047C0003296222331F08091C50287FF02C08EE12C
:1047D00001C086E0DF011D928A95E9F708950895EA
:1047E0000C94EF2383E080939E020C94F0238111BC
:1047F00002C081E001C082E080939E020C94F0230D
:104800000C94F72381E080939E020C94F0230C9487
:104810000224089580911903843031F10E94C2036B
:1048200010929F0220E488E190E00FB6F894A895DA
:10483000809360000FBE2093600083B7817F846007
:1048400083BF83B7816083BF7894889583B78E7F59
:1048500083BF0FB6F894A89580916000886180931B
:104860006000109260000FBE089508950C943524E6
:10487000CF930E9436240E942F140E943524C0E05A
:104880008C2F0E945913892B29F4CF5FC530C1F7B3
:1048900080E001C081E0CF9108950E9496080C94B9
:1048A0003E041F920F920FB60F9211248F939F9385
:1048B000AF93BF9380919F02811113C08091110328
:1048C00090911203A0911303B09114034196A11D7E
:1048D000B11D8093110390931203A0931303B0931F
:1048E0001403BF91AF919F918F910F900FBE0F90C6
:1048F0001F90189582E084BD93E095BD9AEF97BD17
:1049000080936E0008952FB7F894809111039091D1
:104910001203A0911303B09114032FBF08952FB772
:10492000F894609111037091120380911303909198
:1049300014032FBF08959C014FB7F8948091110381
:1049400090911203A0911303B09114034FBF821BE7
:10495000930B089578941F920F920FB60F92112423
:104960008F939F93AF93BF93809111039091120304
:10497000A0911303B09114030196A11DB11D809362
:10498000110390931203A0931303B0931403BF91E8
:10499000AF919F918F910F900FBE0F901F90189520
:1049A00081E08093E00080E28093D8001092C900FB
:1049B0008FE19EE40197F1F700C0000087E090EBE3
:1049C000DC018093220390932303A0932403B093EC
:1049D00025039CE088E10FB6F894A89580936000C9
:1049E0000FBE90936000FFCF8091C3020895089599
:1049F00022E02093E9002FEF3091E800215035FDAF
:104A000006C035ED3A95F1F700002111F5CF209160
:104A1000E80025FF0BC040E050E066E070E00E9437
:104A200037278091E8008E778093E8000895CF9330
:104A3000DF9320912B01222339F02091C50227FF1B
:104A400003C060E222E002C068E021E02093E900B8
:104A50002FEF3091E800215035FD06C035ED3A9535
:104A6000F1F700002111F5CF2091E80025FF1DC0CE
:104A7000EC0180912B01811105C040E050E068E01D
:104A800070E003C070E040E050E0CE010E943727A4
:104A90008091E8008E778093E80080E2FE01A3EA2F
:104AA000B2E001900D928A95E1F7DF91CF910895E0
:104AB0008093A0027093A2026093A10280911903D7
:104AC000843001F582E08093E9008FEF9091E80057
:104AD000815095FD06C095ED9A95F1F70000811182
:104AE000F5CF8091E80085FF0DC040E050E063E025
:104AF00070E080EA92E00E9437278091E8008E778C
:104B00008093E8000895BC0184E00C945825BC0112
:104B100083E00C94582580911803811109C00E94EC
:104B2000C8280E9425298091E20084608093E200D9
:104B300008951092180308950C94072460911503AA
:104B400081E0611101C080E00C94F223909119037F
:104B500081E0943009F080E0609115030C94F72314
:104B600042E061EC81E00E94412842E261EC82E097
:104B70000E9441289091190381E0943009F080E06F
:104B8000609115030C94002480911B03833009F479
:104B900061C030F4813071F0823009F49AC0089518
:104BA0008A3009F486C08B3009F46CC0893009F072
:104BB000A8C020C080911A03813A09F0A2C0809158
:104BC000E800877F8093E80080911E0390911F0387
:104BD000892B21F460E283EA92E003C060E080E088
:104BE00090E070E00E9482278091E8008B778093AC
:104BF000E800089580911A03813209F082C0809103
:104C00001E0390911F03029708F07BC08091E8007B
:104C1000877F8093E8008091E80082FD05C0809145
:104C200019038111F8CF6DC02091F3008091F2003B
:104C300090E0922B029731F48091F100813011F0D5
:104C4000863021F48091F1008093C3028091E800C6
:104C50008B7753C080911A03813A09F052C080913A
:104C60001E0390911F03892B09F04BC08091E8002F
:104C7000877F8093E8008091E80080FFFCCF8091DF
:104C80002B0136C080911A038132D9F580911E0321
:104C900090911F03892BA9F58091E800877F80936D
:104CA000E8000E94762880911C0380932B010C94CD
:104CB000960880911A03813221F58091E800877F60
:104CC0008093E8000E94762880911D038093C4029F
:104CD000089580911A03813AA1F48091E800877FBA
:104CE0008093E8008091E80080FFFCCF8091C402AF
:104CF0008093F1008091E8008E778093E8000C9417
:104D00007628089584B7877F84BF0FB6F894A89556
:104D100080916000886180936000109260000FBEF7
:104D200090E080E80FB6F894809361009093610062
:104D30000FBE0C9402240E94C8280E942529E2EE8E
:104D4000F0E080818460808378940C94BA2B8FE1AA
:104D500091E00C94CC22809119038530A9F48091C4
:104D60001903853079F40E940A248091170388235F
:104D7000B1F30E943824882391F30E9421270E94D6
:104D80009608EDCF0C944D24089508950C94C826F0
:104D9000292F332723303105C9F060F42130310544
:104DA00081F02230310509F044C08BE390E027EF19
:104DB00034E043C021323105E1F02232310549F1BE
:104DC00038C082E190E022E335E037C09927813096
:104DD000910549F028F0029761F5E5EDF4E005C092
:104DE000E3EFF4E002C0E1EEF4E0849190E09F0193
:104DF00024C06115710541F061307105D1F489E07D
:104E000090E022E235E019C089E090E029E035E049
:104E100014C06115710541F06130710551F486EBE4
:104E200090E024E435E009C080E490E02AEF35E02A
:104E300004C080E090E020E030E0FA01318320837C
:104E4000089580E189BD82E189BD09B400FEFDCFEE
:104E50008091D8008F7D8093D8008091E00082609F
:104E60008093E0008091E00081FDFCCF0895CF9217
:104E7000DF92EF92FF920F931F93CF93DF93EC019A
:104E80008B017A010E949528811133C0E114F1044D
:104E900039F0F70180819181081B190BC80FD91FC8
:104EA000C12CD12C0115110519F18091E80085FD67
:104EB00016C08091E8008E778093E800E114F10439
:104EC00049F0F70180819181C80ED91ED182C0823C
:104ED00085E00FC00E949528882321F30AC089919C
:104EE0008093F10001501109FFEFCF1ADF0ADACFEA
:104EF00080E0DF91CF911F910F91FF90EF90DF90B5
:104F0000CF90089520912003309121032617370771
:104F100048F06115710539F42091E8002E7720934F
:104F2000E80001C0B901FC0120E06115710579F1CB
:104F3000809119038823F1F18530F1F18091E80027
:104F400083FD3CC08091E80082FD2EC08091E80086
:104F500080FFEBCF2091F3008091F20090E0922B44
:104F60006115710551F08830910538F42191209335
:104F7000F100615071090196F3CF21E0089709F023
:104F800020E08091E8008E778093E800CECF211159
:104F9000CFCF0AC080911903882361F0853061F07A
:104FA0008091E80083FD0AC08091E80082FFF2CF83
:104FB00080E0089582E0089583E0089581E00895F7
:104FC00020912003309121032617370748F06115FF
:104FD000710539F42091E8002E772093E80001C094
:104FE000B901FC0120E06115710591F1809119036F
:104FF000882309F440C0853009F43FC08091E8005F
:1050000083FD3DC08091E80082FD2FC08091E800C3
:1050100080FFE9CF2091F3008091F20090E0922B85
:105020006115710559F08830910540F42491209361
:10503000F1003196615071090196F2CF21E0089795
:1050400009F020E08091E8008E778093E800CBCFD4
:105050002111CCCF0AC080911903882361F08530DB
:1050600061F08091E80083FD0AC08091E80082FF32
:10507000F2CF80E0089582E0089583E0089581E012
:105080000895982F973068F59093E900981739F0B4
:105090007091EC002091ED005091F00003C0242F9E
:1050A000762F50E021FD02C09F5FECCF3091EB00E6
:1050B0003E7F3093EB003091ED003D7F3093ED006B
:1050C0003091EB0031603093EB007093EC00209353
:1050D000ED005093F0002091EE0027FDE5CF80E039
:1050E00008958F708093E90081E0089580911A03FC
:1050F00087FF11C08091E80082FD05C080911903EF
:105100008111F8CF11C08091E8008B770BC080919E
:105110001903882349F08091E80080FFF8CF80913F
:10512000E8008E778093E80008952091E4003091A4
:10513000E50095E64091EC00842F817040FF23C08C
:105140008091E80080FD1DC080911903882399F0AB
:10515000853099F08091EB0085FD11C04091E4000D
:105160005091E5002417350729F3915011F09A0169
:10517000E1CF84E0089582E0089583E0089581E01E
:10518000089580E008954091E80042FFDDCF089542
:105190000E9436290E943E29E0EEF0E08081816085
:1051A0008083E8EDF0E080818F77808319BCA7EDE4
:1051B000B0E08C918E7F8C9380818F7E8083109263
:1051C000180308950F931F93CF93DF930E943629FE
:1051D0000E943E29C8EDD0E088818F77888388813E
:1051E0008068888388818F7D888319BC1092190319
:1051F00010921503109217031092160300EE10E0A0
:10520000F80180818B7F808388818160888342E080
:1052100060E080E00E944128E1EEF0E080818E7F36
:105220008083E2EEF0E0808181608083808188600D
:105230008083F80180818E7F80838881806188836C
:10524000DF91CF911F910F910895E8EDF0E08081FB
:105250008F7E8083E7EDF0E080818160808384E051
:1052600082BF81E0809318030C94E228E8EDF0E01F
:1052700080818E7F80831092E20008951092DA0080
:105280001092E10008951F920F920FB60F92112411
:105290002F933F934F935F936F937F938F939F933E
:1052A000AF93BF93EF93FF938091E10082FF0BC018
:1052B0008091E20082FF07C08091E1008B7F8093A4
:1052C000E1000E94B92B8091DA0080FF1FC080911D
:1052D000D80080FF1BC08091DA008E7F8093DA00B7
:1052E0008091D90080FF0DC080E189BD82E189BD38
:1052F00009B400FEFDCF81E0809319030E948B2545
:1053000005C019BC109219030E9499258091E100F3
:1053100080FF19C08091E20080FF15C08091E200FB
:105320008E7F8093E2008091E20080618093E200B2
:105330008091D80080628093D80019BC85E080936A
:1053400019030E949E258091E10084FF30C0809166
:10535000E20084FF2CC080E189BD82E189BD09B4EF
:1053600000FEFDCF8091D8008F7D8093D800809182
:10537000E1008F7E8093E1008091E2008F7E809338
:10538000E2008091E20081608093E2008091150349
:10539000882311F084E007C08091E30087FD02C0FC
:1053A00081E001C083E0809319030E94A6258091CB
:1053B000E10083FF29C08091E20083FF25C0809136
:1053C000E100877F8093E10082E0809319031092CF
:1053D00015038091E1008E7F8093E1008091E200CF
:1053E0008E7F8093E2008091E20080618093E200F2
:1053F00042E060E080E00E9441288091F0008860F7
:105400008093F0000E949C25FF91EF91BF91AF9196
:105410009F918F917F916F915F914F913F912F91CC
:105420000F900FBE0F901F9018951F920F920FB6FE
:105430000F9211242F933F934F935F936F937F931A
:105440008F939F93AF93BF93CF93DF93EF93FF938C
:10545000C091E900CF708091EC00D82FD17080FD11
:10546000D0E81092E9008091F000877F8093F000EF
:1054700078940E94592A1092E9008091F000886087
:105480008093F000CD2BCF70C093E900FF91EF9196
:10549000DF91CF91BF91AF919F918F917F916F914C
:1054A0005F914F913F912F910F900FBE0F901F90E2
:1054B00018951F93CF93DF93CDB7DEB7AA970FB69A
:1054C000F894DEBF0FBECDBFEAE1F3E08091F100BA
:1054D000819323E0E232F207C9F70E94C42580914C
:1054E000E80083FF2EC180911A0390911B03492F7E
:1054F00050E04A30510508F024C1FA01EC58FF4F42
:105500000C942F2C803821F0823809F01AC108C081
:105510008091160390911703992389F082600FC040
:1055200080911E038F70873008F00BC18093E900D3
:105530008091EB0085FB882780F91092E90090911B
:10554000E800977F9093E8008093F1001092F100BB
:10555000D1C0282F2D7F09F0F4C0882319F08230A4
:1055600061F0EFC080911C03813009F0EAC09330F4
:1055700009F080E0809317032EC080911C038111F5
:105580002AC080911E038F702FEF280F263008F05D
:10559000D8C08093E9002091EB0020FF1CC093301D
:1055A00021F48091EB00806214C09091EB00906137
:1055B0009093EB0021E030E0A90102C0440F551F99
:1055C0008A95E2F74093EA001092EA008091EB009E
:1055D00088608093EB001092E9008091E800877F5B
:1055E0008093E8000E947628ACC08111AAC0109177
:1055F0001C031F778091E3008078812B8093E30068
:105600008091E800877F8093E8000E94762880914F
:10561000E80080FFFCCF8091E30080688093E30086
:10562000111102C082E001C083E08093190389C098
:105630008058823008F085C080911C0390911D0332
:105640008C3D53E0950779F583E08A838AE289836C
:105650004FB7F894DE01139620E03EE051E2E32FCD
:10566000F0E050935700E49120FF03C0E295EF7003
:105670003F5FEF708E2F90E0EA3010F0C79601C0C8
:10568000C0968D939D932F5F243149F74FBF809132
:10569000E800877F8093E8006AE270E0CE0101961F
:1056A0000E94822716C060911E0370911F03AE01F5
:1056B0004F5F5F4F0E94C626BC01892B09F441C091
:1056C0009091E800977F9093E80089819A810E94E9
:1056D000E0278091E8008B778093E80032C0803823
:1056E00081F58091E800877F8093E8008091150321
:1056F0008093F1008091E8008E7772CF811121C0F4
:1057000080911C0390911D0399270297D4F48091F6
:10571000E800877F8093E80080911C038093150345
:105720000E94762880911503811106C08091E300C4
:1057300087FD02C081E001C084E0809319030E94CC
:10574000B0258091E80083FF0AC08091E800877F40
:105750008093E8008091EB0080628093EB00AA9632
:105760000FB6F894DEBF0FBECDBFDF91CF911F9172
:1057700008950895CF93809119038823A1F0C091D3
:10578000E900CF709091EC00892F817090FD80E846
:10579000C82B1092E9008091E80083FD0E94592AED
:1057A000CF70C093E900CF910895DB018F939F9351
:1057B0000E94532CBF91AF91A29F800D911DA39F7A
:1057C000900DB29F900D11240895AA1BBB1B51E1AF
:1057D00007C0AA1FBB1FA617B70710F0A61BB70B61
:1057E000881F991F5A95A9F780959095BC01CD0106
:1057F000089597FB072E16F4009407D077FD09D083
:105800000E94E52B07FC05D03EF4909581959F4FB3
:105810000895709561957F4F0895A1E21A2EAA1BF5
:10582000BB1BFD010DC0AA1FBB1FEE1FFF1FA21750
:10583000B307E407F50720F0A21BB30BE40BF50B4D
:10584000661F771F881F991F1A9469F760957095D6
:10585000809590959B01AC01BD01CF010895EE0F9D
:10586000FF1F0590F491E02D09940E943D2C3323F5
:1058700012F48A1B9B0B0C944E2CA29FB001B39F79
:10588000C001A39F700D811D1124911DB29F700D49
:10589000811D1124911D08950E943D2CB7FF08958C
:1058A000821B930B08950E943D2CA59F900DB49FE1
:1058B000900DA49F800D911D11240895B7FF0C94A5
:1058C000532C0E94532C821B930B0895FC014150D2
:1058D000504030F001900616D1F73197CF0108956E
:1058E000882799270895FB01DC0104C08D91019060
:1058F000801921F441505040C8F7881B990B089536
:10590000F999FECF92BD81BDF89A992780B5089587
:10591000A6E1B0E044E050E00C94BA2CA8E1B0E07D
:1059200042E050E00C94BA2C262FF999FECF92BD9C
:1059300081BDF89A019700B4021639F01FBA20BD54
:105940000FB6F894FA9AF99A0FBE08950396272F86
:105950000E94952C0E94942C252F0E94952C242F78
:105960000C94952C0196272F0E94952C0C94942C26
:10597000DC01CB01FC01F999FECF06C0F2BDE1BD0F
:10598000F89A319600B40D9241505040B8F70895FE
:04599000F894FFCFB9
:10599400C8003F022808641E140A321E01010200D6
:1059A4001000101001191A1B1C1D1E1F202122F4A7
:1059B400241725F82487258325F72401E200E9002C
:1059C400EA00B500B600B700CD008301CC008A011F
:1059D40092019401210223022402250226022702B5
:1059E4002A02B300B4006F007000818283E200E9F0
:1059F40000EA00B500B600B700CD008301CC008AF0
:105A04000192019401210223022402250226022785
:105A1400022A02B300B4006F007000818283F0F1A7
:105A2400C66766379431303534979633F490919243
:105A340093950001020202020606060909090909F2
:105A4400090F0F0F0F0F0F1515151819191919191B
:085A5400191919191923240086
:00000001FF
