:100000000C94F5020C942D030C942D030C942D03E9
:100010000C942D030C942D030C942D030C942D03A0
:100020000C942D030C942D030C9440270C9414284D
:100030000C9411220C942D030C942D030C942D037D
:100040000C942D030C942D030C942D030C942D0370
:100050000C942D030C9498220C942D030C942D03D6
:100060000C942D030C942D030C942D030C942D0350
:100070000C942D030C942D030C942D030C942D0340
:100080000C942D030C942D030C942D030C942D0330
:100090000C942D030C942D030C942D030C942D0320
:1000A0000C942D030C942D030C942D0335001E008D
:1000B0001F0020002100220023002400250026002C
:1000C00027002D002E002A002A002B00000014001B
:1000D0001A000800150017001C0018000C00120080
:1000E00013002F00300031002961000004001600C9
:1000F000070009000A000B000D000E000F0033007E
:10010000340028000000E10000001D001B00060074
:100110001900050011001000360037003800E50016
:1001200000005200E200E3000000E200E2000000F4
:10013000015100002C0000000251900050004F00BF
:100140005100005C3A003B003C003D003E003F0097
:10015000400041004200430044004500010000000F
:1001600001000000680069006A006B000000A50043
:10017000A70049000000460026022702DF5C0100BC
:1001800000000000A6000000000000004A004E0031
:100190004B004D002D020100010000000100000095
:1001A000C35CC45CC65CC75CC85CC95CCA5CCB5C35
:1001B0000100010001000100A90001000100000090
:1001C000010001000000010000000100000001002A
:1001D000010001000100AA0000001E071F07200700
:1001E00021072207230724072507260727072D07AE
:1001F0002E07000000000000000014071A0708077F
:10020000150717071C0718070C07120713072F07F6
:100210003007310700000000040716070707090729
:100220000A070B070D070E070F07330734070000F7
:100230000000000000001D071B070607190705073F
:1002400011071007360737073807000000000000C5
:10025000000000000000000000000000000000009E
:100260000000000001000000000000000000000489
:100270007F3F1F643214643214783C1E1E140A053A
:100280002223252628292A2C2D2F303233353638A3
:100290003A3B3D3E4042434547494A4C4E505153FC
:1002A0005557595A5C5E6062646668696B6D6F7120
:1002B000737577797B7D7F81838587898A8C8E9022
:1002C000929496989A9C9E9FA1A3A5A7A8AAACAE2B
:1002D000AFB1B3B4B6B8B9BBBCBEBFC1C2C3C5C66B
:1002E000C7C9CACBCCCDCED0D1D2D2D3D4D5D6D714
:1002F000D7D8D9D9DADADBDBDBDCDCDCDCDCDDDD52
:10030000DDDDDCDCDCDCDCDBDBDBDADAD9D9D8D741
:10031000D7D6D5D4D3D2D2D1D0CECDCCCBCAC9C7E3
:10032000C6C5C3C2C1BFBEBCBBB9B8B6B4B3B1AF1A
:10033000AEACAAA8A7A5A3A19F9E9C9A98969492BA
:10034000908E8C8A89878583817F7D7B7977757391
:10035000716F6D6B6968666462605E5C5A5957556F
:100360005351504E4C4A4947454342403E3D3B3A2B
:100370003836353332302F2D2C2A292826252322B2
:10038000FFAA7F55400001010101010101010102A5
:100390000202020202020202030303030303030335
:1003A0000404040404040405050505050606060600
:1003B00006070707070708080808090909090A0ABC
:1003C0000A0B0B0B0C0C0C0D0D0D0E0E0E0F0F0F60
:1003D00010101111111212131314141515161617EB
:1003E00017181819191A1A1B1B1C1D1D1E1E1F2059
:1003F00020212222232424252626272829292A2BA6
:100400002C2D2D2E2F3031323233343536373839CA
:100410003A3B3C3D3E3F40414243444546474849C4
:100420004A4C4D4E4F50515354555658595A5B5D96
:100430005E5F616264656668696B6C6D6F70727334
:100440007577787A7B7D7E8082838587888A8C8E9B
:100450008F91939596989A9C9EA0A2A3A5A7A9ABCD
:10046000ADAFB1B3B5B7BABCBEC0C2C4C6C9CBCDBF
:10047000CFD1D4D6D8DBDDDFE2E4E7E9EBEEF0F371
:10048000F5F8FAFDFF0A0344005A00360030000078
:100490000010034B0042004400460061006E0073F0
:1004A0000000000403090409023B00020100A0FA55
:1004B00009040000010301010009211101000122CA
:1004C0004000070581030800010904010001030041
:1004D000000009211101000122B600070582032056
:1004E000000112010002000000085A4460220100CD
:1004F0000102000105010902A10185020901A10013
:1005000005091901290815002501950875018102C1
:100510000501093009311581257F9502750881068D
:1005200009381581257F950175088106050C0A3863
:10053000021581257F950175088106C0C005010956
:1005400080A101850319012AB700150126B700957E
:100550000175108100C0050C0901A1018504190174
:100560002AA002150126A002950175108100C00580
:10057000010906A1018506050719E029E7150025EF
:10058000019508750181020507190029EF1500255D
:100590000195F07501810205081901290595057578
:1005A000019102950175039101C005010906A101A0
:1005B000050719E029E71500250195087501810255
:1005C0009501750881010507190029FF150026FF0F
:1005D000009506750881000508190129059505751E
:1005E000019102950175039101C011241FBECFEF47
:1005F000DAE0DEBFCDBF04B603FE18C080913F0332
:1006000090914003A0914103B09142038730904BF9
:10061000A740B04B59F410923F0310924003109240
:10062000410310924203E0E0F8E3099511E0A0E0F5
:10063000B1E0EAEFF5E502C005900D92A63CB107E6
:10064000D9F723E0A6ECB1E001C01D92AF33B207A9
:10065000E1F70E94FC120C94E52A0C94000081E062
:10066000089581E008950E943103089508950E943D
:1006700036030895A5E0B0E0E0E4F3E00C945B2AD3
:1006800049835A833091C90189819A81311119C0F6
:10069000662399F0222389F00E94D709182F682F2A
:1006A00089819A810E94B30969817A81812F0E9490
:1006B00067102596E3E00C94772A0E94C509182F4D
:1006C000F3CF0E94D70969817A81F1CFFC01262FEF
:1006D000408151816281738184810E943A0308952F
:1006E00081E00895CF93DF93EC0160E00E94660300
:1006F000BE010E943703DF91CF9108950E94A3119C
:1007000008950E94A711089508950E9402080E946A
:1007100084032FEF84E39CE0215080409040E1F778
:1007200000C0000008950E9485030E94BC22089525
:100730000E9485030E94E02208950F931F93CF9398
:10074000DF938C0161E00E946603EC01B8010E9416
:100750003303811106C080E0DF91CF911F910F918B
:100760000895B801CE010E945E1D8823A1F3B8014F
:10077000CE010E944220882371F3B801CE010E946D
:10078000771E882341F3B801CE010E94B41F88234D
:1007900011F3B801CE010E94AE1B8823E1F2F801EB
:1007A0008281882361F0CB35FDE5DF0701F158F444
:1007B000C115ECE5DE0791F0CF3DDC4591F0C801B5
:1007C0000E942F03C9CFCD358DE5D80769F090F091
:1007D000C83ADD45A1F70E949803BDCF0E9493035C
:1007E000BACF0E949D0EF7CF0E94D70DE8CF0E948E
:1007F000E10DE5CF0E94E50DE2CF0E94ED2180E002
:100800000E94931D0E942F040E94241A08950E94A2
:100810008A1C0E9433040E94FB1A0E94F221089550
:1008200008950E941004089581E00895CF93C82F81
:100830000E941404882319F0C1FD03C02A9ACF91A5
:1008400008952A98FCCF229A2A9A0895CF93C82F08
:100850000E9411048C2F0E941604CF91089580E00D
:100860000E94260408950E949E200E942604089556
:100870000E949E209091C801981721F08093C80192
:100880000E9426040895ABE0B0E0E9E4F4E00C94A3
:100890005C2A4F83588769877A878B8761110E940A
:1008A000220D1E821D8285E0FE013796DE01119623
:1008B00001900D928A95E1F78C819D81892B61F4DD
:1008C00049815A816B817C818D819E810E944B0C74
:1008D0002B96E2E00C94782A89819A8189238F3FB4
:1008E00079F3CE0101960E9470038111E9CFF0CF18
:1008F000FC01808191810E94110A0895CF93C82F35
:100900008823C9F08238C9F40E949E2081FD13C05B
:1009100089E30E94DA0C0E94430D2FEF81EE94E0F0
:10092000215080409040E1F700C0000089E30E9420
:10093000E20C0E94430DCF9108958338A1F40E94E8
:100940009E2080FDF8CF83E50E94DA0C0E94430DC3
:100950002FEF81EE94E0215080409040E1F700C0FD
:10096000000083E5E4CF8438A1F40E949E2082FD3C
:10097000E2CF87E40E94DA0C0E94430D2FEF81EE54
:1009800094E0215080409040E1F700C0000087E4EF
:10099000CECF8CEF8C0F813A90F46C2F80910001B8
:1009A000909101010E941321882329F08C2F0E942D
:1009B000E20C0E94430D8C2F0E94DA0CBACF80E229
:1009C0008C0F883048F4C77081E001C0880FCA9549
:1009D000EAF70E94050DADCFEBE5EC0FE33040F4F4
:1009E000F0E0E85AFE4F808190E00E94D320A3CF30
:1009F000E8E5EC0FE73150F4F0E0EE0FFF1FE65DA5
:100A0000FE4F808191810E94E92095CFCD3E08F470
:100A100092CF8C2F0E9480130E9453148CCF882376
:100A200009F455C0823879F40E949E2081FF4FC09E
:100A300089E30E94DA0C0E94430D89E30E94E20CD4
:100A40000E94430D0895833859F40E949E2080FF30
:100A50003EC083E50E94DA0C0E94430D83E5EECF91
:100A6000843859F40E949E2082FF31C087E40E949E
:100A7000DA0C0E94430D87E4E1CF9CEF980F913A86
:100A8000E8F290E2980F983050F4877091E001C03E
:100A9000990F8A95EAF7892F0E940B0DD1CF9BE51C
:100AA000980F933028F490E080E00E94D3200895BE
:100AB00098E5980F973128F490E080E00E94E920B3
:100AC00008958D3E20F00E94DA130E945314089579
:100AD0001F93CF93DF93182FEB010E947E04209782
:100AE00039F4812F0E940F05DF91CF911F91089556
:100AF0008FE99FE00197F1F700C000002197EFCF49
:100B000070E060E0893311F460E570E00E946805F0
:100B10000895882321F00E94050D0E94430D089539
:100B2000882321F00E940B0D0E94430D0895B0E030
:100B3000A0E0EDE9F5E00C94552A6C01D62FC72F03
:100B4000FC011281F580F2949FE0F9220E94FB0CD7
:100B5000E82E8823B9F0E12E1123A1F08C2F807F9D
:100B6000803421F080E28D0F8830D0F08091E30254
:100B700082FF16C082E00E94A60D0E94FB0C91E04D
:100B8000E82EE926BC2EB2948FE0B822FBE0FB15DC
:100B900008F468C0EB2DF0E0E951F54D0C94152AEE
:100BA000E12CF0CF0C2F0F70C07F11F00295007F69
:100BB000112399F0002359F080E28D0F883010F056
:100BC000D11107C0802F0E94050D0E94430D8D2F6B
:100BD00041C0802F0E94150DF8CF8D2F0E940F0568
:100BE000002309F43FC080E28D0F883010F0D1114E
:100BF00004C0802F0E940B0D03C0802F0E941B0D8C
:100C00000E94430D2FC00C2F0F70C07FC03211F017
:100C10000295007FDD2381F0D13009F463C01123F8
:100C200009F46DC0FF2009F463C0F601858180FFDF
:100C3000CECF8F7085835CC08091E30282FD33C08C
:100C4000112359F0002329F0802F0E94050D0E94E6
:100C5000430D80E00E947E0405C080E00E940F05E5
:100C60000111C7CFEB2DE850FF0B349720F40E9401
:100C70009E200E942604EE2089F00E94F70C80FD41
:100C80000DC0F60112820E94F10C0E94BB08C60141
:100C90000E94C2070E94F10C0E94DD08CDB7DEB7AA
:100CA000E9E00C94712A112389F0F11006C00E942A
:100CB000250D802B0E948905D5CF21E0F212F7CFB8
:100CC0000E94250D802B0E942C0DCCCFF11006C068
:100CD0000E94390D802F0E949005C4CF31E0F31699
:100CE00009F2F6CF112331F085E08F1508F4BACF61
:100CF000802FE0CF94E09F1508F4B4CFEBCFFF2016
:100D000049F3D93349F4FFEF27EE33E0F1502040A7
:100D10003040E1F700C000008D2F0E940F05A2CFE8
:100D20008C2F86958695837069F0813009F09ACF73
:100D30008D2F9C2F9370111102C090E080E00E94D3
:100D4000E92090CF8D2F9C2F9370111102C090E05D
:100D500080E00E94D32086CF8D2F112329F00E949E
:100D600080130E9453147ECF0E94DA13FACF8C2F87
:100D7000837009F041C0111175CF4D2F42954695F2
:100D80004770440F440F0D2F0F7010E030E020E04B
:100D9000042E04C0000F111F221F331F0A94D2F724
:100DA00060E070E0CB01D4FF0FC06FE070E080E046
:100DB00090E004C0660F771F881F991F4A95D2F7ED
:100DC0006095709580959095C695C695C370602B7B
:100DD000712B822B932BC23049F058F4C13019F09B
:100DE0000E9466083FCF0E9453083CCF0E947908BA
:100DF00039CF0E94500836CF8695112311F08C2FE1
:100E00008170882309F42ECF4D2F42954695477067
:100E1000440F440F0D2F0F7010E030E020E0042E3F
:100E200004C0000F111F221F331F0A94D2F760E085
:100E300070E0CB01D4FF0FC06FE070E080E090E085
:100E400004C0660F771F881F991F4A95D2F76095D7
:100E5000709580959095C695C695C370602B712B43
:100E6000822B932BC23049F058F4C13019F00E9404
:100E70003609F8CE0E942309F5CE0E944909F2CE28
:100E80000E949208EFCECF70112329F08C2F0E9480
:100E9000BB088D2F0FCF8D2F0E9490058C2F0E94A5
:100EA000DD08E0CED23F51F160F4D03FB9F0D13F40
:100EB00081F0112309F449C0F11089CE8C2F8F7174
:100EC00021C0D33F11F1D43FA1F78091E30282FD0D
:100ED00026C08C2F8F71112311F314C0112349F0F8
:100EE00084E08F1508F4BECE8C2F8F710E9401090B
:100EF000B9CE95E09F1508F4B5CEF6CF8C2F8F7143
:100F00001111CDCF0E94BB08ADCE112329F08C2F3B
:100F10008F710E94A508A6CE0E949F08A3CE112320
:100F200049F0CF718C2F0E94BB0863E08C2F0E9488
:100F3000880D98CE81E00E94A60DE1E0EF1508F043
:100F400091CE82E00E94A60D8DCEF110DACE8C2FCC
:100F50008F71A5CF0F931F93CF93DF93EC0168811F
:100F600079818A810E941C0A8C010E945C090E947E
:100F70004F08B801CE010E949705DF91CF911F91D4
:100F80000F910895CF93DF93EC018B819C81892B86
:100F900029F08881998189238F3F51F4DF91CF9186
:100FA0000895CE010E94AA07CE010E947203F6CFD7
:100FB000CE010E949D038111F4CF0E94FB0C882377
:100FC00069F38A81882351F38091E30282FFE6CF9F
:100FD00082E00E94A60DE2CF90E080E00E94D32044
:100FE00090E080E00E94E9200E94220D0E94430DC3
:100FF0000E9464150E94531408950E94EA0C0E94F6
:10100000EC0708950E94120D0E94FD070895929525
:101010009F70963091F058F4925F9F70923058F420
:10102000803F19F030F4883E30F481E008959A5FF3
:10103000F4CF843FD1F380E00895883EB0F3813F40
:10104000D1F7F3CFFC01808191810E94110A0E94A7
:1010500007080895A5E0B0E0E0E3F8E00C945C2A0E
:101060002596E2E00C94782AA6E0B0E0EAE3F8E006
:101070000C945C2A2696E2E00C94782A08950E944B
:101080003E0808950E943F08609300027093010299
:1010900080930202909303020E94EC070895089542
:1010A0000E94420808950F931F930091000210912F
:1010B00001022091020230910302602B712B822BDE
:1010C000932B0E9442081F910F9108950F931F9335
:1010D000009100021091010220910202309103025E
:1010E00060237123822393230E9442081F910F9152
:1010F00008950F931F930091000210910102209117
:1011000002023091030260277127822793270E94F1
:1011100042081F910F9108950E943E0808950E9471
:101120008C0808950E948F086093FC017093FD0164
:101130008093FE019093FF010E94EC07089560E008
:1011400070E0CB010E94920808950F931F9341E035
:1011500050E060E070E08A019B0104C0000F111FA5
:10116000221F331F8A95D2F7C901B8010E94920845
:101170001F910F9108950F931F9341E050E060E09D
:1011800070E004C0440F551F661F771F8A95D2F781
:101190008091FC019091FD01A091FE01B091FF01B1
:1011A0008A019B01082B192B2A2B3B2BC901B80163
:1011B0000E9492081F910F9108950F931F9341E091
:1011C00050E060E070E004C0440F551F661F771FB9
:1011D0008A95D2F7CB01BA0160957095809590956C
:1011E0000091FC011091FD012091FE013091FF0161
:1011F00060237123822393230E9492081F910F91F1
:1012000008950F931F9341E050E060E070E004C048
:10121000440F551F661F771F8A95D2F78091FC01F6
:101220009091FD01A091FE01B091FF018A019B0107
:10123000082719272A273B27C901B8010E949208CD
:101240001F910F9108950F931F930091FC0110912E
:10125000FD012091FE013091FF01602B712B822B4B
:10126000932B0E9492081F910F9108950F931F9343
:101270000091FC011091FD012091FE013091FF01D0
:1012800060237123822393230E9492081F910F9160
:1012900008950F931F930091FC011091FD0120917F
:1012A000FE013091FF0160277127822793270E945A
:1012B00092081F910F9108950895262F277091E0AD
:1012C00001C0990F2A95EAF723E0769567952A954C
:1012D000E1F725E0269FF001279FF00D1124E40F90
:1012E000F51F50E040E0682F70E08191DF01119719
:1012F0009B01042E02C0369527950A94E2F72170CF
:1013000021952827292328272C934F5F5F4F4530AD
:10131000510559F70895A82FA77023E09695879552
:101320002A95E1F725E0289FF001299FF00D11246F
:10133000E60FF71F50E040E080E0219130E00A2EF8
:1013400002C0369527950A94E2F721703327042EC0
:1013500001C0220F0A94EAF7822B4F5F5F4F45309E
:10136000510559F70895262F953070F48F3060F4A9
:10137000682F70E08FE0989F600D711D11244AEC7A
:1013800051E0822F0E945D090895292F953068F45D
:101390008F3058F490E06AEC71E03FE0239F800DBD
:1013A000911D11240E948B09089580E00895B0E0FA
:1013B000A0E0EDEDF9E00C94552A8C01C090FC0101
:1013C000D090FD01E090FE01F090FF0180910002BD
:1013D00090910102A0910202B0910302C82AD92A79
:1013E000EA2AFB2ACFE1D0E0BC2ED701C6010C2EA1
:1013F00004C0B695A795979587950A94D2F780FD76
:1014000009C0219788F7B12C8B2DCDB7DEB7E9E065
:101410000C94712AB8018C2F0E948210019789F3D5
:10142000F3CFCF93DF93EC010E94D709BE010E9456
:101430008210DF91CF9108951F93CF93DF93EB013B
:101440009091C901992339F0CB010E94110ADF91D3
:10145000CF911F910895882369F0CB010E94D7098D
:10146000182F682FCE010E94B309BE01812F0E9460
:101470008210EDCFCB010E94C509182FF6CF1F9324
:10148000CF93DF93C091040216E0809105028C1384
:1014900004C0DF91CF911F910895D0E01C9FF0010F
:1014A0001D9FF00D1124EA5FFD4F40815181628143
:1014B0007381848195810E9434082196C770E5CF9D
:1014C0004091360250913702609138027091390292
:1014D00080913A0290913B020E94340808951F9334
:1014E000CF93DF9380913B02807F09F049C08091C8
:1014F0003802882309F444C080910402C091050297
:101500006091360270913702A0913902B0913A028F
:10151000D62FD72316E0C81799F190E0109711F055
:10152000DF3F19F401968770F6CF189F9001199F3D
:10153000300D1124F901EA5FFD4F41814713F2CFCD
:1015400040814613EFCF42814111ECCF438154815A
:101550004A1B5B0B483C510528F780913B028F707A
:10156000806180933B02F901E55FFD4F80818F70C0
:101570008061808386E392E00E94C2070E943F0A56
:10158000DF91CF911F910895A1E1B0E0EAECFAE07C
:101590000C94542A8C0185E0F801DE011D9601901F
:1015A0000D928A95E1F7F801E28086E3C82E82E089
:1015B000D82E6091390270913A026115710509F4D3
:1015C0004EC19091360220913702892F82238F3F9E
:1015D00009F445C140815181A380B480F090380264
:1015E000F501E61BF70BFF2009F4EAC080913B02EE
:1015F000382F307FE83CF10508F0A3C031116DC0F1
:10160000FE2C251316C0941314C0E11012C08F7065
:10161000806180933B020E94600AC6010E94C2075B
:1016200080913B02F80185838F2D6196EAE00C944E
:10163000702AA114B10429F0842F85238F3F09F06B
:1016400027C180E0F82FF170DF2E80FF3CC0809131
:1016500004022091050236E0821315C04D875E8793
:101660008D859E850E94110A292F22952F70223088
:10167000F0F0243018F59F70F1F0F8019581907F1B
:10168000D1F4D12C1EC090E0389FF001399FF00DAD
:101690001124EA5FFD4F6181651306C06081641308
:1016A00003C06281E6120FC001968770D5CF9F708C
:1016B00011F0882331F3805E883018F3C8010E944E
:1016C000C207FD2CB1CFEE2009F4AECF80913B02D2
:1016D000816080933B02F12CA7CF251306C09413A1
:1016E00004C0F801EE2009F487C0C8010E94220856
:1016F000882319F1EE2009F180913B02803270F0CD
:10170000209136023091370238872F831986BB86A5
:10171000AA868C87CE0107960E94C20786E0F80150
:10172000A6E3B2E001900D928A95E1F70E946F0A5C
:101730000E94600AFF24F39477CFC8010E94C20779
:10174000F9CF311113C07A2DB98AA88A6E2D8989F3
:101750000E942A0886E392E00E94C20786E0F60112
:1017600011928A95E9F70E94600AB5CF25130FC040
:1017700094130DC0E1100BC0F8018583C8010E94CD
:10178000C20786E0F60111928A95E9F74DCFC801AC
:101790000E942208882389F2EE2079F280913B0290
:1017A000803208F4BBCF20913602309137023A8361
:1017B00029831B82BD82AC828E83CE010196ACCF81
:1017C000E83CF10508F03EC0FE2CEE2009F4B5CF50
:1017D00025132AC0941328C080913B0280FD1BC0B2
:1017E000982F907FC1F0F8018583903F31F0982FBA
:1017F000907F905F8F70892B8583C8010E94C207FC
:1018000086E0F801A6E3B2E001900D928A95E1F737
:101810000E94600A09CF86E0F801A6E3B2E00190D9
:101820000D928A95E1F700CFC8010E94220881112C
:1018300075CF80913B02816080933B02C8010E947A
:10184000C207F2CE7A2DB98AA88A6E2D89890E94A4
:101850002A0886E0F60111928A95E9F7D9CFEE20A1
:1018600009F46BCFC8010E942208F82E882309F4DE
:1018700064CF86E0F801A6E3B2E001900D928A956C
:10188000E1F786E392E00E9478040E946F0AC0CFDD
:1018900081E08E25D7CEACE0B0E0E1E5FCE00C9431
:1018A0005B2A4F83588769877A878B879C87CE010D
:1018B00007960E94C40A882369F08A859B85892B34
:1018C00039F04F815885842F85238F3F09F06BC0F5
:1018D00016E05FC086E0FE013796DE0111960190AA
:1018E0000D928A95E1F78A859B85892B89F38885F6
:1018F0009F8189238F3F61F32091050230E0C90168
:10190000019687709927409104024817190671F4CF
:101910000E940208109205021092040286E0E6E39B
:10192000F2E0DF011D928A95E9F7D2CF96E0929F0F
:10193000D001939FB00D1124AA5FBD4FFE013196D7
:1019400001900D929A95E1F7809305020E943F0A5B
:10195000BFCF819FC00111248A5F9D4F0E94C40A9E
:101960008823E9F0E09104021E9FF0011124EA5F50
:10197000FD4F4081518162817381848195810E94F4
:1019800034088091040290E0019687709927809333
:10199000040280910402909105028913DACF2C96FB
:1019A000E3E00C94772A69857A858B859C850E9473
:1019B00034088ECF682F80910001909101010E9420
:1019C00093210895682F80910001909101010E9458
:1019D000A121089580910001909101010E94AF2101
:1019E000089580915C0285958595859508958091EF
:1019F0005C028770089590915C02977081E009F411
:101A000080E0089580917F02089590917F02892B54
:101A100080937F020895809590917F029823909300
:101A20007F02089510927F02089590917E02892B83
:101A300080937E020895809590917E0298239093E2
:101A40007E02089510927E02089580915D020895AD
:101A500008950E94280D08959091E30292FF08C016
:101A600090915D02981721F080935D020E94290DEC
:101A7000089580915D02882329F010925D0280E034
:101A80000E94290D0895CF93DF93E0910001F0911A
:101A9000010180917F028083E0910001F0910101BA
:101AA000808190917E02892B808390915D029923A1
:101AB00081F0E0910001F09101018081892B808308
:101AC00080910001909101010E94FF2081110E94EC
:101AD000390DC0910001D091010140E250E06CE36A
:101AE00072E0CE010E94902A892B59F080E2FE011B
:101AF000ACE3B2E001900D928A95E1F7CE010E942D
:101B0000AB20DF91CF91089508950E94840D089530
:101B10009091E30292FF11C098E0899F90011124F7
:101B2000622B60935C020E94BB0880915C028595E9
:101B3000859585950E94850D08950E94BB0808959E
:101B400010925C0280E00E94850D089590915C02E5
:101B50008095892380935C02282F277091F4282F89
:101B6000082E000C330B9217130659F09091E302E4
:101B700092FF07C08595859585950E94DD080E9496
:101B8000A00D08959091E30292FB222720F92817D7
:101B900069F080FB92F99093E3028091E2029091C8
:101BA000E3020E94130E82E00E94A60D0895809128
:101BB000E30282FB882780F991E089270E94C20D09
:101BC000089581E00E94C20D089580E00E94C20D38
:101BD00008956FEF7FEF90E080E00E94CF2A089594
:101BE00090E080E00E94AB2A21E0883E9E4F09F001
:101BF00020E0822F089582E090E00E949D2A0895BF
:101C000083E090E00E949D2A0895CF9384E090E0C5
:101C10000E949D2AC82F82E290E00E949D2A982F60
:101C20008C2FCF910895CF93C92F682F84E090E037
:101C30000E94B12A6C2F82E290E00E94B12ACF91DB
:101C40000895AB01BC018FE090E00E94C32A089583
:101C5000AB01BC0183E190E00E94C32A089560E0DB
:101C600070E0CB010E94280E089560E070E0CB0187
:101C70000E94210E0E942F0E089568EE7EEF90E0E4
:101C800080E00E94CF2A60E082E090E00E94B12ACA
:101C900060E083E090E00E94B12A1092000210926E
:101CA0000102109202021092030260E084E090E0D0
:101CB0000E94B12A64E082E290E00E94B12A60E0D2
:101CC00085E090E00E94B12A60E086E090E00E940A
:101CD000B12A6FEF87E090E00E94B12A40E050E027
:101CE000BA0188E090E00E94C32A60E08DE090E0B5
:101CF0000E94B12A40E050E0BA0188E190E00E94E1
:101D0000C32A60E087E190E00E94B12A40E050E001
:101D1000BA018CE190E00E94C32A70E060E080E2AA
:101D200090E00E94CF2A40E050E0BA0188E190E0C4
:101D30000E94C32A0E94350E08950E943D0E089508
:101D4000682F8EE090E00E94B12A08950E947D22C3
:101D500060938E0270938F02809390029093910211
:101D600060938A0270938B0280938C0290938D0211
:101D70000895089508950E94BA0E089508950E9446
:101D8000BE0E089581E691E10E9494200E94B90E52
:101D90000E94BB0E089581E008950E94CB0E089525
:101DA000089508950E94D00E0E94D10E08950E94B9
:101DB0007D110E9423040E943A1E08950E94682209
:101DC0000E9463120E94D70E0E948A1C0E94BF1AB2
:101DD0000E94BF0E0895AAE0B0E0E1EFFEE00C948F
:101DE0004F2A0E947912A82E81110E94A60E30E877
:101DF000832E32E0932E10E000E0502E802F0E94C0
:101E0000AA116C01F401619071904F016816790676
:101E100009F443C08091920281FD0E94B311B12C5C
:101E2000EE24E394F12C6C247D24C3018E219F21A8
:101E3000892B69F10E94CD0E8823B1F0BE825F82AA
:101E4000CE20DF2081E0C114D10409F480E088872E
:101E50000E9471228160782F9A8789874E815F81E5
:101E600068858A850E944304000F111FF801E0581D
:101E7000FD4F80819181E826F926F182E08281E0A0
:101E8000A11001C080E02A96EFE00C946B2AB39475
:101E9000EE0CFF1CFFE0BF12C8CF0F5F1F4F0530D5
:101EA000110509F0AACF8FEF89838A831B820E94D4
:101EB00071228160782F9D838C8349815A816B8147
:101EC0008D810E944304DBCF0E94EB0E0E94051B14
:101ED0000E94391E0E946F140E9438040895CF9307
:101EE000DF930E948710EC01811521E5920708F02D
:101EF00042C0811530E5930708F09DC0883E9105EA
:101F000030F5803E910508F092C0883A910588F43A
:101F1000853A910508F084C08130910509F487C0A5
:101F2000009709F484C0049708F081C0D0E0C0E0B5
:101F30007EC08F3B9105D0F7C85AD0E0CC0FDD1F93
:101F4000C55ADE4F0990D881C02DD46470C0811568
:101F5000904250F4C11581E0D80708F068C0CD3E2A
:101F6000D10520F3D06563C0C11590E4D907F0F224
:101F7000DF70D06A5CC0811525E5920700F58115F8
:101F800034E5930708F08BC0811543E5940708F00A
:101F900073C0C11582E5D80708F469C0CE0183700B
:101FA000992721E030E002C0220F331F8A95E2F723
:101FB000C695C69580E2C89FE001112454C0C115A2
:101FC00099E5D907A8F4C11528E5D20708F06CC037
:101FD000C11536E5D30708F0A9CF8C2F0E941E113A
:101FE000C82FD0E0DC2FCC27CC27DF71D0621FC0F8
:101FF000C1154AE5D40708F45CC0CE01905681159E
:10200000904208F093CF8D2F8F710E941E1190E0A7
:10201000982F882788279F719C012C2BE901E6CFF8
:10202000C55AD0E0C757DE4FC881D0E0D064CE019A
:10203000DF91CF910895E4E096958795EA95E1F7D1
:1020400083702C2F26952695237040E2249F9001C3
:102050001124382B8C2F8370C1E0D0E002C0CC0F4C
:10206000DD1F8A95E2F7C22BD32BDC68E0CFDC2F93
:10207000CC27C16FD06ADBCF8370992721E030E095
:1020800002C0220F331F8A95E2F7C695C69590E2EB
:10209000C99FE0011124C22BD32BDA68C8CFD82FF7
:1020A000CC27C46FD06AC3CFDC2FCC27C06FD06AD7
:1020B000BECF8C2F8F700E941E1134E0D695C7952D
:1020C0003A95E1F7CF709C2FEC01D069B0CF972FF4
:1020D0007530A8F46F3098F470E02FE0929F600D97
:1020E000711D1124FB019BE4899FE00DF11D11245A
:1020F000EE0FFF1FE455FF4F85919491089580E006
:1021000090E008950E9467100E946F0F0895823832
:102110009105B1F1B0F48133910509F475C048F42B
:102120008932910509F469C08A32910509F473C0B6
:1021300008958533910509F459C08933910501F15A
:102140000895833E9105A9F138F4803E9105F9F098
:10215000823E910549F10895863E9105A9F1873E99
:102160009105C9F1843E910519F52091E30221FF03
:102170001FC08091E20284FD14C087EE90E00895B4
:102180002091E2022370A1F080EE90E0089520916A
:10219000E20220FD47C03091E30230FF09C024FF76
:1021A00044C090E080E004C02091E20222FDF7CF1D
:1021B00008952091E20222FD3BC03091E30230FD00
:1021C000E3CF24FFF5CFEDCF2091E20223FFF0CF44
:1021D00024FDE7CFD2CF2091E20223FD2CC0309125
:1021E000E30231FFEECF84EE90E008952091E20209
:1021F00025FFDECF89E290E008952091E20225FFDD
:10220000D7CF85E390E008952091E20226FFD0CF5A
:102210008AE290E008952091E20226FFC9CF81E38F
:1022200090E0089589E390E0089583EE90E00895AA
:1022300082EE90E0089586EE90E008959091E2029B
:1022400092FF06C0282F28712830F9F4877F846018
:1022500093FF06C0282F28712831F1F4877E84610E
:102260002091E30220FF06C0382F38713830D9F4AE
:10227000877F816021FF06C0282F28712831D1F483
:10228000877E816194FD877E0895282F24712430F4
:10229000F9F68B7F8860DCCF282F2471243101F779
:1022A0008B7E8861DDCF382F3171313019F78E7F09
:1022B0008860E0CF282F2171213121F78E7E88613F
:1022C000E1CF80E008950E94E90D08950E947912FF
:1022D0008FE39CE90197F1F700C000000E9479129A
:1022E00080E00E94AA1180FF04C00E9463110E9436
:1022F000BC2208950E94661108950E94F00D81117C
:1023000002C00E949D0E0E94FB0D809392020E94CB
:10231000050E9093E3028093E2020E947A110E94DC
:10232000000E682F70E090E080E00E9450086091FD
:10233000FC017091FD018091FE019091FF010E94CE
:102340008F08089508950E94A211089508950E948B
:10235000A6110895E82FF0E0EE0FFF1FE251FD4FA8
:10236000808191810895089580EA8A95F1F7089512
:1023700000C008950E94B4110895F894E82FE295E2
:10238000EF70F0E031A1282F2F7081E090E001C0C4
:10239000880F2A95EAF7982F9095932391A392A1FD
:1023A000892B82A3789408950F931F93CF93DF9383
:1023B000CBE9D1E089918F3F11F00E94BD1181E0FE
:1023C000C03AD807B9F7CCE8D1E00BE911E0899120
:1023D0008F3F11F00E94BD110C171D07C1F7DF914F
:1023E000CF911F910F910895AF92BF92DF92EF921C
:1023F000FF920F931F93CF93DF938C01D62EC62F9E
:10240000D0E0CE0185569E4F7C01FC0120812F3FFC
:1024100009F44CC0F894E22FE295EF70F0E031A19E
:102420002F7081E090E001C0880F2A95EAF7932F82
:10243000982B91A392A18095892382A378940E94DE
:10244000B811ECE8F1E041E050E0B12CA12C219171
:102450002F3FB1F1A22FA295AF70B0E090968C9172
:1024600090E02F7002C0959587952A95E2F780FD40
:1024700027C0CA01A82AB92A440F551F81E0EB39A9
:10248000F80729F7F70180818F3F11F00E94BD11F5
:1024900061E0A114B10409F460E08D2D0E94BA112D
:1024A000CC0FDD1FC00FD11FB982A882DF91CF9161
:1024B0001F910F91FF90EF90DF90BF90AF90089524
:1024C00090E080E0D7CF0E94D4118AE0EEEEF2E0F7
:1024D000DF01982F1D929A95E9F7E4EEF2E0DF0113
:1024E0001D928A95E9F785E00E94B5120E947E034D
:1024F0000895AAE0B0E0EFE7F2E10C94592A8E01CA
:102500000F5F1F4F8AE0F80111928A95E9F7F12CCD
:102510006F2DC8010E94F411F394F5E0FF12F8CF7B
:102520004AE050E0B80184EE92E00E94902AFF2435
:10253000F394009709F4F12C892B41F08AE0F8011B
:10254000A4EEB2E001900D928A95E1F72F2D45E0BF
:102550006EEE72E084EE92E00E94B6120E94810359
:102560008F2D2A96E5E00C94752A0895FF920F931B
:102570001F93CF93DF93F82E092F162FD72FC42F39
:10258000222349F081E0809395020E94712290936A
:10259000940280939302809195028823A1F0809108
:1025A0009302909194020E948922059760F0EF2D8A
:1025B000F02FA12FBD2F90E080E0D0E08C179D0779
:1025C0003CF010929502CDB7DEB7E5E00C94752A89
:1025D000219131912D933D930196F0CF0E94962445
:1025E0000E94DE0E0E94A32408950E94A8240E9447
:1025F000640F0E94C22408950E940A220E947C2433
:102600000E94C20E0E94EE120E94F5120E94D20E8B
:10261000FBCF80919C0280FF0DC06091070170E0AC
:10262000660F771F6038710570F56115710569F1E6
:10263000862F089581FF07C06091070184E0689F9D
:10264000B0011124EFCF6091070182FD0AC0809193
:102650009B028823A9F0209106016091070182174F
:1026600010F088E0ECCF869FC001112433E0880F82
:10267000991F3A95E1F7622F70E00E94DF29D2CFCF
:1026800068E070E0D5CF8FE7089581E008958091EC
:102690009C0280FF0CC06091030170E07595679506
:1026A000759567956115710549F1862F089581FF2C
:1026B00006C06091030170E075956795F3CF609156
:1026C000030182FD0BC090919A029923A1F06091C1
:1026D000020180910301961738F0682F70E060388E
:1026E000710500F38FE70895899FC001112470E000
:1026F0000E94DF29F4CF61E070E0D7CF81E0089538
:102700008D3E31F40E94091381958093A0020895B3
:102710008E3E19F40E940913F8CF8F3E31F40E94C7
:102720000913819580939F020895803F19F40E94B8
:102730000913F8CF893F29F40E9447138093A1021F
:1027400008958A3F21F40E9447138195F7CF8B3F6C
:1027500031F40E94471381958093A20208958C3F23
:1027600019F40E944713F8CF9FE0980F983070F447
:10277000815F990B21E030E001C0220F8A95EAF7D2
:1027800080919E02822B80939E0208958D3F31F4AA
:1027900080919C02816080939C0208958E3F21F479
:1027A00080919C028260F7CF8F3FB9F780919C02A5
:1027B0008460F1CF40919F028D3E59F48091A00238
:1027C00087FF0DC01092A00241110BC010929B0216
:1027D00008C08E3E81F48091A00218169CF3442319
:1027E00081F08091A1029091A202892B09F05AC038
:1027F00010929A0208958F3E49F447FFF0CF10924D
:102800009F028091A0028111ECCFE0CF803F19F4AC
:102810001416ACF3E4CF9091A102893F29F4191664
:10282000F4F61092A102DBCF8A3F19F497FFD7CFBD
:10283000F8CF9091A2028B3F29F497FFD0CF10924E
:10284000A202CDCF8C3F19F41916CCF3C8CF9FE06C
:10285000980F983090F4815F990B21E030E0B90136
:1028600002C0660F771F8A95E2F7CB0180959091A1
:102870009E02892380939E02B2CF8D3F31F48091D6
:102880009C028E7F80939C02AACF8E3F21F4809180
:102890009C028D7FF7CF8F3F09F0A1CF80919C02E2
:1028A0008B7FF0CF08950E9471229C0190919F022E
:1028B0008091A002982B21F03093990220939802E6
:1028C0009091A1028091A202982B21F0309397025F
:1028D000209396028DE992E00E94C5200895A6E01B
:1028E000B0E0E5E7F4E10C945B2A86E0EDE9F2E084
:1028F000DE01119601900D928A95E1F710929F02E8
:102900001092A0021092A1021092A2028B819C81CF
:10291000892B81F080919802909199020E948922DE
:10292000AC0190919B02992391F180910801841749
:102930001506D0F18D819E81892B91F080919602B0
:10294000909197020E948922AC0190919A0299235A
:1029500009F46BC0809104018417150608F473C054
:10296000BE016F5F7F4F8DE992E00E94C12181110E
:102970000E94531486E0FE013196ADE9B2E0019069
:102980000D928A95E1F72696E3E00C94772A209140
:1029900009018AE0289F900111242417350750F679
:1029A0009F5F90939B0202C09F3FD1F71B81112331
:1029B00059F00E9409139FEF11160CF491E0899FC2
:1029C000802D112480939F021C81112359F00E94B5
:1029D00009139FEF11160CF491E0899F802D1124AB
:1029E0008093A00230919F02332309F4A3CF20915A
:1029F000A002222309F49ECF45EB3403C001112429
:102A0000992359F090939F0245EB240390011124E0
:102A1000332339F03093A0028DCF81E080939F0261
:102A2000F3CF81E08093A00285CF209105018AE059
:102A3000289F900111242417350708F091CF9F5F3C
:102A400090939A0202C09F3FD1F71D81112359F044
:102A50000E9447139FEF11160CF491E0899F802D7F
:102A600011248093A1021E81112359F00E94471363
:102A70009FEF11160CF491E0899F802D1124809313
:102A8000A2023091A102332309F46ACF2091A2025D
:102A9000222309F465CF45EB3403C00111249923A7
:102AA00059F09093A10245EB2403900111243323A4
:102AB00039F03093A20254CF81E08093A102F3CF8A
:102AC00081E08093A2024CCF86E0EDE9F2E0DF01E5
:102AD0001D928A95E9F710929B0210929A02109229
:102AE0009C020895EF92FF920F931F93CF93DF9371
:102AF000EB01E82FD1110EC0442321F0F0E0EB5799
:102B0000FC4FE4916E2F7E2F8E2FCDB7DEB7E6E01F
:102B10000C94742A0D2F10E0282F30E0442329F064
:102B20002B573C4FF901249130E0F6E0CF9FC001D4
:102B30001124EFEFF0E0BF010E94CB29AB018C2FF5
:102B400090E0880F991FA5E5A49FB001A59F700D87
:102B50001124861B970B982F990F980FBF01601BAC
:102B6000710B629FD001639FB00D729FB00D112455
:102B70008B2F9D9FB0011124672F7727EF01C61B74
:102B8000D70BBE01629FE001639FD00D729FD00DF5
:102B900011247F01E91AF108E09EB001E19E700D59
:102BA000F09E700D1124672F7727E61BF70BE29F2D
:102BB0008001E39F100DF29F100D1124E12F722F61
:102BC0004230510599F048F44115510569F0413002
:102BD000510581F0EB2F8D2F07C04430510569F06E
:102BE00080F046305105B1F76E2F8FCFE22F7B2F4B
:102BF000812FFACFE22F7D2FF7CFEB2F822F712F6E
:102C0000F3CF7B2F822FED2FEFCF41E00E94721583
:102C1000089508950E9405160895CF93DF93762FA7
:102C2000E901682F842F0E940A16798368838A83BA
:102C3000DF91CF9108958091F802982F9E7F29F41B
:102C4000817082608093F80208958A34E8F381707D
:102C50008864F8CF88E090E00E94A52A0895CF927A
:102C6000DF92EF92FF926B017C010E941B16B7016D
:102C7000A60188E090E00E94C32AFF90EF90DF90C9
:102C8000CF900895E8EFF2E083E0808311828FEF28
:102C900082838383148260817181828193810E9407
:102CA0002F1608958091F80280FF02C0869508953E
:102CB00080E008959091FC02933018F49F5F909308
:102CC000FC02882351F06091F8027091F902809122
:102CD000FA029091FB020E942F16089581E00E9453
:102CE0005A1608959091FC02992319F091509093EF
:102CF000FC02882351F06091F8027091F9028091F2
:102D0000FA029091FB020E942F16089581E00E9422
:102D10007216089570E00E944B1E089560910E0196
:102D20008091F80280FF0BC080910D0123E0829F0B
:102D3000C001112483509D4F0E948A1608958091EE
:102D40000F019091100123E0829FF0011124E350C4
:102D5000FD4F891748F71182108212828F5F3396D8
:102D6000F8CF9091F80290FF0EC090910F01209142
:102D7000100133E0939FF0011124E350FD4F9217AF
:102D800018F00E948E1608958183608342839F5FAE
:102D90003396F5CFA3E0B0E0E0EDF6E10C945C2AC9
:102DA0009091F80290FF0AC09E012F5F3F4F0E9452
:102DB0000D164B8169818A810E94B1162396E2E04B
:102DC0000C94782ACF93DF93EC01EC81F0E0E0588B
:102DD000FD4F4491E8EFF2E0628181810E94CA16C2
:102DE0008C818F5F8C83DF91CF910895CF93DF9398
:102DF000EC01E8EFF2E0438162818C810E94CA1607
:102E00008C818F5F8C83DF91CF910895A3E0B0E038
:102E1000ECE0F7E10C945A2A8C018091A302811115
:102E20000AC09E012F5F3F4F4FEF6FEF0E940D16BC
:102E30008A818093A302F8016481613069F08091F6
:102E4000A30240E0662361F040E0623011F440915B
:102E5000A30280E060E004C06091A30240E080E053
:102E60000E94B116F801848190E0019663E070E061
:102E70000E94DF2984832396E4E00C94762AA3E061
:102E8000B0E0E5E4F7E10C94552A082FD62EE42EA5
:102E9000C22E9091F80290FF29C0E92FE695AE2F3F
:102EA000B0E0A056BE4F8C918093AF029E7F9230CF
:102EB00009F59E012F5F3F4F802F0E940D164B8119
:102EC00069818A810E94B1160093F902D092FA02B8
:102ED000E092FB02CC2051F06091F8027091F9026F
:102EE0008091FA029091FB020E942F162396E9E04E
:102EF0000C94712A823019F4E090FB02E5CF863001
:102F000019F40091F902E0CF8930D9F38931E1F663
:102F1000E9516E2F6170B62EE695F0E0E058FC4F57
:102F20001491F12C60911101F61618F00E948E1682
:102F3000CBCFF19EC001112470E00E94CB29802FDD
:102F4000B11014C0860F20910F01622F6F0D7727EB
:102F5000771F9B01220F331F260F371F23503D4F32
:102F60004E2D6D2D0E940D16F394DCCF861BEBCFFA
:102F7000E8EFF2E09181282F4381628188E0890F98
:102F80000E943F17089581E00E94B8170895E8EF66
:102F9000F2E09181282F4381628188EF890F0E949E
:102FA0003F17089581E00E94C7170895E8EFF2E007
:102FB000628128E0620F08F46FEF282F438181813E
:102FC0000E943F17089581E00E94D6170895E8EF08
:102FD000F2E0628128E0621B08F460E0282F438160
:102FE00081810E943F17089581E00E94E7170895AC
:102FF000E8EFF2E0438128E0420F08F44FEF282F7A
:10300000628181810E943F17089581E00E94F81734
:103010000895E8EFF2E0438128E0421B08F440E025
:10302000282F628181810E943F17089581E00E94CC
:103030000918089520E00E943F170895EF92FF922B
:103040001F93CF93DF93EC0110E0EE24EA94F12C70
:1030500060911101161770F00E948E169A818C8172
:1030600090FF27C08F5F8C83DF91CF911F91FF90DE
:10307000EF90089520910F01422F410F5527551FC2
:10308000CA019A01220F331F280F391F23503D4FC9
:1030900070E0C7010E94DF29962F8C814091FB02CE
:1030A0006091FA02199F800D11240E940D161F5F76
:1030B000CFCF8150D8CFB0E0A0E0E1E6F8E10C94AA
:1030C000552AFC0182810FEF80FF01E010E0809122
:1030D0001101181798F00E948E168091A5020130F8
:1030E00009F04CC0811102C0809111018150809380
:1030F000A502CDB7DEB7E9E00C94712AC0910F01AB
:10310000C12ED12CCC0DDD2DD11DCE01880F991FE4
:10311000C80FD91FC350DD4F198218821A8234E0BC
:10312000E32EF12CB12C8091A5028B0D813104F19D
:103130008F70082E000C990BC816D90691F4809157
:10314000FB028E9DA0018F9D500D11245595479532
:10315000559547959E016091FA028091F9020E946F
:103160000D16B00EF1E0EF1AF108E9F61F5FAFCFD0
:1031700087FFDFCF90911101890FDBCF90E001969F
:103180006091110170E00E94DF29B1CF0F931F936E
:10319000CF93DF9380910F019091100123E0829FE4
:1031A000F0011124E350FD4F891740F1C0E0D3E056
:1031B00060911101C61740F10E948E1620910B01FB
:1031C0008091A402820F8093A40290910C01920F2F
:1031D00090930C01191654F4082E000C990B409191
:1031E00011014150550B841795071CF02195209330
:1031F0000B01DF91CF911F910F91089511821082E1
:1032000012828F5F3396D0CF0C2F10E070E0C80190
:103210000E94DF2920910F01820F482F50E020915A
:10322000A402022E000C330B02171307BCF02091EE
:103230000C01022E000C330B201731077CF08D9F00
:103240009001112423503D4F4091FB026091FA02FE
:103250008091F9020E940D16CF5FAACFFA01EE0FFE
:10326000FF1FE40FF51FE350FD4F11821082128201
:10327000F3CFB0E0A0E0EFE3F9E10C94522AEC01C7
:103280004C81042F10E09801D8010E94232A9B0151
:10329000AC010E94392A4B015C01E0E2F0E0E01B46
:1032A000F10BA5E5B0E0AC019B010E94392A6B014E
:1032B0007C019F01DF010E941B2A9B01AC010E943F
:1032C000442A9B01AC01280D391D4A1D5B1DC70115
:1032D000B6010E94F329F22E822F90E039E23F15C9
:1032E00020F143E0249F9001112435952795122F5A
:1032F000109500E085E5E82EEF1880911101081780
:1033000018F10E948E169C8181E0992319F0903269
:1033100019F48FEF80930A0180910A01890F8C8341
:10332000CDB7DEB7ECE00C946E2A25E530E0B901AC
:10333000681B790B9B01220F331F260F371F37FFA6
:10334000D4CF2F5F3F4FD1CF8E2D01FD8F2D2091F8
:103350000F01622F600F7727771F9B01220F331F0A
:10336000260F371F23503D4F412F6091FA020E94D4
:103370000D160F5FC2CF0F931F93CF93DF93EC0116
:1033800010E000E0909111019017110609F06CF423
:103390000E948E168C8190E00196817099278C8313
:1033A000DF91CF911F910F91089520910F01A801F6
:1033B000420F511D9A01220F331F240F351F235036
:1033C0003D4F4C816091FA028091F90296959017D9
:1033D000110651F04CF0442349F04091FB020E9449
:1033E0000D160F5F1F4FCECF4423B9F340E0F7CF48
:1033F000E8EFF2E080818E7F80836081718182813D
:1034000093810E942F161092B0022FEF80E792E076
:10341000215080409040E1F700C000000E948E16CD
:103420000895E8EFF2E080818E7F80831092B002F1
:103430002FEF80E792E0215080409040E1F700C0FC
:1034400000000E948E1608951092B0028091AD0285
:1034500081110AC081E08093AD028091F8028170F1
:103460008093AC020E94111A08956091F80266954B
:1034700070E04BE050E082E191E00E94832A892BCA
:1034800019F481E08093B0020E9471229093A70208
:103490008093A60208959091F80290FF2BC091703E
:1034A000811129C092609093F802662351F06091D7
:1034B000F8027091F9028091FA029091FB020E9449
:1034C0002F166091F802669570E04BE050E082E1C3
:1034D00091E00E94832A892BA9F01092B00281E02A
:1034E0008093A9024091FB026091FA028091F90257
:1034F0000E941A180895853210F09864D4CF880F6E
:10350000982BD1CF0E94351AEACF682F9091F802FC
:10351000969581E0890F853208F081E00E944B1A70
:10352000089581E00E94851A0895682F9091F8020D
:1035300096958FEF890F09F484E20E944B1A089543
:1035400081E00E94951A089561E00E944B1A089547
:10355000E8EFF2E080818160808386950E94A41A62
:1035600008958091F80280FF03C00E94F819089521
:103570000E94A81A089560E00E944B1A0895809155
:10358000AE0281112EC00E94F00D811104C00E9474
:103590009D0E0E9442160E942A166093F8027093B4
:1035A000F9028093FA029093FB026E7F61F40E940D
:1035B00042160E942A166093F8027093F9028093D3
:1035C000FA029093FB020E941B161092B0028091A7
:1035D000F80280FF03C086950E94BB1A81E08093A9
:1035E000AE020895E8EFF2E08081816080838695E5
:1035F0000E94BB1A08951092AD028091AC02811115
:103600000E94F21A0E94351A08950F931F93CF93C8
:10361000DF938091B0028823B9F18091AF02E091ED
:10362000F802E695E81BE093A802823091F5F0E0FD
:10363000E458FD4FE491CE2FD0E002EE16E18091E8
:10364000A902882361F01092A9020E94712290932E
:10365000A7028093A6021092AB021092AA020E94C7
:103660007122E091A602F091A7028E1B9F0B8F3F63
:103670009F4750F4EC0FFD1FF093A702E093A602C2
:1036800086EA92E0F8010995DF91CF911F910F91A1
:103690000895863049F4F0E0E758FD4FE491CE2FCD
:1036A000D0E006EF16E1CBCF893051F4E695F0E09B
:1036B000EA58FD4FE491CE2FD0E00EE118E1BFCFE4
:1036C0008F3051F4E695F0E0ED58FD4FE491CE2FA8
:1036D000D0E00BE518E1B3CF853149F4F0E0E059D3
:1036E000FD4FE491CE2FD0E006EC18E1A8CFC8E260
:1036F000D0E009E319E1883109F4A1CF833239F42C
:10370000EEE6F2E0C591D49106E017E198CFC4EF60
:10371000D1E00BEB19E1843209F491CFC0EDD7E091
:1037200009E016E18CCFFA01811101C0FB01099576
:103730000895CF93DF93C82FD62F0E9452168C176F
:1037400048F00E9452168D1728F40E94911ADF91BA
:10375000CF9108958C2F0E94A41AF9CF1F93CF9375
:10376000DF93EC01FB01128111117EC00E94020D5A
:103770008272CD3CFCE5DF0709F49CC008F041C033
:10378000C73CECE5DE0709F481C0D8F4C43C9CE5F5
:10379000D90709F471C030F4C33CDC4509F469C0B1
:1037A00011E062C0C53C9CE5D90709F46AC042ED4E
:1037B00057E163EC77E1C63CDC4591F70E94931B2F
:1037C00053C0CA3CFCE5DF0709F46AC068F4C83C92
:1037D000ECE5DE0709F45FC043EE57E164EF77E103
:1037E000C93CDC4559F3DCCFCB3C9CE5D90709F457
:1037F0005CC046E856E16EE676E1CC3CDC45F1F291
:10380000CFCFC23DFCE5DF0709F465C098F4CF3C9B
:103810009CE5D90709F457C008F451C0C03DFCE548
:10382000DF0709F455C0C13DDC4509F0B9CF6EE0B2
:1038300089E04BC0C53D9CE5D90709F452C058F456
:10384000C33DFCE5DF0709F449C0C43DDC4509F090
:10385000A7CF88E135C0C63D9CE5D90709F444C02F
:10386000CE35DD4509F09CCF812FDF91CF911F919F
:1038700008950E94B11AF8CF40EA5AE161E97AE16D
:103880009DCF41E95AE160EA7AE198CF43EC57E1F4
:1038900062ED77E193CF44EF57E163EE77E18ECFAE
:1038A00046E158E165E078E189CF45E058E166E11D
:1038B00078E184CF4EE656E166E876E17FCF81E09D
:1038C0000E94A41AD1CF65E082E00E94991BCCCF60
:1038D00068E086E0FACF64E18FE0F7CF67E185E149
:1038E000F4CF62E289E1F1CF83E2EACF86E090E0B3
:1038F0000E949D2A0895682F86E090E00E94B12AD8
:103900000895EDE2F3E080818470896280830E94F3
:103910007B1C08950E94F00D811104C00E949D0E31
:103920000E94811C0E94761C80932D03803320F01E
:103930008770886280932D0390912D03892F817069
:1039400090FF04C0892F8695869586950E94931DC9
:10395000089580912D03982F96959695969595307C
:1039600040F49F5F990F990F990F8770892B80936F
:103970002D0380912D03816080932D030E947B1C79
:1039800080912D038695869586950E94931D0895B6
:1039900080912D03982F987F79F0885080932D0384
:1039A000887F91E009F490E080912D0390FB80F9ED
:1039B00080932D030E947B1C80912D038695869514
:1039C00086950E94931D089580912D0380FD13C05C
:1039D000816080932D03813019F489E080932D0359
:1039E00080912D030E947B1C80912D0386958695E6
:1039F00086950E94931D089580912D0380FF08C035
:103A00008E7F80932D030E947B1C80E00E94931D7B
:103A1000089580912D0380FF03C00E94FC1C08952F
:103A20000E94E41C089590912D03892F8695869518
:103A300086958F5F8F7197708630E0F4880F880FBE
:103A4000880F892B80932D0380912D03887F91E02F
:103A500009F490E080912D0390FB80F980932D0371
:103A60000E947B1C80912D038695869586950E94E9
:103A7000931D089590932D03E7CF863008F085E0DD
:103A800090912D039770282F220F220F220F922B37
:103A900090932D03987F21E009F420E090912D036D
:103AA00020FB90F990932D030E94931D08950E948E
:103AB0003D1D80912D030E947B1C08959C01FB01FC
:103AC0008281882349F12E3BFCE53F07C9F040F491
:103AD0002C3BECE53E0769F02D3B3C4579F0089521
:103AE000203C9CE5390791F070F0213C3C4589F081
:103AF000089585E00E94571D80E0089580E0FACF88
:103B00000E94C81CF9CF0E94A91CF6CF0E94091D73
:103B1000F3CF0E94131DF0CF81E00895269A2E98CE
:103B200008952E9808958F929F92AF92BF92EF9230
:103B3000FF920F931F93CF93DF93C82F8630C0F56A
:103B4000811137C0809180008F7D809380000E941A
:103B5000911DA0918600B09187002C2F30E00E942B
:103B6000232A25E030E040E050E00E94F32989015B
:103B70009A0180918600909187006CE070E00E942D
:103B8000CB2960177107D8F0C80169E070E00E9486
:103B9000CB2970938B0060938A00DF91CF911F91A6
:103BA0000F91FF90EF90BF90AF909F908F900895EE
:103BB000C5E080918000806280938000CACF8091B0
:103BC000860090918700E0908600F0908700E09159
:103BD0008600F0918700C6E0D0E0BE010E94CB29AC
:103BE000060F171F211D311D4801590185E0880C62
:103BF000991CAA1CBB1C8A95D1F7C701BE010E9463
:103C0000CB299F0150E040E0260F371F411D511D79
:103C1000C501B4010E94F32949015A01E0918600CF
:103C2000F0918700CA01B9010E94BB299B01AC0138
:103C3000DF010E94392A9B01AC01C501B4010E9439
:103C4000BB292FE096958795779567952A95D1F7AB
:103C5000009186001091870030E020E006171707DA
:103C60002807390708F095CF60918600709187008A
:103C700090CF08950E948E1D82E28093800089E19A
:103C8000809381008FEF9FEF909387008093860051
:103C90000E948A1C08956A9A4EB14B7F5EB15460AF
:103CA000EFB7F8949B01220F331F260F371F280F01
:103CB000391F2817390741F4EFBF8FE594E00197CA
:103CC000F1F700C000000895DC016D91CD0178E0AE
:103CD0005EB9000000C067FF4EB9660F000000C06B
:103CE00000C000C04EB900C07A9591F7E2CFCF93E3
:103CF000DF93EC01FB018281882309F433C1C430D6
:103D0000FDE5DF07C0F5CB3F9CE5D90730F49E0108
:103D100022503C4524313105B0F50E94050E9093A8
:103D2000E3028093E202C1318CE5D80709F4EEC0CA
:103D300008F069C0C930ECE5DE0709F4D5C0C8F564
:103D4000C5308CE5D80709F4C7C000F5C330ECE5F1
:103D5000DE0709F4B9C008F0BBC0C230DC4509F485
:103D6000ADC08091E2029091E3020E94130E0E9486
:103D7000020880E008C0C236EDE5DE0771F2C63AFF
:103D8000FDE5DF0751F2DF91CF9108958091E202C6
:103D90008062C7309CE5D90709F493C08091E202A4
:103DA0008061C830DC4508F48CC08091E2028064F8
:103DB00088C08091E2028B7FCD30FCE5DF0709F4FB
:103DC00080C098F48091E2028E7FCB309CE5D907C9
:103DD00009F477C08091E2028C60CC30DC4508F4B5
:103DE00070C08091E2028D7F6CC08091E2028F7E74
:103DF000CF30FCE5DF0709F464C008F47BC0809194
:103E0000E2028F7D5EC0CE3F9CE5D90709F47AC0FF
:103E100050F5C531FCE5DF0709F486C098F48091C0
:103E2000E202837FC3319CE5D90709F44AC008F454
:103E300071C00E9402089091E202892F97FB87F9D6
:103E400080583FC0CC3FFCE5DF0709F449C008F0CB
:103E500055C08091E3028160CB3FDC4509F081CF02
:103E60008093E3027ECFC230EDE5DE0709F468C03F
:103E7000A8F4C1158DE5D80709F452C08091E3027A
:103E80008360C130DD4560F38091E302982F909507
:103E900091708E7F892B90FB81F9E2CFC236EDE5E0
:103EA000DE0709F451C0C63AFDE5DF0709F453C047
:103EB000C330DD4509F055CF80E043C08091E20278
:103EC00081608093E2024DCF8091E2028260F9CF5F
:103ED0008091E2028460F5CF8091E2028860F1CFA8
:103EE0008091E3028260BCCF0E9402088091E202CE
:103EF0008068E7CF8091E202877FE3CF8091E30281
:103F00008E7FAECF8091E3028D7FAACF8091E202B7
:103F10008F7BD7CF0E9402088091E2028F77D1CFAA
:103F20008091E3028C7F9CCF8091E20282FB9927F3
:103F300090F921E0922790FB82F990FB83F9C1CFA1
:103F400081E00E94A00E0DCF9091E202892F8F7E1A
:103F500094FF8061B6CF9091E202892F8E7F90FF0F
:103F60008160AFCF81E00FCFCF93DF93EB0186313C
:103F70009C4511F50E94020D9A81992399F08A7A45
:103F800091E009F490E09093B102811109C089E2B7
:103F90000E94DA0C0E94430D80E0DF91CF910895DA
:103FA00085E3F6CF8091B102811104C089E20E94BD
:103FB000E20CF0CF85E3FBCF81E0EFCF0F931F93AF
:103FC000CF93DF93C42FD22FFC0182818823C9F0C5
:103FD0004093B4020E9471229093B3028093B20284
:103FE00080E28C0F883040F4C77081E001C0880FF8
:103FF000CA95EAF70E948905DF91CF911F910F9131
:1040000008951091B402141332C08091B2029091BD
:10401000B3020E948922883C910548F5C0E2CD0F89
:104020001D17B9F080E2810F883040F4177081E0ED
:1040300001C0880F1A95EAF70E949005C83048F42D
:1040400081E09D2F977001C0880F9A95EAF70E9432
:104050008905802F0E948005C83070F6D77081E0F6
:1040600001C0880FDA95EAF70E949005C5CF80E27B
:104070008C0F883008F6C77081E001C0880FCA95A0
:10408000EAF7F2CF0F939C01CB01243F4CE53407B4
:1040900059F1A8F4293DFCE53F0701F12A3D4CE523
:1040A0003407D1F1283D3C4591F406E221EE41EE82
:1040B00068ED7CE50E94DE1F80E00F910895263FA9
:1040C000FCE53F07E9F0B0F0273F3C45F9F0FC0183
:1040D0008281882339F11092B402EFCF07E225EEF6
:1040E00045EE69ED7CE5E6CF06E221EE40EE64EFB9
:1040F0007CE5E0CF07E225EE44EE65EF7CE5DACF24
:1041000006E221EE42EE66EF7CE5D4CF07E225EE33
:1041100046EE67EF7CE5CECF08E221E045EE6AEDA2
:104120007CE5C8CF81E0C9CF9093C7018093C601D9
:1041300008959093BA028093B9020895E091B9026C
:10414000F091BA02309729F00190F081E02D0995A5
:10415000089580E00895E091B902F091BA02309795
:1041600099F020912901222359F02091E20227FFA2
:1041700007C0DC012C9111962C93119726E02C930B
:104180000280F381E02D09950895E091B902F09144
:10419000BA02309739F022E0DC012C930480F581DB
:1041A000E02D099508952091B7023091B8022817A3
:1041B000390771F09093B8028093B702E091B90289
:1041C000F091BA02309721F00680F781E02D099531
:1041D00008952091B5023091B6022817390771F081
:1041E0009093B6028093B502E091B902F091BA02C1
:1041F000309721F00084F185E02D09950895FC01A8
:10420000329680912901882321F08091E2029EE17B
:1042100087FF96E080E0915008F4089521912223D1
:10422000D1F38F5FF8CF662301F12091290122237A
:10423000F1F02091E20227FF1AC0462F46954695DD
:1042400046954E3190F4677021E030E002C0220FB5
:10425000331F6A95E2F7840F911DFC01828190E083
:104260002823392381E0232B69F480E00895FC01A1
:10427000329608962191261721F0E817F907D1F711
:10428000F4CF81E008959C01FC0132969FEF80E01D
:104290004191461751F09F3F19F4411101C0982FE9
:1042A0008F5F8630A9F79F3F09F40895290F311DCC
:1042B00097FD3A95F90162830895FC0132960896BC
:1042C0002191261303C0DF0111971C92E817F9070B
:1042D000B9F70895E62FE695E695E695EE3168F490
:1042E000E80FF92FF11D677021E030E001C0220FC7
:1042F0006A95EAF78281822B82830895E62FE695FC
:10430000E695E695EE3170F4E80FF92FF11D677030
:1043100021E030E001C0220F6A95EAF72095828102
:1043200028232283089520912901222339F0209106
:10433000E20227FF03C00E946A2108950E944321E0
:10434000089520912901222339F02091E20227FFCC
:1043500003C00E947E2108950E945D210895FC0102
:10436000329680912901882351F08091E20287FFE3
:1043700006C08EE1DF011D928A95E9F7089586E077
:10438000F9CF46E050E00E94902A21E0892B09F401
:1043900020E0822F089508950E94CB210895811175
:1043A00006C081E08093BB020E94CC21089582E088
:1043B000F9CF83E08093BB020E94CC2108950E9434
:1043C000CF21089581E08093BB020E94CC21089503
:1043D0000E94E2210895089508950E94EC21089515
:1043E000089508950E94EB210895CF930E94F02133
:1043F0000E9479120E94F121C0E08C2F0E94AA1124
:10440000892B31F4CF5FC530C1F780E0CF9108959B
:1044100081E0FCCF85B7806885BF85B7806885BFA0
:1044200008951F921FB61F9211248F939F93AF93ED
:10443000BF938091BC02811113C080912E03909193
:104440002F03A0913003B09131034196A11DB11DFE
:1044500080932E0390932F03A0933003B0933103E6
:10446000BF91AF919F918F911F901FBE1F90189584
:1044700080913603843031F10E94FD031092BC021A
:1044800088E190E020E40FB6F894A895809360004E
:104490000FBE2093600083B7817F846083BF83B7A2
:1044A000816083BF7894889583B78E7F83BF0FB672
:1044B000F894A895809160008861809360001092C4
:1044C00060000FBE08950E9402080E94070408952C
:1044D00082E084BD93E095BD9AEF97BD80936E0016
:1044E00008952FB7F89480912E0390912F03A091F7
:1044F0003003B09131032FBF08952FB7F894609126
:104500002E0370912F0380913003909131032FBFC0
:1045100008959C014FB7F89480912E0390912F033A
:10452000A0913003B09131034FBF821B930B0895CC
:1045300078941F921FB61F9211248F939F93AF936D
:10454000BF9380912E0390912F03A0913003B091DF
:1045500031030196A11DB11D80932E0390932F036B
:10456000A0933003B0933103BF91AF919F918F918E
:104570001F901FBE1F90189581E08093E00080E29D
:104580008093D8001092C9008FE19EE40197F1F763
:1045900000C0000087E090EBDC0180933F03909324
:1045A0004003A0934103B093420388E19CE00FB61F
:1045B000F894A895809360000FBE90936000FFCFA1
:1045C00088E19CE00FB6F894A895809360000FBE38
:1045D00090936000FFCF8091E002089508959C01C0
:1045E00082E08093E9009FEF8091E800915085FD83
:1045F00006C085ED8A95F1F700009111F5CF809105
:10460000E80085FF0CC050E040E066E070E0C901C2
:104610000E9434258091E8008E778093E800089509
:10462000CF93DF93EC01809129018823B1F1809130
:10463000E20287FF32C060E282E08093E9008FEF00
:104640009091E800815095FD06C095ED9A95F1F79F
:1046500000008111F5CF8091E80085FF1BC080919B
:10466000290170E050E040E0811104C050E040E0DA
:1046700068E070E0CE010E9434258091E8008E77DA
:104680008093E80080E2FE01A0ECB2E001900D9280
:104690008A95E1F7DF91CF91089568E081E0CDCF71
:1046A0008093BD027093BF026093BE028091360377
:1046B000843001F582E08093E9008FEF9091E8006B
:1046C000815095FD06C095ED9A95F1F70000811196
:1046D000F5CF8091E80085FF0DC050E040E063E039
:1046E00070E08DEB92E00E9434258091E8008E7797
:1046F0008093E8000895BC0184E00E94502308954F
:10470000BC0183E00E9450230895809135038111FC
:1047100009C00E94C4260E9421278091E200846083
:104720008093E20008951092350308950E94E221DB
:1047300008956091320381E0611101C080E00E9420
:10474000D92108959091360381E0943009F080E0FA
:10475000609132030E94DF21089542E061EC81E024
:104760000E94402642E261EC82E00E944026909145
:10477000360381E0943009F080E0609132030E94BA
:10478000CF21089580913803833009F461C030F45B
:104790008130D1F1823009F49EC008958A3009F445
:1047A0008AC08B3009F46FC0893009F050C0809105
:1047B0003703813209F04BC080913B0390913C0359
:1047C000029708F044C08091E800877F8093E8005A
:1047D0008091E80082FF37C09091F3008091F20051
:1047E000029731F48091F100813011F0863021F48C
:1047F0008091F1008093E0028091E8008B778093B4
:10480000E8000E94742623C080913703813AF9F4AE
:104810008091E800877F8093E80080913B0390912E
:104820003C03892B61F460E280EC92E070E00E942E
:1048300083258091E8008B778093E800089560E0FD
:1048400090E080E0F3CF809136038111C1CF0895CD
:1048500080913703813AD9F780913B0390913C03D3
:10486000892BA9F78091E800877F8093E8008091E9
:10487000E80080FFFCCF809129018093F1008091B6
:10488000E8008E77BCCF80913703813201F78091A9
:104890003B0390913C03892BD1F68091E800877F00
:1048A0008093E8000E947426809139038093290147
:1048B0000E940208089580913703813241F6809169
:1048C000E800877F8093E8000E94742680913A0375
:1048D0008093E102089580913703813A09F0B7CFC0
:1048E0008091E800877F8093E8008091E80080FF56
:1048F000FCCF8091E102C1CF84B7877F84BF0FB620
:10490000F894A8958091600088618093600010926F
:1049100060000FBE80E890E00FB6F89480936100CD
:10492000909361000FBE0E94E82108950E94C42662
:104930000E942127E2EEF0E08081846080837894F9
:104940000E94A02908958DE191E00E949920089588
:1049500080913603853031F480913603853019F02B
:104960000E94632208950E94382280913403882394
:1049700099F30E94F521882379F30E941E250E9455
:104980000208EACF08950E94C6240895292F3327EC
:104990002330310519F168F42130310509F444C0A0
:1049A0002230310509F445C090E080E030E020E09D
:1049B00025C02132310549F122323105A9F780E4C1
:1049C00090E02AEA35E061157105C1F086EB90E0D0
:1049D00024EF34E06130710589F0E6CF992781300A
:1049E000910581F0009729F00297F1F6E5E8F4E0EF
:1049F00002C0E3EAF4E0849190E09F01FA01318380
:104A000020830895E1E9F4E0F6CF89E090E029EB16
:104A100034E06115710591F389E090E022ED34E016
:104A20006130710559F3C0CF82E190E022EE34E0AD
:104A3000E5CF8BE390E027EA34E0E0CF80E189BD69
:104A400082E189BD09B400FEFDCF8091D8008F7D41
:104A50008093D8008091E00082608093E000809194
:104A6000E00081FDFCCF0895AF92BF92CF92DF921C
:104A7000FF920F931F93CF93DF936C01EB018A0199
:104A80000E949326F82E811123C00115110539F0DB
:104A9000F80180819181C81BD90BC80ED91EB12C99
:104AA000A12C2097A9F08091E80085FD22C080917B
:104AB000E8008E778093E80001151105A1F0F80158
:104AC00080819181A80EB91EB182A08285E0F82E66
:104AD0008F2DDF91CF911F910F91FF90DF90CF909D
:104AE000BF90AF9008950E9493268823D1F2F82EAC
:104AF000EFCFF60181916F018093F1002197FFEFD5
:104B0000AF1ABF0ACECFFC0180913D0390913E03C6
:104B100086179707A0F06115710529F49091E800B8
:104B20009E779093E80090E06115710551F4911122
:104B300008C08091E80082FF34C080E00895BC0185
:104B4000F2CF809136038823C1F18530C1F1809185
:104B5000E80083FD30C08091E80082FDEACF8091BB
:104B6000E80080FFE1CF8091F3002091F200382F20
:104B70006115710519F02830310558F091E02830A1
:104B8000310509F090E02091E8002E772093E800AD
:104B9000CBCF81918093F100615071092F5F3F4F1E
:104BA000E7CF80913603882341F0853041F0809132
:104BB000E80083FFBECF81E0089582E0089583E09E
:104BC0000895FC0180913D0390913E03861797075D
:104BD000A0F06115710529F48091E8008E7780932B
:104BE000E80090E06115710551F4911108C08091C1
:104BF000E80082FF35C080E00895BC01F2CF8091CB
:104C000036038823C9F18530C9F18091E80083FD1E
:104C100031C08091E80082FDEACF8091E80080FFFA
:104C2000E1CF8091F3002091F200382F61157105DA
:104C300019F02830310558F091E02830310509F09D
:104C400090E08091E8008E778093E800CBCF84914C
:104C50008093F1003196615071092F5F3F4FE6CF8D
:104C600080913603882341F0853041F08091E8003F
:104C700083FFBDCF81E0089582E0089583E0089529
:104C8000982F973028F08F708093E90081E0089585
:104C90009093E900242F762F50E0981731F070910F
:104CA000EC002091ED005091F00021FD02C09F5FCB
:104CB000E8CF3091EB003E7F3093EB003091ED0078
:104CC0003D7F3093ED003091EB0031603093EB008D
:104CD0007093EC002093ED005093F0002091EE00D3
:104CE00027FDE5CF80E008958091370387FF13C04B
:104CF0008091E80082FF06C08091E8008B77809366
:104D0000E80004C0809136038111F2CF08958091AC
:104D100036038823D9F38091E80080FFF8CF809193
:104D2000E8008E77ECCF2091E4003091E50095E625
:104D3000A9012091EC00822F817020FF06C0809194
:104D4000E80080FF06C080E008952091E80022FD81
:104D50001AC080913603882389F0853089F08091CC
:104D6000EB0085FD0FC02091E4003091E500421773
:104D70005307F9F29150E1F684E0089582E0089536
:104D800083E0089581E008950E9433270E943B2725
:104D9000E0EEF0E0808181608083E8EDF0E08081EA
:104DA0008F77808319BCA7EDB0E08C918E7F8C93B8
:104DB00080818F7E80831092350308950F931F9317
:104DC000CF93DF930E9433270E943B27C8EDD0E0AA
:104DD00088818F77888388818068888388818F7DA8
:104DE000888319BC10923603109232031092340358
:104DF0001092330300EE10E0F80180818B7F8083F6
:104E000088818160888342E060E080E00E944026E3
:104E1000E1EEF0E080818E7F8083E2EEF0E0808141
:104E200081608083808188608083F80180818E7FAB
:104E30008083888180618883DF91CF911F910F915A
:104E40000895E8EDF0E080818F7E8083E7EDF0E06B
:104E500080818160808384E082BF81E0809335031C
:104E60000E94DE260895E8EDF0E080818E7F808349
:104E70001092E20008951092DA001092E100089575
:104E80001F920F920FB60F9211242F933F934F93BF
:104E90005F936F937F938F939F93AF93BF93EF93A2
:104EA000FF938091E10082FF0BC08091E20082FFBE
:104EB00007C08091E1008B7F8093E1000E949F29D1
:104EC0008091DA0080FF19C08091D80080FF15C062
:104ED0008091DA008E7F8093DA008091D90080FF84
:104EE00096C080E189BD82E189BD09B400FEFDCF95
:104EF00081E0809336030E9485238091E10080FF4A
:104F000019C08091E20080FF15C08091E2008E7F81
:104F10008093E2008091E20080618093E2008091C2
:104F2000D80080628093D80019BC85E08093360356
:104F30000E9499238091E10084FF2BC08091E200C0
:104F400084FF27C080E189BD82E189BD89B5982FA2
:104F5000917080FFFBCF8091D8008F7D8093D80027
:104F60008091E1008F7E8093E1008091E2008F7E4E
:104F70008093E2008091E20081608093E200809162
:104F80003203882309F449C084E0809336030E94E9
:104F9000A2238091E10083FF29C08091E20083FF7A
:104FA00025C08091E100877F8093E10082E08093BB
:104FB0003603109232038091E1008E7F8093E100EE
:104FC0008091E2008E7F8093E2008091E200806118
:104FD0008093E20042E060E080E00E944026809101
:104FE000F00088608093F0000E949623FF91EF917B
:104FF000BF91AF919F918F917F916F915F914F91F1
:105000003F912F910F900FBE0F901F90189519BCD4
:10501000109236030E94932370CF8091E30087FDA6
:1050200093E090933603B3CF1F920F920FB60F9277
:1050300011242F933F934F935F936F937F938F939D
:105040009F93AF93BF93CF93DF93EF93FF93D09151
:10505000E900DF708091EC00C82FC17080FDC0E8CE
:105060001092E9008091F000877F8093F00078949F
:105070000E9458281092E9008091F0008860809387
:10508000F000CD2BCF70C093E900FF91EF91DF913D
:10509000CF91BF91AF919F918F917F916F915F91D0
:1050A0004F913F912F910F900FBE0F901F90189529
:1050B000AAE2B0E0EEE5F8E20C945B2A87E393E025
:1050C0002091F100FC012193CF01F3E08F339F0782
:1050D000B9F70E94C2238091E80083FF1EC180912E
:1050E0003703909138039A3008F017C1E92FF0E0A8
:1050F000ED50F54D0C94152A803899F0823809F05E
:105100000CC180913B038F70873008F006C18093FB
:10511000E9008091EB0085FB882780F91092E90077
:1051200006C0809133039091340391118260909175
:10513000E800977F9093E8008093F1001092F100CF
:105140008091E8008E77E5C0882309F4D3C08230CF
:1051500009F0E3C0809139038111D6C080913B03EF
:105160008F702FEF280F263008F0D7C08093E9000A
:105170002091EB0020FFC8C0933031F48091EB0008
:1051800080628093EB00C0C09091EB00906190939F
:10519000EB0021E030E001C0220F8A95EAF720936E
:1051A000EA001092EA008091EB008860EACF81115A
:1051B000B4C0109139031F778091E3008078812B70
:1051C0008093E3008091E800877F8093E8000E944D
:1051D00074268091E80080FFFCCF8091E300806816
:1051E0008093E30082E0111183E08093360395C041
:1051F0008058823008F091C08091390390913A0331
:105200008C3D23E09207A1F583E08A838AE28983BB
:105210004FB7F894DE01139620E03EE051E2E32F11
:10522000F0E050935700E49120FF03C0E295EF7047
:105230003F5FEF708E2F90E0EA30C0F0C7968D93FD
:105240009D932F5F243159F74FBF8091E800877FEE
:105250008093E8006AE270E0CE0101960E94832507
:105260008091E8008B778093E80057C0C096E7CF25
:1052700060913B0370913C03AE014F5F5F4F0E9412
:10528000C324BC01892B09F448C09091E800977FA2
:105290009093E80089819A810E94E125E1CF8038CE
:1052A000E1F58091E800877F8093E80080913203E8
:1052B0008093F10045CF811130C090913903923035
:1052C00060F58091E800877F8093E8009093320337
:1052D0000E94742680913203882311F084E005C077
:1052E0008091E30087FDFACF81E0809336030E942E
:1052F000AD2313C080913903813079F481E093307C
:1053000009F080E0809334031092E9008091E80076
:10531000877F8093E8000E9474268091E80083FFD5
:105320000AC08091E800877F8093E8008091EB00BD
:1053300080628093EB00AA96E3E00C94772A0895AC
:10534000CF93809136038823A1F0C091E900CF70FC
:105350009091EC00892F817090FD80E8C82B10920D
:10536000E9008091E80083FD0E945828CF70C09327
:10537000E900CF910895DB018F939F930E94392A12
:10538000BF91AF91A29F800D911DA39F900DB29FE1
:10539000900D11240895AA1BBB1B51E107C0AA1F41
:1053A000BB1FA617B70710F0A61BB70B881F991FC6
:1053B0005A95A9F780959095BC01CD01089597FB6A
:1053C000072E16F4009407D077FD09D00E94CB2950
:1053D00007FC05D03EF4909581959F4F08957095F8
:1053E00061957F4F0895A1E21A2EAA1BBB1BFD01F8
:1053F0000DC0AA1FBB1FEE1FFF1FA217B307E407B4
:10540000F50720F0A21BB30BE40BF50B661F771F0B
:10541000881F991F1A9469F76095709580959095EB
:105420009B01AC01BD01CF010895EE0FFF1F059058
:10543000F491E02D09940E94232A332312F48A1B4D
:105440009B0B0C94342AA29FB001B39FC001A39F71
:10545000700D811D1124911DB29F700D811D1124AD
:10546000911D08950E94232AB7FF0895821B930B74
:1054700008950E94232AA59F900DB49F900DA49F8C
:10548000800D911D11240895B7FF0C94392A0E94B4
:10549000392A821B930B08952F923F924F925F926D
:1054A0006F927F928F929F92AF92BF92CF92DF9234
:1054B000EF92FF920F931F93CF93DF93CDB7DEB799
:1054C000CA1BDB0B0FB6F894DEBF0FBECDBF09942D
:1054D0002A88398848885F846E847D848C849B8484
:1054E000AA84B984C884DF80EE80FD800C811B8192
:1054F000AA81B981CE0FD11D0FB6F894DEBF0FBEC1
:10550000CDBFED010895FC014150504030F00190B5
:105510000616D1F73197CF01089588279927089566
:10552000FB01DC0104C08D910190801921F44150F0
:105530005040C8F7881B990B0895F999FECF92BD8A
:1055400081BDF89A992780B50895A6E1B0E044E0BE
:1055500050E00C94D72AA8E1B0E042E050E00C946F
:10556000D72A262FF999FECF92BD81BDF89A0197CF
:1055700000B4021639F01FBA20BD0FB6F894FA9A9B
:10558000F99A0FBE08950396272F0E94B22A0E940F
:10559000B12A252F0E94B22A242F0C94B22A0196F8
:1055A000272F0E94B22A0C94B12ADC01CB01FC0106
:1055B000F999FECF06C0F2BDE1BDF89A319600B46C
:1055C0000D9241505040B8F70895F894FFCFD2059E
:1055D000D205030603069006AC0632063206B7066D
:1055E0004307520752077C28A4288D29A4288D2917
:0A55F000D728F8288D294F295B29E0
:1055FA005E02280850011E0A14010101020010006F
:10560A00101001191A1B1C1D1E1F202122EB22102B
:10561A0023EF2280237B23EE2201E200E900EA0045
:10562A00B500B600B700CD008301CC008A01920113
:10563A0094012102230224022502260227022A02B9
:10564A00B300B4006F007000818283E200E900EACF
:10565A0000B500B600B700CD008301CC008A0192E4
:10566A000194012102230224022502260227022A8A
:10567A0002B300B4006F007000818283F0F1C66744
:10568A0066379431303534979633F49091929395E6
:10569A000001020202020606060909090909090FA0
:1056AA000F0F0F0F0F15151518191919191919199F
:0656BA0019191923240058
:00000001FF
