:100000000C94D8060C941F070C941F070C941F0720
:100010000C941F070C941F070C941F070C941F07C8
:100020000C941F070C941F070C94AD270C947F2889
:100030000C941D220C941F070C941F070C941F078F
:100040000C941F070C941F070C941F070C941F0798
:100050000C941F070C9485220C941F070C941F0707
:100060000C941F070C941F070C941F070C941F0778
:100070000C941F070C941F070C941F070C941F0768
:100080000C941F070C941F070C941F070C941F0758
:100090000C941F070C941F070C941F070C941F0748
:1000A0000C941F070C941F070C941F07A208A408A8
:1000B000AF08A608A808AA08AC08AE08B108B3089B
:1000C000B508C008B708B908BB08BD08BF08C20812
:1000D0000218021834183418B919B919B919B9190C
:1000E0007218B9191319131985198E19B919B2197A
:1000F0002019201920192019201920192019201938
:100100002019201920192019201920192019201927
:1001100031193F1946194D1957193C1A3C1A4E1AF4
:100120004E1A451A4E1A4E1A4E1A3C1A3C1A4A1AC0
:100130004E1A4E1A4A1AEC281329052A1329052AA1
:100140005F298229052AD829E72935001E001F00CA
:100150002000210022002300240025002600270083
:100160002D002E0000002A002B00000014001A00B1
:100170000800150017001C0018000C0012001300E6
:100180002F00300031002961000004001600070034
:1001900009000A000B000D000E000F0033003400B0
:1001A00028000000E10000001D001B0006001900EF
:1001B000050011001000360037003800E50000008F
:1001C000A900E000E3000000E200E20000000151AD
:1001D00000002C000000E600E40050004F00AA00E0
:1001E000A5003A003B003C003D003E003F004000BF
:1001F0004100420043004400450000004C00010063
:1002000000006B006C006D000100010001000100A6
:10021000A500A600460001000100005C39000000B6
:10022000680069006A00010001004A004E004B00AE
:100230004D00010001000100000001000000C25C4F
:10024000C35CC55CC65CC75CC85CC95CCA5C0100B9
:100250000100010001005200010001000000010046
:100260000100000001000000010000000100010089
:100270000100010051000100010001000100010026
:100280000100010001000100010001000100010066
:100290000100010001000000010001000100010057
:1002A0000100010001000100010001000100010046
:1002B0000100010000000100010001000100010037
:1002C0000100010001000100010001000100000027
:1002D0000100010001000100010001000100010016
:1002E0000100010001000100010001000100010006
:1002F00001000000010001000000010000000100F9
:1003000000000100010001000100010001000100E6
:1003100001000100010001000100010001000100D5
:1003200001000100010001000100010000000100C6
:1003300001000100010001000100010001000100B5
:1003400001000100010001000100000001000100A6
:100350000100010001000100010001000100010095
:100360000100010000000100010001000100010086
:100370000100010001000100010001000100010075
:100380000100010001000100000001000100000067
:100390000100000001000000010001000100010057
:1003A0000100010001000100010001000100010045
:1003B0000100010001000100010001000100010035
:1003C0000100000001000100010001000100010026
:1003D0000100010001000100010001000100010015
:1003E0000000010001000100010001000100010006
:1003F00001000100010001000100000001000100F6
:1004000001000100010001000100010001000100E4
:1004100001000100010001000100010001000000D5
:1004200001000100000001000000010000000100C7
:1004300001000100010001000100010001000100B4
:1004400001000100010001000100010001000100A4
:100450000100010001000100000001000100010095
:100460000100010001000100010001000100010084
:100470000100010001000000010001000100010075
:100480000100010001000100010001000100010064
:100490000000010001000100010001000100010055
:1004A0000100010001000100010001000100010044
:1004B0000100010000000100010000000100000037
:1004C0000100000001000100010001000100010025
:1004D0000100010001000100010001000100010014
:1004E0000100010001000100010001000100000005
:1004F00001000100010001000100010001000100F4
:1005000001000100010001000100010000000100E4
:1005100001000100010001000100010001000100D3
:1005200001000100010000000100010001000100C4
:1005300001000100010001000100010001000100B3
:1005400001000100010001000100000001000100A4
:100550000000010000000100000001000100010096
:100560000100010001000100010001000100010083
:100570000100010001000100010001000100010073
:100580000100010000000100010001000100010064
:100590000100010001000100010001000100010053
:1005A0000100000001000100010001000100010044
:1005B0000100010001000100010001000000010034
:1005C0000100010001000100010001000100010023
:1005D0000100010001000100010001000100010013
:1005E0000000010001000000010000000100000007
:1005F00001000100010001000100010001000100F3
:1006000001000100010001000100010001000100E2
:1006100001000100010001000100000001000100D3
:1006200001000100010001000100010001000100C2
:1006300001000100010001000000010001000100B3
:1006400001000100010001000100010001000100A2
:100650000100000001000100010001000100010093
:100660000100010001000100010001000100010082
:100670000100010001000000010001000000010074
:100680000000010000000100010001000100010064
:100690000100010001000100010001000100010052
:1006A0000100010001000100010001000100010042
:1006B0000000010001000100010001000100010033
:1006C0000100010001000100010001000100000023
:1006D0000100010001000100010001000100010012
:1006E0000100010001000100000001000100010003
:1006F00001000100010001000100010001000100F2
:1007000001000100010001000100010000000100E2
:1007100001000000010000000100000001000100D4
:1007200001000100010001000100010001000100C1
:1007300001000100010001000100010001000100B1
:1007400001000100010000000100010001000100A2
:100750000100010001000100010001000100010091
:100760000100010000000100010001000100010082
:100770000100010001000100010001000100000072
:100780000100010001000100010001000100010061
:100790000100010001000100010001000100010051
:1007A0000100000001000100000001000000010044
:1007B0000000010001000100010001000100010032
:1007C0000100010001000100010001000100010021
:1007D0000100010001000100010001000000010012
:1007E0000100010001000100010001000100010001
:1007F00001000100010001000100000001000100F2
:1008000001000100010001000100010001000100E0
:1008100001000100000001000100010001000100D1
:1008200001000100010001000100010001000100C0
:1008300001000100010001000000010001000000B2
:1008400001000000010000000100010001000100A2
:100850000100010001000100010001000100010090
:100860000100010001000100010001000100010080
:100870000100000001000100010001000100010071
:100880000100010001000100010001000100010060
:100890000000010001000100010001000100010051
:1008A0000100010001000100010000000100010041
:1008B0000100010001000100010001000100010030
:1008C0000100010001000100010001000100000021
:1008D0000100010000000100000001000000010013
:1008E0000100010001000100010001000100010000
:1008F00001000100010001000100010001000100F0
:1009000001000100010001000000010001000100E0
:1009100001000100010001000100010001000100CF
:1009200001000100010000000100010001000100C0
:1009300001000100010001000100010001000100AF
:1009400000000100010001000100010001000100A0
:10095000010001000100010001000100010001008F
:100960000100010000000100010000000100000082
:100970000100000001000100010001000100010070
:10098000010001000100010001000100010001005F
:100990000100010001000100010001000100000050
:1009A000010001000100010001000100010001003F
:1009B0000100010001000100010001000000010030
:1009C000010001000100010001000100010001001F
:1009D0000100010001000000010001000100010010
:1009E00001000100010001000100010001000100FF
:1009F00001000100010001000100000001000100F0
:100A000000000100000001000000010001000100E1
:100A100001000100010001000100010001000100CE
:100A200001000100010001000100010001000100BE
:100A300001000100000001000100010001000100AF
:100A4000010001000100010001000100010001009E
:100A5000010000000100010001000100010001008F
:100A6000010001000100010001000100000001007F
:100A7000010001000100010001000100010001006E
:100A8000010001000100010001000100010001005E
:100A90000000010001000000010000000100000052
:100AA0000100010001000100010000047F3F1F64FC
:100AB0003214643214783C1E1E140A0522232526A3
:100AC00028292A2C2D2F3032333536383A3B3D3EFB
:100AD0004042434547494A4C4E5051535557595A45
:100AE0005C5E6062646668696B6D6F71737577795F
:100AF0007B7D7F81838587898A8C8E90929496985E
:100B00009A9C9E9FA1A3A5A7A8AAACAEAFB1B3B46F
:100B1000B6B8B9BBBCBEBFC1C2C3C5C6C7C9CACBC4
:100B2000CCCDCED0D1D2D2D3D4D5D6D7D7D8D9D98F
:100B3000DADADBDBDBDCDCDCDCDCDDDDDDDDDCDCF8
:100B4000DCDCDCDBDBDBDADAD9D9D8D7D7D6D5D415
:100B5000D3D2D2D1D0CECDCCCBCAC9C7C6C5C3C2E1
:100B6000C1BFBEBCBBB9B8B6B4B3B1AFAEACAAA836
:100B7000A7A5A3A19F9E9C9A98969492908E8C8AEA
:100B800089878583817F7D7B79777573716F6D6BC5
:100B90006968666462605E5C5A5957555351504E9D
:100BA0004C4A4947454342403E3D3B3A383635334F
:100BB00032302F2D2C2A292826252322FFAA7F55C3
:100BC00040000000000000000000000101010101E0
:100BD00001010101020202020202020203030303F5
:100BE00003030304040404040505050505060606BD
:100BF000060607070707080808080909090A0A0A74
:100C00000B0B0B0C0C0C0D0D0D0E0E0E0F0F101010
:100C10001011111212131314141515161617171894
:100C20001819191A1A1B1C1C1D1D1E1F1F202121FB
:100C300022232324252526272828292A2B2C2C2D3E
:100C40002E2F30313132333435363738393A3B3C58
:100C50003D3E3F404142434445464748494B4C4D49
:100C60004E4F50525354555758595A5C5D5E60610F
:100C700063646567686A6B6C6E6F7172747677799E
:100C80007A7C7D7F8182848687898B8D8E909294F9
:100C90009597999B9D9FA1A2A4A6A8AAACAEB0B21D
:100CA000B4B6B9BBBDBFC1C3C5C8CACCCED0D3D5FD
:100CB000D7DADCDEE1E3E6E8EAEDEFF2F4F7F9FC9F
:100CC000FF0403300000000A0344005A00360030DD
:100CD0000000000E0364007A007400650063006881
:100CE0000000000403090409023B00020100A0FA0D
:100CF0000904000001030101000921110100012282
:100D000040000705810308000A09040100010300EF
:100D10000000092111010001223B00070582032088
:100D2000000A1201100100000008EDFE60600100E1
:100D30000102030105010906A1018505050719E066
:100D400029E715002501950875018102050819019B
:100D50002905950575019102950175039101050716
:100D6000190029EF1500250195F075018102C005D4
:100D7000010906A101050719E029E71500250195DC
:100D8000087501810295017508810105081901297D
:100D900005950575019102950175039101050719E6
:100DA0000029FF150026FF00950675088100C00088
:100DB00011241FBECFEFDAE0DEBFCDBF04B603FEC5
:100DC00027C08091A4029091A502A091A602B091A3
:100DD000A7028730904BA740B04BD1F41092A402E9
:100DE0001092A5021092A6021092A70214BE84B718
:100DF000877F84BF0FB6F894A895809160008861C2
:100E000080936000109260000FBEE0E0F8E3099567
:100E100011E0A0E0B1E0E4E1F6E502C005900D923A
:100E2000A635B107D9F722E0A6E5B1E001C01D92D1
:100E3000A43AB207E1F70E94CF240C94082B0C943B
:100E400000000C9428070C94290780E090E0089596
:100E50000895089581E0089581FF02C0229A01C09B
:100E600022982A98089581E008950C942A071F93E8
:100E7000CF93DF9300D000D01F92CDB7DEB7498368
:100E80005A832091900189819A81211112C0662391
:100E900049F00E94611F182F682F89819A810E9452
:100EA000061F03C00E94351F182F69817A81812F88
:100EB00004C00E94611F69817A810F900F900F908A
:100EC0000F900F90DF91CF911F910C94300AFC018D
:100ED000408151816281738184810C9437070E9423
:100EE000320D8FE39CE90197F1F700C000000E94EA
:100EF000320D80E00E94DD0C80FF04C00E94912032
:100F00000C94AB2208950C942307E82FE295EF7020
:100F1000F0E032A1282F2F7081E090E001C0880F0F
:100F20002A95EAF78095832382A30895CF92DF92D2
:100F3000EF92FF92863030F4811105C090918000CD
:100F40009F7D04C085E09091800090629093800026
:100F5000282F30E0AFEFBFEF0E94992A25E030E064
:100F600040E050E00E94712A2C3784E138074105A7
:100F7000510530F4C90169E070E00E94492A29C096
:100F8000DA01C9018A50974DAF4FBF4F6627782FBE
:100F9000892F9A2F25EF38E241E050E00E94712A14
:100FA00069017A01CA01B9010E94392A9B01AC0189
:100FB000C701B6010E94392ABB27A92F982F872F76
:100FC000009721E0A207B10511F0BC0102C06FEF4C
:100FD0007FEF70938B0060938A00FF90EF90DF901B
:100FE000CF900895269A86E30E94850782E2809337
:100FF000800089E1809381008FEF9FEF90938700BD
:10100000809386000C94E8220E946F070E9497202C
:10101000811102C00E941A210E94F2070C9421073C
:101020000C942C070C94100808950E942C1A0E940E
:1010300014082FEF84E39CE0215080409040E1F7BA
:1010400000C000000C94AB220F931F93CF93DF934B
:101050008C010E946707EC01B8010E9435078823C4
:1010600009F4F7C1B801CE010E948B14882309F45A
:10107000F0C1CA3CFCE5DF0741F4F8018281882316
:1010800009F4E7C10E94C910E4C1CB3C8CE5D80744
:1010900008F012C1C33C9CE5D90761F4F8018281D4
:1010A000882309F4D6C10E94E11F8272E1F00E94F8
:1010B000F412CFC1C43CECE5DE07C0F0C63C9CE5B1
:1010C000D90709F4CAC008F0DCC0C43CFCE5DF075E
:1010D00009F0CBC0F8018281882309F4BAC10E94CB
:1010E000E11F827221F30E94E712B3C1C531FCE512
:1010F000DF0708F07BC0C2308CE5D80708F452C087
:10110000F8018281882309F454C00E94972081113C
:1011100002C00E941A210E94AA2090E0909395029A
:1011200080939402FE01E350FC45E231F10530F476
:10113000EA5AFF4F809194020C94932A8091940272
:10114000816027C0826025C0846023C0806121C087
:1011500080621FC080641DC080681BC0846088607E
:1011600018C08E7F16C08D7F14C08B7F12C08F7EFB
:1011700010C08F7D0EC08F7B0CC08F770AC08B7F15
:10118000877F07C087FB222720F991E0922790FBF9
:1011900087F980939402809194020E94AE200E946D
:1011A0002C1A57C1C1159CE5D90751F0C130DC4557
:1011B00079F0C801DF91CF911F910F910C94330703
:1011C000F8018281882309F444C10E94150841C1B5
:1011D000F8018281882309F43CC180912802982F6C
:1011E000909590FB80F98093280233C1C631FCE5CD
:1011F000DF0739F50E94E11F282FF8018281409115
:10120000100150911101882379F02A7A91E009F4B4
:1012100090E090935601911102C069E201C065E32C
:10122000CA010E9481210AC080915601811102C029
:1012300069E201C065E3CA010E948C210E942D2051
:1012400008C1C23CDC4509F0B4CFF8018281882393
:1012500009F4FFC00E940213FCC0F80182818823B8
:1012600009F4F7C00E948D10F4C0C53CDC4509F0BC
:10127000A0CFF8018281882309F4EBC00E9480107E
:10128000E8C0F8018281C83CFCE5DF0731F488231F
:1012900009F4DFC00E94AB10DCC0C93CDC4530F46F
:1012A000882309F4D6C00E949C10D3C0882309F477
:1012B000D0C00E94BA10CDC0C13DECE5DE0791F46C
:1012C000F8018281882309F4C4C00E94FB0E8F308C
:1012D00028F00E94FB0E843108F405CF8FE00E94B5
:1012E000F712B7C0C23DFCE5DF0708F05AC0CD3C9D
:1012F0008CE5D80739F4F8018281882309F4A9C064
:1013000081E0EDCFCE3C9CE5D907C0F4CB3CECE5C9
:10131000DE0741F4F8018281882309F49AC00E9413
:10132000030F97C0CC3CDC4509F043CFF801828124
:10133000882309F48EC00E94140F8BC0F8018281AB
:10134000CF3CFCE5DF0771F4882309F482C00E94DA
:10135000FB0E863028F00E94FB0E883008F4C3CEC6
:1013600086E0BDCFC03DDC4570F4882309F471C030
:101370000E94FB0E823028F00E94FB0E853008F49C
:10138000B2CE82E0ACCF882309F463C00E94FB0E8A
:10139000893028F00E94FB0E8E3008F4A4CE89E03C
:1013A0009ECFC53DECE5DE0739F4F8018281882344
:1013B00009F44FC083E293CFC63DFCE5DF0740F55B
:1013C000F8018281C33DFCE5DF0729F4882309F495
:1013D00040C088E184CFC43DDC4568F48823C9F16E
:1013E0000E94FB0E853128F00E94FB0E873108F425
:1013F0007ACE85E174CF882361F10E94FB0E89319A
:1014000028F00E94FB0E823208F46DCE89E167CF8E
:10141000CD3DECE5DE0741F4F80182818823C9F077
:1014200082E00E94702515C0CE3DFCE5DF0739F44F
:10143000F8018281882369F00E941A210AC0CC3DFC
:10144000DC4509F0B6CEF8018281882311F080E0F6
:10145000E8CF80E0DF91CF911F910F91089508951B
:101460009FE0799FF00111249BE4899FE00DF11D1D
:101470001124E60FF11DEE0FFF1FE65BFE4F859175
:1014800094910895880F991FFC01E655F54F8591B9
:1014900094910895CF93DF930E94300A0E943D0CEF
:1014A000EC01811521E5920708F042C0811560E545
:1014B000960708F031C1883E910500F5803E910500
:1014C00008F0D7C1883A910570F4853A910508F083
:1014D000A6C08130910509F4CCC108F47DC1049700
:1014E00008F0C7C179C18F3B910508F4A3C0803CC7
:1014F000910508F471C1805C9109FDC0C11580E3BC
:10150000D80780F4C11590E2D90708F0F2C0C03FB7
:10151000D10508F461C1CF3FD10511F008F0A9C190
:10152000D065A7C1C11520E4D20708F0F2C0E7C01A
:10153000811569E5960760F5C11588E5D80708F0BB
:1015400037C1C11594E5D90778F4C11523E5D20751
:1015500008F013C1C11562E5D60708F0F8C0DC2F0A
:10156000CC27C16FD06A85C1C11585E5D80708F4BD
:101570001AC1C11596E5D90708F02EC18C2F0E941B
:10158000BA0C8F71C82FD0E0DC2FCC27D06271C18C
:101590008D3B2CE5920709F416C1F0F4CB3B8CE5AA
:1015A000D80709F40AC108F00BC1C1152AE5D20712
:1015B00008F012C18C2F8F700E94BA0C94E0D6955F
:1015C000C7959A95E1F7CF70D0E0DC2FCC27D06A91
:1015D0008F70806EC82B4DC1803C9C4509F4F9C0CA
:1015E000C13C8CE5D80760F4CE3B9CE5D90709F4F3
:1015F000EDC0CF3BDC4509F0EFC0C0E0D2ED39C112
:10160000CE0190568115904208F0E6C08D2F8F7163
:101610000E94BA0CDD27D0628F71D82B2AC1853A7F
:10162000910509F4DCC0863A910509F0DBC0C2E8F7
:10163000D0E41FC1883A910509F4D7C0893A9105D1
:1016400009F4D6C08A3A910509F4D5C08B3A9105C0
:1016500009F4D4C08C3A910509F4D3C08B3B9105B1
:1016600009F4D2C08C3B910509F4D1C08D3A9105A3
:1016700009F4D0C0803B910509F4CFC08E3A9105A2
:1016800009F4CEC08F3A910509F4CDC0813B910594
:1016900009F4CCC0823B910509F4CBC0833B910592
:1016A00009F4CAC0843B910509F4C9C0853B910582
:1016B00009F4C8C0863B910509F4C7C0873B910572
:1016C00009F4C6C0883B910509F4C5C0893B910562
:1016D00009F4C4C08D3B910509F4C3C08E3B91054C
:1016E00009F4C2C08A3B910509F4C1C0C0E0D4E44A
:1016F000C0C0CE019F700E94420AEC01BAC0CE0168
:101700009927D3FF03C0EC01D86CB3C0EC01D06CB7
:10171000B0C0DF70D06AADC0837021E030E002C09D
:10172000220F331F8A95E2F73C68CE0174E096954C
:1017300087957A95E1F78370382BCF70C695C6955B
:1017400080E2C89FE0011124C22BD32B92C04C2F02
:101750004695469590E2499FA0011124C370DD276C
:1017600021E030E0C90102C0880F991FCA95E2F755
:10177000EC01C42BD52BDC687CC04C2F46954695DC
:1017800080E2489FA0011124C370DD2721E030E0F2
:10179000C90102C0880F991FCA95E2F7EC01C42B5A
:1017A000D52BDA6866C0DC2FCC27C46FD06A61C045
:1017B000DC2FCC27C06FD06A5CC0C0E0D4ED59C02C
:1017C000C0E0D5ED56C0C0E0D1ED53C0C0E0D0EDD3
:1017D00050C0C0E0D3ED4DC0C0E0D0E04AC0C1E889
:1017E000D0E447C0C3E8D0E444C0C2EED4E441C072
:1017F000C9EED4E43EC0CAEED4E43BC0C5EBD4E4A9
:1018000038C0C6EBD4E435C0C3EBD4E432C0C4EB7B
:10181000D4E42FC0C7EBD4E42CC0CCECD4E429C072
:10182000CDECD4E426C0C3E8D5E423C0CAE8D5E4AF
:1018300020C0C2E9D5E41DC0C4E9D5E41AC0C1E2A4
:10184000D6E417C0C3E2D6E414C0C4E2D6E411C0A3
:10185000C5E2D6E40EC0C6E2D6E40BC0C7E2D6E4C9
:1018600008C0CFE6D4E405C0C0E7D4E402C0CAE2B1
:10187000D6E4CE01DF91CF9108958238910549F1E8
:10188000B0F48133910509F458C048F489329105C8
:1018900009F44EC08A32910509F454C00895853385
:1018A000910509F440C08933910599F00895833E6C
:1018B000910529F138F4803E910591F0823E910521
:1018C000A1F00895863E9105F9F0873E910531F12A
:1018D00008952091940220FD3AC021FD38C008955A
:1018E0008091940280FD35C032C08091940282FFC5
:1018F00032C08091940284FD30C083EE39C0809163
:10190000940282FD28C0F5CF8091940283FF27C006
:101910008091940284FD21C087EE2AC080919402B8
:1019200083FD1DC0F5CF8091940285FD1AC01BC0B8
:101930008091940285FD17C014C08091940286FDA9
:1019400014C015C08091940286FD11C00EC080EEB7
:101950000FC089E30DC082EE0BC080E009C086EEA7
:1019600007C089E205C085E303C08AE201C081E3C4
:1019700090E008959091940292FF0DC0282F287155
:10198000283019F4877F846006C0282F2471243002
:1019900011F48B7F886093FF0DC0282F28712831A8
:1019A00019F4877E846106C0282F2471243111F434
:1019B0008B7E886194FD877E0895E82FF0E0EE0F1E
:1019C000FF1FE95AFE4F8081918108950895ACE28E
:1019D000B1E041E050E025E02A0F8D91E82FE2953B
:1019E000EF70F0E031A18F70BA0102C0660F771F6F
:1019F0008A95E2F7CB01962F9095932391A392A11C
:101A0000892B82A32A13E9CFADE1B1E041E050E098
:101A10002FE02A0F8D91E82FE295EF70F0E031A1D1
:101A20008F70BA0102C0660F771F8A95E2F7CB016B
:101A3000962F9095932391A392A1892B82A32A1389
:101A4000E9CFE1E6F1E0A7E5B1E0119211921D9234
:101A50001D9271E0EB36F707C1F785E00E94C90DD2
:101A60000C9404085F926F927F928F929F92AF9234
:101A7000BF92CF92DF92EF92FF920F931F93CF937B
:101A8000DF930CE211E0A1E6B1E0612CEE24E394D7
:101A9000F12C5D018D909C90119711961C921E92D5
:101AA000E80189918E01E82FE295EF70F0E091A1B5
:101AB0008F70A70101C0440F8A95EAF7892F842B04
:101AC00081A382A1542E5094852182A3D0EADA9575
:101AD000F1F78DE1C82E81E0D82E80E090E0E6019C
:101AE00079906E01272D22952F7030E0E90168A1D1
:101AF0002D913C91119770E0D72DDF7002C0759544
:101B00006795DA95E2F760FD08C0B701082E02C0BC
:101B1000660F771F0A94E2F702C060E070E0262BA0
:101B2000372B11963C932E9301968F309105B9F681
:101B300081A1D52DD823D1A382A1482B42A31296EF
:101B400081E0F501208131818216930609F480E05D
:101B5000682AF1E0AB36BF0709F09BCF262D45E0A0
:101B600067E571E081E691E00E94CA0D0E9483075B
:101B7000862DDF91CF911F910F91FF90EF90DF9015
:101B8000CF90BF90AF909F908F907F906F905F901D
:101B900008950895FF920F931F93CF93DF93F82E2C
:101BA000092F162FD72FC42F222349F081E08093CD
:101BB0006D010E944F2290936C0180936B01809184
:101BC0006D018823D9F080916B0190916C010E9486
:101BD0005B22069798F0EF2DF02FA12FBD2F80E00C
:101BE00090E04C2F50E08417950734F42191319107
:101BF0002D933D930196F7CF10926D01DF91CF9118
:101C00001F910F91FF900895CF92DF92EF92FF9274
:101C10000F931F93CF93DF937B01282F382FE82F4B
:101C2000F0E0F11006C0EF53F44F6491762F862F49
:101C30007BC00F2D10E046E0649FC0011124CFEF60
:101C4000D0E0BE010E94492AAB016BEA6403C001E7
:101C5000659F900D11248E0D911D8E0D911D982F55
:101C6000990F890FBE01601B710B6E9FD0016F9F92
:101C7000B00D7E9FB00D11249B2F8F9DB0011124BC
:101C8000672F77277E01E61AF70AEE9EB001EF9ED6
:101C9000700DFE9E700D11246E01C81AD108C09EF1
:101CA0007001C19EF00CD09EF00C11240F2D112755
:101CB000C01BD10BCE9F8001CF9F100DDE9F100D5A
:101CC0001124812F4230510591F04CF441155105FA
:101CD000E1F041305105B9F4822F272F16C044306E
:101CE000510569F044F04630510579F00CC0822F5F
:101CF0002B2F912F0AC02B2F932F872F06C08B2FAE
:101D0000922F212F02C08B2F972FE22FF0E0EF535D
:101D1000F44F7491E82FF0E0EF53F44F6491E92F02
:101D2000F0E0EF53F44F8491DF91CF911F910F9129
:101D3000FF90EF90DF90CF9008950895CF93DF93B9
:101D4000762FE901682F842F0E94040E798368831F
:101D50008A83DF91CF910895493C08F048EC0C94B8
:101D60009E0E80914F02282F269530E021153105D7
:101D700019F48170826005C02532310524F081702C
:101D8000886480934F0280915202893C18F088EC5D
:101D900080935202089588E090E00C94C82ACF9373
:101DA000DF9300D000D0CDB7DEB7AB01BC014983D3
:101DB0005A836B837C830E94B10E49815A816B8167
:101DC0007C8188E090E00F900F900F900F90DF9152
:101DD000CF910C94E62AEFE4F2E083E08083118255
:101DE0008FEF828388EC838314826081718182818A
:101DF00093810C94CF0E80914F0280FF02C0869594
:101E0000089580E0089580915302833018F48F5F25
:101E10008093530260914F02709150028091510261
:101E2000909152020C94CF0E80915302882319F0A6
:101E300081508093530260914F02709150028091C3
:101E40005102909152020C94CF0E6091040170E007
:101E500080914F0280FF0AC08091720123E0829F2F
:101E6000C00111248C5A9D4F0C941B148091710158
:101E700090910301891780F7E82FF0E09F01220F6E
:101E8000331FE20FF31FEC5AFD4F118210821282B2
:101E90008F5FF0CF90914F0290FF16C0909171012B
:101EA00020910301921770F4E92FF0E0DF01AA0FEF
:101EB000BB1FEA0FFB1FEC5AFD4F818360834283F7
:101EC0009F5FF0CF0C94250F0895CF93DF9300D040
:101ED0001F92CDB7DEB790914F0290FF0AC09E01CE
:101EE0002F5F3F4F0E94AC0E4B8169818A810E9417
:101EF0004A0F0F900F900F90DF91CF910895CF93DD
:101F0000DF93EC01EC81F0E0E454F54F4491EFE411
:101F1000F2E0628181810E94650F8C818F5F8C83EA
:101F2000DF91CF910895CF93DF93EC01EFE4F2E0DE
:101F3000438162818C810E94650F8C818F5F8C83CD
:101F4000DF91CF9108950F931F93CF93DF9300D02C
:101F50001F92CDB7DEB78C0180916E0181110AC04E
:101F60009E012F5F3F4F48EC6FEF0E94AC0E8A81BD
:101F700080936E01F8018481813051F028F0823025
:101F800061F440916E010AC080916E0140E007C08B
:101F900060916E0140E080E003C040E080E060E0DE
:101FA0000E944A0FF801248130E0C901019663E0E4
:101FB00070E00E945D2A84830F900F900F90DF9154
:101FC000CF911F910F910895AF92BF92CF92DF9260
:101FD000EF92FF920F931F93CF93DF9300D01F9246
:101FE000CDB7DEB7182FF62E042FE22E90914F02B8
:101FF00090FF6EC0E92FE695AE2FB0E0AF5CBE4F0C
:102000008C9180937A019E7F923061F49E012F5FC4
:102010003F4F812F0E94AC0E4B8169818A810E94C3
:102020004A0F44C0823019F4009152023FC08630FA
:1020300019F4109150023AC08930D9F38931B1F5C1
:10204000E9518E2F8170D82EE695F0E0E454F44FDC
:10205000A590B490C12CBB2460910201C61620F556
:10206000EC2DF0E0EA9DC001EB9D900DFA9D900DE6
:10207000112470E00E94492A812FD11002C0860FDE
:1020800001C0861B90917101E90FF11D9F01220F84
:10209000331FE20FF31F9F012C5A3D4F402F6F2D2E
:1020A0000E94AC0EC394D8CF0E94250F109350020B
:1020B000F092510200935202EE2051F060914F02D3
:1020C0007091500280915102909152020E94CF0E65
:1020D0000F900F900F90DF91CF911F910F91FF9074
:1020E000EF90DF90CF90BF90AF900895EFE4F2E0D3
:1020F0009181282F4381628188E0890F0C94E40F3D
:1021000081E00C947610EFE4F2E09181282F438176
:10211000628188EF890F0C94E40F81E00C948310A6
:10212000EFE4F2E0628128E0620F08F46FEF282FFD
:10213000438181810C94E40F81E00C949010EFE4D2
:10214000F2E0628128E0621B08F460E0282F4381FE
:1021500081810C94E40F81E00C949F10EFE4F2E095
:10216000438128E0420F08F44FEF282F62818181DC
:102170000C94E40F81E00C94AE10EFE4F2E04381A4
:1021800028E0421B08F440E0282F628181810C94F2
:10219000E40F81E00C94BD1020E00C94E40FFF925A
:1021A0000F931F93CF93DF93EC01F12C0FEF10E00F
:1021B00060910201F616E8F42091710130E02F0DD4
:1021C000311DC901880F991F280F391F2C5A3D4F07
:1021D00070E0C8010E945D2A962F8C8140915202C6
:1021E00060915102F99E800D11240E94AC0EF3946F
:1021F000DFCF0E94250F9A818C8190FF02C08F5FF4
:1022000001C081508C83DF91CF911F910F91FF907E
:102210000895BF92CF92DF92EF92FF920F931F9398
:10222000CF93DF93FC01828180FF02C00FEF01C0DA
:1022300001E010E0809102011817E0F5C12ED12CC9
:1022400080917101E601C80FD11DCE01880F991F41
:10225000C80FD91FCC5ADD4F198218821A8234E078
:10226000E32EF12CB12C809170018B0D87FF03C000
:1022700090910201890F082E000C990BC816D906FF
:1022800091F4809152028E9DA0018F9D500D1124DA
:1022900055954795559547959E01609151028091BE
:1022A00050020E94AC0EB00EF1E0EF1AF108D9F620
:1022B0001F5FC0CF0E94250F80917001013031F463
:1022C000811102C080910201815007C090E0019607
:1022D0006091020170E00E945D2A80937001DF919D
:1022E000CF911F910F91FF90EF90DF90CF90BF9013
:1022F0000895CF938091710190910301891770F433
:10230000E82FF0E09F01220F331FE20FF31FEC5A7A
:10231000FD4F1182108212828F5FF0CFC0E060917A
:102320000201C617B8F5EC2FF0E070E0CF010E9473
:102330005D2A40917101480F80916F01082E000CB9
:10234000990B50E0E817F907C4F020910101022E23
:10235000000C330B2E173F0784F09A01220F331F16
:10236000240F351F2C5A3D4F40915202609151026B
:10237000809150020E94AC0E0BC0FA01EE0FFF1FBD
:102380004E0F5F1FFA01EC5AFD4F1182108212822C
:10239000CF5FC5CF0E94250F2091000180916F0172
:1023A000820F80936F0190910101920F9093010130
:1023B00019165CF4082E000C990B4091020150E0B4
:1023C00041505109841795071CF021952093000175
:1023D000CF9108950F931F93CF93DF938C01FC014E
:1023E0008481958101968170992795838483C0E0CB
:1023F000D5E580910201C817F8F42091710130E011
:102400002C0F311DC901880F991F280F391F2C5A15
:102410003D4F4C2F4695F80184819581840F911D85
:10242000817040915202609151028D9F802D112444
:102430000E94AC0ECF5FDDCFDF91CF911F910F9146
:102440000C94250F0F931F93CF93DF93EC0100E0C3
:1024500010E080910201282F30E00217130724F5C5
:10246000909171019801290F311DA901440F551F49
:10247000240F351F2C5A3D4F869590E04C8108174C
:1024800019071CF4442331F002C0411103C04091EC
:10249000520201C040E060915102809150020E94BE
:1024A000AC0E0F5F1F4FD5CF0E94250F2C8130E05F
:1024B0002F5F3F4F217033272C83DF91CF911F91E6
:1024C0000F910895EFE4F2E080818E7F8083608138
:1024D0007181828193810E94CF0E10927B012FEF38
:1024E00080E792E0215080409040E1F700C000007A
:1024F0000C94250FEFE4F2E080818E7F80831092B0
:102500007B012FEF80E792E0215080409040E1F77F
:1025100000C000000C94250F60914F02669570E09A
:102520004BE050E085E091E00E94B32A892B19F43A
:1025300081E080937B010E944F22909374018093ED
:102540007301089590914F0290FF35C091708111F1
:1025500002C0926006C0853210F0986402C0880FF5
:10256000982B90934F02662351F060914F02709127
:10257000500280915102909152020E94CF0E6091C0
:102580004F02669570E04BE050E085E091E00E94DC
:10259000B32A892B19F010927B0102C00E948C1281
:1025A00081E08093760140915202609151028091C6
:1025B00050020C94CC100895682F90914F0296957C
:1025C00081E0890F853208F081E00C94A21281E04D
:1025D0000C94DC12682F90914F0296958FEF890F23
:1025E00009F484E20C94A21281E00C94EA1261E0F6
:1025F0000C94A212EFE4F2E08081816080838695E2
:102600000C94F71280914F0280FD0C9462120C948E
:10261000FA1260E00C94A21280917901811133C00A
:10262000809128028160809328020E949720811166
:1026300004C00E941A210E94EB0E0E94CB0E6093F0
:102640004F027093500280935102909352026E7F1A
:1026500061F40E94EB0E0E94CB0E60934F027093C8
:10266000500280935102909352020E94B10E109238
:102670007B0180914F0280FF03C086950E94091361
:1026800081E0809379010895EFE4F2E08081816038
:10269000808386950C94091310927B0108950F9303
:1026A0001F93CF93DF9380917B01882309F48CC023
:1026B00080917A01E0914F02E695E81BE093750165
:1026C000823049F4F0E0E854F54FE491CE2FD0E0A9
:1026D0000FE71FE049C0863049F4F0E0EB54F54FB6
:1026E000E491CE2FD0E003E91FE03EC0893051F4E1
:1026F000E695F0E0EE54F54FE491CE2FD0E00FECEC
:1027000010E132C08F3051F4E695F0E0E155F54F1D
:10271000E491CE2FD0E009E011E126C0853149F4E3
:10272000F0E0E455F54FE491CE2FD0E009E711E158
:102730001BC0883181F0833239F4EAEAFAE0C591AE
:10274000D49103EA1FE010C0843251F4C4EFD1E009
:1027500002E212E109C0C8EED3E00AEE11E104C0C2
:10276000C0EDD7E00DE91EE080917601882389F065
:10277000109276010E944F229E0120953095820F83
:10278000931F9093740180937301109278011092BB
:10279000770180917301909174010E945B228C17E4
:1027A0009D0790F0E0917301F0917401CE0FDF1F4F
:1027B000D0937401C093730183E791E0F801DF9136
:1027C000CF911F910F910994DF91CF911F910F919C
:1027D00008952EB1342F309523233EB1432B3FB7BC
:1027E000F894FC01680F791FE617F70789F08191CB
:1027F00098E04EB9000000C087FF2EB9880F000096
:1028000000C000C000C02EB900C09A9591F7ECCF6F
:102810003FBF08952DB1242B2DB99B01220F331FEB
:10282000620F731F0E94E91387EC90E00197F1F7A4
:1028300000C00000089544E00C940A140F931F9305
:10284000CF93DF93C62FD42F022FFC0182818823E0
:10285000C9F060937E010E944F2290937D01809386
:102860007C0180E28C0F883008F050C0C77081E096
:1028700001C0880FCA95EAF7DF91CF911F910F91A0
:102880000C94BE1710917E01161330C080917C010C
:1028900090917D010E945B22883C910538F5C0E251
:1028A000CD0F1D17B9F080E2810F883040F417700A
:1028B00081E001C0880F1A95EAF70E94C517C83059
:1028C00048F481E09D2F977001C0880F9A95EAF730
:1028D0000E94BE17802F0E94AB17C830B8F4D77083
:1028E00081E001C0880FDA95EAF70AC080E28C0F18
:1028F000883060F4C77081E001C0880FCA95EAF79C
:10290000DF91CF911F910F910C94C517DF91CF915B
:102910001F910F9108959C01CB01203F4CE5340796
:10292000F9F078F4283DFCE53F07B9F0293D4CE586
:10293000340711F1273D3C4531F526E241EE61EEC9
:102940001EC0223FFCE53F0799F070F0233F3C4555
:10295000D1F427E245EE66EE12C027E245EE0EC046
:1029600026E241EE60EE0BC027E245EE64EE07C0C2
:1029700026E241EE62EE03C028E241E065EE0E94ED
:102980001E1480E00895FC018281882319F01092C2
:102990007E01089581E008959093840180938301DE
:1029A0000895E0918301F0918401309721F0019026
:1029B000F081E02D099480E00895E0918301F09189
:1029C0008401309799F020911C01222359F0209125
:1029D000940227FF07C0DC012C9111962C931197CC
:1029E00025E02C930280F381E02D09940895209135
:1029F0008101309182018217930771F090938201D7
:102A000080938101E0918301F0918401309721F05E
:102A10000680F781E02D0994089520917F0130917F
:102A200080018217930771F09093800180937F015A
:102A3000E0918301F0918401309721F00084F185C9
:102A4000E02D0994089585B7806885BF85B78068B3
:102A500085BF0895089508950C942B1508950C943E
:102A60002E150E9423150E942A150C942C1581E026
:102A700008950E9446220E94E70C0E94CF220E94E5
:102A8000E8220E940C130C942F154F925F927F92B4
:102A90008F929F92AF92BF92CF92DF92EF92FF926E
:102AA0000F931F93CF93DF93CDB7DEB72A970FB65F
:102AB000F894DEBF0FBECDBF0E94320D0E943715C5
:102AC000811111C08FEF89838A831B820E944F225C
:102AD0008160782F9D838C8349815A816B818D81A0
:102AE0000E94011657C096E8C92E91E0D92E00E049
:102AF00010E0AA24A394B12C702E802F0E94DD0C2C
:102B00004C01F601419051906F014826592641141D
:102B1000510431F40F5F1F4F0530110569F7D2CF13
:102B20008091280281FD0E94E60C20E030E07501D2
:102B3000022E02C0EE0CFF1C0A94E2F7C7018421AA
:102B40009521892B09F12E837F828E209F2091E091
:102B5000892809F490E098870E944F228160782F9D
:102B60009A8789874E815F8168858A850E940116D0
:102B7000000F111FF801EA57FE4F80819181E8266E
:102B8000F926F182E08206C02F5F3F4F2F303105DA
:102B900071F6C0CF109185010E94D1141817D9F099
:102BA0000E94D114809385012A960FB6F894DEBF57
:102BB0000FBECDBFDF91CF911F910F91FF90EF908E
:102BC000DF90CF90BF90AF909F908F907F905F905D
:102BD0004F900C9412082A960FB6F894DEBF0FBEE1
:102BE000CDBFDF91CF911F910F91FF90EF90DF90BC
:102BF000CF90BF90AF909F908F907F905F904F90BD
:102C00000895CF93DF93CDB7DEB72B970FB6F89427
:102C1000DEBF0FBECDBF4F83588769877A878B870A
:102C2000DE01119686E0FD0111928A95E9F785E0B3
:102C3000FE01379601900D928A95E1F749815A81FC
:102C40006B817C818D819E810E94D61C2B960FB654
:102C5000F894DEBF0FBECDBFDF91CF910895FC0188
:102C6000808191810E94A21F0895882309F413C1D5
:102C7000682F8238C1F40E94D11481FD0CC169E330
:102C800080911001909111010E9481210E942D20BC
:102C90002FEF81EE94E0215080409040E1F700C09A
:102CA000000069E319C08338F9F40E94D11480FD53
:102CB000F2C063E580911001909111010E94812181
:102CC0000E942D202FEF81EE94E021508040904013
:102CD000E1F700C0000063E58091100190911101BF
:102CE0000E948C210C942D208438C1F40E94D114B0
:102CF00082FDD1C067E480911001909111010E9482
:102D000081210E942D202FEF81EE94E02150804000
:102D10009040E1F700C0000067E4DECF8CEF860F43
:102D2000813A38F480911001909111010E94812123
:102D3000D9CF80E2860F883048F4677081E001C007
:102D4000880F6A95EAF70E94E41FCCCF8BE5860FC7
:102D5000833070F4653A29F0663A31F083E890E008
:102D600005C081E890E002C082E890E00C94F7147E
:102D700088E5860F873108F08EC0683A09F445C0AF
:102D8000693A09F445C06A3A09F445C06B3A09F456
:102D900045C06C3A09F445C06B3B09F445C06C3B37
:102DA00009F445C06D3A09F445C0603B09F445C0DB
:102DB0006E3A09F445C06F3A09F445C0613B09F425
:102DC00045C0623B09F445C0633B09F445C0643B20
:102DD00009F445C0653B09F445C0663B09F445C0AC
:102DE000673B09F445C0683B09F445C0693B09F4F9
:102DF00045C06D3B09F445C06E3B09F445C06A3BD4
:102E000009F445C080E090E044C082EE90E041C00B
:102E100089EE90E03EC08AEE90E03BC085EB90E00A
:102E200038C086EB90E035C083EB90E032C084EB95
:102E300090E02FC087EB90E02CC08CEC90E029C094
:102E40008DEC90E026C083E891E023C08AE891E011
:102E500020C082E991E01DC084E991E01AC081E2BE
:102E600092E017C083E292E014C084E292E011C0C5
:102E700085E292E00EC086E292E00BC087E292E02B
:102E800008C08FE690E005C080E790E002C08AE2CB
:102E900092E00C940D150895882309F45BC0682F07
:102EA000823879F40E94D11481FF54C069E3809183
:102EB0001001909111010E9481210E942D2069E34F
:102EC00010C08338B1F40E94D11480FF43C063E581
:102ED00080911001909111010E9481210E942D206A
:102EE00063E580911001909111010E948C210C9456
:102EF0002D20843879F40E94D11482FF2BC067E41E
:102F000080911001909111010E9481210E942D2039
:102F100067E4E7CF8CEF860F813A18F380E2860FE3
:102F2000883048F4677081E001C0880F6A95EAF73D
:102F30000E94EA1FDCCF8BE5860F833020F480E00F
:102F400090E00C94F714685A673120F480E090E028
:102F50000C940D150895CF93C82F0E943516C933D0
:102F600049F42FEF83EC99E0215080409040E1F745
:102F700000C000008C2FCF910C944C17882321F0B7
:102F80000E94E41F0C942D200895882321F00E94B4
:102F9000EA1F0C942D2008954F925F926F927F92BA
:102FA000BF92CF92DF92EF92FF920F931F93CF9336
:102FB000DF937C01062FC72FFC01158112951F702E
:102FC000D281D1110E9401200E94DA1F882379F05A
:102FD000DD2369F080E2800F883048F082E00E94B3
:102FE00078200E94DA1F91E0B82EB92601C0B12CDA
:102FF000CC2EC2948FE0C822D12CF601E859FF4FA5
:103000000C94932A8C2F807FCF70882311F0C29567
:10301000C07FDD2399F0CC2309F462C180E2800FE8
:10302000883010F0011104C08C2F0E94E41F03C0EF
:103030008C2F0E94F41F0E942D2052C1802F0E94CD
:103040004C17CC2309F495C180E2800F883010F032
:10305000011104C08C2F0E94EA1F03C08C2F0E9414
:10306000FA1F0E942D2085C18C2F807FCF70803267
:1030700011F0C295C07F002319F00130C9F022C0C1
:10308000DD2371F0112341F0113031F40E9414203E
:103090008C2B0E941A206DC10E9414208C2BD8C04A
:1030A000112319F0113009F464C10E94232018C0C3
:1030B000DD2321F0163008F05CC10EC0153008F099
:1030C00058C10EC0DD2351F0112331F0F701858185
:1030D00080FF06C18F7085838C2FBAC0111111C17A
:1030E0008C2FBCC08C2F837009F04BC0D1114DC107
:1030F000202F229526952770220F220F602F6F70A8
:10310000862F90E0A0E0B0E02C013D01022E04C02B
:10311000440C551C661C771C0A94D2F704FF10C09F
:103120008FE090E0A0E0B0E004C0880F991FAA1FD4
:10313000BB1F2A95D2F780959095A095B09503C0B6
:1031400080E090E0DC01C695C695C370D0E0BC017C
:10315000CD016429752986299729C230D10559F0F6
:10316000C330D10559F0219719F00E941B1E0DC1E3
:103170000E94091E0AC10E942D1E07C10E94071E3F
:1031800004C1DD2319F08C2F817001C0869588233E
:1031900009F4FBC0202F229526952770220F220FBD
:1031A000602F6F70862F90E0A0E0B0E02C013D0111
:1031B000022E04C0440C551C661C771C0A94D2F7DE
:1031C00004FF10C08FE090E0A0E0B0E004C0880FE2
:1031D000991FAA1FBB1F2A95D2F780959095A0959D
:1031E000B09503C080E090E0DC01C695C695C37041
:1031F000D0E0BC01CD016429752986299729C23008
:10320000D10559F0C330D10559F0219719F00E942A
:10321000E11EBBC00E94CF1EB8C00E94F31EB5C005
:103220000E94421EB2C0802F90E0FC01E05EF109D6
:10323000E531F10508F050C0E858FF4F0C94932A8F
:103240000F708C2F8F71DD2331F00E94681E802F4C
:103250000E94BE178EC00E94891E802F0E94C51733
:1032600088C0DD2341F0153008F083C08C2F8F71AA
:103270000E94AE1E7EC0163008F07BC0F7CFDD2363
:1032800039F08C2F8F710E94681E73C0DD23C9F343
:103290008C2F8F710E94891E6CC0DD2329F08C2F2A
:1032A0008F710E94531E65C00E944E1E62C0DD23B6
:1032B00049F0CF718C2F0E94681E63E08C2F0E9412
:1032C000632057C081E00E947820123008F451C07A
:1032D00082E00E9478204DC0DD2331F0112389F275
:1032E000802F0E94351645C0112391F2093349F40D
:1032F000FFEF23EC89E0F15020408040E1F700C06F
:103300000000802F0E944C1734C04C2F4F70602F4C
:10331000C7010E9425070E947A1D3BC0D11139C008
:10332000CF70D0E0C230D10599F03CF4209769F01D
:103330002197F9F40E9422232CC0C430D10571F0EA
:1033400054F02597B1F480E00AC00E94052321C003
:103350000E9461231EC00E9468231BC085E00E945A
:103360008B2317C04C2F4F70602FC7010E942F0A6C
:1033700010C098E0C916D10441F05CF0FAE0CF1A11
:10338000D10822E0C216D10420F40E94D1140E9478
:103390001208BB20F1F00E94D61F80FD1AC0F70171
:1033A00012820E94D01F0E94681EC7010E94F71956
:1033B0000E94D01FDF91CF911F910F91FF90EF904E
:1033C000DF90CF90BF907F906F905F904F900C9464
:1033D000891EDF91CF911F910F91FF90EF90DF90A9
:1033E000CF90BF907F906F905F904F9008950F9314
:1033F0001F93CF93DF93EC01888199812B813C81CE
:10340000232BB9F09F3F11F48F3F99F0CE010E941A
:103410002408882371F0688179818A810E94AD1F18
:103420008C010E94051F0E94061EB801CE010E9459
:10343000CC17DF91CF911F910F9108950E94012029
:103440000E9411200C942D20809110019091110167
:103450000E9497210C941E1A0E94F11F0C94241AAA
:10346000E92FE295EF70F0E03297EE30F105B0F41D
:10347000E357FF4F0C94932A803F91F018F4803E5D
:1034800068F40EC0843F51F40BC0803E48F0813F89
:1034900029F406C093FB882780F9089580E00895F9
:1034A00081E008950E94A21F0E94301A0895CF93D0
:1034B000DF9300D000D01F92CDB7DEB70F900F90F2
:1034C0000F900F900F90DF91CF910895CF93DF93DE
:1034D00000D000D000D0CDB7DEB726960FB6F89456
:1034E000DEBF0FBECDBFDF91CF9108951F93CF9365
:1034F000DF93C091910116E080919201C81799F075
:10350000D0E01C9FF0011D9FF00D1124ED56FE4FE1
:103510004081518162817381848195810E94661A04
:103520002196C770E9CFDF91CF911F910895409107
:10353000C3015091C4016091C5017091C601809191
:10354000C7019091C8010C94661A8091C8018295B8
:103550008F7009F054C08091C501882309F44FC0D1
:1035600080919101A09192016091C3017091C40179
:103570004091C6015091C701B6E08A1709F43FC0D7
:1035800090E041155105C1F17F3F11F46F3FA1F16A
:10359000B89FF001B99FF00D1124ED56FE4F218127
:1035A00072132AC02081621327C02281211124C0F6
:1035B000238134812417350710F421503109241B4D
:1035C000350B283C3105C0F42091C8012F702061D3
:1035D0002093C80126E0289FF001299FF00D1124B7
:1035E000E856FE4F80818F708061808383EC91E08C
:1035F0000E94F7190C94761A01968770BECF089531
:10360000CF92DF92EF92FF920F931F93CF93DF93AE
:10361000CDB7DEB762970FB6F894DEBF0FBECDBF51
:103620008C0185E0F801DE011D9601900D928A95CE
:10363000E1F7D8014C9111965C91119712966C911B
:1036400012971396CD90DC9014973091C30170912E
:10365000C4018091C6019091C701009709F46BC124
:103660007F3F19F43F3F09F466C1E090C501EE20A9
:1036700009F4C0C02091C801C816D90628F0F60187
:10368000E81BF90BCF0104C0809590958C0D9D1D12
:10369000FF24F394883C910578F0F12C207F09F009
:1036A000C6C07C2DD98AC88A89890E94571A83ECA2
:1036B00091E00E94F719B1C0822F807F09F046C0C7
:1036C000751314C0341312C0611110C02F70206123
:1036D0002093C8010E94971A83EC91E00E94F71989
:1036E0008091C801D80115968C932EC0CD2819F170
:1036F0005F3F11F44F3FF9F0F62E61111CC080912D
:1037000091012091920136E0821709F45AC090E0AD
:10371000389FF001399FF00D1124ED56FE4F718155
:10372000571306C07081471303C07281711103C023
:1037300001968770E9CFF62E662309F427C18091A0
:10374000C80181608093C801F12C20C1751308C0A5
:10375000341306C0611104C08091C801D801C3C0F0
:103760004D875E878D859E856A8B0E94521A6A8975
:103770008823E1F16623D1F12091C801822F82953F
:103780008F7090E0029774F08091C3019091C40112
:1037900098878F831986DB86CA862C87CE01079689
:1037A0000E94F71986E0F801A3ECB1E001900D92B8
:1037B0008A95E1F70E94A51A0E94971AFF24F394B4
:1037C000E5C04D875E878D859E850E94A21F292FAB
:1037D00022952F7030E0223031050CF0CBC09F7065
:1037E00009F0C5C0805E883008F4D0C0C8010E94CE
:1037F000F719E4CFC816D90608F453C0F601E81B40
:10380000F90BCF01883C910508F450C0F12C7C2DB8
:10381000D98AC88A89890E94571AE3ECF1E086E0C8
:10382000DF011D928A95E9F70E94971AAFC07513C0
:1038300014C0341312C0611110C08091C801F80186
:103840008583C8010E94F71986E0E3ECF1E0DF010F
:103850001D928A95E9F7FE2C99C04D875E878D856C
:103860009E856A8B0E94521A6A89882309F4BECF0A
:10387000662309F4BBCF2091C801822F82958F70F7
:1038800090E002970CF48ECF8091C3019091C40117
:103890009A8389831B82DD82CC822E83CE0101969E
:1038A0007FCF809590958C0D9D1DACCFF62E662315
:1038B00009F49CCF75132EC034132CC02091C8017D
:1038C00020FD1FC0822F82958F70D9F0D8011596E8
:1038D0002C9315978F3049F08F5F982F9295907F9A
:1038E000822F8F70892B15968C93C8010E94F7192F
:1038F00086E0F801A3ECB1E001900D928A95E1F722
:1039000093CF86E0F801A3ECB1E001900D928A9587
:10391000E1F73CC04D875E878D859E850E94521AD7
:10392000811140CF8091C80181608093C801C80196
:103930000E94F7192BC0662309F458CF4D875E8784
:103940008D859E850E94521AF82E882309F44ECF49
:1039500086E0F801A3ECB1E001900D928A95E1F7C1
:1039600083EC91E00E942F160E94A51A5DCF811171
:1039700039CF0CC0243031050CF038CF9F7009F4DA
:1039800031CFF8019581907F09F02CCF8F2D629671
:103990000FB6F894DEBF0FBECDBFDF91CF911F9160
:1039A0000F91FF90EF90DF90CF9008951F93CF93EA
:1039B000DF93CDB7DEB72C970FB6F894DEBF0FBEFE
:1039C000CDBF4F83588769877A878B879C87CE01C5
:1039D00007960E94001B882369F08F8198852A85AD
:1039E0003B85232BF1F19F3F09F063C08F3F09F026
:1039F00060C037C086E0FE013796DE011196019067
:103A00000D928A95E1F76F817885EA85FB8530977D
:103A100041F17F3F11F46F3F21F12091920130E09D
:103A2000C9010196877099274091910150E0841750
:103A3000950709F447C069837A83FD83EC8396E098
:103A4000929FD001939FB00D1124AD56BE4FFE0141
:103A5000319601900D929A95E1F7809392010E9420
:103A6000761A16E080919101909192018917C1F127
:103A7000189FC00111248D569E4F0E94001B882361
:103A800079F1E09191011E9FF0011124ED56FE4F56
:103A90004081518162817381848195810E94661A7F
:103AA0008091910190E00196877099278093910110
:103AB000D9CF4F81588569857A858B859C850E94F1
:103AC000661ACFCF0E942C1A109292011092910187
:103AD000E3ECF1E086E0DF011D928A95E9F7C1CFC2
:103AE0002C960FB6F894DEBF0FBECDBFDF91CF91FD
:103AF0001F910895EF92FF920F931F93CF93DF933F
:103B00008C01892B09F46CC0F12CEE24E394E801BC
:103B10002196F8018491843740F4843008F051C034
:103B2000813081F0823019F15BC0853709F444C0DF
:103B3000A8F19CE7980F903708F052C08F770E9449
:103B40004C1741C00E5F1F4FFE01C49180E28C0FE5
:103B5000883048F4C7708E2D01C0880FCA95EAF7E7
:103B60000E94042014C08C2F0E9435162DC00E5FB9
:103B70001F4FFE01C49180E28C0F883058F4C7704B
:103B80008E2D01C0880FCA95EAF70E940A200E9474
:103B90002D201AC08C2F0E944C1716C00E5F1F4F8D
:103BA000FE01C491CC2381F08FE99FE00197F1F7EA
:103BB00000C00000C150F6CF0E5F1F4FFE01F49011
:103BC00003C00E9435168E018F2D882309F49FCFE4
:103BD000EFE9FFE03197F1F700C000008150F5CF29
:103BE000DF91CF911F910F91FF90EF90089508956D
:103BF0000C94F71D0E94F81D6093FF017093000262
:103C000080930102909302020C941E1A08950C9462
:103C1000FA1D0F931F930091FF0110910002209154
:103C2000010230910202602B712B822B932B1F918A
:103C30000F910C94FA1D0F931F930091FF011091A7
:103C4000000220910102309102026023712382233D
:103C500093231F910F910C94FA1D0F931F930091C2
:103C6000FF011091000220910102309102026027B1
:103C70007127822793271F910F910C94FA1D0895A5
:103C80000C943F1E0E94401E6093FB017093FC0148
:103C90008093FD019093FE010C941E1A60E070E089
:103CA000CB010C94421E0F931F9341E050E060E063
:103CB00070E08A019B0104C0000F111F221F331FF7
:103CC0008A95D2F7C901B8011F910F910C94421E39
:103CD0000F931F9341E050E060E070E004C0440F98
:103CE000551F661F771F8A95D2F78091FB0190912F
:103CF000FC01A091FD01B091FE018A019B01082BFE
:103D0000192B2A2B3B2BC901B8011F910F910C9441
:103D1000421E0F931F9341E050E060E070E004C04A
:103D2000440F551F661F771F8A95D2F7409550950F
:103D3000609570958091FB019091FC01A091FD012F
:103D4000B091FE018A019B01082319232A233B23FA
:103D5000C901B8011F910F910C94421E0F931F933C
:103D600041E050E060E070E004C0440F551F661F62
:103D7000771F8A95D2F78091FB019091FC01A09169
:103D8000FD01B091FE018A019B01082719272A270E
:103D90003B27C901B8011F910F910C94421E0F934C
:103DA0001F930091FB011091FC012091FD013091C6
:103DB000FE01602B712B822B932B1F910F910C9482
:103DC000421E0F931F930091FB011091FC01209163
:103DD000FD013091FE0160237123822393231F9103
:103DE0000F910C94421E0F931F930091FB011091B1
:103DF000FC012091FD013091FE016027712782278F
:103E000093271F910F910C94421E08952FE0929FCB
:103E1000800D1124A82FA695A695A695877051E030
:103E200001C0550F8A95EAF785E0A89FD0011124BB
:103E300020E030E070E0F901EA0FFB1FE753FE4F8E
:103E40004081CB01022E02C0969587950A94E2F735
:103E500081709927819584278523842780832F5F0C
:103E60003F4F2530310539F708952FE0929F800D9F
:103E70001124682F669566956695982F977085E052
:103E8000689FB001112440E050E080E0FA01E60FA5
:103E9000F71FE753FE4F208130E0092E02C0369510
:103EA00027950A94E2F721703327042E01C0220FD0
:103EB0000A94EAF7822B4F5F5F4F4530510531F787
:103EC0000895BF92CF92DF92EF92FF920F931F93CC
:103ED000CF93DF938C01C090FF01D0900002E0905F
:103EE0000102F09002028091FB019091FC01A091EF
:103EF000FD01B091FE01C82AD92AEA2AFB2ACFE1A6
:103F0000D0E0D701C6010C2E04C0B695A7959795B1
:103F100087950A94D2F780FF07C0BC2EB8018C2F7A
:103F20000E944A0A019719F4219758F7B12C8B2D5A
:103F3000DF91CF911F910F91FF90EF90DF90CF9085
:103F4000BF900895CF93DF93EC010E94611FBE01E3
:103F50000E944A0ADF91CF9108951F93CF93DF9378
:103F6000EB0190919001992321F0CB010E94A21FB7
:103F700013C0882349F0CB010E94611F182F682FBE
:103F8000CE010E94061F04C0CB010E94351F182FCE
:103F9000BE01812F0E944A0ADF91CF911F9108959F
:103FA00080910302859585958595089580910302FA
:103FB0008770089590910302977081E009F480E082
:103FC000089580912702089590912702892B80936C
:103FD00027020895809590912702892380932702D4
:103FE000089510922702089590912602892B8093BC
:103FF00026020895809590912602892380932602B7
:10400000089510922602089590912502892B80939D
:104010002502089580959091250289238093250299
:10402000089510922502089580910402089508953C
:104030000C94172090910402981721F080930402A9
:104040000C941820089580910402882329F010927E
:10405000040280E00C9418200895E0911001F09182
:104060001101809127028083E0911001F0911101EC
:10407000908180912602892B8083E0911001F0913C
:104080001101908180912502892B80838091040207
:10409000882381F0E0911001F09111019081892B2A
:1040A000808380911001909111010E941C21811147
:1040B0000E94232080911001909111010C94DD1435
:1040C00008950C94602098E0899F90011124262B7C
:1040D000209303020E94681E8091030285958595B6
:1040E00085950C9461201092030280E00C9461206D
:1040F000209103028095822380930302982F97706A
:1041000079F430E0482F082E000C550B24173507A2
:1041100039F08595859585950E94891E0C947320AC
:1041200008956FEF7FEF80E090E00C94F22A80E03A
:1041300090E00E94CE2A21E08D3E9E4F09F020E0C3
:10414000822F089582E090E00C94C02A83E090E0F2
:104150000C94C02A84E090E00C94C02A682F84E07C
:1041600090E00C94D42A86E090E00C94C02A682F4A
:1041700086E090E00C94D42AAB01BC018FE090E083
:104180000C94E62AAB01BC0183E190E00C94E62A92
:1041900060E070E0CB010C94C22060E070E0CB01E5
:1041A0000E94BC200C94C8206DEE7EEF80E090E071
:1041B0000E94F22A60E082E090E00E94D42A60E04F
:1041C00083E090E00E94D42A1092FF011092000236
:1041D000109201021092020260E084E090E00E94DE
:1041E000D42A60E085E090E00E94D42A60E086E076
:1041F00090E00E94D42A6FEF87E090E00E94D42ADA
:1042000040E050E0BA0188E090E00E94E62A60E0D9
:104210008DE090E00E94D42A40E050E0BA0188E1AD
:1042200090E00E94E62A60E087E190E00E94D42AB4
:104230000C94CD200C94D420FC01329680911C016A
:10424000882331F08091940287FF02C09EE101C073
:1042500096E080E0915028F021912223D9F38F5FDE
:10426000F9CF08959C01FC0132969FEF80E04191C7
:10427000461789F09F3F19F4411101C0982F8F5FB5
:104280008630A9F79F3F39F0F901E90FF11D97FD3D
:10429000FA95628308950895FC013296089620816C
:1042A000261301C010823196E817F907C1F7089567
:1042B000262F2695269526952E3168F4FC01E20FCF
:1042C000F11D677021E030E001C0220F6A95EAF726
:1042D0008281282B22830895262F269526952695C0
:1042E0002E3170F4FC01E20FF11D677021E030E027
:1042F00001C0220F6A95EAF7209582812823228344
:10430000089520911C01222329F02091940227FD79
:104310000C9458210C94322120911C01222329F065
:104320002091940227FD0C946C210C944C21209137
:104330001C01FC013296222331F08091940287FF08
:1043400002C08EE101C086E0DF011D928A95E9F787
:10435000089508950C94A9210E94AA2180919B029E
:10436000843009F43CC01092290220E488E190E0F6
:104370000FB6F894A895809360000FBE209360005C
:1043800080E00E94960780E00E9412080E944C1371
:1043900080912A0281110AC081E080932A028091D3
:1043A0004F02817080932B020E947A120E94AA21F0
:1043B00083B7817F846083BF83B7816083BF789434
:1043C000889583B78E7F83BF0FB6F894A8958091A8
:1043D0006000886180936000109260000FBE0895B5
:1043E00008950895CF930E94F0210E94320D0E94FB
:1043F000F121C0E08C2F0E94DD0C892B29F4CF5FC6
:10440000C530C1F780E001C081E0CF9108950895E3
:104410000C9407220E942C1A0E94E8220E94D114B8
:104420000E94120810922A0280912B0281110E9490
:1044300044130E948C120C9408221F920F920FB604
:104440000F9211248F939F93AF93BF938091290272
:10445000811113C08091900290919102A0919202DB
:10446000B09193024196A11DB11D8093900290934B
:104470009102A0939202B0939302BF91AF919F914A
:104480008F910F900FBE0F901F90189582E084BD02
:1044900093E095BD9AEF97BD80936E0008952FB776
:1044A000F8948091900290919102A0919202B09123
:1044B00093022FBF0895CF92DF92EF92FF920F9356
:1044C0001F932FB7F8944091900250919102609100
:1044D0009202709193022FBF6A017B01EE24FF24A8
:1044E0008C0120E030E0C016D106E206F30610F49D
:1044F000415051099A01281B390BC9011F910F9195
:10450000FF90EF90DF90CF90089578941F920F92D4
:104510000FB60F9211248F939F93AF93BF93809107
:10452000900290919102A0919202B0919302019613
:10453000A11DB11D8093900290939102A0939202CD
:10454000B0939302BF91AF919F918F910F900FBE47
:104550000F901F90189581E08093E00080E2809397
:10456000D8001092C9008FE19EE40197F1F700C0D6
:10457000000087E090EBDC018093A4029093A502F9
:10458000A093A602B093A7029CE088E10FB6F8942E
:10459000A895809360000FBE90936000FFCF0E94AB
:1045A0009720811102C00E941A210E94A2208093AC
:1045B00028020E94AA2090E0909395028093940292
:1045C0000E94A620682F70E080E090E00C94071E07
:1045D0000E949720811102C00E941A210E94B320DC
:1045E00080939602282F269530E02630310524F05E
:1045F00081708A60809396028091960280FF02C04B
:10460000869501C080E00C94960720919602822F37
:104610008695482F50E04530510544F48F5F982F20
:10462000990F822F8170892B809396028091960238
:104630008160809396020E94B720809196028695B1
:104640000C94960780919602982F969591F0915828
:10465000990F8170892B809396028E7F91E009F4E7
:1046600090E08091960290FB80F9809396020E94E0
:10467000B7208091960286950C94960780919602B9
:1046800080FD11C0816080939602813019F483E02F
:1046900080939602809196020E94B72080919602A4
:1046A00086950C94960708958091960280FF08C025
:1046B0008E7F809396020E94B72080E00C9496072C
:1046C00008958091960280FD0C9454230C943E230F
:1046D00090919602892F86958F5F8F7791708630A3
:1046E00028F4880F892B8093960202C0909396023B
:1046F000809196028E7F91E009F490E0809196027D
:1047000090FB80F9809396020E94B72080919602D8
:1047100086950C949607863008F085E0880F909176
:1047200096029170892B809396028E7F91E009F416
:1047300090E08091960290FB80F9809396020E940F
:10474000B7208091960286950C94960780914C0232
:104750000895089508950895CF93DF93EC010E9482
:104760008025823011F08430D9F580911C01882396
:1047700039F08091940287FF03C060E282E002C0BA
:1047800068E081E08093E9008FEF9091E80081502C
:1047900095FD06C095ED9A95F1F700008111F5CFD2
:1047A0008091E80085FF1CC080911C01811105C02B
:1047B00040E050E068E070E003C070E040E050E0AE
:1047C000CE010E949D258091E8008E778093E800BD
:1047D00080E2FE01ACE2B2E001900D928A95E1F731
:1047E000DF91CF91089580919A02811109C00E94B2
:1047F00032270E948F278091E20084608093E2003C
:10480000089510929A020895089508950C940A222A
:1048100042E061EC81E00E94AC2642E261EC82E081
:104820000C94AC2680919D02833009F460C030F472
:10483000813071F0823009F499C008958A3009F40A
:1048400085C08B3009F46BC0893009F0A7C020C047
:1048500080919C02813A09F0A1C08091E800877F95
:104860008093E8008091A0029091A102892B21F40D
:1048700060E28CE292E003C060E080E090E070E0F3
:104880000E94E8258091E8008B778093E8000895E6
:1048900080919C02813209F081C08091A0029091A8
:1048A000A102029708F07AC08091E800877F809388
:1048B000E8008091E80082FD05C080919B02811193
:1048C000F8CF6CC02091F3008091F20090E0922B21
:1048D000029729F48091F1008B7F813021F480913F
:1048E000F10080934C028091E8008B7753C0809157
:1048F0009C02813A09F052C08091A0029091A102DD
:10490000892B09F04BC08091E800877F8093E800F5
:104910008091E80080FFFCCF80911C0136C080911F
:104920009C028132D9F58091A0029091A102892B3D
:10493000A9F58091E800877F8093E8000E94E12636
:1049400080919E0280931C010C942C1A80919C02F1
:10495000813221F58091E800877F8093E8000E94F2
:10496000E12680919F0280934D02089580919C02E0
:10497000813AA1F48091E800877F8093E8008091DC
:10498000E80080FFFCCF80914D028093F100809180
:10499000E8008E778093E8000C94E126089584B7B0
:1049A000877F84BF0FB6F894A895809160008861D6
:1049B00080936000109260000FBE80E880936100D9
:1049C000109261000E9431150E9432270E948F27A9
:1049D0008091E20084608093E20078940E941E2A15
:1049E0000E94391582E191E00E94CC1480919B02D3
:1049F000853069F40E94AC21809199028823B1F33B
:104A00000E94F221882391F30E948725EFCF0E9414
:104A100045150E944F13EACF0C940E25292F3327FA
:104A200023303105C9F064F42130310581F02230A2
:104A3000310509F04CC08BE390E027EE3CE04BC021
:104A40002132310521F12232310589F140C082E164
:104A500090E022E23DE03FC099278130910571F05E
:104A60002CF4892BA1F5E3EEFCE00DC0823091051A
:104A700041F0039761F5E1ECFCE005C0E3EDFCE0FB
:104A800002C0E7ECFCE0849190E09F0124C0611536
:104A9000710541F061307105D1F489E090E022E1C7
:104AA0003DE019C089E090E029EF3CE014C06115B9
:104AB000710541F06130710551F48BE390E024E31E
:104AC0003DE009C080E490E02FE63DE004C080E0D6
:104AD00090E020E030E0FA013183208308950895CA
:104AE000CF93C82F0E946F25C0934E02CF91089597
:104AF00080919B02843011F081E0089582E0089556
:104B000080914E02811102C00C947825089580E1B5
:104B100089BD82E189BD09B400FEFDCF8091D80036
:104B20008F7D8093D8008091E00082608093E000C8
:104B30008091E00081FDFCCF0895CF92DF92EF924B
:104B4000FF920F931F93CF93DF93EC018B016A01C8
:104B50000E940027811133C0C114D10439F0F6013D
:104B600080819181081B190BC80FD91FE12CF12CF2
:104B70000115110519F18091E80085FD16C080919D
:104B8000E8008E778093E800C114D10449F0F60163
:104B900080819181E80EF91EF182E08285E00FC0EC
:104BA0000E940027882321F30AC089918093F10095
:104BB00001501109FFEFEF1AFF0ADACF80E0DF9111
:104BC000CF911F910F91FF90EF90DF90CF900895BC
:104BD0002091A2023091A3022617370748F06115F1
:104BE000710539F42091E8002E772093E80001C088
:104BF000B90140E061157105A9F120919B022223C2
:104C000009F443C0253009F442C02091E80023FD97
:104C100040C02091E80022FD32C02091E80020FF32
:104C2000E9CF4091F3002091F20030E0342BFC01F9
:104C3000CF016115710559F02830310540F481919B
:104C40008093F100615071092F5F3F4FF1CF41E038
:104C50002830310509F040E02091E8002E772093BC
:104C6000E800C8CF4111C9CF0AC080919B028823B8
:104C700061F0853061F08091E80083FD0AC0809189
:104C8000E80082FFF2CF80E0089582E0089583E09B
:104C9000089581E008952091A2023091A302261781
:104CA000370748F06115710539F42091E8002E7737
:104CB0002093E80001C0B901FC0120E061157105F5
:104CC00091F180919B02882309F440C0853009F45A
:104CD0003FC08091E80083FD3DC08091E80082FDE7
:104CE0002FC08091E80080FFE9CF2091F3008091F0
:104CF000F20090E0922B6115710559F08830910512
:104D000040F424912093F10031966150710901968D
:104D1000F2CF21E0089709F020E08091E8008E773B
:104D20008093E800CBCF2111CCCF0AC080919B02A9
:104D3000882361F0853061F08091E80083FD0AC02E
:104D40008091E80082FFF2CF80E0089582E008952C
:104D500083E0089581E00895982F973058F5909357
:104D6000E900981739F07091EC002091ED00509116
:104D7000F00003C0242F762F50E021FF19C030919E
:104D8000EB003E7F3093EB003091ED003D7F3093A0
:104D9000ED003091EB0031603093EB007093EC004C
:104DA0002093ED005093F0002091EE0027FF07C004
:104DB0009F5FD3CF8F708093E90081E0089580E0FA
:104DC000089580919C0287FF11C08091E80082FDC8
:104DD00005C080919B028111F8CF11C08091E8003D
:104DE0008B770BC080919B02882349F08091E8006B
:104DF00080FFF8CF8091E8008E778093E8000895D7
:104E00002091E4003091E50095E64091EC00842F7C
:104E1000817040FF22C08091E80080FD1CC080911D
:104E20009B02882391F0853091F08091EB0085FD05
:104E300010C04091E4005091E5004217530729F358
:104E40009A01915011F784E0089582E0089583E07B
:104E5000089581E0089580E008954091E80042FFC0
:104E6000DECF08950E94A0270E94A827E0EEF0E080
:104E7000808181608083E8EDF0E080818F7780839E
:104E800019BCA7EDB0E08C918E7F8C9380818F7ED2
:104E9000808310929A0208950F931F93CF93DF930C
:104EA0000E94A0270E94A827C8EDD0E088818F77B4
:104EB000888388818068888388818F7D888319BCF6
:104EC00010929B02109297021092990210929802EF
:104ED00000EE10E0F80180818B7F80838881816003
:104EE000888342E060E080E00E94AC26E1EEF0E0E2
:104EF00080818E7F8083E2EEF0E08081816080831C
:104F0000808188608083F80180818E7F80838881A2
:104F100080618883DF91CF911F910F910895E8ED13
:104F2000F0E080818F7E8083E7EDF0E0808181601A
:104F3000808384E082BF81E080939A020C944C27A6
:104F4000E8EDF0E080818E7F80831092E20008958A
:104F50001092DA001092E10008951F920F920FB69E
:104F60000F9211242F933F934F935F936F937F93EF
:104F70008F939F93AF93BF93EF93FF938091E10043
:104F800082FF0BC08091E20082FF07C08091E100A8
:104F90008B7F8093E1000E941D2A8091DA0080FFC0
:104FA0001FC08091D80080FF1BC08091DA008E7FE7
:104FB0008093DA008091D90080FF0DC080E189BD27
:104FC00082E189BD09B400FEFDCF81E080939B02A0
:104FD0000E94F32305C019BC10929B020E94012479
:104FE0008091E10080FF19C08091E20080FF15C030
:104FF0008091E2008E7F8093E2008091E2008061E8
:105000008093E2008091D80080628093D80019BC20
:1050100085E080939B020E9405248091E10084FF3B
:1050200030C08091E20084FF2CC080E189BD82E124
:1050300089BD09B400FEFDCF8091D8008F7D80939B
:10504000D8008091E1008F7E8093E1008091E200A2
:105050008F7E8093E2008091E20081608093E20085
:1050600080919702882311F084E007C08091E300CB
:1050700087FD02C081E001C083E080939B020E9413
:1050800006248091E10083FF29C08091E20083FF24
:1050900025C08091E100877F8093E10082E08093CA
:1050A0009B02109297028091E1008E7F8093E10035
:1050B0008091E2008E7F8093E2008091E200806127
:1050C0008093E20042E060E080E00E94AC268091A4
:1050D000F00088608093F0000E940424FF91EF911B
:1050E000BF91AF919F918F917F916F915F914F9100
:1050F0003F912F910F900FBE0F901F9018951F9208
:105100000F920FB60F9211242F933F934F935F93FB
:105110006F937F938F939F93AF93BF93CF93DF93BF
:10512000EF93FF93C091E900CF708091EC00D82FEE
:10513000D17080FDD0E81092E9008091F000877F67
:105140008093F00078940E94C3281092E900809127
:10515000F00088608093F000CD2BCF70C093E90001
:10516000FF91EF91DF91CF91BF91AF919F918F917F
:105170007F916F915F914F913F912F910F900FBE53
:105180000F901F9018951F93CF93DF93CDB7DEB785
:10519000AA970FB6F894DEBF0FBECDBFECE9F2E0E0
:1051A00088E08E0F9091F10091938E13FBCF0E94B7
:1051B00012248091E80083FF28C180919C02909185
:1051C0009D02492F50E04A30510508F01EC1FA01F6
:1051D000E556FF4F0C94932A803821F0823809F06D
:1051E00014C108C08091980290919902992389F086
:1051F00082600FC08091A0028F70873008F005C1D7
:105200008093E9008091EB0085FB882780F910925C
:10521000E9009091E800977F9093E8008093F10077
:105220001092F100D0C0282F2D7F09F0EEC0882306
:1052300019F0823061F0E9C080919E02813009F05E
:10524000E4C0933009F080E0809399022EC08091F1
:105250009E0281112AC08091A0028F702FEF280F2B
:10526000263008F0D2C08093E9002091EB0020FFA7
:105270001CC0933021F48091EB00806214C09091A7
:10528000EB0090619093EB0021E030E0A90102C0B7
:10529000440F551F8A95E2F74093EA001092EA0006
:1052A0008091EB0088608093EB001092E900809180
:1052B000E800877F8093E8000E94E126A6C0811164
:1052C000A4C010919E021F778091E3008078812B0B
:1052D0008093E3008091E800877F8093E8000E943C
:1052E000E1268091E80080FFFCCF8091E300806898
:1052F0008093E300111102C082E001C083E080933B
:105300009B0283C08058823008F07FC080919E024B
:1053100090919F028C3D53E0950779F583E08A8355
:105320008AE289834FB7F894DE01139620E03EE0CD
:1053300051E2E32FF0E050935700E49120FF03C0C7
:10534000E295EF703F5FEF708E2F90E0EA3010F043
:10535000C79601C0C0968D939D932F5F243149F766
:105360004FBF8091E800877F8093E8006AE270E099
:10537000CE0101960E94E82515C06091A0027091AF
:10538000A102AE014F5F5F4F0E940C25BC01892B2B
:10539000E1F19091E800977F9093E80089819A81EC
:1053A0000E944B268091E8008B778093E8002DC007
:1053B000803859F58091E800877F8093E8008091DC
:1053C00097028093F1008091E8008E7773CF81116E
:1053D0001CC090919E029230C0F48091E800877FBB
:1053E0008093E800909397020E94E12680919702B3
:1053F000811106C08091E30087FD02C081E001C0F9
:1054000084E080939B020E9408248091E80083FF3F
:105410000AC08091E800877F8093E8008091EB00CC
:1054200080628093EB00AA960FB6F894DEBF0FBEA1
:10543000CDBFDF91CF911F9108950895CF938091B3
:105440009B028823A1F0C091E900CF709091EC00FD
:10545000892F817090FD80E8C82B1092E90080911F
:10546000E80083FD0E94C328CF70C093E900CF916C
:105470000895DB018F939F930E94A82ABF91AF915B
:10548000A29F800D911DA39F900DB29F900D11249E
:105490000895AA1BBB1B51E107C0AA1FBB1FA6177B
:1054A000B70710F0A61BB70B881F991F5A95A9F7CD
:1054B00080959095BC01CD01089597FB072E16F4B9
:1054C000009407D077FD09D00E94492A07FC05D037
:1054D0003EF4909581959F4F0895709561957F4F0B
:1054E0000895A1E21A2EAA1BBB1BFD010DC0AA1F25
:1054F000BB1FEE1FFF1FA217B307E407F50720F03D
:10550000A21BB30BE40BF50B661F771F881F991FB7
:105510001A9469F760957095809590959B01AC0100
:10552000BD01CF010895EE0FFF1F0590F491E02D0E
:105530000994A29FB001B39FC001A39F700D811D6C
:105540001124911DB29F700D811D1124911D08958C
:105550000E94992AA59F900DB49F900DA49F800D45
:10556000911D11240895FC014150504030F00190EC
:105570000616D1F73197CF01089588279927089506
:10558000F999FECF92BD81BDF89A992780B508950B
:10559000A6E1B0E044E050E00C94FA2AA8E1B0E0C3
:1055A00042E050E00C94FA2A262FF999FECF92BDE2
:1055B00081BDF89A019700B4021639F01FBA20BDD8
:1055C0000FB6F894FA9AF99A0FBE08950396272F0A
:1055D0000E94D52A0E94D42A252F0E94D52A242F42
:1055E0000C94D52A0196272F0E94D52A0C94D42AF0
:1055F000DC01CB01FC01F999FECF06C0F2BDE1BD93
:10560000F89A319600B40D9241505040B8F7089581
:04561000F894FFCF3C
:10561400010214141401191A1B1C1D1E1F2021221F
:105624000502A623AC23A923AA23AB2301F0F1C6C8
:105634006766379431303534979633F4909192936A
:105644009500010202020206060609090909090970
:105654000F0F0F0F0F0F15151518191919191919FF
:0656640019191919232495
:00000001FF
